:1000000000000320D1010000FD860000B58600003D
:10001000B5860000B5860000B5860000B5860000F4
:10002000B5860000B5860000B5860000FD8600009C
:10003000FD860000B5860000859A0000899B0000BF
:10004000FD860000FD860000FD860000FD860000A4
:10005000FD860000FD860000FD860000FD86000094
:10006000FD860000FD860000FD860000FD86000084
:10007000FD860000FD860000FD860000FD86000074
:10008000FD860000FD860000FD860000FD86000064
:10009000FD860000FD860000FD860000FD86000054
:1000A000213200002D320000FD860000FD86000098
:1000B000FD860000FD860000FD86000001A5000011
:1000C000FD860000DDA20000FD860000F9A700000B
:1000D000FD86000009A40000FD860000FD860000EA
:1000E000FD860000FD860000FD860000FD86000004
:1000F000FD860000FD860000FD860000FD860000F4
:10010000FD860000FD860000FD860000FD860000E3
:10011000FD860000FD8C0000FD860000FD860000CD
:10012000FD860000FD860000FD860000FD860000C3
:10013000FD860000FD860000FD860000FD860000B3
:1001400069A00000FD860000E5A10000FD8600001A
:10015000FD860000FD860000FD860000FD86000093
:10016000FD860000FD86000039320000FD8600009B
:10017000FD860000FD860000FD860000FD86000073
:10018000FD860000FD860000FD860000FD86000063
:10019000FD860000FD8600002DA60000FD86000003
:1001A000FD860000FD860000FD860000FD86000043
:1001B000FD860000FD860000FD860000FD86000033
:1001C000FD860000FD860000FD860000FD86000023
:1001D000594B4CF2205210B51A804DF628121A8055
:1001E00000BF00BF08F08EFA544B4FF030621A6027
:1001F000534A9A60534ADA60534B4FF470021A60C4
:10020000524B534A1A60534B1A78110703D51A7888
:1002100042F008021A70504B5049AA221A70504AF4
:10022000504B8B4204D252F8040F43F8040BF8E70A
:100230004D4B4E4900228B4202D243F8042BFAE781
:100240004B494C4A002352F8230041F82300013364
:10025000742BF8D1484B494A802103F8011B934283
:10026000FBD1474B424A1A60464B8A221A70A3F5CB
:10027000805324225A70A0221A709A799207FCD5D2
:100280009A79D406FCD4404A937903F00C03082BE6
:100290003D4BF9D101221A7148225A719A79900680
:1002A000FCD5394A9179384B4906FBD5374A38494C
:1002B00011600221516020221A709A7902F00C021A
:1002C0000C2AFAD1334B344A1A60344A344C13683E
:1002D00013F4807303D123604FF4A8531360314BA0
:1002E000314A1A6000225A60072243F8042C2F4A30
:1002F000C3F80C2D62B608F02BFB2368DA0705D58E
:100300002B4808F089FA2B4B2B4A1A602B4B1B7891
:100310005B0609D5274C284B22689A4204D1244811
:1003200008F07AFA002323600BF0BEFA08F0F0F927
:1003300009F02CFDFEE700BF0E2005403080044090
:10034000823F04000100002B88ED00E0002008E05F
:100350000300008502D0074000E0074080790120BB
:10036000C03B0100306D01208079012040CE01208A
:10037000006801200000000000E400E064E400E008
:1003800008ED00E000500640004006404480044074
:100390000000030104800440C010050010D0034099
:1003A00014D0034014E000E0FF760100000020209C
:1003B000310000001CE00340A5C3945A00F0074040
:1003C000FFFFFFFFFFFFFFFFFFFFFFFFFFFFFFFF3D
:1003D000FFFFFFFFFFFFFFFFFFFFFFFFFFFFFFFF2D
:1003E000FFFFFFFFFFFFFFFFFFFFFFFFFFFFFFFF1D
:1003F000FFFFFFFFFFFFFFFFFFFFFFFFFFFFFFFF0D
:10040000FFFFFFFFFFFFFFFFFFFFFFFFDEF9FFFF23
:1004100010B5054C237833B9044B13B10448AFF33E
:1004200000800123237010BD8079012000000000AE
:10043000BC3B0100084B10B51BB108490848AFF39D
:1004400000800848036803B910BD074B002BFBD0A0
:10045000BDE81040184700BF00000000847901206B
:10046000BC3B0100807901200000000000207047A3
:10047000704700BF4FF0FF30704700BF044A054986
:100480001378002043F0200313700860704700BF0A
:100490000DC007401CD003402DE9F0410F46164621
:1004A000804602F0CFFA044602F0BCFA054602F09C
:1004B000A9FAA4F2BC739BB27F2B02D8EAB20C2A31
:1004C0002BD90023A8F8003002F06CFA044602F0A1
:1004D00079FA054602F086FAE3B2172B02D8EBB29E
:1004E0003B2B0BD900233B8002F07CFA10F0010F6C
:1004F00014BF642300233370BDE8F081C3B23B2BEB
:10050000F0D8E4026B0104F4FF2403F4FF53234307
:10051000C0F3460003439BB2E5E7C0B21F28D0D822
:100520006D0105F4FF55284340EA43239BB2C9E718
:1005300010B5054BC0F8AC34044600F2BC4006F0E0
:1005400097F9204610BD00BF042D010010B50446E8
:1005500009F034FD204610BD10B50021044609F015
:10056000EDFCA8B1B4F84C329BB293B1B4F8483268
:10057000B4F84A2201339BB2892B28BF002392B2E0
:1005800093420AD003F1080244F82200A4F848324A
:1005900010BDBDE8104009F08DBC09F08BFCA369CB
:1005A0000133A36110BD00BF70B582B002F0FAF94B
:1005B000054602F007FA064602F014FA054C0090D0
:1005C00033462A46204604490BF0DCFF204602B0A1
:1005D00070BD00BFF4C00120442D010070B582B091
:1005E00002F030FA054602F01DFA064602F00AFA59
:1005F000054C009033462A46204604490BF0C2FFC2
:10060000204602B070BD00BFF4C00120542D01008F
:10061000826C62B1137803F0080303F0FF0003B3A8
:10062000D3695069181A48BF6FF000407047C16C19
:10063000C1B191F8313003F0080303F0FF0083B13A
:10064000D1E90423D1E90001101A30B463EB0101B0
:1006500000256FF000448D4208BF844200D220463E
:1006600030BC704708467047836C13B1184605F0DC
:1006700075B9C06C08B103F0D7BD4FF0FF307047BB
:10068000836C13B1184605F055BAC06C08B104F07C
:1006900079BC704700B5836C83B063B11846012202
:1006A0000DF1070105F08EF801280CD19DF8070027
:1006B00003B05DF804FBC06C28B101220DF1070105
:1006C00003F0E2FCF0E74FF0FF30F1E7836C13B189
:1006D000184605F071BAC06C08B104F0B1BD70479E
:1006E00000B5836C83B08DF8071043B11846012222
:1006F0000DF1070105F060FA03B05DF804FBC06C72
:100700000028F9D001220DF1070104F099FD03B092
:100710005DF804FB70B5044608460D460CF050F831
:1007200023680246294620465B68BDE870401847AA
:1007300038B5044608460D460CF042F823680246D8
:1007400029465B68204698470546204609F0B4FADA
:10075000284438BD2DE9F843814680682DED048B8F
:10076000013008EE901A002108EE102A0AF08EFEE1
:10077000DFED237A9FED239A07EE100AC7EE876A12
:10078000012080460124002540F201160027F8EEE2
:10079000687AB8EE488AB7EE007A68EE277AC6EE35
:1007A000A78A07EE904AF8EEE77A67EEA87ABDEEE0
:1007B000E78AB8EEC88A37EEC88AB4EEC78AF1EE87
:1007C00010FA0BD5F4EEC97AF1EE10FA06D517EE51
:1007D000900A0AF0B1FEA046B0EE487A013445F125
:1007E0000005BD4208BFB442DBD1BDEC048B08F16B
:1007F000FF330138C9F80030C9F80400BDE8F883B8
:10080000001B374C00008045F0B5082A8BB00CBFA8
:10081000002301230E461446074601FB02F201465F
:1008200007A80993FFF796FFDDED077A089ADFED39
:100830002D6A099D079B0196B8EE677A0132F7EEA3
:10084000007A77EE277A07EE102A67EEA67AB8EEDE
:10085000477A0135C7EE876A591C02913B460392DD
:100860000495214A2149224807EE905AB6EE006AC3
:10087000B8EE677A66EE866A07EE904A86EE876A79
:100880001C4D1D4C07EE106AF8EEE77AB8EEC77AF9
:1008900067EE877A86EE277ABDEEC77A8DED007A0D
:1008A00009F022FA154916480B6823F010430B6033
:1008B000079A089B120302F47F22C3F30B0313432E
:1008C0002B609DF8243043F0E06323609DF82430D2
:1008D00043F08E4303600B6843F010430B600BB092
:1008E000F0BD00BF001BB74C00D8B805642D010057
:1008F000246F012004F1024008F0024080F0024021
:1009000088F002402DE9F04786B0054602F09AF8DB
:10091000064602F087F8824602F074F8074602F0B5
:1009200041F8804602F04EF8814602F05BF80F4C29
:100930000F49049033462A460591CDF800A00D4991
:10094000CDF80C90CDF80880019720460BF01AFEE8
:1009500020460BF035FF0146204607F037FD0648DC
:1009600009F0AAF9204606B0BDE8F087B4C001201E
:100970003C6D01207C2D0100246F0120144B154992
:10098000154AF0B4DA61024603C9144E186096E8BD
:100990000300134D986095E80300124CD86094E86A
:1009A00003002C3A22F0070202F124070126042555
:1009B0004BF68034586208219A6210225F609E8252
:1009C000DD829C61184619841A615A84F0BC704714
:1009D00018C10120C02D010000770100C82D0100C1
:1009E000D02D0100D82D010070B5044600F59165A9
:1009F00028464FF0000107F055F8C4F8845425B19B
:100A0000284606F0FFFB054678B10F4E0F4D012139
:100A100020240D2007F026FF3460C82007F04AFF8D
:100A20002C60C82007F046FFF1E7D4F88414204674
:100A300005F072FF0028E8D0054B064AA4F8FE54E2
:100A4000A4F8FC541A6070BD84F00F4088F00F4089
:100A5000F8C80120990400002DE9F0470546D0F8B8
:100A6000F404002849D005F06BF8D5F8F434002BD5
:100A70004CD0D3F81CA04FF00009D0465046FFF7E9
:100A80007DFF3A4F044600F1200E20686168A2689D
:100A9000E3683E460FC6103474453746F5D12068EA
:100AA0006168A26807C7D5F8F404002848D000217F
:100AB00004F08AFFD5F8F40488B34FF400722B4990
:100AC00005F07AF8D5F8F404002835D1D5F8F80403
:100AD00018B142464B4603F0BFFB05F2BC4005F09F
:100AE000C7FE0B21224807F071FC224809F0E4F808
:100AF0000020A5F8FC04BDE8F087D5F8F80440B361
:100B000004F02CFBD5F8F434002BB2D1D5F8F8342E
:100B10002BB3D3E904894FF00009C246AEE7D5F8FC
:100B2000F8040028D9D04FF40072104904F088FB73
:100B3000D5F8F4040028C9D0514604F045FFCCE7AD
:100B4000D5F8F8040028C8D00022002303F084FB65
:100B5000B0E782464FF000084FF000098EE79A4652
:100B60004FF000084FF0000988E700BFB47E012075
:100B7000E02D0100246F01202DE9F04F444C8BB093
:100B80002468DDF85090019305468A46904600F2AD
:100B9000BC4B34B1214640F201633E4A584605F051
:100BA0007BFEB8F1000F70DDAAF10407002602AC4D
:100BB00004E005F001F80136B0451CD057F8042FC9
:100BC000354920460BF0DEFC20460BF0F9FDD5F848
:100BD000F4348646024621461846002BE9D1D5F862
:100BE000F834724621461846002BE4D0013604F052
:100BF00027FBB045E2D1B9F1000F25DD019B0026AE
:100C00001F1F04E004F0D8FF0136B1451CD057F88F
:100C1000042F214920460BF0B5FC20460BF0D0FDF7
:100C2000D5F8F4348646024621461846002BE9D111
:100C3000D5F8F834724621461846002BE4D0013628
:100C400004F0FEFAB145E2D10AEB880213492046CE
:100C50000BF098FCD5F8F40448B12146062204F0C4
:100C6000ABFF584605F004FE0BB0BDE8F08FD5F899
:100C7000F8040028F5D02146062204F0E1FA58468F
:100C800005F0F6FD0BB0BDE8F08F02ACB3E700BF96
:100C9000FCC80120EC2D0100002E0100F82D010000
:100CA0002DE9F04F3E4C8BB02468DDF85090002CBD
:100CB0003BD000F2BC4B019390468A460546214644
:100CC00058460023374A05F0E7FD70B3B8F1000F2E
:100CD0002EDD5746002602AC0BE004F073FD3A46C9
:100CE0000136314920460BF073FCB04507F104078B
:100CF0001FD0D5F8F4340C2221461846002BECD135
:100D0000D5F8F8340C2221461846002BE7D003F022
:100D1000BBF9E4E7D5F8F40470B30622214604F0E9
:100D200051FD90BB584605F0A3FD0BB0BDE8F08F18
:100D300002ACB9F1000FEDDD019F00260BE004F0DD
:100D400041FD3A460136184920460BF041FCB145B9
:100D500007F10407DED0D5F8F4340C2221461846FA
:100D6000002BECD1D5F8F8340C2221461846002B84
:100D7000E7D003F089F9E4E7D5F8F80428B10622B2
:100D8000214603F081F90028CCD000230AEB880229
:100D9000204606498DF80D300BF01AFCC2E700BF63
:100DA000FCC80120EC2D0100082E01009C2D010043
:100DB0002DE9F0414D4C4E4A23684E49DFF87881C9
:100DC0004D4E43F00053236013684C4C43F4807342
:100DD00007461360152007F017FD494BDFF85CC18B
:100DE00048494948494ADFF858E120251D704FF429
:100DF0000013CCF800302360454B00248EF80040EF
:100E00006FF47F7C0C70047014701C700C71A1F571
:100E100053316144047114711D710B683D4ADFF850
:100E200024C143F080630B60136843F08043136078
:100E300001F5405102F54052AEF54B3EA0F54B3066
:100E4000AEF57E7EA0F2F63004310C32324BC8F89B
:100E50000040CCF80040CEF8004004600C60146004
:100E60001B68A1F55041A2F54F42F03A3B440B609C
:100E7000136843F00403136008F08EFE23460A2231
:100E80003946304608F03EFF304608F015FF012194
:100E90000D2007F0E7FC214B214E1D604FF47A70C6
:100EA00007F008FD1F4B204F1D6072791F4D204831
:100EB0002049A3F5012302F0DF027271873B022271
:100EC0003A701A7802F0F8021A701A7842F00402A6
:100ED0001A702C701B78036823F0020303600B6800
:100EE00043F004030B6030BFBDE8F0813C80044058
:100EF00010D003407D040000246F012000E100E0D9
:100F000015E400E001C0074002C0074003C00740ED
:100F100004C007400070044000D0034084F00F403C
:100F20000040064088F00F4000E0074002E0074024
:100F300010E000E010ED00E00090044080E200E0EE
:100F400000C0074004900440F8B506460D4601F085
:100F5000D9FC044601F026FDB789B6F818E0338ABB
:100F6000B18A774580B210D988423DD3002D3368CD
:100F7000B268F06957DB42D0534DB2882B681344F6
:100F80009C4280F096800020F8BDB84201D3984280
:100F9000ECD3884240D24D4A4D4DA2FB0462120C64
:100FA000984205FB124201D388425FD3002470456A
:100FB00001D3774552D3B84204D24FF4616000FBAD
:100FC00007F0841A00230A222146424808F09AFEBC
:100FD000404808F071FE0F213F4807F0F7F93D48FF
:100FE00008F06AFE20B2F8BD7045BFD3B842D2D334
:100FF00098422CBF00220122002ACCD0B6E7374904
:101000000F88002F3AD09BB292B2934202D203448F
:101010009C423AD22846F8BD70452CBF00220122DE
:10102000002AB8D0A2E710FA83F39C42ABD910FA99
:1010300082F29442A7D2141B00230A22214625489B
:1010400008F060FE234808F037FE0F21244807F01F
:10105000BDF9204808F030FE20B2F8BD07F11804B1
:101060004FF4616303FB04F18C1AA4E74FF461634E
:1010700003FB01F39A4299D29C1A98E7124AF46151
:101080000123284614600B80F8BD0244141B2B4634
:101090000A2221460F4808F035FE0E4808F00CFEE3
:1010A0000F21104807F092F90A4808F005FE20B217
:1010B000F8BD11210C4807F089F9064808F0FCFD3D
:1010C0002C604FF0FF30F8BDF0C0012007452EC264
:1010D00080510100246F0120742E01009CC5012065
:1010E000642E0100542E0100402E01002DE9F04332
:1010F000B54D83B007F040F90028FBD007F000F9A8
:10110000C4B22146B1480BF091FA0028F2D03F2C2E
:101110000FD040F3AF80612C00F05E81782CE9D1D4
:10112000AB4809F045F800B20028E3D003B0BDE8B1
:10113000F08307F021F90028FBD007F0E1F8C4B2F2
:101140002146A4480BF072FA0028D3D0313C462C3B
:10115000D0D801A353F824F0611500006D150000EC
:101160007915000085150000F5100000F51000004D
:10117000F5100000F5100000F5100000F51000005B
:10118000F5100000F5100000F5100000F51000004B
:10119000F5100000F5100000F5100000F51000003B
:1011A000F5100000F5100000F5100000F51000002B
:1011B000F5100000F5100000F5100000F51000001B
:1011C000F5100000F5100000F5100000F51000000B
:1011D000F5100000F5100000F5100000F5100000FB
:1011E000F5100000F5100000F5100000F5100000EB
:1011F000F5100000F5100000F5100000F5100000DB
:10120000F5100000F5100000F5100000F5100000CA
:10121000F5100000F510000091150000F510000019
:101220009D150000AB150000BB150000F510000077
:10123000F5100000C9150000D7150000F5100000DA
:10124000E5150000F5100000F5100000F315000092
:10125000FF1500000B160000F51000001916000025
:101260002516000033160000F5100000F5100000F0
:1012700043160000212C7FF43DAF05F10C0696E8E3
:10128000C00107F079F80028FBD007F039F8C4B2A4
:10129000214650480BF0CAF900283FF42BAF313CEF
:1012A000462C3FF627AF01A353F824F05116000057
:1012B00069160000091700001F170000F510000054
:1012C000F5100000F5100000F5100000F51000000A
:1012D000F5100000F5100000F5100000F5100000FA
:1012E000F5100000F5100000F5100000F5100000EA
:1012F000F5100000F5100000F5100000F5100000DA
:10130000F5100000F5100000F5100000F5100000C9
:10131000F5100000F5100000F5100000F5100000B9
:10132000F5100000F5100000F5100000F5100000A9
:10133000F5100000F5100000F5100000F510000099
:10134000F5100000F5100000F5100000F510000089
:10135000F5100000F5100000F5100000F510000079
:10136000F5100000F5100000F51000003D1700001A
:10137000F51000006918000081180000DB1800005B
:10138000F5100000F5100000F718000059170000D4
:10139000F510000075170000F5100000F5100000B2
:1013A00091170000A9170000C5170000F5100000F4
:1013B000D7170000F31700000F180000F510000009
:1013C000F510000045150000646D0120842E010019
:1013D000246F01208C2E01002B68AB49AB48AC4E2A
:1013E0006F2208F081FC22466B68AA49A74808F0E2
:1013F0007BFCAB68A849A548722208F075FCEB6835
:10140000A649A248312208F06FFC2B69A4499F48E5
:10141000322208F069FC6B69A2499C48332208F02B
:1014200063FCAB69A0499948342208F05DFC9748F9
:1014300008F042FC9D4B9E4994486E2208F054FCF3
:10144000FFF7CCF8642203469A49904808F04CFC18
:10145000FFF7AAF87422034697498C4808F044FC29
:101460008A4808F029FC336894498848632208F0C8
:101470003BFC736892498548682208F035FCB368E4
:1014800090498248772208F02FFCF3688E497F4804
:10149000732208F029FC33698C497C48652208F0E6
:1014A00023FC73698A497948692208F01DFCB369F5
:1014B000884976486B2208F017FCF369864973481F
:1014C000702208F011FC714808F0F6FB17218348E0
:1014D00006F07CFF6D4808F0EFFB4021804806F0E5
:1014E00075FF6A4808F0E8FB20217E4806F06EFF91
:1014F000664808F0E1FB58217B4806F067FF634827
:1015000008F0DAFB2621794806F060FF5F4808F012
:10151000D3FB4521764806F059FF5C4808F0CCFB28
:101520003221744806F052FF584808F0C5FB2B21C1
:10153000714806F04BFF554808F0BEFB534808F0D1
:10154000BBFBD7E5514808F033FE0028C0F21382F8
:10155000B0F5003FA8BF4FF400304D4B9860C9E58F
:10156000EA686649494808F0BFFBC3E52A69634950
:10157000464808F0B9FBBDE56A696049434808F090
:10158000B3FBB7E5AA695D49404808F0ADFBB1E59A
:101590006A685A493D4808F0A7FBABE53C4B5849FF
:1015A0001A683A4808F0A0FBA4E5FFF717F8554978
:1015B0000246364808F098FB9CE5354B50491A69BD
:1015C000324808F091FB95E5314B4D495A682F4858
:1015D00008F08AFB8EE52E4B49495A692B4808F0E2
:1015E00083FB87E52A4B46499A69284808F07CFB2B
:1015F00080E52E4A4349254808F076FB7AE52A68BB
:101600003E49224808F070FB74E5214B3C49DA69F9
:101610001E4808F069FB6DE5AA6838491B4808F0C8
:1016200063FB67E51A4B3649DA68184808F05CFB3B
:1016300060E5FEF7B9FF33490246144808F054FB51
:1016400058E5134B2E499A68104808F04DFB51E5B8
:101650000E4808F0ADFD0028C0F28B811828034623
:10166000A8BF1823EB6045E5084808F0A1FD172E38
:1016700000F35781864205DC1828C8BF182000F304
:101680005381064630464FE1B02E0100246F012001
:10169000446D0120C42E0100D82E0100EC2E010063
:1016A000002F0100182F01002C2F0100846D012054
:1016B000402F0100502F0100602F0100702F01000A
:1016C0008C2F0100A02F0100B82F0100D02F0100A6
:1016D000EC2F0100043001002430010040300100F3
:1016E000583001009C300100C03001001C31010065
:1016F000443101008C310100C0310100A02E0100F5
:10170000A82E0100F82D0100A84808F051FD172F60
:1017100000F30281874240F31E816F61EAE4A3482F
:1017200008F046FD4645444640F30181804503DC10
:101730008642C0F20D810446264609E19B4808F026
:1017400037FD0028C0F21381B0F5003F0346A8BF63
:101750004FF400336B60CDE4944808F029FD002875
:10176000C0F22281B0F5003FA8BF4FF40030904B8B
:101770005861BFE48D4808F01BFD0028C0F21281BB
:10178000B0F5003FA8BF4FF40030894B9861B1E439
:10179000884C261D06F0B4FD04F8010FB442F9D1BF
:1017A000002385F82430A5E4804808F001FD0028D6
:1017B000C0F2F680B0F5003F0346A8BF4FF40033F7
:1017C0002B6097E4794808F0F3FC794B1828A8BF00
:1017D0001820D8618EE4754808F0EAFC0028C0F2B1
:1017E000DD80B0F5003F0346A8BF4FF40033AB6087
:1017F00080E46E4808F0DCFC0028C0F2CD80B0F533
:10180000003FA8BF4FF40030694BD86072E46748CE
:1018100008F0CEFC041EC0F2BD80172CA8BF172410
:10182000624808F0C5FC061EC0F2B2803B2EA8BF7D
:101830003B265E4808F0BCFC071EC0F2A7803B2F89
:10184000A8BF3B2701F0DEF8804601F0EBF88146A7
:1018500001F0F8F8CDF80090019043463A46314641
:10186000204601F001F945E4504808F0A1FC0028A9
:10187000C0F28A800128A8BF01204D4B186039E4CE
:101880004A4808F095FCB0F5FA6F044641DB40F693
:10189000B8339842A8BF1C46444808F089FC071E8C
:1018A0006BDD0C2FA8BF0C27404808F081FC061EFA
:1018B0005BDD1F2EA8BF1F2601F074F8804601F0E3
:1018C00081F8814601F08EF849460246019440466F
:1018D0000097334601F0C8F80CE4344808F068FC7F
:1018E00000284FDBB0F5003FA8BF4FF40030304B6D
:1018F0001861FFF7FFBB2D4808F05AFC431C3EDB84
:10190000B0F5003FA8BF4FF40030294B5860FFF7F7
:10191000F1BB4FF4FA64BFE71828A8BF18200746A8
:10192000FBE61828A8BF18202861FFF7E3BB0028B2
:1019300017DB1828A8BF1820864214DA804512DD6C
:1019400006EB080303EBD373B0EB630FC8BF464647
:10195000AE61FFF7CFBB1828C8BF18273FF7DDAE31
:10196000DDE70020E8E70646F2E70126A4E70023CA
:10197000F0E6002376E60020EFE5012794E74FF03C
:10198000FF30C2E70020B2E7002076E7002759E7E2
:1019900000264EE7002443E7002035E7002326E732
:1019A00000230DE70020F0E60020E0E6246F012090
:1019B000446D0120836D01202DE9F041022182B0A8
:1019C000032006F04FFF4E4C4E4D4F4F4F4E2378A5
:1019D0000320002B00F08D802B78DA0740F18980FE
:1019E0003B6832689B1A0E2B40F2838012214848D4
:1019F000484D06F0EBFC484808F05EF940F25721EC
:101A0000464808F0CDF9464A4648136823F010438B
:101A100013600824FEF7E8FF2B4600942246424953
:101A20004048FFF73DF9414B1B68DB0408D4FFF742
:101A30005DFB009422462B463B493A48FFF79CF851
:101A40004FF0FF313848FFF77FFA002806DD384AAB
:101A5000136823F400431360FFF7AAF9042210214E
:101A60004BF68030FEF7D0FE6B6832493248334E79
:101A7000002B334BACBF00224FF6FF721A800AF0E6
:101A80003DFE00252F46336803EB0508D8F84402D5
:101A900018B108F00FFAC8F84472B8F84A42B8F81A
:101AA0004832A4B29BB29C420FD00134A4B2882C1D
:101AB00088BF00242346083358F8230008F0FAF9B9
:101AC000B8F848329BB2A342EFD105F51475012353
:101AD000B5F5146FA8F84A42A8F84C32D3D10C21BE
:101AE000184806F073FC0C4802B0BDE8F04108F05D
:101AF000E3B806F0A9FE00283FF469AF76E700BF1F
:101B000040CA012058C901205CC9012030CE012003
:101B1000EC310100446D0120246F01200002FF1F01
:101B200080F002409C790120646D012010F00F408C
:101B30003C800440846D01209E7E0120B07E012007
:101B4000346D0120003201000546D0F8840408B548
:101B50000C46B8B103685B6A984798B9D5F87834F1
:101B600023B1DB794BB108F017F8FCE7D5F87C34EA
:101B70001BB193F83C34002BF5D120461549FEF7F4
:101B8000D7FDF0E714492046FEF7C4FDD5F88404DC
:101B9000F0B103685B6A9847014600231022204693
:101BA00008F0B0F80D492046FEF7B4FDD5F88404DE
:101BB00060B103689B6A9847C1B200231022204697
:101BC00008F0A0F8204608F077F8CCE70146F4E7E3
:101BD0002921E2E720320100103201001C3201000D
:101BE000074C08B505460E4620460649FEF792FD0D
:101BF00031462046FEF79CFD21462846FFF7A4FF0C
:101C0000246F01203432010070B50446B0F9FC04A1
:101C10000E46154630B1431E9BB2012B25D9032831
:101C20005CD070BD04F20250FEF76CFE00285BD061
:101C3000334B196800293ED0024640F2026304F299
:101C4000BC4004F029FEB0B3D4F8F40428B34FF03C
:101C5000207103F021FD50B34FF400723146294842
:101C600006F0B4FA0023A4F8FE34D4F8F4040223F6
:101C70006D00A4F8FC3410B331462A4603F09CFFF3
:101C8000A84238D1B4F8FE34B4F900250133A4F8E1
:101C9000FE34EAB9B4F9FC04C1E7D4F8F80430B171
:101CA0004FF02072002303F013FA0028D4D120460D
:101CB0001549FFF795FF20461449FFF791FFD4F827
:101CC000F8040028DCD031462A4603F0B9FAD7E7F9
:101CD00000220323A4F80025A4F8FC342046FEF7D4
:101CE000BBFEA4F8FC0470BD4FF6FF73A4F8FC34EF
:101CF0004FF0FF3070BD20460549FFF771FF00BF70
:101D0000FCC80120B47E0120683201005432010079
:101D10003C3201002DE9F047B04F3A688AB001200B
:101D200002F51465B2F84832B2F84A129BB289B291
:101D30008B42A3EB01043BBF89335B1AA3B29BB276
:101D4000002B02F5147208BF0020AA42EAD1002835
:101D500046D1A34CB4F90030002B00F0E680A14E30
:101D6000A14D3368A14C05932B682268059903F5B2
:101D70007A730132994222602ED9DFF8C0929C4FCB
:101D80009C4BB9F800103868DFF89882B3F8FE343D
:101D900001900291D8F8001000919748974907F0F8
:101DA000A3FF974B94481B88A9F800304FF0000917
:101DB0004FF00043C8F80030C7F8009007F07CFFF0
:101DC000336806938F4A904B0699C4F80090C2F886
:101DD00000902960C3F8009030BF0AB0BDE8F087DA
:101DE0008A4E8B48B6F90010FFF7AEF80028C0F213
:101DF0004D8106D0874A136823F400431360FEF731
:101E0000D7FFB6F90000844D002800F01981D7F8FB
:101E100000C006A962460CF51460D2F84432002BCB
:101E200000F03981002302F51472904241F8043B1E
:101E3000F3D17A4A02F5806E02F1080406A90B6814
:101E4000B3F9000022F8020F0233944241F8043B38
:101E5000F5D174452246EFD100240CEB0408A146CD
:101E6000D8F8440204F5147418B108F023F8C8F83F
:101E70004492B4F5146F0CD0D7F800C00CEB0408F2
:101E800004F51474D8F844020028EED1B4F5146FA8
:101E9000F2D12C68624B1B1B5B10B3F5007F1F4611
:101EA000A0467ADC534AB2F9002522B1002BB8BF14
:101EB000033323F00307002F40F30881DFF874E1B8
:101EC00023467C001819724632F9021B23F8021BC4
:101ED0009842F9D17444804606F0CAFCDFF8489174
:101EE000C9EB08025210824649464248FFF78CFE71
:101EF000308006F0BDFC4B4A1368CAEB00009842E4
:101F00003B4B38BF10601A68C7F50077904288BF16
:101F10001860454A002F4CD00023013334F8021BCF
:101F200022F8021B9F42F8DC43E0384E3848B6F9ED
:101F30000010FFF709F80028BFF611AFB6F900301E
:101F4000354DDFF8E490002B15DB2B682948C9EBF1
:101F5000030252104946FFF757FE30802548FEF72E
:101F60007BFD4FF6FF7008220092304B30802849ED
:101F70002048FEF701FE2D4B2D485B68C5F8009008
:101F8000002BACBF00234FF6FF730B21238006F01C
:101F90001DFA194807F090FEE1E6264BA21E03F554
:101FA000806033F9021B22F8021F8342F9D104F545
:101FB0008062B6F900302A60002B7FF4D0AE062193
:101FC0001D4806F003FA0C4807F076FE082200923E
:101FD000164B0F490748FEF7CFFDC0E6B07E012043
:101FE000346D01205CC90120ACC50120A4C50120CD
:101FF000AC7E01209C790120246F012094320100E5
:10200000F0CA0120A0C5012014C10120A8C50120EB
:10201000646D01203C800440386D01206EC10120B8
:10202000B4C00120A87E0120B4800120446D0120AD
:102030008832010070C101208032010070CA012085
:10204000FEF79CFCD5F800E0214AC2EB0E046410B8
:10205000002C0CDD04F10044013C02EB4404931E0F
:102060002A3233F9021F22F8021FA342F9D1184A7B
:10207000031F283053F8041F42F8041B9842F9D17B
:102080000EF12C0301222B603280C0E6114B01229D
:10209000A3F80025B5E6B2F84AE2B2F848821FFA82
:1020A0008EFE1FFA88F80EF10104C645A4B23FF473
:1020B000BAAE882C94BF23461C46083352F823300E
:1020C000C2F84432A2F84A420433ACE6024C03E7B9
:1020D000B48001209C79012070C101202DE9F84FC6
:1020E000714F724E3A68DFF8F881C6F8008000231D
:1020F000737233613372F3600AB9D2E01A465369DE
:10210000002BFBD156610024694B68487461B48090
:10211000F480B472336000F04BFE4FF4146008F0AA
:102120004DF8DFF8C0A1DFF880B1864621461C30AB
:102130000EF5146972464FF0010C40F81C8C0446F1
:1021400082F809C010611172D160002300E01469A7
:1021500044F82310547A01339C42F8DC3C680CB9F3
:102160009CE01C466369002BFBD162615161918048
:10217000D180917240F81CAC02F5147222F8081C50
:1021800042F80C1C22F8061C22F8041C4A454FF0A9
:10219000000400F51470D0D1464FDFF84C81C7F829
:1021A00004E03846C8F800E03E603C727C72FC6097
:1021B0003C7407F0CFFE4049404A384608F090FB97
:1021C0003F4FD8F800303E6003F5147301223846C3
:1021D0007B607C72FC603C743A7207F0BBFE36494F
:1021E000364A384608F07CFB364FD8F800303E605F
:1021F00003F59463022238467B607C72FC603C7479
:102200003A7207F0A7FE2C492C4A384608F068FBC2
:102210002D4FD8F800303E6003F5DE6303223846C8
:102220007B607C72FC603C743A7207F093FE384627
:10223000224A2149254E08F053FB254BDFF8ACE03C
:1022400024482549C3F878442827C3F87C4483F8F8
:10225000904483F8AA4483F8B04483F8B844C3F8A0
:10226000F444C3F8F844A3F800454FF47A754FF6E8
:10227000FF7483F8A774C3F89404C3F89C14C3F8DC
:1022800088E41846C3F8B454C3F8AC64A3F8FC441B
:102290000A4A1249BDE8F84F08F022BBCBF80020EB
:1022A00064E73E602FE700BF6CCA012084C50120AF
:1022B0005C330100DCC001204D050000306D0120C1
:1022C00070C5012048C101205CC10120282D0100FA
:1022D0009C7901200C340100011001383105000007
:1022E000EC2C0100F82C0100B07E012064340100C8
:1022F00010B4047F4160022CC26003D05DF8044B2F
:1023000007F05EBB83685DF8044B18472DE9F04188
:102310000468E56815F0807F794D256052D1DF07AC
:1023200040F1B380002900F0E3800D78012B18BF45
:1023300045F000456563013190F82C8003F1FF3CC6
:1023400048EA0828BCF1000F00F0A88021B14D78C0
:1023500011F8028B45EA082845682E7ABCF1020F75
:1023600006F1FF364FEA06360CBF48F0805548F0BC
:102370001045B6B26563ACF1020C08E00AB1147006
:102380000132013B05F47045B54216D90468E56A8F
:1023900015F0F00FF6D0A46B13F0010F17464FEABB
:1023A000242EEBD11AB107F802EB54703A4605F42B
:1023B0007045B542A3F10203E8D8BCF1000F6DD01F
:1023C0000468C3E7DD074CD5002900F089800D784B
:1023D000012B18BF45F000456563013103F1FF3E55
:1023E00090F82CC0BEF1000F41D029B191F801C086
:1023F0000D78023145EA0C2C45682E7ABEF1020FA9
:1024000006F1FF364FEA06360CBF4CF080554CF013
:102410001045B6B26563AEF1020E08E00AB1147061
:102420000132013B05F47045B54215D90468E56AEF
:1024300015F0F00FF6D013F0010F1746A46BEDD195
:1024400022B107F8024B241254703A4605F4704545
:10245000B542A3F10203E9D8BEF1000F07D004682A
:10246000C3E79E4690F82CC0BEF1000FBDD11BB350
:102470000468E16A11F0F00FFBD0A16BDC071DD5F9
:102480000AB111700132013BF1E790F82C809C46B3
:1024900048EA0828BCF1000F7FF458AF63B1046824
:1024A000E16A11F0F00FFBD0DE07A16B0FD50AB186
:1024B00011700132013BF1E7BDE8F0812AB1144609
:1024C0000D1204F8021B55702246023BCFE72AB1D9
:1024D00014460D1204F8025B51702246023BDDE700
:1024E00090F82C50012B18BF45F00045656375E747
:1024F00090F82C50012B18BF45F0004565631BE791
:1025000000041F80F0B4464B464A986B5C6B01791F
:102510001170454922790A701A6B00790870002AF7
:1025200046D05968C9688A423ED82168CC8B2404B9
:1025300002F1FF3065D4C0F30E00C883C88B80B2AF
:10254000C882996B0968C88B000452D4C2F30E008C
:10255000C883C88B002480B212F1FF32C88218BF32
:1025600001221C63596B2E4809680D6800F12C0488
:10257000A54236D00068C46814F0804F0C680D681E
:1025800015BF248824780235013544F000440D60DD
:102590004463996B254B09791970214912B14A6B33
:1025A00012791A70F0BC7047521A1A630122D9E7E7
:1025B000D86B196805681E4C0A63CC62CC682D681C
:1025C0001C4E24F080440327B542CC6083F82D7064
:1025D0001FD1037F4260022BC2601ED0F0BC07F007
:1025E000EFB9016890F82C00CC6840F000404863D7
:1025F000CFE7CC8BC2F3080004F47E442043C883A9
:10260000A7E7CC8BC0F3080004F47E442043C883C2
:1026100094E72B461146F0BC18478368F0BC184776
:102620008C6D01201F8000401C8000401B800040FA
:1026300000000FFFF12200000BB1FFF767BE7047EB
:10264000644A654B2DE9F04F644EDFF8A0A1644C5D
:10265000DFF89091A2FB00524FEA124C0CF10407F4
:10266000A3FB0025A6FB0062A7FB0AAB6D09D20AFB
:10267000A3FB0563A4FB0264CBEB07060BEB56063A
:102680005B09B6082409C6EBC606C3EB031304EBCB
:102690004404A5EB8303BE1BC5EB0515A2EBC402E6
:1026A000A0EB8500013600248A7008704B70CE7054
:1026B000224640F26D1B4FF064084FF4C87A0EE0DA
:1026C000C6EBE5150AFB153570BB002D14BF584647
:1026D0004FF4B7700244944504F1010413D3E7B2F8
:1026E00007F2B27389FB0305DE17C6EB651013F022
:1026F000030E08FB1030E3D040F26D100244944505
:1027000004F10104EBD28F71BEF1000F0FD13548F7
:10271000DE1780FB0340C6EB6014642505FB143410
:10272000BCB34FF4B77405E04FF4B770D2E740F292
:102730006D14DE172B482C4D80FB0370C6EB601820
:10274000121BC6EBE01664244FF4C87000FB16366B
:1027500004FB1838C2EB0C020120002302E0013018
:10276000C0B20133012BDFB220D05C5D944209D8A6
:102770000C28A2EB0402F2D10D2701320A714F712D
:10278000BDE8F08F0137FFB201320A714F71BDE829
:10279000F08F4FF4C874C6EBE01004FB1030002833
:1027A00040F26D1408BF4FF4B774C3E7BEF1000FD9
:1027B0000AD1B8F1000F0BD1002E14BF1C241D2428
:1027C000A24203D3121BCAE71C24F9E70227D4E76D
:1027D0001D24F5E707452EC289888888C5B3A291D4
:1027E000ABAAAAAA1F85EB514833010025499224C0
:1027F00010B503490446FFF723FF024B1C6010BDD0
:10280000B4C50120B0C501202DE9F04139498679D0
:1028100001FB06F106B306F2B27C40F2B373DFF8B7
:10282000D8E064274FF4C8780DE013F0030F09D106
:10283000C2EBE51208FB123204B91AB901F5A8314E
:1028400001F5C07101338EFB0325DA17C2EB651465
:10285000634507FB1434E8D14779012F2FDD264C5F
:10286000264ADFF89CE006F2B27384FB0346DC17CD
:10287000C4EB661C6425C4EBE6164FF4C87405FB74
:102880001C3C04FB163603F00305012307E0147813
:102890000133BB420EFB041102F101020FD0022BE7
:1028A000F5D1002DF3D1BCF1000F1BD001F51811AB
:1028B00001F56E510133BB4202F10102EFD14378C1
:1028C0008578047802790E48C3EB03134FF46166F0
:1028D0009B0006FB05332344013A00FB0230084409
:1028E000BDE8F081002ED2D101F5181101F56E512D
:1028F000E0E700BF8033E1011F85EB514833010061
:1029000080510100F0B5204C204E23683268204DE4
:1029100083B028680093009B9B1AB3F57A7F0FD38E
:10292000013000E0084623680093009B02F57A72AC
:102930009B1AB3F57A7F00F10101F3D2286032606F
:10294000144F3B6898420FD3134B1B6863B19847F1
:10295000124B58B912491A680B78286800330244A0
:1029600018BF01233A600B7003B0F0BD22680192DA
:102970001B680B4A019C28600344022134603B60C1
:10298000117003B0F0BD00BF5CC90120C8C50120B3
:10299000BCC50120CCC50120C4C50120CC6D0120DF
:1029A000C0C5012008B5FFF7ADFF044B1B68984276
:1029B00001D0FFF71DFF024B987808BDB0C501207C
:1029C000B4C5012008B5FFF79DFF044B1B68984272
:1029D00001D0FFF70DFF024B587808BDB0C50120AC
:1029E000B4C5012008B5FFF78DFF044B1B68984262
:1029F00001D0FFF7FDFE024B187808BDB0C50120DD
:102A0000B4C5012008B5FFF77DFF044B1B68984251
:102A100001D0FFF7EDFE024B187908BDB0C50120CB
:102A2000B4C5012008B5FFF76DFF044B1B68984241
:102A300001D0FFF7DDFE024B587908BDB0C501207B
:102A4000B4C5012008B5FFF75DFF054B1B68984230
:102A500001D0FFF7CDFE034B987900F2B27008BDAC
:102A6000B0C50120B4C50120F0B583B00746099C6C
:102A7000089E632CCCBFA4F2B27504F11E050E4C67
:102A80002046A57166712371A77061702270FFF7EF
:102A9000BBFE0A4B0A4A1B6812680193094E0A4D95
:102AA0000A490B4B019C30601044022228600C60E4
:102AB0001A7003B0F0BD00BFB4C501205CC901208D
:102AC000CC6D0120BCC50120CCC50120C8C50120AA
:102AD000C0C5012010B5044606F056FF204610BDC3
:102AE000024A0349034807F0FBBE00BF306D0120D6
:102AF000D52A0000D0C50120024A0349034807F047
:102B0000EFBE00BF306D0120D52A0000D8C50120DE
:102B1000024A0349034807F0E3BE00BF306D0120BD
:102B2000D52A0000E0C50120024A0349034807F006
:102B3000D7BE00BF306D0120D52A0000E8C50120B6
:102B4000024A0349034807F0CBBE00BF306D0120A5
:102B5000D52A0000F0C50120024A0349034807F0C6
:102B6000BFBE00BF306D0120D52A0000F8C501208E
:102B7000024A0349034807F0B3BE00BF306D01208D
:102B8000D52A000000C60120024A0349034807F085
:102B9000A7BE00BF306D0120D52A000008C6012065
:102BA00038B5074D074C08482A46214607F098FEDD
:102BB0002A4621460548BDE8384007F091BE00BFCF
:102BC000306D0120D52A000010C6012018C6012052
:102BD000224B23491A68F0B41269224D1B790B70FD
:102BE000AA4234D2204B1B78002B33D11F4B1968DB
:102BF00059B31F4F3C88402C27D81E481E4A1F4BF4
:102C0000066810681A6863001E441944184440346A
:102C100013449A1C023605F1080302313C8002304D
:102C200005F5027533F9084C21F8024F33F9064CCB
:102C300026F8024F33F9044C20F8024F083333F9D9
:102C40000A4C22F8024FAB42ECD1F0BC7047A5F51C
:102C50000075CBE70A4B01221A60C7E72CC601209A
:102C60001F8000406064012024C6012038C6012076
:102C700034C6012020C601203CC6012028C6012000
:102C800008E200E02DE9F047804607F0BFF805466E
:102C900007F0BCF8064607F0B9F8074607F0B6F8A3
:102CA00004465DB33EB337B328B372B63B4B1A88C4
:102CB0007F2A39D8002D6DD039490A6872B162B6C1
:102CC000284607F0F7F8304607F0F4F8384607F0E2
:102CD000F1F82046BDE8F04707F0ECB80D60DFF8EA
:102CE000CCE0304830491A80CEF8006007600C60B4
:102CF00062B6BDE8F087284607F0DCF816B130462A
:102D000007F0D8F817B1384607F0D4F8002C3DD0BA
:102D10002046002407F0CEF827462646254672B600
:102D20001E4B1A887F2AC5D91D4920481D4AD1F853
:102D300000A00D601C49D0F800900660166817606E
:102D400000220D681A800C6062B65146404607F0BA
:102D5000DBF8504607F0AEF849464046012207F03E
:102D6000D3F8484607F0A6F831464046022207F05D
:102D7000CBF8304607F09EF840462946032207F07C
:102D8000C3F82846BDE8F04707F094B82746264622
:102D900025468AE762B6BDE8F08700BF34C6012049
:102DA00038C6012020C6012028C601203CC60120CB
:102DB000F8B5294C294D2A4E2046012106F07EFD0A
:102DC00000F07AF82748284A28494FF480632B609E
:102DD0000360236804251A609D802279196102F13D
:102DE000804202F5043241F601170221DF80998208
:102DF0009E6100214FF4807006278C26D8829D604A
:102E0000D883D9609F831170167007F015F918499F
:102E1000184B2279184F08701A7039682279174CAC
:102E2000174D184E41F0124141F001015311396024
:102E30009B00206803F1604302F1100703F5614332
:102E400002F01F02012140F0104001FA02F220605E
:102E500045F827601A60F8BD2CC6012014B0044064
:102E600000FCFFFF2CB00440A0F002406062012093
:102E700024C601201B80004080F0024000F0024088
:102E800000680120D12B0000024A0349034807F0E3
:102E900027BD00BF306D0120D52A00002CC60120BF
:102EA000024A0349034807F01BBD00BF306D0120F3
:102EB000D52A000040C60120284B29491A68294814
:102EC00042F400421A600A6842F002020A601A687C
:102ED00042F002021A600368002B3DDB224B1B68A4
:102EE000002B39DB214A4FF0864313601368002B17
:102EF000FCDBF0B51E4C1F48DFF8ACE01E491F4B51
:102F00001F4A204F204E214D41F2100CC4F800C042
:102F1000002404600120CEF80000DFF890E0C1F842
:102F200000E04FF440311960194B1360DFF880E086
:102F3000184A3A60346028601748CEF80000174CF1
:102F4000B9671748174946F8503C4FF4C0632A61E7
:102F5000236003600B60F0BD704700BF3C800440FD
:102F60004080044000F0024080F0024000F1024046
:102F700004F1024060F0024008F002400CF0024010
:102F800010F0024014F00240E0F0024084F00240F1
:102F90001B0F0100000F0F0F0300004708B0044093
:102FA0000CB0044018B0044004F0024003000007D5
:102FB00088F00240024A0349034807F091BC00BF71
:102FC000306D0120D52A000048C60120024A03497D
:102FD000034807F085BC00BF306D0120D52A0000F2
:102FE00050C60120024A0349034807F079BC00BFDC
:102FF000306D0120D52A000058C60120024A03493D
:10300000034807F06DBC00BF306D0120D52A0000D9
:1030100060C60120024A0349034807F061BC00BFB3
:10302000306D0120D52A000068C60120024A0349FC
:10303000034807F055BC00BF306D0120D52A0000C1
:1030400070C6012090F8392090F83800101A7047A7
:1030500090F8383090F839209A4205D95A1C034428
:1030600080F83820187E70474FF0FF30704700BF5F
:1030700090F8383090F839209A4286BF1B18187E95
:103080004FF0FF30704700BF704700BF38B50546AE
:10309000B0F85E0090B195F85D301446C3F121029E
:1030A00094420CD805F13B001844224605F08EF8F6
:1030B00095F85D30234485F85D30204638BD012009
:1030C00014462871EEE700BFB0F85E306BB190F89F
:1030D0005D30202B07D8C218013380F85D30012005
:1030E00082F83B107047012303710020704700BF36
:1030F00038B50269D478E4B2E106054624D5102338
:10310000D37063061FD504F0040404F0FF03002C01
:103110005AD042496A6E00230B7085F85D30002A50
:1031200066D0904795F85D30002B61D02B69D02296
:103130009A702B6995F83B201A712B69012285F84A
:103140005C200222DA7038BD04F0400303F0FF0077
:10315000002BD8D19379DBB203F0600160294ED007
:10316000937803F0100303F0FF01B3B114F00104EE
:1031700037D195F85C3095F85D1099424BD9591CC0
:103180002B4485F85C1093F83B3013712B69D022E7
:103190009A702B690222DA70D5E785F8601093796E
:1031A00043F0200393712B6995F839101A791F2980
:1031B000D2B2C6D8194800780028C2D068180131A8
:1031C00085F839100276BCE72A6985F83930C023C2
:1031D00093702B69114A1979012111700222DA705A
:1031E000B1E7C02393702B691A790222DA70AAE73B
:1031F0000122002385F85D2085F83B3096E703F037
:10320000DF039371AB6E23B185F8380095F8390070
:1032100098472A69A4E71471B8E700BF78C601206F
:103220000148FFF765BF00BF3C6E01200148FFF772
:103230005FBF00BFA86E01200148FFF759BF00BF64
:10324000D06D0120064B074ADA6202210022596044
:103250009A7083F8242083F8302083F83220704756
:103260007CC60120EC33010070B51A4C23780BB9F1
:10327000012070BD184D194B286819680378FE2B82
:1032800017D0174A00F032FE88B1164E316819B9CE
:1032900000232370012070BD28680378FE2B0FD017
:1032A0000F4A00F023FE10B100233360F0E7002046
:1032B00070BD0B4800F026FAB0FA80F04009E3E751
:1032C000074800F01FFAB0FA80F040090028EBD15F
:1032D000EDE700BFD8C80120D4C60120146F01203B
:1032E000D8C60120D0C6012070B5124D2B6883428C
:1032F0000E4611D00446FFF7B7FF08B9002070BD95
:103300000D4B18680378FE2B0CD00C4A214600F0B8
:1033100027FD0028F2D02C60094B19783143197031
:10332000012070BD2146054800F06AF9B0FA80F02E
:103330004009EEE7146F0120D4C60120D8C6012051
:10334000D8C80120F8B590F82030C469102B1A4B6A
:1033500005460E4617461B6816D004EBD1149C4256
:1033600016D106F07F06154A42F826701449287EC9
:103370000A78012842F001020A7018D9A968114A96
:103380000B4413600120F8BD04EB11249C4208D0CB
:1033900000212046FFF7A8FF50B195F82030102BF0
:1033A00007D1F6B2054A234622F81670DEE701205F
:1033B000F8BD2346D5E700BF146F0120D8C6012011
:1033C000D8C80120D0C60120C36801338B4218D36E
:1033D00070B590F82030102B154B044616460D465C
:1033E000C0691B680FD000EBD11098420FD105F0D7
:1033F0007F01104B53F8213023F0704333600120DC
:1034000070BD0020704700EB1120984207D00021CA
:10341000FFF76AFF50B194F82030102BE7D1E9B2E2
:10342000044B33F811303360012070BD002070BDB3
:10343000146F0120D8C601202DE9F04F176883B022
:103440006FB301374FF0000AC36803F1010813B3EB
:103450008B46064691463C46002505E01C461F4625
:10346000F3680135AB4216D9A04538BF0224214686
:1034700001AA304638BF2746FFF7A6FF631CD91BB9
:1034800048B1019A002AE9D18B4510D01C46F36857
:103490000135AB42E8D8002003B0BDE8F08FA1F1C0
:1034A000010ABAFA8AFA07684FEA5A1ACCE7012CDD
:1034B000F1D9F36801339C42EDD86FF07042214698
:1034C0003046FFF73FFF0028E5D0A74214D2013C69
:1034D000012CE0D9F36801339C42DCD8621C214600
:1034E0003046FFF72FFF0028D5D0A74204F1FF3464
:1034F00002D0012CEED1CEE7D9F8001059B1012944
:10350000C9D9F36801339942C5D83A463046FFF726
:1035100019FF0028BFD0C9F80070BAF1000F01D020
:10352000013737600120B7E72049214A0B6843F093
:1035300080030B6011461368DB07FCD40B689B0704
:10354000F9D41C4B30B44FF08072184D186000E075
:10355000A2B12968184B154C0B40013A002BF7D04B
:1035600062B1012B0AD1236813F0800F23680FD0BA
:1035700043F001132360032030BC70470B4A1368EB
:1035800043F4702343F001031360012030BC704703
:1035900013F48030236804D043F001132360052026
:1035A000F4E743F001032360F0E700BF30100B4065
:1035B00024100B400C100B4001000E0070B50D4D97
:1035C0000D480E4E00232B60FFF7AEFF40F2E734AC
:1035D00003463268520701D507480BB1184670BD43
:1035E0002B60FFF7A1FF013C0346F2D1002808BF82
:1035F000052070BD08100B400000DB0C24100B40B0
:10360000F8B5384B1A780AB10320F8BD5B78064646
:1036100003B94902344D354C354B36484FF6FF77E8
:103620004FF481322F6021601A60FFF77DFF002880
:10363000EBD1314B31491B681C3406F1400206F5D1
:1036400010702B68284F43F0200613F4E00F2E6013
:103650003ED123681E05FCD50B6842F8403C0B6840
:1036600042F83C3C0B6842F8383C0B6842F8343C6A
:103670000B6842F8303C0B6842F82C3C0B6842F86F
:10368000283C0B6842F8243C0B6842F8203C0B684D
:1036900042F81C3C0B6842F8183C0B6842F8143C9A
:1036A0000B6842F8103C0B6842F80C3C0B6842F87F
:1036B000083C0B6842F8043C40328242C1D10020F1
:1036C00009490B68084A9B07FBD50D4B1360F8BDF1
:1036D00043F4E00343F020033B60FFF76FFF01205A
:1036E000EEE700BFDCC8012030100B4008100B4093
:1036F00004100B4010003A1110100B4020100B402A
:1037000022000001F8B52B4B1A780AB10320F8BD4E
:103710005B78044603B94902274D28482A68284B9C
:103720002A604FF48132016026481A60FFF7FCFEE0
:103730000028ECD1244B254E1B68294604F5007760
:103740000B681D4AD806FBD52B6813F4E00F1AD17D
:1037500004F1400254F8043B3360A242FAD10B68F2
:10376000DFF854E043F010030B600B6813F4E00043
:1037700013D19742E4D110490B680F4A9B07FBD540
:10378000134B1360F8BD136843F4E00343F01003D8
:103790001360FFF713FF0120EDE7DEF8003043F47C
:1037A000E00343F01003CEF80030FFF707FF0120DD
:1037B000E1E700BFDCC8012030100B4008100B40CF
:1037C00004100B4000003A1810100B4020100B4062
:1037D0001200000138B590F90530002B03DBBDE87D
:1037E0003840FFF741BD044601210069FFF77CFD29
:1037F000F8B1257D104B13EB45151AD0A3790F4A6C
:10380000012B9CBFA369EB61E36912686B831B0CFE
:10381000AB8232B105F1160105F1180090472B8BF0
:103820006B82637903F07F036371BDE83840FFF773
:103830001BBD002038BD00BFD8C60120ECC8012048
:1038400010B500F1080204460121006AFFF7F4FDFB
:1038500050B1E3693BB96379A268E26163F07F0329
:103860006371012010BD012010BD00BFF8B5837940
:1038700013B182698A4201D20020F8BD022B0F46A3
:1038800005461AD007B32B6AE9681C7C4A1E04F16E
:1038900009037C1EDA40DC40A24211D9EB69AB601F
:1038A00005F1080606E0A968286AFFF78DFD013CCE
:1038B0000028E1D03246002CF5D1EF600120F8BDA0
:1038C0000029EBD0A41AEBE7AF60EF600120F8BD50
:1038D0002DE9F04F8B46817985B001290746019289
:1038E00005D001233B71002005B0BDE8F08F42797F
:1038F0009107F6D5530708D5FC68B9698C4200F0EA
:10390000B480FFF7B3FF0028EBD0019BFC68002BCD
:103910004AD0DFF8A491DFF8A4A1DDF80480386A6A
:103920000679013E06EA542616F0FF06C4F30804A1
:1039300043D1002C41D1B968002973D1FA69002A1A
:1039400000F08380BA60C4F50075ADB245453AD940
:10395000057C4169023AAA400E4416441FFA88F5D4
:103960001CB9F868BA6990424FD230460121FFF77E
:10397000BBFC0028B5D04C4404EB050E74450DD0BB
:103980000BF1FF31621E0EF1FF3611F8010F02F844
:10399000010F9642F9D1C4EB0E04A344FC68B8EBC6
:1039A00005082C44FC60BAD1BB69A34262D27A7983
:1039B000BC6142F080027A7165E0C4F50075ADB279
:1039C0004545BA68C4D8017C4069023A8A40064439
:1039D000B5F5007F1644C3D1DAF80020964204BF43
:1039E0004FF0FF32CAF800202F4A10680278FE2AF2
:1039F000314633D05A4600F079FA00283FF471AFCF
:103A00000BF5007B4FF40075C8E7FFF72DFC00288D
:103A10003FF467AF2549CAF800600A7842F0010216
:103A20000A70A8E703AAFFF7CFFC00283FF45CAFB9
:103A3000386A1F4B90F82050039A4FF6F871102DFA
:103A400018BF19468A42FFF47DAF3846FFF7F8FEEB
:103A500000283FF446AF386ABA6874E75846FFF763
:103A600051FEB0FA80F04009C7E7019B002B7FF4BC
:103A700050AF08E00F4B7A791B6823B1019B13B15B
:103A800042F080027A71120709D5BB79002B3FF40E
:103A900028AF3846FFF79EFE00283FF422AF01987A
:103AA00005B0BDE8F08F00BFD4C60120D8C8012002
:103AB000F8FFFF0FECC80120D8C60120146F0120C9
:103AC00000B583B002AB012203F8011D1946FFF7D0
:103AD000FFFE03B05DF804FB10B50121007804F08F
:103AE000ADFE114A1378C3B11049CB7A00241846B1
:103AF000147093B1DA0703D50D4AC86910601846EF
:103B00009C0703D50B4B0A6AC87A1A60420705D492
:103B1000030702D5084B8A6A1A6010BD074B4A6A30
:103B2000C87A1A60F4E700BFF4C801208C6D012048
:103B300000E100E004E100E00CE100E008E100E069
:103B4000234B1A781AB10078002104F077BE70B4C4
:103B5000204A2149D47A096801251D70002C26D0FD
:103B600072B6D47AE607234606D51C4DD3682E6874
:103B70003340D3612B602346A50706D5184D146941
:103B80002E68D37A344014622C605C0706D5154D3C
:103B900054692E68D37A344054622C601B0705D5D3
:103BA000114C936925682B409362236062B61368B9
:103BB000DA688A4207D00D4C1C600D4AD96041F08A
:103BC00080441C611A600078002170BC04F036BE8D
:103BD000F4C801208C6D0120F0C8012080E100E0D4
:103BE00084E100E088E100E08CE100E001403F007A
:103BF00000003F80F0B41248124A036882B01646B3
:103C00000093009F4FF00045FF24136843F4806346
:103C10001360D5625463D36A002BFCDAB36BDBB25A
:103C2000FF2B09D003680193019BDB1B8B42ECD374
:103C3000002002B0F0BC7047012002B0F0BC704719
:103C40005CC9012000C00240F8B50D464FF49671E2
:103C500016460446FFF7CEFF284B1A684FF0004087
:103C600042F4806245F040011A60D8621A465963F6
:103C7000D36A002BFCDA214918204FF000470A686C
:103C800026FA00F342F48062DBB20A60CF624B6333
:103C9000CB6A002BFCDA083810F1080FEFD155B3CE
:103CA000082D0CBF8721FF21144B1A684FF00040EC
:103CB00042F480621A60D8621A465963D36A002BB4
:103CC000FCDA0E4A002716464FF00045FF21136824
:103CD00043F480631360D5625163D36A002BFCDA2E
:103CE000B36BD8B21B06607000D4F8BD0137B7F5CE
:103CF000807FECD1F8BD9521D6E700BF00C002401F
:103D0000F0B41549154A0B6882B016460093009F1F
:103D10004FF00045FF24136843F480631360D562BD
:103D20005463D36A002BFCDAB36BDBB2FF2B437016
:103D30000AD10B680193019BDB1BB3F5967FEAD98F
:103D4000002002B0F0BC7047A3F1FE00B0FA80F092
:103D5000400902B0F0BC70475CC9012000C00240BD
:103D6000F8B58378032B0E46044618BF4E0215465D
:103D7000FFF7E6FE324611212046FFF765FF18B92E
:103D80002046FFF7BDFF20B92046FFF7A5FE002023
:103D9000F8BD204B2049214A1A608E4659631A46C5
:103DA00059631E46596305F5FD70A91C05F5FE779C
:103DB000D36A13F0F00FFBD0C6F834E0B36B01F810
:103DC000013C1B1201F8023C02318F42F0D105F593
:103DD0000075A8420DD20F4A1646D36A13F0F00FB1
:103DE000FBD0B36B191200F8021BA84200F8013C8B
:103DF000F3D3084B0949084A196019465A63CB6A3C
:103E0000044A13F0F00FFAD02046936BFFF764FEDC
:103E10000120F8BD00C00240FFFF009000041F8099
:103E2000F0B4314E33684FF0004743F480633360A1
:103E30003D46F762344671633346511C02F2012756
:103E4000E26A002AFCDA1A6811F8016C42F4806216
:103E50001A60DD625E63E26A002AFCDA1A6811F811
:103E6000026B42F480628F421A60DD625E63E7D1CA
:103E70001D49CA6A1C4B002AFBDA1A684FF000453C
:103E800042F48062FF241A601946DD625C63CB6AEB
:103E9000154A002BFBDA13684FF0004543F48063AA
:103EA000FF2413601146D5625463CB6A0E4A002B7F
:103EB000FBDA13684FF0004543F48063FF2413607E
:103EC0001146D5625463CB6A074A002BFBDA936B29
:103ED000DBB203F01F024370A2F10500B0FA80F0DC
:103EE0004009F0BC704700BF00C0024070B50446F6
:103EF00071B18378032B0D4618BF4D021646FFF7AC
:103F00001FFE2A4618212046FFF79EFE054620B1D7
:103F10002046FFF7E1FD002070BD3246FE2120461D
:103F2000FFF77EFF0028F3D04FF416712046FFF70D
:103F300061FE0028ECD02A460D212046FFF784FEC2
:103F40000028E5D10B4B1A684FF0004542F480621F
:103F5000FF201A601946DD625863CB6A054A002BC0
:103F6000FBDA936B13F0FF0FD2D12046FFF7B4FDBD
:103F7000012070BD00C00240014B024A1A60704728
:103F8000F0C801200110013810B5044600F0FAFF16
:103F9000002384F8313084F8333010BD90F831209C
:103FA0000AB10020704738B504460D461146382244
:103FB00008F094F84023012084F8313084F833006D
:103FC000256238BDF0B50878202803D111F8010F1B
:103FD0002028FBD051600878002851D02F282BD002
:103FE0005C2820D0A0F12204E4B21D2C1DD9DFF8FA
:103FF00094E04E1C00247C28A0F12005374612D006
:104000005E2D10D816F8010BA0F12205EDB2013497
:1040100078B32F2811D05C282EFA05F703D01D2D78
:10402000E9D8FD07E7D50020F0BD164D25FA04F4C8
:10403000E607DCD50020F0BD00240F193E462546DA
:104040002F2002E016F8010F01352028FAD02F2882
:10405000F8D02944196044B1394611F8013D2E2B9E
:1040600001D0202B08D1013CF7D12046106001205F
:10407000F0BD1F600F19EFE7FF2CF6DD0020F0BD4B
:104080001960F3E7010100352DE9F04F90F8333066
:10409000DD0783B0044640F1AC8058060D46164655
:1040A00040F1B280D4E90001D4E9042310EB060802
:1040B00041F100094B4508BF4245C0F0AB80002EDE
:1040C00000F0AA80A146F9E80623B0464FE013436A
:1040D0006BD194F831305A064CBFD0F82C14E169FA
:1040E000A16190F83DC4D0F8242402397F0A01FA76
:1040F0000CFEB9187144BAF1000F42D1B8F5007F37
:104100003FD3D0F8142291423BD0B8F5806F53D3FF
:10411000012303FA0CFCC7EB0C074FEA58239F421C
:1041200028BF1F4691424FEA472B0BD87B1893427A
:1041300008D900F50370019100F0F6FB002858D073
:10414000206A0199D0F8380402683B46D7682A46AD
:10415000B84700284DD058460021D4E90023121852
:104160004B41B8EB0B085D44C4E9002354D0206AEE
:10417000D0F830741740C7F3080A002FA7D0A16900
:10418000AFE700F50370002200F06EFB88B3CAF5BC
:10419000007BC34528BFC34600EB0A015A462846A8
:1041A00004F014F858460021D7E794F833305B0642
:1041B0000FD5A169013193E7D0F8380403682A4686
:1041C0009B689847A8B14FF4007000214FF4007B22
:1041D000C3E74A46A16900F031FD40B2002808DB80
:1041E00002D0206AA1697CE794F8313013F0500FB7
:1041F00014D194F832304FF0FF3043F0020384F8CA
:10420000323003B0BDE8F08F94F8313019073FF534
:1042100049AF54E7161A52E74FF00008C8EB060002
:1042200003B0BDE8F08F00BFF0B583B001220DF1FF
:1042300007010446D0E900678569FFF725FF0128DB
:1042400008BF9DF80700A56118BF4FF0FF30C4E913
:10425000006703B0F0BD00BF2DE9F04F90F831E0EA
:10426000856983B00446BEF1000F1BD0D0E9000180
:10427000994208BF904216461F463BD056EA0703B4
:1042800007D10023A3610120C4E9006703B0BDE8A2
:10429000F08F1EF0080F0AD0D4E90423BB4208BFF8
:1042A000B24204D2A561002003B0BDE8F08F236ABA
:1042B000019393F83DC494F833A00CF1090C5FFA14
:1042C0008CFC16F1FF3247F1FF33CCF1200803FAE2
:1042D00008FB22FA0CF242EA0B02ACF1200B23FAA3
:1042E0000BF31AF0400F42EA030205D0E3691A44C7
:1042F000A261C8E70120D7E710F1FF3941F1FF3A89
:1043000029FA0CFC0AFA08F84CEA080C2AFA0BFB0A
:104310004CEA0B0C6245534617D21EF0400F16BFF5
:10432000019BE369D3F82C34A361904604F118098A
:104330004A46B8F1000FA6D0A169206A00F07EFCC1
:1043400008F1FF380028F3D1ACE750EA0103E4D0CC
:10435000CCEB0202E9E700BF2DE9F04F0E4693B027
:1043600090F831100092054629B99A4696F83130F6
:1043700013F0500F07D1002085F8310085F8330085
:1043800013B0BDE8F08F1C9B03F00303012B06D094
:10439000022B00F00981002BEDD1012300E0022364
:1043A0001C9A02F0080213430193009B002B00F0BB
:1043B000FD8018460022514600F0A8FC96F83130E6
:1043C00002904BB1D6E90023134305D0002200230D
:1043D000C6E900230021B161B84A0AF10E0382FB4D
:1043E00003121A44DB17C3EBE203DBB24FF0000900
:1043F000039302335FFA83FB4C464F4620220AA9FF
:104400003046FFF741FE00283DD02028B3D19DF86B
:1044100028301A0666D4002C61D13268B169079140
:10442000203A08920134E4B26BB3C02B00F09380C1
:10443000C12B62D0852BE1D138220021284607F01C
:104440004DFE9DF82C309DF8292085F83020D806A7
:1044500003F0370258BF42F0080285F83120336874
:10446000316AB2696A62203B2962AB6296F83330E6
:10447000C3F3801385F82C3020220AA93046FFF7B9
:1044800003FE0028C1D11C9B99057FF574AF019BE9
:104490009A077FF570AF009B002B3FF46CAF5C4533
:1044A0000CD386E020287FF466AF24B93268B16966
:1044B0000791203A0892DCB2A3457AD920220AA9B2
:1044C0003046FFF7E1FD631C0028EBD13046B769A9
:1044D00000F088FD00283FF44EAFB761ECE75C4583
:1044E000A2D29FE7B9F1000F9FD15C4538BF0024ED
:1044F000852B83D14FF001099EE7C7EB0A085FFACD
:1045000088F8B8F10F0F28BF4FF00F0843463A461E
:1045100000990AA800F018FC00283CD04744FFB2DC
:10452000BA457FF46BAF1C9B1B053FF524AF1C9B6A
:1045300013F4884F40F0A08095F833309F0700F1C6
:104540009B801C9B5B053FF516AF1C9B580400F13C
:10455000B780012014E79DF82930019A85F83320AF
:10456000990703D542F0400385F83330DDE90C2389
:10457000DDE91001C5E904230F9BEB61009BC5E950
:104580000201002BCFD09DF82B30534505D04FF0C2
:1045900000094F4632E7814630E7BDF82C30029AD9
:1045A0009342F4D1002729E70323F9E6009B029305
:1045B00012E796F833303822C3F3801300212846DF
:1045C0000DF11C088DF8243007F088FD039C336A38
:1045D000CDF80CA098E8070004F10109082485F83B
:1045E00031400AF11E0705F12404DDF800A02B621A
:1045F0005FFA89F984E80700FFB200261846012215
:10460000414600F0D5FA044600283FF4B4AE90F9D4
:104610000030002BFFF6AFAE2022002107F05EFD38
:10462000002E66D0012E54D0C6EB06130F2FA3F137
:104630001E034FF0C102394628BF0F21DBB22270A2
:1046400051B1023409B204EB4101534413F8012B78
:1046500024F8022BA142F9D10136F6B2B34529D98B
:1046600020224146286A00F0BDFA01287FF483AE7B
:104670000F3FFFB2286AC2E795F8313013F0110FEF
:104680007FF479AE1C9B5E057FF55FAF95F8333004
:104690009C077FF570AE002200232846FFF7DCFD63
:1046A00000283FF468AE284600F058FD00283FF48B
:1046B00062AE4EE7284600F065FC61E6898888888E
:1046C000D5E904232846FFF7C7FD00287FF441AF52
:1046D00051E6C0232370019B032263F03F03627005
:1046E00085F833309DF80C30E370BDF80830A380B6
:1046F000B2E7852323700C4B85F8309084F8019045
:104700001B68002BA8D00DF117020DF11A0106A8A5
:1047100098479DF81710BDF81A20BDF8183021757C
:104720002281638198E700BFF8C801202DE9F0439A
:10473000064695B096F83140039200208DF8490066
:104740008DF84A008DF84B0034B9994691F8313014
:1047500013F0500F0D4603D1002015B0BDE8F083D3
:1047600013782F2B144632D04FF00008214603ABAC
:1047700004AA3046FFF726FC0028EDD0039B1B78E7
:10478000002B39D09DF81030059ACDF800802946CD
:104790003046FFF7E1FD0028DED0344606AF06F1D3
:1047A000300E20686168A268E3683D460FC510348A
:1047B00074452F46F5D120682860304600F0E2FBB2
:1047C00006AD86F8318086F83380039CCEE701344D
:1047D000039421782F29FAD0D1B1382206A80021DC
:1047E0002F6A07F07BFC4022012306AD0E978DF85F
:1047F00049208DF84B30B7E79DF81030059ACDF879
:10480000009029463046FFF7A7FD15B0BDE8F083BC
:10481000382230462C6A07F061FC402301203462C4
:1048200086F8313086F8330097E700BF19B101F5FB
:104830008861FFF77BBF0846704700BF10B500F1E5
:104840000C0204464068A16803689B69984718B148
:10485000237823F00103237010BD00BF00224FF026
:10486000FF33027083607047F8B54568FDB1836817
:104870008B42044617460E460ED00378DA0712D450
:10488000BB0716D504F10C0507F001020023134302
:1048900023702846A660F8BD10F90C3B07F0010212
:1048A00013432370F8BDFFF7C9FF0028E8D10020AB
:1048B000F8BD6068036804F10C059B682A46314620
:1048C00098470028E0D1F2E738B50C46D0F81C1420
:1048D000154601EBD41100F503700022FFF7C4FF69
:1048E00040B1A400C4F3080403595A1C04D02B603F
:1048F000012038BDFF2038BD002038BD38B50C463A
:10490000D0F81C14154601EBD41100F503700122F8
:10491000FFF7AAFF034628B1A400C4F3080401204E
:104920001D5138BD38BD00BF0378DB0701D401201D
:104930007047FFF783BF00BF2DE9F84F80469146CF
:104940008B46002944D08F1ED8F828349F423BD292
:1049500007F00705012303FA05F5EDB2C7F3C80A0E
:104960003E463C46D8F82414002201EB1431404660
:10497000FFF77AFFC0B110F80A100AE04A452AD0C2
:10498000A74210D0D8F82824944217D213F0FF057C
:104990000CD001340D424FEA4503A4EB0602EDD0E2
:1049A000A7422646EED10120BDE8F88F0AF1010AA0
:1049B000BAF5007F4FF00105DDD101E00026344655
:1049C0004FF0000A0125CDE70027BA460125C7E7C9
:1049D000D0F81874B8E7BBF1000F04D1B9F1010F9A
:1049E00008BFC8F81864B01CBDE8F88FF8B50446D5
:1049F00000234FF0FF3600F50377C0F8381441600C
:104A0000C0F810121546384684F83C34237084F8F8
:104A10000C32A660C4F814621A461946FFF724FF48
:104A2000042D0CD8064650B15DB905222649F01C6C
:104A300007F034FF18B996F86C30092B19D0002014
:104A4000F8BD6B1E00EB031393F8BE2112F07F023A
:104A5000F5D193F8C231002BF1D000EB05153846A3
:104A6000D5F8B6512946FFF7FFFE06460028DCD1EF
:104A7000E5E7336D2B44C4F81C34736DC4F820345F
:104A8000B36D1D44C4F82454F36DC4F82834336E58
:104A9000C4F82C3496F86D3084F83D340125093380
:104AA00005FA03F35A1EC4F818040146C4F8343456
:104AB000C4F8302420462A46FFF73EFF402384F8FE
:104AC0003C342846F8BD00BFFC3301002DE9F04717
:104AD00002398046D0F8280415468A18824238D810
:104AE0009A46D8F81834BAF1000F35D1994238BF38
:104AF000C8F8181401F007040122D8F8243402FA87
:104B000004F4E4B203EB1139C1F3C80601224946AB
:104B100040469144FFF7A8FED8B1871900F5007010
:104B200017F8012B224214BF01260026564582EABF
:104B300004024FEA44040CD0013D07F8012C15D0C3
:104B400014F0FF04EED1B84226464FF00104E7D13D
:104B5000DCE70020BDE8F0879942CBD89A42C9D95A
:104B6000824228BF0022C8F81824C3E70120BDE80C
:104B7000F08700BF70B582B002AE054646F8041D4E
:104B80000024D5F8283401990133994202D9002034
:104B900002B070BD32462846FFF796FE40B20028AC
:104BA000F5DB04F10104ECD1204602B070BD00BF7A
:104BB000F8B50E4696E82800D0F83014D0F8244412
:104BC00090F83D742940023B04EB5121BB4019444D
:104BD00000F50370FFF748FE18B17368C3F30803CC
:104BE0001844F8BD70B54C680D46A318D0F83014C1
:104BF0006B6090F83D340C4009332244DBB222FA5A
:104C000003F406463CB12B7A3BB12B6801332B6091
:104C1000013C002CF7D1012070BDD6F8283429685A
:104C20000133994202D94FF0FF3070BD2A46304619
:104C3000FFF74AFE40B20128EAD070BDD0F8283410
:104C400001338B4201D2FF207047FFF73DBE00BF0A
:104C500001290DD9D0F828340133994210B403D971
:104C600000205DF8044B70475DF8044BFFF746BE2B
:104C700000207047F0B50C4683B005460E46D5F8C7
:104C8000283401339C4202D9002003B0F0BD01AAB0
:104C900021462846FFF718FE47B2002FF4DB012C0F
:104CA000F2D9D5F8283401339C42EDD800222146B0
:104CB0002846FFF723FE0028E6D0019B01349C42E2
:104CC0000BD1002FDBD13B46A21B31462846FFF714
:104CD000FDFE0028D8D003B0F0BDA21B3146002352
:104CE0002846FFF7F3FE0028CED0019C002FCCD041
:104CF0002646C4E710B50446D0F82C14FFF73AFF57
:104D000094F83D340933DBB2984010BDC9B110B4FA
:104D10000144D30343EA520310F8012BA2F16104CA
:104D2000192C9CBF203AD2B212FA83F292B2D3036A
:104D300043EA5202814292B2EBD110465DF8044B35
:104D400070471046704700BF43B370B444887E2C50
:104D50001ED81344CD180A44023012F8013BE4B2C5
:104D6000A3F161011929A4F1610194BF2026002655
:104D7000192994BF202100219B1B641ADBB2E4B2E5
:104D80009C4205D1AA4206D030F8024F7E2CE4D9CD
:104D9000002070BC7047012070BC70470120704734
:104DA0008169F8B50446006A01B101310122FFF7BB
:104DB000C3FD012806462FD9012301461A46206A61
:104DC000FFF784FE074638B3A06994F8333030B358
:104DD0005A0613D5421C964225D023F0400284F88F
:104DE0003320E36905E0206AFFF732FFA0B1A06934
:104DF0002B465D1C834219462A46F4D34FF0FF32FE
:104E00003146206AFFF724FF30B1A16959B132461B
:104E1000206AFFF71DFF30B900273846F8BD43F080
:104E2000400384F83330A6613846F8BD2DE9F04FD1
:104E300000F1240B06469BE8070087B00DF10C0833
:104E400088E807000027BA463C4600224146306AFF
:104E5000FFF7AEFE5FFA87F9054630B10278C02A47
:104E600052D0C12A0BD0852A29D096F8323043F08F
:104E7000010386F83230002007B0BDE8F08F1046FD
:104E800000216A5CE30343EA540412FA84F4012922
:104E9000A4B201F101010DD01F29F2D9CA4551D0A8
:104EA00020224146306AFFF79DFE012807F10107E5
:104EB000CBD0DAE785280CBF04210221E1E7304B93
:104EC00096F831101B6890F801A001F0370181803D
:104ED000002BD4D0316A91F80C2242F0010281F803
:104EE0000C2202A80DF107020DF10A019847BDF846
:104EF0000A20BDF808309DF807106975AA812A823A
:104F0000EB816B822878BBE796F8333013F0400FC3
:104F1000437814BF43F0020323F002034370D6E941
:104F20000423C0E90223D6E90223F1694161C0E903
:104F30000623326A92F80C3243F0010382F80C32F5
:104F400000789DE759460122306AFFF731FE0028BC
:104F50008BD0356A44802846FFF7E6FC002884D0D1
:104F600005F50370FFF7E0FC00283FF47EAFD5F8AD
:104F7000380403685B69984700283FF476AF7BE705
:104F8000F8C8012090F8312092B138B590F833205C
:104F900011060FD4056A04462846FFF7C5FC88B9F8
:104FA00094F8323043F0010384F83230002038BDE9
:104FB0000120704702F07F0280F83320BDE83840BE
:104FC000FFF734BF05F50370FFF7AEFC0028E7D00C
:104FD000D5F8380403685B6998470028E0D00120C1
:104FE00038BD00BF2DE9F04190F831305906044634
:104FF00063D48068236AD3F834341844B0F1806FE6
:1050000002D30020BDE8F0812046FFF7C9FE00284A
:10501000F7D0266A96F80C32DA0706F5037550D4F5
:10502000284606F50676FFF719FC4FF400720021BA
:10503000304607F053F8226AA36992F83D04D2F88B
:105040002414A3F10208012708FA00F817FA00F364
:10505000884418BF002511D0D2F83804036808EB43
:1050600005019B693246984701350028C9D0226A5C
:1050700092F83D3407FA03F3AB42EDD894F831309F
:105080005B0615D494F8333063F07F0384F8333033
:10509000D2F83464D4E90223D4E9040192194FF020
:1050A00000077B4180197941C4E90223C4E9040166
:1050B0002046BDE8F041FFF765BF006AFFF71AFE22
:1050C00098E72846FFF730FC0028A9D199E700BFF0
:1050D00052EA030103D090F83310890701D400206D
:1050E0007047C1690029FAD12DE9F8430646006AE4
:1050F0001D4690F83D34093312F1FF38DBB245F11B
:10510000FF39C3F1200709FA07F7144628FA03F21A
:10511000203B3A4329FA03F31A43571C3A46FFF758
:105120000BFC0128804606D901463A460123306A25
:10513000FFF7CCFC10B90020BDE8F88396F83330B7
:10514000C6F81C8063F03F0386F83330C6E9024599
:105150003046BDE8F843FFF715BF00BF90F8333085
:105160009A0718D5F0B5C56983B08DB103F0400337
:10517000044603F0FF0083B9A169002941D10195DC
:10518000E1612946206AFFF775FD30BB002000E091
:10519000012003B0F0BD00207047206AA16990F89B
:1051A0003D34D4E902670933DBB216F1FF36C3F1AF
:1051B000200E47F1FF3726FA03F207FA0EFE203BD6
:1051C00042EA0E0227FA03F31A430132B1B1013D5C
:1051D0006D1A01312A4401910ABBD4E9000194F807
:1051E000333063F07F03C4E90201C4E9040184F8A9
:1051F00033302046FFF7C6FE03B0F0BD0195E161F4
:10520000EAE702AA42F8040D206AFFF717FD40B250
:105210000028BBDB0AD1019D002DDED0B1E70023C1
:105220000199FFF753FC0028D7D1AFE74FF0FF32C9
:10523000A169206AFFF70CFD0028ECD1A6E700BFAA
:105240002DE9F04F90F8333085B09C070646019267
:105250000AD496F8323043F0010386F832304FF02A
:10526000FF3005B0BDE8F08F1A078A4600F11281C1
:10527000019B002B00F022813146F1E80623DDF886
:10528000048003919346306AB569D0F830445B4698
:105290001C40C4F308094CBB002D00F0BE8096F8FA
:1052A00033305B0640F1DD80D6E9022390F83D748F
:1052B0000937FFB212F1FF3243F1FF33C7F1200E7D
:1052C00003FA0EFE22FA07F1203F23FA07F741EA1C
:1052D0000E01F36939430B449D42C0F0B58030465E
:1052E000FFF75EFD0028B4D0306AB569D0F82474A9
:1052F00090F83DE4640A023DE11905FA0EF52944EF
:10530000B9F1000F40F08280B8F5007F57D2D6E99E
:105310000423D6E90045B8F5007F474628BF4FF47F
:1053200000779D4208BF944234BF0122032200F55A
:105330000370FFF799FA00288BD048443A4651464B
:10534000B94402F043FFB9F5007F00F0928038467F
:105350000021D6E90023D6E9044512EB000B43EB0C
:10536000010C65455A46634608BF5C45BA44C7EB25
:105370000808C6E9002309D296F8331064465B4654
:10538000C6E9043461F07F0186F83310B8F1000FEC
:105390007FF479AF5A466346D6E90201994208BFC5
:1053A00090427FD3474B1B68002B00F0858096F816
:1053B0003330019863F07F0386F8333051E7B8F556
:1053C000806F2ED3012303FA0EFEC4EB0E0ED0F82D
:1053D00014324FEA5824744528BF744699424FEA64
:1053E000442709D862189A4206D900F50370029141
:1053F000FFF734FA306A0299D0F83804056823467A
:105400005246EC69A0470028A1D122E7C9F50077F0
:10541000474528BF4746012289E7F569BDB1B56117
:1054200064E7D0F8143299422CD0D0F838040368DD
:1054300052469B69984700283FF40BAF4FF4007029
:1054400000214FF4007784E70135B5614EE730461F
:10545000FFF7A6FC00283FF4FCAEB569F561306AA1
:1054600044E72946039AFFF7E9FB00287FF43CAFA5
:1054700035E7306A00F50370FFF756FA00287FF42D
:1054800066AFE6E600F503700291FFF7E7F9306AD0
:105490000299CAE7D0E90423FEF7DEFE00283FF4B4
:1054A000D8AEE5E696F83310019861F07F01C6E9C1
:1054B000022386F83310D4E60198D2E6D6E9002319
:1054C0006AE700BFF8C8012038B504460D4624221B
:1054D000002106F003FEA560EB79102B08D0202BED
:1054E00004D1402301202370A07038BD002038BDB6
:1054F000202301202370A07038BD00BF024638B5BC
:1055000052F8105F04462946806800F019FD50B13A
:1055100055B123690135AB42A37818BF03F0BF032F
:1055200063F07F03A37038BDA37843F04003F7E72F
:105530002DE9F041037803F020032BB903F0FF04B9
:1055400041691F4B994203D900263046BDE8F081DE
:105550000546FFF7D3FF06460028F5D02969A8685D
:1055600000F07CFC0746A86839462430052200F08C
:105570003DFC80460028E7D04FF40072214606F03B
:10558000ADFDAB681A79012A10D9012403E0AB689C
:105590001A79A2420AD918680368E1199B69424640
:1055A00098470134E4B20028F1D1CDE79B796969CD
:1055B0004FF4007202FA03F311FA83F36B61C4E74C
:1055C000FFFD1F0010B5044680680A462430A1691B
:1055D00000F00CFC20B1A38803F00F0300EB431094
:1055E00010BD00BF70B590F90230002B82B00446A8
:1055F00019DBA56805F1240000F028FC30B96378B8
:1056000043F001036370002002B070BD05F50C701B
:1056100000F01CFC0028F2D0286803685B699847FA
:105620000028ECD0F0E70121FFF7CCFF0546002869
:10563000E5D00378E52BE2D023780E4A1B0744BF60
:10564000E369C361236A166843831B0C838266B1D6
:105650000DF103020DF1060101A8B047BDF80430B9
:10566000BDF806202B836B82EA82A37803F07F03C8
:10567000A370BEE7F8C8012010B50378044623B92B
:1056800000232370A370012010BDFFF7ABFF0023A0
:105690002370A37010BD00BF09B90020704738B552
:1056A00083789B0701D4002038BD036A002BFAD110
:1056B00004468068837909330D46DBB20139D9404D
:1056C000013104F1200200F07DFC0028EBD0A3782A
:1056D0002278E56163F01F03A37002B938BD20464C
:1056E000BDE83840FFF77EBF2DE9F041064692B095
:1056F0003578019200208DF824008DF825008DF872
:1057000026002DB998460B7813F0700F0C4603D184
:10571000002012B0BDE8F08113782F2B104625D061
:10572000002703E001983770B77009AC01AA03A9FC
:1057300000F058FD03AA214600230028E8D0019D6F
:105740002D7830460DB300F0CFFE354609AC002869
:10575000DED00FCD0FC40FCD0FC433782A6822607E
:10576000002BDFD03046FFF73DFFDBE70130019033
:1057700003782F2BFAD08BB1A16809A8FFF7A4FEFC
:105780000028C5D0019809ACCAE7434603AA2146C0
:10579000304600F0A9FE12B0BDE8F081A1683046A5
:1057A000FFF792FEB5E700BF19B101F23C41FFF7E8
:1057B0009BBF0846704700BF03780BB100207047BD
:1057C000FFF782BE2DE9F04F8378DF0783B00546EF
:1057D00040F18F800F4601780E07914600F19280CC
:1057E0008C0608D5826843691289C3EB42139BB2C9
:1057F000994528BF9946B9F1000F00F0A9806B695F
:10580000AA6888064E464FF0000805F1100AC3F357
:10581000080B3ED5116A01EB5321BBF1000F52D1A9
:10582000B6F5007F4FD3D36A99424CD0B6F5806F5E
:1058300071D3287880064FEA562B05D41079C8EB2F
:105840000000834528BF834699424FEA4B240BD87A
:105850005B44994208D202F12400019100F0F6FA6B
:10586000002846D0AA680199106802685B46D2F801
:105870000CB03A46D84700283BD06B69361B23440E
:1058800027446B6164D02978AA688806C3F3080BA3
:10589000C0D492F8058008EA5328BBF1000F38D134
:1058A000B8F1000F35D1002B3FD149064CBF116A2A
:1058B000296A2961104600F0D1FAAA6808EB0001B4
:1058C000BBF1000FACD002F12400002200F08EFAF0
:1058D00078B1CBF50074B44228BF344600EB0B011D
:1058E0002246384602F072FCC7E72B7813F0700F9F
:1058F0002FD16B784FF0FF3043F002036B7003B091
:10590000BDE8F08FC36942699B1A994528BF994643
:1059100071E72969CEE7106803683A469B689847A3
:105920000028E6D04FF40074A7E70B0705D5AB7845
:105930005C0602D529690131BBE710462969524648
:1059400000F092FA0028D4DBCFD0AA682969B1E729
:105950000026C6EB090003B0BDE8F08F70B582B039
:1059600001220DF10701044646690569FFF72AFF88
:10597000012808BF9DF80700666118BF4FF0FF308F
:10598000256102B070BD00BF30B54369C3F3431554
:1059900083B0044605B189B901220DF10701204603
:1059A000FFF710FF40B201280BD163691F33636119
:1059B000A068303000EB451003B030BD20334361A8
:1059C000F6E7002003B030BD2DE9F0410378076908
:1059D0000446B3B142698A420E463AD041B92161C8
:1059E000A378666123F02003A3700120BDE8F08155
:1059F00018070AD499060BD5A3681B89B6EB431F79
:105A0000EED927610020BDE8F081E1698E42F8D827
:105A1000D4F808E09EF806500935E9B2501E751E0C
:105A2000C840CD40A84200D8B2B95B064CBFDEF8F2
:105A30002030236A236104F110084246002DCFD0A4
:105A40002169A06800F010FA002805F1FF35F4DCA8
:105A5000D7E70120BDE8F0812D1AECE72DE9F041F0
:105A60000D4690460021242204461F469DF81860EA
:105A700006F034FBA8682B6AE36000F1300208F0FE
:105A80000F0302EB4312A060A4F80480D17A0D0743
:105A900012D401F017012170D37AE67013F0180FB9
:105AA00008BF41F0080107F0030308BF2170012B74
:105AB00007D0022B29D01BB300202070A070BDE8B6
:105AC000F0810223A370217811F0110FF4D159B2A3
:105AD00007F4806507F008030B43DBB2A370B2F84C
