:1000000000000320D10100004D8F0000058F00008B
:10001000058F0000058F0000058F0000058F000090
:10002000058F0000058F0000058F00004D8F000038
:100030004D8F0000058F000021A3000025A30000C4
:100040004D8F00004D8F00004D8F00004D8F000040
:100050004D8F00004D8F00004D8F00004D8F000030
:100060004D8F00004D8F00004D8F00004D8F000020
:100070004D8F00004D8F00004D8F00004D8F000010
:100080004D8F00004D8F00004D8F00004D8F000000
:100090004D8F00004D8F00004D8F00004D8F0000F0
:1000A000E5340000F13400004D8F00004D8F00005A
:1000B0004D8F00004D8F00004D8F00004D8F0000D0
:1000C0004D8F00004D8F00004D8F00004D8F0000C0
:1000D0004D8F00004D8F00004D8F00004D8F0000B0
:1000E0004D8F00004D8F00004D8F00004D8F0000A0
:1000F0004D8F00004D8F00004D8F00004D8F000090
:100100004D8F00004D8F00004D8F00004D8F00007F
:100110004D8F0000599500004D8F00004D8F00005D
:100120004D8F00004D8F00004D8F00004D8F00005F
:100130004D8F00004D8F00004D8F00004D8F00004F
:100140002DA700004D8F00004D8F00004D8F000047
:100150004D8F00004D8F00004D8F00004D8F00002F
:100160004D8F00004D8F0000FD3400004D8F0000CA
:100170004D8F00004D8F00004D8F00004D8F00000F
:100180004D8F00004D8F00004D8F00004D8F0000FF
:100190004D8F00004D8F00004D8F00004D8F0000EF
:1001A0004D8F00004D8F00004D8F00004D8F0000DF
:1001B0004D8F00004D8F00004D8F00004D8F0000CF
:1001C0004D8F00004D8F00004D8F00004D8F0000BF
:1001D000594B4CF2205210B51A804DF628121A8055
:1001E00000BF00BF08F0B6FE544B4FF030621A60FB
:1001F000534A9A60534ADA60534B4FF470021A60C4
:10020000524B534A1A60534B1A78110703D51A7888
:1002100042F008021A70504B5049AA221A70504AF4
:10022000504B8B4204D252F8040F43F8040BF8E70A
:100230004D4B4E4900228B4202D243F8042BFAE781
:100240004B494C4A002352F8230041F82300013364
:10025000742BF8D1484B494A802103F8011B934283
:10026000FBD1474B424A1A60464B8A221A70A3F5CB
:10027000805324225A70A0221A709A799207FCD5D2
:100280009A79D406FCD4404A937903F00C03082BE6
:100290003D4BF9D101221A7148225A719A79900680
:1002A000FCD5394A9179384B4906FBD5374A38494C
:1002B00011600221516020221A709A7902F00C021A
:1002C0000C2AFAD1334B344A1A60344A344C13683E
:1002D00013F4807303D123604FF4A8531360314BA0
:1002E000314A1A6000225A60072243F8042C2F4A30
:1002F000C3F80C2D62B608F059FF2368DA0705D55C
:100300002B4808F0B7FE2B4B2B4A1A602B4B1B785F
:100310005B0609D5274C284B22689A4204D1244811
:1003200008F0A8FE002323600BF0FCFA08F018FE8A
:100330000AF090F8FEE700BF0E2005403080044030
:10034000823F04000100002B88ED00E0002008E05F
:100350000300008502D0074000E007404845012027
:100360000C3C01003039012048450120789E0120D5
:10037000003401200000000000E400E064E400E03C
:1003800008ED00E000500640004006404480044074
:100390000000030104800440C010050010D0034099
:1003A00014D0034014E000E0FF760100000020209C
:1003B0004E6402611CE00340A5C3945A00F007405C
:1003C000FFFFFFFFFFFFFFFFFFFFFFFFFFFFFFFF3D
:1003D000FFFFFFFFFFFFFFFFFFFFFFFFFFFFFFFF2D
:1003E000FFFFFFFFFFFFFFFFFFFFFFFFFFFFFFFF1D
:1003F000FFFFFFFFFFFFFFFFFFFFFFFFFFFFFFFF0D
:10040000FFFFFFFFFFFFFFFFFFFFFFFFDEF9FFFF23
:1004100010B5054C237833B9044B13B10448AFF33E
:1004200000800123237010BD48450120000000001A
:10043000083C0100084B10B51BB108490848AFF350
:1004400000800848036803B910BD074B002BFBD0A0
:10045000BDE81040184700BF000000004C450120D7
:10046000083C0100484501200000000000207047C2
:10047000704700BF1F4A204B11682048096970B4BB
:1004800099421279027008D21D4A127872B31D4A3D
:100490000121116003F5007602E01E46A3F500730A
:1004A00019491A4A09681068F1B1E8B1184D2C8849
:1004B000402C19D862001144104404F14002154C3C
:1004C0002A800231023053F8082BB4F900502A4137
:1004D00021F8022F53F8042CB4F900509E4242FA3E
:1004E00005F220F8022FEED870BC704703F50076B5
:1004F000D6E700BF908E01200004FF1F1F80004040
:10050000D08C012008E200E0788E0120AC8C012024
:1005100094960120383901204FF0FF30704700BF1A
:10052000044A05491378002043F020031370086043
:10053000704700BF0DC007401CD00340F8B5064609
:1005400009F0C6FF0446E8B109F0C2FF05460028DD
:100550003AD072B61F4B1A887F2A19D8002C31D096
:100560001D490A6842B162B620460AF005F82846DD
:10057000BDE8F8400AF000B818480C601A80056021
:1005800062B6F8BD054672B6124B1A887F2AE5D9C5
:10059000114A12491768146000220C681A800D6015
:1005A00062B6394630460AF011F8384609F0E4FFE1
:1005B0003046214601220AF009F82046BDE8F840FD
:1005C00009F0DABF62B6F8BD204609F0D5FF2C4627
:1005D000BFE700BF94960120788E0120AC8C0120EB
:1005E0002DE9F0410F461646804602F07BFA04469C
:1005F00002F068FA054602F055FAA4F2BC739BB209
:100600007F2B02D8EAB20C2A2BD90023A8F800309D
:1006100002F018FA044602F025FA054602F032FA12
:10062000E3B2172B02D8EBB23B2B0BD900233B8054
:1006300002F028FA10F0010F14BF64230023337076
:10064000BDE8F081C3B23B2BF0D8E4026B0104F4A7
:10065000FF2403F4FF532343C0F3460003439BB23C
:10066000E5E7C0B21F28D0D86D0105F4FF55284337
:1006700040EA43239BB2C9E710B5044B044640F857
:10068000103B06F0EBFB204610BD00BF842D01009F
:1006900010B5054BC0F8B434044600F2C44006F06F
:1006A000DDFB204610BD00BF842D010008F0DCBC3E
:1006B00010B5044609F0E4FF204610BD10B504460D
:1006C00009F0F0FD204610BD10B50021044609F0E8
:1006D00097FFB0B1B4F8F8379BB29BB1B4F8F437D8
:1006E000B4F8F62701339BB2B3F5FA7F28BF002395
:1006F00092B293420AD003F1080244F82200A4F80F
:10070000F43710BDBDE8104009F036BF09F034FFE2
:10071000A3690133A36110BD70B582B002F092F9F4
:10072000054602F09FF9064602F0ACF9054C009030
:1007300033462A46204604490BF05CFF204602B0AF
:1007400070BD00BFB08C0120D02D010070B582B00B
:1007500002F0C8F9054602F0B5F9064602F0A2F922
:10076000054C009033462A46204604490BF042FFD0
:10077000204602B070BD00BFB08C0120E02D01000A
:10078000826C62B1137803F0080303F0FF0003B337
:10079000D3695069181A48BF6FF000407047C16CA8
:1007A000C1B191F8313003F0080303F0FF0083B1C9
:1007B000D1E90423D1E90001101A30B463EB01013F
:1007C00000256FF000448D4208BF844200D22046CD
:1007D00030BC704708467047836C13B1184605F06B
:1007E0008DB8C06C08B103F063BA4FF0FF307047AA
:1007F000836C13B1184605F0D3BAC06C08B104F08D
:10080000A5B9704700B5836C83B063B11846012267
:100810000DF1070104F0A2FF01280CD19DF807009B
:1008200003B05DF804FBC06C28B101220DF1070193
:1008300003F06AF9F0E74FF0FF30F1E7836C13B192
:10084000184605F0EFBAC06C08B104F0CBBB704796
:1008500000B5836C83B08DF8071043B118460122B0
:100860000DF1070105F0DEFA03B05DF804FBC06C82
:100870000028F9D001220DF1070104F0B3FB03B009
:100880005DF804FB70B5044608460D460BF0D8FF32
:1008900023680246294620465B68BDE87040184739
:1008A00038B5044608460D460BF0CAFF23680246D9
:1008B00029465B68204698470546204609F064FDB6
:1008C000284438BD284B29491A68294842F4004277
:1008D0001A600A6842F002020A601A6842F00202D4
:1008E0001A600368002B3EDB224B1B68002B3ADBAF
:1008F000214A4FF0864313601368002BFCDBF0B5F0
:100900001E4C1F48DFF8A8E01E491F4B1F4A204F0E
:10091000204E214D41F2100CC4F800C000240460A8
:100920000120CEF80000DFF88CE0C1F800E04FF4C1
:1009300080311960194B1360DFF87CE0184A3A6087
:100940003460286000F18E40CEF80000154CB96785
:100950001548164946F8503C4FF4C0632A6123609D
:1009600003600B60F0BD70473C8004404080044051
:1009700000F0024080F0024000F1024004F1024029
:1009800060F0024008F002400CF0024010F002401B
:1009900014F00240E0F0024084F002401B1F01000E
:1009A000001F1F1F08B004400CB0044018B00440E2
:1009B00004F002400100000788F00240F8B5294C1D
:1009C000294E05460121204609F006FC2846FFF77E
:1009D00079FF264B264A27484FF480611960236827
:1009E00000211A6099802279186102F1804202F593
:1009F000043240F20220D8809E614FF480750420BA
:100A000006278C26DD82D960DD8398609F839882DB
:100A10001170167009F072FE1749184B2279184FA1
:100A200008701A7039682279164C174D174E41F02C
:100A3000124141F00101531139609B00206803F11C
:100A4000604302F1100703F5614302F01F02012128
:100A500040F0104001FA02F2206045F827601A6069
:100A6000F8BD00BF908E012000FCFFFF14B00440D1
:100A7000A0F002400002FF1FD08C01201B8000402C
:100A800080F0024000F002400034012075040000B4
:100A90002DE9F843814680682DED048B013008EE86
:100AA000901A002108EE102A0AF02EFDDFED237ABD
:100AB0009FED239A07EE100AC7EE876A0120804651
:100AC0000124002540F201160027F8EE687AB8EEFE
:100AD000488AB7EE007A68EE277AC6EEA78A07EE54
:100AE000904AF8EEE77A67EEA87ABDEEE78AB8EEAC
:100AF000C88A37EEC88AB4EEC78AF1EE10FA0BD571
:100B0000F4EEC97AF1EE10FA06D517EE900A0AF063
:100B100051FDA046B0EE487A013445F10005BD42D2
:100B200008BFB442DBD1BDEC048B08F1FF330138C0
:100B3000C9F80030C9F80400BDE8F883001B374C41
:100B400000008045F0B5082A8BB00CBF00230123BC
:100B50000E461446074601FB02F2014607A8099318
:100B6000FFF796FFDDED077A089ADFED2D6A099D04
:100B7000079B0196B8EE677A0132F7EE007A77EEBE
:100B8000277A07EE102A67EEA67AB8EE477A013583
:100B9000C7EE876A591C02913B4603920495214A8D
:100BA0002149224807EE905AB6EE006AB8EE677AFD
:100BB00066EE866A07EE904A86EE876A1C4D1D4CEB
:100BC00007EE106AF8EEE77AB8EEC77A67EE877A32
:100BD00086EE277ABDEEC77A8DED007A09F0ECFB40
:100BE000154916480B6823F010430B60079A089BC1
:100BF000120302F47F22C3F30B0313432B609DF80F
:100C0000243043F0E06323609DF8243043F08E43AA
:100C100003600B6843F010430B600BB0F0BD00BFE6
:100C2000001BB74C00D8B805F02D0100E83A0120B0
:100C300004F1024008F0024080F0024088F00240D7
:100C40002DE9F04387B0044601F04CFF054601F062
:100C500039FF814601F026FF064601F0F3FE074604
:100C600001F000FF804601F00DFF18490490224674
:100C70002B460591CDF800901549CDF80C800297D0
:100C8000019614480BF0B6FC12480BF0D9FD014652
:100C9000104807F0C3FF104809F076FB0D480BF031
:100CA000CFFD0E490246886C48B10A4905F0BAF8F2
:100CB0000A4809F069FB074807B0BDE8F083C86C33
:100CC0000028F5D0034904F08DF9F1E73C39012003
:100CD000082E0100808C0120E83A0120248E01209A
:100CE000144B1549154AF0B4DA61024603C9144E93
:100CF000186096E80300134D986095E80300124CC5
:100D0000D86094E803002C3A22F00102102402F18A
:100D100024074BF680360225012158625F609E61F0
:100D20001D841C615C8418469A629982D982F0BC49
:100D3000704700BFD88C01204C2E010000770100C5
:100D4000542E01005C2E0100642E01002DE9F04FAD
:100D5000814691B0C82008F0DBF92024574F584E47
:100D600009F5926825464FF0000A4FF00001404611
:100D700007F026FAC9F88C84B8F1000F03D040467A
:100D800006F0BEFDD8B101210D2008F099F94FF011
:100D9000080BC8203D6008F0BBF93460C82008F09B
:100DA000B7F9BBF1010BF4D141F2883008F0B0F98A
:100DB000444A4FF480630AF1010A1360D5E7D9F879
:100DC0008C14484606F0CEF80028DCD03E493F4A55
:100DD00002A80BF00FFC3E4B196809F2C44429B17C
:100DE00002AA40F20923204606F04CF801F07AFEF0
:100DF000054601F067FE064601F054FE2A460090C3
:100E00003346344908A80BF0F5FB08A80BF018FD91
:100E10000246D9F8FC04002838D008A905F002F8E9
:100E200001F010FE054601F01DFE064601F02AFE07
:100E30002A4633460090284908A80BF0DBFB08A897
:100E40000BF0FEFC0246D9F8FC0478B308A904F0C4
:100E5000E9FF5246214908A80BF0CCFB08A80BF08B
:100E6000EFFC0246D9F8FC04C0B108A904F0DAFF8F
:100E7000204605F0F3FF1A4B1A4A1A600023A9F81E
:100E80000635A9F8043511B0BDE8F08FD9F8000592
:100E90000028C5D008A904F0A5F8C1E7D9F80005D5
:100EA0000028E5D008A904F09DF8E1E7D9F800058D
:100EB0000028CED008A904F095F8CAE784F00F40C6
:100EC00088F00F4014B00440942E010088390120AE
:100ED000209C01206C2E01007C2E01008C2E010034
:100EE000149C0120E10500002DE9F0470546D0F8EB
:100EF000FC04002841D004F059FFD5F8FC34002B45
:100F000044D0D3F81CA04FF00009D0465046FFF75C
:100F1000E7FE364F044600F1200E20686168A268A3
:100F2000E3683E460FC6103474453746F5D1206855
:100F30006168A26807C7D5F8FC04002840D00021EA
:100F400004F02AFED5F8FC0448B34FF40072274998
:100F500004F068FFD5F8FC0470BBD5F8000518B1A3
:100F600042464B4602F0BCFE05F2C44005F076FF57
:100F70000020A5F80405BDE8F087D5F8000540B3CA
:100F800003F0BEFFD5F8FC34002BBAD1D5F80035FC
:100F90002BB3D3E904894FF00009C246B6E7D5F870
:100FA00000050028E0D04FF40072104904F01AF850
:100FB000D5F8FC040028D0D0514604F0EDFDD3E76D
:100FC000D5F800050028CFD00022002302F088FECB
:100FD000B8E782464FF000084FF0000996E79A46BE
:100FE0004FF000084FF0000990E700BF804A012051
:100FF0002DE9F04F444C8BB02468DDF850900193FC
:1010000005468A46904600F2C44B34B1214640F270
:1010100001633E4A584605F035FFB8F1000F70DD18
:10102000AAF10407002602AC04E004F0FBFE01363E
:10103000B0451CD057F8042F354920460BF0DAFA9A
:1010400020460BF0FDFBD5F8FC34864602462146CF
:101050001846002BE9D1D5F80035724621461846CE
:10106000002BE4D0013603F0BDFFB045E2D1B9F169
:10107000000F25DD019B00261F1F04E004F0D2FEB7
:101080000136B1451CD057F8042F214920460BF0FA
:10109000B1FA20460BF0D4FBD5F8FC348646024664
:1010A00021461846002BE9D1D5F800357246214675
:1010B0001846002BE4D0013603F094FFB145E2D18D
:1010C0000AEB8802134920460BF094FAD5F8FC0489
:1010D00048B12146062204F0A5FE584605F0BEFEA2
:1010E0000BB0BDE8F08FD5F800050028F5D02146FB
:1010F000062203F077FF584605F0B0FE0BB0BDE8BE
:10110000F08F02ACB3E700BF209C0120A02E0100AD
:101110008C2E0100AC2E01002DE9F04F3F4C8BB01E
:101120002468DDF85090002C3DD000F2C44B0193B0
:1011300090468A460546214658460023384A05F01F
:10114000A1FE80B3B8F1000FD5F8FC342EDD574670
:10115000002602AC0FE004F001FB0028314903DD5A
:101160003A4620460BF06CFAD5F8FC340136B0450F
:1011700007F104071BD00C2221461846002BEAD1A8
:10118000D5F800050028F1D00C22214602F0BCFC65
:10119000E3E783B318460622214604F0DFFA98BB42
:1011A000584605F05BFE0BB0BDE8F08F02ACB9F11C
:1011B000000FEEDD019E00270FE004F0CFFA0028BB
:1011C000184903DD324620460BF03AFAD5F8FC34D4
:1011D0000137B94506F10406DBD00C22214618463A
:1011E000002BEAD1D5F800050028F1D00C222146C9
:1011F00002F08AFCE3E7D5F8000528B10622214673
:1012000002F082FC0028CBD000230AEB88022046A3
:1012100005498DF80D300BF013FAC1E7209C012031
:10122000A02E0100B42E0100282E01002DE9F0416E
:101230004D4C4E4A23684E49DFF878814D4E43F0BD
:101240000053236013684C4C43F4807307461360CB
:10125000152007F001FF494BDFF85CC148494948B8
:10126000494ADFF858E120251D704FF40013CCF8EF
:1012700000302360454B00248EF800406FF47F7CE3
:101280000C70047014701C700C71A1F55331614422
:10129000047114711D710B683D4ADFF824C143F0DD
:1012A00080630B60136843F08043136001F5405185
:1012B00002F54052AEF54B3EA0F54B30AEF57E7ECA
:1012C000A0F2F63004310C32324BC8F80040CCF8B2
:1012D0000040CEF8004004600C6014601B68A1F56B
:1012E0005041A2F54F42F03A3B440B60136843F083
:1012F0000403136008F0FAFE23460A2239463046FA
:1013000009F068F8304609F03FF801210D2007F098
:10131000D7FE214B214E1D604FF47A7007F0F8FE86
:101320001F4B204F1D6072791F4D20482049A3F5A7
:10133000012302F0DF027271873B02223A701A78B1
:1013400002F0F8021A701A7842F004021A702C7037
:101350001B78036823F0020303600B6843F0040367
:101360000B6030BFBDE8F0813C80044010D00340EA
:1013700021050000E83A012000E100E015E400E06A
:1013800001C0074002C0074003C0074004C0074037
:101390000070044000D0034084F00F40004006403D
:1013A00088F00F4000E0074002E0074010E000E056
:1013B00010ED00E00090044080E200E000C0074033
:1013C00004900440F8B506460D4601F0EBFA0446D9
:1013D00001F038FBB789B6F818E0338AB18A77454F
:1013E00080B20DD988423AD3002D07DB42D05D4D43
:1013F000B2882B6813449C4280F096800020F8BD90
:10140000B84201D39842EFD3884240D2564A574D52
:10141000A2FB0462120C984205FB124201D38842DF
:1014200044D30024704501D3774537D3B84204D262
:101430004FF4616000FB07F0841A00230A22214662
:101440004B4808F0C7FF4A4808F09EFF0F21494863
:1014500007F0E4FB464808F097FF2046F8BD7045CA
:10146000C2D3B842D2D398422CBF00220122002A14
:10147000CCD0B9E7404B1A8802B333883089834215
:1014800003D2F26913449C421FD22846F8BD70452E
:101490002CBF00220122002AB8D0A5E707F11804CA
:1014A0004FF4616303FB04F39C1ABFE74FF46163DD
:1014B00003FB01F39A42B4D29C1AB3E72949F461C1
:1014C000012228460C601A80F8BD1044041B2B46EC
:1014D0000A2221462648294E08F07CFF244808F0BD
:1014E00053FF0F21264807F099FB214808F04CFFD5
:1014F0002B4621460A22304608F06CFF304608F0A1
:1015000043FFB06C40B10F221D4904F08BFC1B4817
:1015100008F03AFF2046F8BDF06C0028F7D00F2203
:10152000174903F05FFDF2E71121164807F076FB3B
:101530000F4808F029FF114B986C50B11122114946
:1015400004F070FC0D4808F01FFF2C604FF0FF30D6
:10155000F8BDD86C0028F5D011220A4903F042FDED
:10156000F0E700BFA88C012007452EC28051010082
:10157000E83A0120F02E0100748E0120248E012013
:10158000E02E0100CC2E010070B582B00646079C0B
:10159000069D8DF8043002A8632CCCBFA4F2B2746F
:1015A0001E3400F8082D8DF801108DF806408DF8D6
:1015B00005508DF8026001F077F9044607F05AFDF6
:1015C000204601F0A1FA02B070BD00BF2DE9F04342
:1015D000AF4D83B007F0F8FA0028FBD007F0B8FA57
:1015E000C4B22146AB480BF059F80028F2D03F2C8A
:1015F0000FD040F3A980612C00F05281782CE9D102
:10160000A54809F037F900B20028E3D003B0BDE8DF
:10161000F08307F0D9FA0028FBD007F099FAC4B29A
:1016200021469E480BF03AF80028D3D0313C432C99
:10163000D0D801A353F824F0051A0000111A0000B5
:101640001D1A0000291A0000D5150000D51500004C
:10165000D5150000D5150000D5150000D5150000E2
:10166000D5150000D5150000D5150000D5150000D2
:10167000D5150000D5150000D5150000D5150000C2
:10168000D5150000D5150000D5150000D5150000B2
:10169000D5150000D5150000D5150000D5150000A2
:1016A000D5150000D5150000D5150000D515000092
:1016B000D5150000D5150000D5150000D515000082
:1016C000D5150000D5150000D5150000D515000072
:1016D000D5150000D5150000D5150000D515000062
:1016E000D5150000D5150000D5150000D515000052
:1016F000D5150000D5150000351A0000D5150000DD
:10170000D5150000411A0000D5150000D5150000C0
:10171000D5150000D5150000D5150000D515000021
:10172000D5150000D5150000D5150000511A000090
:101730005D1A0000D5150000D5150000691A0000DB
:10174000D5150000751A0000212C7FF443AF05F178
:101750000C0696E8C00107F037FA0028FBD007F026
:10176000F7F9C4B221464D480AF098FF00283FF42B
:1017700031AF313C432C3FF62DAF01A353F824F099
:10178000851A00009D1A0000BD1A0000D31A00003F
:10179000D5150000D5150000D5150000D5150000A1
:1017A000D5150000D5150000D5150000D515000091
:1017B000D5150000D5150000D5150000D515000081
:1017C000D5150000D5150000D5150000D515000071
:1017D000D5150000D5150000D5150000D515000061
:1017E000D5150000D5150000D5150000D515000051
:1017F000D5150000D5150000D5150000D515000041
:10180000D5150000D5150000D5150000D515000030
:10181000D5150000D5150000D5150000D515000020
:10182000D5150000D5150000D5150000D515000010
:10183000D5150000D5150000D5150000D515000000
:10184000F11A0000D5150000D51500000D1B000091
:10185000D5150000D5150000D5150000D5150000E0
:10186000D5150000D5150000D5150000D5150000D0
:10187000D51500006B1B0000E11B0000D515000012
:10188000D5150000FB1B0000D5150000AB190000AA
:1018900068390120002F0100E83A0120082F0100DB
:1018A0002B68B849B8486F2208F086FD22466B685D
:1018B000B649B54808F080FDAB68B549B248722218
:1018C00008F07AFDEB68B349AF48312208F074FDA7
:1018D0002B69B149AC48322208F06EFD6B69AF4903
:1018E000A948332208F068FDAB69AD49A648342207
:1018F00008F062FDA44808F047FDAA4BAA49A24897
:101900006E2208F059FDFEF721FF64220346A74925
:101910009D4808F051FDFEF7FFFE74220346A449DE
:10192000994808F049FD984808F02EFD964808F0BF
:101930002BFD17219F4807F071F9934808F024FD0B
:1019400040219D4807F06AF98F4808F01DFD2021CD
:101950009A4807F063F98C4808F016FD582198481A
:1019600007F05CF9884808F00FFD2621954807F03C
:1019700055F9854808F008FD4521934807F04EF9D0
:10198000814808F001FD3221904807F047F97E4870
:1019900008F0FAFC2B218E4807F040F97A4808F04D
:1019A000F3FC794808F0F0FC14E6774808F062FF91
:1019B000041EC0F25D81172CA8BF1724724808F0DE
:1019C00059FF061EC0F250813B2EA8BF3B266E4831
:1019D00008F050FF071EC0F245813B2FA8BF3B27F0
:1019E00001F060F8804601F06DF8814601F07AF868
:1019F000CDF80090019043463A4631462046FFF725
:101A0000C3FDE7E5EA6873495F4808F0D5FCE1E506
:101A10002A6970495C4808F0CFFCDBE56A696D49CA
:101A2000594808F0C9FCD5E5AA696A49564808F042
:101A3000C3FCCFE56A686749534808F0BDFCC9E5B7
:101A4000FEF784FE644902464F4808F0B5FCC1E544
:101A5000544A61494C4808F0AFFCBBE52A685D492F
:101A6000494808F0A9FCB5E5AA685A49464808F073
:101A7000A3FCAFE5FEF750FE57490246424808F086
:101A80009BFCA7E5404808F0F5FE0028C0F2EE8078
:101A900018280346A8BF1823EB609BE53A4808F0D6
:101AA000E9FE172E00F3BE80864205DC1828C8BF69
:101AB000182000F3BA8006463046B6E0324808F0F7
:101AC000D9FE172F00F3A980874240F3C5806F61CC
:101AD00080E52D4808F0CEFE4645444640F3A780F9
:101AE000804503DC8642C0F2B58004462646B1E05C
:101AF000254808F0BFFE0028C0F2C480B0F5003FC2
:101B00000346A8BF4FF400336B6063E51E4808F03E
:101B1000B1FEB0F5FA6F04467CDB40F6B83398426C
:101B2000A8BF1C46184808F0A5FE071E40F3A88071
:101B30000C2FA8BF0C27144808F09CFE061E40F38B
:101B40009D801F2EA8BF1F2600F07CFF804600F05E
:101B500089FF814600F096FF4946024601944046BF
:101B600000973346FFF710FD34E51C4C261D06F0A8
:101B7000EFFF04F8010FB442F9D1002385F82430B7
:101B800028E500BF242F0100E83A0120382F01008A
:101B90004C2F0100602F0100742F01008C2F0100D9
:101BA000A02F010088390120B42F0100C42F0100AB
:101BB000D42F0100E42F0100FC2F01004030010070
:101BC00064300100C0300100E83001003031010014
:101BD000643101001C2F0100AC2E01008739012067
:101BE0002A4808F047FE002846DBB0F5003F0346D0
:101BF000A8BF4FF400332B60ECE4244808F03AFE11
:101C0000002837DBB0F5003F0346A8BF4FF4003390
:101C1000AB60DFE44FF4FA6484E71828A8BF18200B
:101C2000074654E71828A8BF18202861D2E40028E6
:101C30002ADB1828A8BF182086420ADA804508DD6A
:101C400006EB080303EBD373B0EB630FC8BF464644
:101C500000E00646AE61BDE41828C8BF18273FF76C
:101C600036AFDDE70027BBE60026B0E6002313E72A
:101C70000024A3E60023CBE70023BCE7012663E7AB
:101C8000012758E700233FE70020D5E7E83A012085
:101C9000F0B5032083B0022107F012FA5148524CEC
:101CA000524D534F534E00F051FF23780320002B29
:101CB00000F090802B78DA0740F18C803B68326826
:101CC0009B1A0E2B40F2868012214B4806F0A6FF8D
:101CD0004A4808F059FB40F22521494808F0C2FB68
:101CE000484A4948136823F0104313600824FFF75B
:101CF0002DF8464B0094224645494348FFF70CFA1D
:101D0000444B1B68DB0410D4FFF760FC00940546CD
:101D100022463E4B3E493C48FFF76AF9002D04DD60
:101D2000C5EB05108000FFF781FA4FF0FF3138480E
:101D3000FFF748FB002806DD374A136823F4004309
:101D40001360FFF773FA022220214BF68030FEF772
:101D5000F9FE324D324B334933480C221A800AF0D7
:101D600005FDD5F8F00720B108F006FC0023C5F802
:101D7000F037B5F8F647B5F8F437A4B29BB2A342F2
:101D800010D00134A4B2B4F5FA7F28BF0024234652
:101D9000083355F8230008F0EFFBB5F8F4379BB291
:101DA000A342EED101230C21A5F8F6471F48A5F860
:101DB000F83706F033FF114808F0E6FA1C4B1968B3
:101DC00071B11C4A1C4840F20A2303B0BDE8F04040
:101DD00005F058B807F066F900283FF466AF73E7DE
:101DE00003B0F0BDAD060000689D0120809C01207D
:101DF000849C0120689E012090310100E83A012076
:101E00000006FF1F80F00240644501204439012094
:101E10006839012010F00F403C800440988E01206A
:101E200038390120883901206E4A0120A43101008F
:101E3000209C0120B4310100348E01200546D0F8E9
:101E40008C0408B50C46B8B103689B6A984798B9EA
:101E5000D5F8803423B1DB794BB108F047F9FCE7C2
:101E6000D5F884341BB193F84434002BF5D12046C7
:101E70001549FEF715FDF0E714492046FEF702FD6F
:101E8000D5F88C04F0B103689B6A9847014600239B
:101E90001022204608F09EFA0D492046FEF7F2FC7B
:101EA000D5F88C0460B10368DB6A9847C1B200239F
:101EB0001022204608F08EFA204608F065FACCE79A
:101EC0000146F4E72A21E2E7D0310100C0310100E8
:101ED000CC310100074C08B505460E4620460649A0
:101EE000FEF7D0FC31462046FEF7DAFC21462846B4
:101EF000FFF7A4FFE83A0120E431010070B5044681
:101F0000B0F904050E46154630B1431E9BB2012BB5
:101F100025D903285CD070BD04F20A50FEF790FE6C
:101F200000285BD0334B196800293ED0024640F2AE
:101F3000026304F2C44004F0A5FFB0B3D4F8FC047B
:101F400028B34FF0207103F0E1FB50B34FF400725F
:101F50003146294806F062FD0023A4F80635D4F87E
:101F6000FC0402236D00A4F8043510B331462A4660
:101F700003F058FFA84238D1B4F80635B4F9082563
:101F80000133A4F80635EAB9B4F90405C1E7D4F879
:101F9000000530B14FF02072002302F015FF002839
:101FA000D4D120461549FFF795FF20461449FFF785
:101FB00091FFD4F800050028DCD031462A4603F012
:101FC00011F8D7E700220323A4F80825A4F8043564
:101FD0002046FEF789FFA4F8040570BD4FF6FF7395
:101FE000A4F804354FF0FF3070BD20460549FFF7D7
:101FF00071FF00BF209C0120804A0120183201009F
:1020000004320100EC3101002DE9F047B24EB6F880
:10201000F437B6F8F6179BB289B28B423ABF03F594
:10202000FA72531A5B1A9BB286B0002B7FD0AB4D6D
:10203000AB48B5F90010FFF7C5F9041EC0F2E68001
:102040000AD0A84AA848136823F40043136004F098
:1020500005FF2046FFF7EAF8D6F8F0079E4A002869
:1020600000F01E810022A14B023A03F5807432F980
:10207000021F23F8021F9C42F9D120B108F07CFA1C
:102080000023C6F8F0379A4BB3F90030002B00F06C
:10209000A280B5F90000974C002800F0D88026688F
:1020A0009548C6EB000E4FEA6E07802FB24600F34C
:1020B000B280002F40F30C81DFF87CC233466246C9
:1020C00032F9021B23F8021B9842F9D1DFF828A24B
:1020D0000CEB0E0606F0FAFFDFF82C82C8EB0A02C2
:1020E0005210814641468548FFF708FF288006F0D8
:1020F000EDFF834A1368C9EB00009842814B38BF5B
:1021000010601A68C7F18007904288BF18607E4B44
:102110003FB10022013236F8021B23F8021B97421E
:10212000F8DCB5F900202360002A00F08180DFF898
:1021300010E27648DEF80030754C0493036822689C
:10214000049903F57A7301328B4222603FD26C4FBF
:10215000DFF8F0813968DFF8A4916E4DDEF800E019
:10216000B9F80635674ECDF814E0414588BF4FF009
:10217000FF31009129880291DDF814E03168019166
:10218000C0F800E06449654808F016F93968288805
:102190002268B9F806350290414588BF4FF0FF31FB
:1021A0000091316801915E485E4908F005F95E4B87
:1021B0005A481B882B8000254FF000433B60356058
:1021C00008F0E2F8594A5A4B156025601D6030BF8F
:1021D00006B0BDE8F087B5F90030404E002BA6DD13
:1021E000444CDFF824812368C8EB03035A1051D113
:1021F0004248FEF779FE082228804E4B009238496B
:102200003E48FEF7F5FEC4F8008090E73B4B012204
:10221000A3F8082520E7484BB21E03F5807033F978
:10222000021B22F8021F8342F9D106F5807378E77A
:10223000082200923F4B2A493048FEF7D9FE06217A
:102240003E4806F0EBFC354808F09EF86FE7FEF7D5
:1022500047FD26682C4AB71A7F10002F0CDD07F1C6
:102260000047013F02EB4707931E2A3233F9021F52
:1022700022F8021F9F42F9D1234A031F283053F846
:10228000041F42F8041B8342F9D12C360123266037
:102290002B8005E741461948FFF730FE3080A7E75D
:1022A000B2F8F637B2F8F4279BB292B2934211D04B
:1022B00001339BB2B3F5FA7F34BF184603460830AA
:1022C00056F82000C6F8F007A6F8F637021DCAE651
:1022D000194EFFE60246C6E6988E01209C96012024
:1022E000683901203C800440348E0120228D012079
:1022F0006439012034390120808C0120644501209B
:10230000784A01207C4A0120804C0120A0960120BF
:10231000208D01208C9D012038320100E83A0120F7
:10232000248E0120583201000C9E01209896012035
:10233000D48C012044390120248D01203032010049
:10234000849C0120A0860100F8B5524D524A5349A1
:102350005348544C544F08F001FB2A68276000236F
:10236000637223612372E3600AB98EE01A465369EF
:10237000002BFBD1546100264C4B4A486661A68075
:10238000E680A6722360FEF719FB494B4FF0010E61
:1023900003F11C01324630461E72DE601F6083F876
:1023A00009E019611E4600E0316941F82200597ABE
:1023B0003F4F01329142F7DC2968364A09B966E09D
:1023C00011464A69002AFBD14B613A4D3A4A2C60CA
:1023D0000024A3F8F4475C61A3F8F6479C80DC80F6
:1023E0009C72C3F8F047A3F8F8471A6028466B6060
:1023F0002C726C72EC602C7408F00EF92846264A98
:102400002E492F4D2F4F08F0A9FA2F4B224A1C714D
:102410004FF47A761C739C64DC649E602B491D60CB
:10242000184608F09BFA2A4B2A48C3F8B4542925C9
:102430002949C3F8BC64C3F880440126C3F8844426
:1024400083F8984483F8994483F8B24483F8B844F5
:1024500083F8C044C3F8FC44C3F80045A3F808451A
:1024600083F8AF544FF6FF74C3F89004C3F89C147C
:102470001846C3F8A47483F8AD64A3F80445064A6B
:102480001649BDE8F84008F069BA2C6073E7176098
:102490009BE700BF889D012030390120BD06000068
:1024A000908E0120088D01206C2D0100CC2D0100A3
:1024B000988E01207C8E0120782D0100B10600004D
:1024C000A82D010001100138248E0120790600009A
:1024D00064450120B8340100603401009106000019
:1024E0002DE9F0410468E56815F0807F794D25609D
:1024F00052D1DF0740F1B380002900F0E3800D786E
:10250000012B18BF45F000456563013190F82C8020
:1025100003F1FF3C48EA0828BCF1000F00F0A88056
:1025200021B14D7811F8028B45EA082845682E7ACA
:10253000BCF1020F06F1FF364FEA06360CBF48F039
:10254000805548F01045B6B26563ACF1020C08E066
:102550000AB114700132013B05F47045B54216D939
:102560000468E56A15F0F00FF6D0A46B13F0010FC4
:1025700017464FEA242EEBD11AB107F802EB54703C
:102580003A4605F47045B542A3F10203E8D8BCF120
:10259000000F6DD00468C3E7DD074CD5002900F0BB
:1025A00089800D78012B18BF45F000456563013126
:1025B00003F1FF3E90F82CC0BEF1000F41D029B1CD
:1025C00091F801C00D78023145EA0C2C45682E7A4D
:1025D000BEF1020F06F1FF364FEA06360CBF4CF093
:1025E00080554CF01045B6B26563AEF1020E08E0BE
:1025F0000AB114700132013B05F47045B54215D99A
:102600000468E56A15F0F00FF6D013F0010F1746D5
:10261000A46BEDD122B107F8024B241254703A4654
:1026200005F47045B542A3F10203E9D8BEF1000FED
:1026300007D00468C3E79E4690F82CC0BEF1000F97
:10264000BDD11BB30468E16A11F0F00FFBD0A16BA0
:10265000DC071DD50AB111700132013BF1E790F89A
:102660002C809C4648EA0828BCF1000F7FF458AF44
:1026700063B10468E16A11F0F00FFBD0DE07A16BD3
:102680000FD50AB111700132013BF1E7BDE8F081CD
:102690002AB114460D1204F8021B55702246023B63
:1026A000CFE72AB114460D1204F8025B517022469E
:1026B000023BDDE790F82C50012B18BF45F0004598
:1026C000656375E790F82C50012B18BF45F0004565
:1026D00065631BE700041F800BB1FFF701BF704764
:1026E000644A654B2DE9F04F644EDFF8A0A1644CBD
:1026F000DFF89091A2FB00524FEA124C0CF1040754
:10270000A3FB0025A6FB0062A7FB0AAB6D09D20A5A
:10271000A3FB0563A4FB0264CBEB07060BEB560699
:102720005B09B6082409C6EBC606C3EB031304EB2A
:102730004404A5EB8303BE1BC5EB0515A2EBC40245
:10274000A0EB8500013600248A7008704B70CE70B3
:10275000224640F26D1B4FF064084FF4C87A0EE039
:10276000C6EBE5150AFB153570BB002D14BF5846A6
:102770004FF4B7700244944504F1010413D3E7B257
:1027800007F2B27389FB0305DE17C6EB651013F081
:10279000030E08FB1030E3D040F26D100244944564
:1027A00004F10104EBD28F71BEF1000F0FD1354857
:1027B000DE1780FB0340C6EB6014642505FB143470
:1027C000BCB34FF4B77405E04FF4B770D2E740F2F2
:1027D0006D14DE172B482C4D80FB0370C6EB601880
:1027E000121BC6EBE01664244FF4C87000FB1636CB
:1027F00004FB1838C2EB0C020120002302E0013078
:10280000C0B20133012BDFB220D05C5D944209D805
:102810000C28A2EB0402F2D10D2701320A714F718C
:10282000BDE8F08F0137FFB201320A714F71BDE888
:10283000F08F4FF4C874C6EBE01004FB1030002892
:1028400040F26D1408BF4FF4B774C3E7BEF1000F38
:102850000AD1B8F1000F0BD1002E14BF1C241D2487
:10286000A24203D3121BCAE71C24F9E70227D4E7CC
:102870001D24F5E707452EC289888888C5B3A29133
:10288000ABAAAAAA1F85EB517832010025499224F0
:1028900010B503490446FFF723FF024B1C6010BD2F
:1028A000A8960120A49601202DE9F04139498679A6
:1028B00001FB06F106B306F2B27C40F2B373DFF817
:1028C000D8E064274FF4C8780DE013F0030F09D166
:1028D000C2EBE51208FB123204B91AB901F5A831AE
:1028E00001F5C07101338EFB0325DA17C2EB6514C5
:1028F000634507FB1434E8D14779012F2FDD264CBF
:10290000264ADFF89CE006F2B27384FB0346DC172C
:10291000C4EB661C6425C4EBE6164FF4C87405FBD3
:102920001C3C04FB163603F00305012307E0147872
:102930000133BB420EFB041102F101020FD0022B46
:10294000F5D1002DF3D1BCF1000F1BD001F518110A
:1029500001F56E510133BB4202F10102EFD1437820
:102960008578047802790E48C3EB03134FF461664F
:102970009B0006FB05332344013A00FB0230084468
:10298000BDE8F081002ED2D101F5181101F56E518C
:10299000E0E700BF8033E1011F85EB517832010091
:1029A00080510100F0B5204C204E23683268204D44
:1029B00083B028680093009B9B1AB3F57A7F0FD3EE
:1029C000013000E0084623680093009B02F57A720C
:1029D0009B1AB3F57A7F00F10101F3D228603260CF
:1029E000144F3B6898420FD3134B1B6863B1984751
:1029F000124B58B912491A680B7828680033024400
:102A000018BF01233A600B7003B0F0BD2268019239
:102A10001B680B4A019C28600344022134603B6020
:102A2000117003B0F0BD00BF849C0120BC96012052
:102A3000B0960120C0960120B8960120903901205F
:102A4000B496012008B5FFF7ADFF044B1B68984210
:102A500001D0FFF71DFF024B987808BDA496012016
:102A6000A896012008B5FFF79DFF044B1B6898420C
:102A700001D0FFF70DFF024B587808BDA496012046
:102A8000A896012008B5FFF78DFF044B1B689842FC
:102A900001D0FFF7FDFE024B187808BDA496012077
:102AA000A896012008B5FFF77DFF044B1B689842EC
:102AB00001D0FFF7EDFE024B187908BDA496012066
:102AC000A896012008B5FFF76DFF044B1B689842DC
:102AD00001D0FFF7DDFE024B587908BDA496012016
:102AE000A896012008B5FFF75DFF054B1B689842CB
:102AF00001D0FFF7CDFE034B987900F2B27008BD0C
:102B0000A4960120A896012070B40A4B0A4A1B68BB
:102B100012680A4E0A4D0B49306083B0104401938D
:102B2000019C094B286002220C601A7003B070BC33
:102B3000704700BF849C012090390120B09601208D
:102B4000C0960120BC960120B49601200349044A96
:102B5000044B096811601860FFF724BFB09601208C
:102B6000C0960120B8960120024A0349034807F0A5
:102B7000F5BE00BF30390120BD060000C49601201B
:102B8000024A0349034807F0E9BE00BF303901207B
:102B9000BD060000CC960120024A0349034807F015
:102BA000DDBE00BF30390120BD060000D4960120F3
:102BB000024A0349034807F0D1BE00BF3039012063
:102BC000BD060000DC960120024A0349034807F0D5
:102BD000C5BE00BF30390120BD060000E4960120CB
:102BE000024A0349034807F0B9BE00BF303901204B
:102BF000BD060000EC96012038B5074D074C08488B
:102C00002A46214607F0AAFE2A4621460548BDE885
:102C1000384007F0A3BE00BF30390120BD060000D8
:102C2000F4960120FC960120024A0349034807F06C
:102C300095BE00BF30390120BD0600000497012079
:102C4000024A0349034807F089BE00BF303901201A
:102C5000BD0600000C970120006910B103689B6A53
:102C600018477047006910B10368DB6A184770475E
:102C7000006910B103681B6918477047006910B1FB
:102C800003689B6918474FF0FF307047006910B127
:102C90000368DB6818477047006910B10168096B69
:102CA0000847704710B4006920B10468616B5DF893
:102CB000044B08475DF8044B704700BF006910B132
:102CC00003689B6B1847002000217047006910B112
:102CD0000368DB6B1847002000217047006910B1C2
:102CE00003681B6C18477047006910B103685B6C80
:102CF00018477047006910B103689B6C184701487A
:102D0000704700BFB02E0100006910B10368DB6C92
:102D10001847704738B50B6904462BB11D68194632
:102D20002B6D9847204638BD4FF47A70064A2371C0
:102D30002373A06022600B692361002BF2D01A6913
:102D400001321A61204638BDB0320100006910B16D
:102D500003685B6D18477047006980B100B5036870
:102D600083B09B6A01220DF10701984720B19DF8BD
:102D7000070003B05DF804FB4FF0FF30F9E74FF0B8
:102D8000FF30704710B582B002AB026803F8011D36
:102D9000D46A19460122A04702B010BDC36D0BB121
:102DA00001207047006E003018BF0120704700BF3F
:102DB00010B50446406E18B108F00CFE002363669F
:102DC00004F12400BDE8104004F048B810B50446F2
:102DD000024603690549064807F0EEFA206920B16A
:102DE0000368BDE810405B6A184710BD68330100F6
:102DF000E83A0120024603690149024807F0DCBABB
:102E000084330100E83A01202DE9F041002394B019
:102E10001A460546243104A84FF47A74254F8DF8DC
:102E200004308DF80C30129313930294009704F041
:102E300069F8129B002B32D0682007F021FD044670
:102E40009DF80460029A9DF80C301B481B492676B9
:102E50004FF47A78002620606161E26184F82030C6
:102E600004F1240004A9267126732661C4F80880A1
:102E700003F0B8FF2369124A6761013366662E7159
:102E8000C5F808802E732C6123612A600D4B0093D6
:102E900004A803F0E3FF284614B0BDE8F081139BBB
:102EA000002BC9D1064A2B71AC602B732B612A60B1
:102EB000ECE700BFA82D0100103301008C320100A7
:102EC000B0320100842D0100C36D13B1184602F029
:102ED00015BD006E08B100F0EBBE4FF0FF3070473B
:102EE000C36D13B1184602F05BBF006E08B101F06C
:102EF0002DBE704738B5446E0CB1204638BD05462E
:102F00004FF4807008F05EFD0146686680B1E86DA0
:102F10000C7028B14FF4807203F0D4FA6C6EECE7B9
:102F2000286E40B14FF4807200F020FD6C6EE4E733
:102F3000024C6C66E1E70C46DFE700BF1497012006
:102F4000C36D9BB11A7812F0700F00D1704710B5A5
:102F500004460021184602F01FFE206E28B1002210
:102F60000023BDE8104000F0BBBE10BD006E00287D
:102F7000ECD090F8313013F0500FE7D0002200234E
:102F800000F0AEBED0B5C46D8CB1012B08BF002AD5
:102F900001D30020D0BD1146204602F0FDFD0028DF
:102FA000F7D0204602F002FF0028F2D0D0BD046E18
:102FB000002CEED0204600F093FE0028E9D02046F9
:102FC000BDE8D04001F09CBFC36D13B1D8690021AA
:102FD0007047036E13B1186959697047184619464E
:102FE000704700BFC36D13B1586900217047036E6D
:102FF00013B193E80300704718461946704700BFA5
:10300000C36D13B1184602F0A9BB006E08B100F001
:103010007BBD4FF0FF307047C36D33B11B7813F0A9
:10302000700F14BF012000207047006E30B190F87F
:10303000313013F0500F14BF01200020704700BF43
:10304000C36D13B1184602F0EDBE006E08B101F079
:10305000C9BF7047C26D62B1137803F0080303F073
:10306000FF0003B3D3695069181A48BF6FF00040DE
:103070007047016EC1B191F8313003F0080303F0DD
:10308000FF0083B1D1E90423D1E90001101A30B463
:1030900063EB010100256FF000448D4208BF8442BC
:1030A00000D2204630BC704708467047D0B4039C1D
:1030B00016461F4634B1012C1ED0022C0DD0002024
:1030C000D0BC7047C46DDCB1012B08BF002AF6D21A
:1030D00020461146D0BC02F05FBDC36DB3B1DA69C2
:1030E000B61847F10007012F08BF002EE7D231467E
:1030F0001846D0BC02F050BDC36D8BB15A69EFE7E2
:10310000006E0028DBD0D0BC00F0EABD006E0028C5
:10311000D5D0D0E9042392197B41D0BC00F0E0BDAA
:10312000006E0028CBD0D0E9002392197B41EAE75A
:103130000269084B10B50446036042B11369013BB4
:10314000136123B9006910B103681B6A98472046D0
:1031500010BD00BFB032010038B5C36D144A026023
:10316000044600F12405F3B1284603F077FE606EB3
:1031700008B108F02FFC0F4B6361284603F06EFE88
:1031800022690D4B236042B11369013B136123B9DE
:10319000206910B103681B6A98472046682107F030
:1031A00071FB204638BD036E002BDDD1DFE700BF89
:1031B00010330100842D0100B032010002690A4B76
:1031C00010B50446036042B11369013B136123B992
:1031D000006910B103681B6A98472046142107F064
:1031E00051FB204610BD00BFB032010038B5C36DA1
:1031F000124A0260044600F12405D3B1284603F0C8
:103200002DFE606E08B108F0E5FB0D4B63612846AA
:1032100003F024FE22690B4B236042B11369013B8A
:10322000136123B9206910B103681B6A98472046CF
:1032300038BD036E002BE1D1E3E700BF103301007E
:10324000842D0100B0320100024A0349034807F00F
:1032500085BB00BF30390120BD0600001897012052
:10326000024A0349034807F079BB00BF3039012007
:10327000BD06000020970120024A0349034807F0D9
:103280006DBB00BF30390120BD060000289701202A
:10329000024A0349034807F061BB00BF30390120EF
:1032A000BD06000030970120024A0349034807F099
:1032B00055BB00BF30390120BD0600003897012002
:1032C000024A0349034807F049BB00BF30390120D7
:1032D000BD06000040970120024A0349034807F059
:1032E0003DBB00BF30390120BD06000048970120DA
:1032F000024A0349034807F031BB00BF30390120BF
:10330000BD0600005097012090F8392090F8380051
:10331000101A704790F8383090F839209A4205D941
:103320005A1C034480F83820187E70474FF0FF3055
:10333000704700BF90F8383090F839209A4286BF25
:103340001B18187E4FF0FF30704700BF704700BF5A
:1033500038B50546B0F85E0090B195F85D3014467A
:10336000C3F1210294420CD805F13B0018442246D7
:1033700005F054FB95F85D30234485F85D30204618
:1033800038BD012014462871EEE700BFB0F85E306A
:103390006BB190F85D30202B07D8C218013380F84C
:1033A0005D30012082F83B1070470123037100203B
:1033B000704700BF38B50269D478E4B2E10605462B
:1033C00024D51023D37063061FD504F0040404F041
:1033D000FF03002C5AD042496A6E00230B7085F817
:1033E0005D30002A66D0904795F85D30002B61D0A3
:1033F0002B69D0229A702B6995F83B201A712B69A2
:10340000012285F85C200222DA7038BD04F0400306
:1034100003F0FF00002BD8D19379DBB203F06001F9
:1034200060294ED0937803F0100303F0FF01B3B18D
:1034300014F0010437D195F85C3095F85D1099428D
:103440004BD9591C2B4485F85C1093F83B30137111
:103450002B69D0229A702B690222DA70D5E785F8A1
:103460006010937943F0200393712B6995F839101C
:103470001A791F29D2B2C6D8194800780028C2D0BC
:103480006818013185F839100276BCE72A6985F899
:103490003930C02393702B69114A197901211170B9
:1034A0000222DA70B1E7C02393702B691A790222E5
:1034B000DA70AAE70122002385F85D2085F83B3009
:1034C00096E703F0DF039371AB6E23B185F8380004
:1034D00095F8390098472A69A4E71471B8E700BF46
:1034E000589701200148FFF765BF00BF003A01204F
:1034F0000148FFF75FBF00BF6C3A01200148FFF7AA
:1035000059BF00BF94390120704700BF10B5D0F8F3
:1035100084448EB0A4B10A466846214601230024A3
:103520008DF800408DF801408DF8024002F0E0F87F
:1035300008B90EB010BD684603F060F90EB010BDBA
:10354000D0F888040028F4D00A46012301466846D2
:103550008DF831408DF832408DF8334000F0AEFEEA
:103560000028E6D0684601F0B5F90EB010BD00BFE6
:1035700010B5D0F884448EB07CB10A46012304F221
:103580004441684600248DF800408DF801408DF8D4
:10359000024001F0EBFF0EB010BDD0F88804002807
:1035A000F9D00A46012300F5896168468DF831405B
:1035B0008DF832408DF8334001F09AFB0EB010BD0B
:1035C00030B5D0F884448FB074B100250A462B463C
:1035D000214668468DF800508DF801508DF8025054
:1035E00002F086F80FB030BDD0F888040028F9D07A
:1035F0000A462346014668468DF831408DF8324030
:103600008DF8334000F05AFE0FB030BD38B5054696
:10361000D0F88404C0B1C469013C02F02FFED5F893
:103620008434241A43B198794FF4007303FA00F0FC
:1036300080B2A0FB040138BDD5F8883463B1D3F85B
:103640003C04A0FB040138BDD5F8880420B1D0F8B3
:10365000304400F0F9FFE2E70020002138BD00BF50
:1036600030B5D0F884448FB0A4B100250A462B466B
:10367000214668468DF800508DF801508DF80250B3
:1036800002F036F808B90FB030BD684602F056FABD
:103690000FB030BDD0F888040028F4D00A46234685
:1036A000014668468DF831408DF832408DF8334040
:1036B00000F004FE0028E6D0684601F077F90FB06C
:1036C00030BD00BF70B5D0F884448EB01646C4B18A
:1036D000002504F244440A462B46214668468DF8EC
:1036E00000508DF801508DF8025001F0A1FF08B98B
:1036F0000EB070BD32462146684602F035F90EB074
:1037000070BDD0F888040028F2D000F589650A461B
:103710002346294668468DF831408DF832408DF8B1
:10372000334000F04BFD0028E2D03246294668467F
:1037300001F090FB0EB070BDD0F884244AB19179AD
:10374000D0694FF400738B409BB20138A3FB00019A
:103750007047D0F8882432B1D2F83034D2F83C0423
:10376000A3FB000170470020002170472DE9F041C4
:10377000012B94B0054641D0022B01F1040140F227
:103780000223684618BF002303F050FC129B002B55
:103790003DD0682007F074F804469DF80460224884
:1037A0002249029A9DF80C30206004AF26766161B0
:1037B00000264FF47A78394604F12400E26184F857
:1037C0002030267126732661C4F8088003F00AFBB6
:1037D00023691749174A666601332E71C5F80880B8
:1037E0002E732C61616123612A60134B009338466C
:1037F00003F034FB284614B0BDE8F08144F2022304
:103800000431684603F012FC129B002BC1D1139BBC
:10381000002BBED14FF47A71064A2B712B732B61AA
:10382000A9602A6004AFE0E7103301008C32010088
:10383000A82D0100B0320100842D0100F0B4114B1D
:10384000114D124C1D60C3F8A044292500241048D6
:10385000104F83F8B354012683F89C4483F89D44A9
:1038600083F8B644C3F89404C3F8A87483F8B16429
:10387000C3F88444C3F88844074A08491846F0BC92
:1038800007F06CB85C97012030340100603401000F
:10389000B834010001100138303901200935000029
:1038A000F8B5044600F110064068E1680368324646
:1038B000DB69984740B123789A07054607D423F07F
:1038C000010323702846F8BD00252846F8BD60682E
:1038D000E1680268A368D76919443246B8470028EE
:1038E000F2D02378EBE700BFF8B54568FDB1C368B7
:1038F0008B42044617460E460ED00378DA0712D4E0
:103900007B0716D504F1100507F0030200231343CB
:1039100023702846E660F8BD10F9103B07F003025B
:1039200013432370F8BDFFF7BBFF0028E8D1002048
:10393000F8BD6068036804F11005DB682A4631466B
:1039400098470028E0D1F2E70378DB0701D4012093
:103950007047FFF7A5BF00BF10B5044601F0F6F8A9
:10396000002384F8313084F8333010BD2DE9F04362
:1039700000F1240381460F46154693E8070085B001
:1039800099F8313001AE86E80700002B3ED099F857
:103990003030012B3FD94FF001080024B8F1010F5E
:1039A00014BF202240223146D9F8200000F0C4FD87
:1039B00001282BD100223146D9F8200000F0A2FDC9
:1039C00020B30378C12B21D1391904F10F0E00E087
:1039D000144630F8023F621C93B1AA4210D27E2BEB
:1039E00094BFDBB23F23724501F8013BF0D108F1EF
:1039F000010899F830305FFA88F843451446CDD86D
:103A0000002320463B5505B0BDE8F0830020387008
:103A100005B0BDE8F0830024F2E700BF90F8312044
:103A20000AB10020704738B504460D4611463822C9
:103A300008F08CFB4023012084F8313084F83300F7
:103A4000256238BDF0B50878202803D111F8010FA0
:103A50002028FBD051600878002851D02F282BD087
:103A60005C2820D0A0F12204E4B21D2C1DD9DFF87F
:103A700094E04E1C00247C28A0F12005374612D08B
:103A80005E2D10D816F8010BA0F12205EDB201341D
:103A900078B32F2811D05C282EFA05F703D01D2DFE
:103AA000E9D8FD07E7D50020F0BD164D25FA04F44E
:103AB000E607DCD50020F0BD00240F193E46254660
:103AC0002F2002E016F8010F01352028FAD02F2808
:103AD000F8D02944196044B1394611F8013D2E2B24
:103AE00001D0202B08D1013CF7D1204610600120E5
:103AF000F0BD1F600F19EFE7FF2CF6DD0020F0BDD1
:103B00001960F3E7010100352DE9F04F90F83330EB
:103B1000DE0783B004465AD55D060E46934640F153
:103B2000B880D4E90001D4E9042310EB0B0841F17B
:103B300000094B4508BF4245C0F0B180BBF1000F02
:103B40006ED0A146F9E806015D46276AD7F83834F9
:103B50000340C3F3080A002B68D150EA010275D173
:103B600094F8312051064CBFD7F83424E269A261A1
:103B7000D7F82C0497F845E45B0A023A191802FAC0
:103B80000EF21144BAF1000F2CD1B5F5007F29D304
:103B9000D7F81C22914225D0B5F5806F5DD34FF048
:103BA000010808FA0EF8C3EB08034FEA55289845B8
:103BB00028BF984691423BD808EB01039A4237D27E
:103BC00007F504700191FFF7BFFE019980BB94F8DF
:103BD00032304FF0FF3043F0020384F8323003B04C
:103BE000BDE8F08F07F504700022FFF77DFE002886
:103BF000EDD0CAF50078A84528BFA84600EB0A0119
:103C00004246304604F00AFF42460023D4E9000150
:103C100080185941B5EB08054644C4E9000194D128
:103C20000025C5EB0B0003B0BDE8F08FA2699FE74C
:103C3000D7F81402036832461F694346B847002884
:103C4000C5D04FEA482842460023DFE794F83320E6
:103C5000520610D5A269013289E7D7F81402036829
:103C60003246DB6898470028B1D04FF40072002339
:103C70004FF40078CAE738464A46A169019300F03C
:103C800087FC40B20028A2DB0CD0276AA269019B06
:103C90006EE790F8313018073FF543AF4EE7C0EBC1
:103CA000020B4BE794F8313013F0500FB9D18EE787
:103CB000F0B583B001220DF107010446D0E9006799
:103CC0008569FFF721FF012808BF9DF80700A5615E
:103CD00018BF4FF0FF30C4E9006703B0F0BD00BF6C
:103CE0002DE9F04F90F831E0856983B00446BEF1CC
:103CF000000F1BD0D0E90001994208BF9042164640
:103D00001F463BD056EA070307D10023A3610120D9
:103D1000C4E9006703B0BDE8F08F1EF0080F0AD0B9
:103D2000D4E90423BB4208BFB24204D2A5610020FB
:103D300003B0BDE8F08F236A019393F845C494F86B
:103D400033A00CF1090C5FFA8CFC16F1FF3247F13D
:103D5000FF33CCF1200803FA08FB22FA0CF242EA06
:103D60000B02ACF1200B23FA0BF31AF0400F42EADE
:103D7000030205D0E3691A44A261C8E70120D7E72E
:103D800010F1FF3941F1FF3A29FA0CFC0AFA08F860
:103D90004CEA080C2AFA0BFB4CEA0B0C6245534622
:103DA00017D21EF0400F16BF019BE369D3F83434DD
:103DB000A361904604F118094A46B8F1000FA6D055
:103DC000A169206A00F0E4FB08F1FF380028F3D174
:103DD000ACE750EA0103E4D0CCEB0202E9E700BF14
:103DE0002DE9F04F0E4693B090F831100092054641
:103DF00029B99A4696F8313013F0500F07D10020B8
:103E000085F8310085F8330013B0BDE8F08F1C9BB6
:103E100003F00303012B06D0022B00F00981002BD5
:103E2000EDD1012300E002231C9A02F008021343A3
:103E30000193009B002B00F0FD80184600225146A4
:103E400000F0E4FC96F8313002904BB1D6E9002343
:103E5000134305D000220023C6E900230021B161ED
:103E6000B84A0AF10E0382FB03121A44DB17C3EBB4
:103E7000E203DBB24FF00009039302335FFA83FBE6
:103E80004C464F4620220AA93046FFF73DFE002847
:103E90003DD02028B3D19DF828301A0666D4002CD6
:103EA00061D13268B1690791203A08920134E4B2D5
:103EB0006BB3C02B00F09380C12B62D0852BE1D176
:103EC00038220021284608F041F99DF82C309DF851
:103ED000292085F83020D80603F0370258BF42F079
:103EE000080285F831203368316AB2696A62203B82
:103EF0002962AB6296F83330C3F3801385F82C3017
:103F000020220AA93046FFF7FFFD0028C1D11C9BE3
:103F100099057FF574AF019B9A077FF570AF009B01
:103F2000002B3FF46CAF5C450CD386E020287FF477
:103F300066AF24B93268B1690791203A0892DCB2C1
:103F4000A3457AD920220AA93046FFF7DDFD631C7C
:103F50000028EBD13046B76900F028FE00283FF476
:103F60004EAFB761ECE75C45A2D29FE7B9F1000F15
:103F70009FD15C4538BF0024852B83D14FF00109C8
:103F80009EE7C7EB0A085FFA88F8B8F10F0F28BF61
:103F90004FF00F0843463A4600990AA800F00AFC81
:103FA00000283CD04744FFB2BA457FF46BAF1C9B5E
:103FB0001B053FF524AF1C9B13F4884F40F0A080F5
:103FC00095F833309F0700F19B801C9B5B053FF504
:103FD00016AF1C9B580400F1B780012014E79DF830
:103FE0002930019A85F83320990703D542F0400320
:103FF00085F83330DDE90C23DDE91001C5E9042340
:104000000F9BEB61009BC5E90201002BCFD09DF80F
:104010002B30534505D04FF000094F4632E781461B
:1040200030E7BDF82C30029A9342F4D1002729E7FB
:104030000323F9E6009B029312E796F83330382207
:10404000C3F38013002128460DF11C088DF824309D
:1040500008F07CF8039C336ACDF80CA098E80700C0
:1040600004F10109082485F831400AF11E0705F121
:104070002404DDF800A02B625FFA89F984E80700C8
:10408000FFB2002618460122414600F03BFA0446E2
:1040900000283FF4B4AE90F90030002BFFF6AFAE2D
:1040A0002022002108F052F8002E66D0012E54D0B4
:1040B000C6EB06130F2FA3F11E034FF0C1023946C2
:1040C00028BF0F21DBB2227051B1023409B204EBD8
:1040D0004101534413F8012B24F8022BA142F9D1DA
:1040E0000136F6B2B34529D920224146286A00F0AC
:1040F00023FA01287FF483AE0F3FFFB2286AC2E79C
:1041000095F8313013F0110F7FF479AE1C9B5E05EA
:104110007FF55FAF95F833309C077FF570AE0022D6
:1041200000232846FFF7DCFD00283FF468AE284650
:1041300000F0E6FE00283FF462AE4EE7284600F0AD
:1041400005FD61E689888888D5E904232846FFF7BC
:10415000C7FD00287FF441AF51E6C0232370019BC7
:10416000032263F03F03627085F833309DF80C3012
:10417000E370BDF80830A380B2E7852323700E4BAF
:1041800085F8309084F801901B687BB10DF117021F
:104190000DF11A0106A89847BDF81810BDF81A20AD
:1041A0009DF8173061812281237599E745F221231B
:1041B0006381E381638293E7149C01202DE9F0433E
:1041C000064695B096F83140039200208DF84900DC
:1041D0008DF84A008DF84B0034B9994691F831308A
:1041E00013F0500F0D4603D1002015B0BDE8F08349
:1041F00013782F2B144632D04FF00008214603AB22
:1042000004AA3046FFF71EFC0028EDD0039B1B7864
:10421000002B39D09DF81030059ACDF80080294642
:104220003046FFF7DDFD0028DED0344606AF06F14C
:10423000300E20686168A268E3683D460FC51034FF
:1042400074452F46F5D120682860304600F07EFC8A
:1042500006AD86F8318086F83380039CCEE70134C2
:10426000039421782F29FAD0D1B1382206A8002151
:104270002F6A07F06BFF4022012306AD0E978DF8E1
:1042800049208DF84B30B7E79DF81030059ACDF8EE
:10429000009029463046FFF7A3FD15B0BDE8F08336
:1042A000382230462C6A07F051FF40230120346247
:1042B00086F8313086F8330097E700BF19B101F571
:1042C0008961FFF77BBF0846704700BF90F8313027
:1042D00053B930B591F8314014F0500483B00D4615
:1042E00004D1204603B030BD00207047D5E9004519
:1042F000002504F01F042C4302D0184603B030BD43
:1043000000921A46FFF76CFD03B030BD38B50C467D
:10431000D0F82414154601EBD41100F504700022E6
:10432000FFF7E2FA40B1A400C4F3080403595A1C91
:1043300004D02B60012038BDFF2038BD002038BDDF
:1043400038B50C46D0F82414154601EBD41100F50D
:1043500004700122FFF7C8FA034628B1A400C4F391
:10436000080401201D5138BD38BD00BF2DE9F84FAC
:10437000804691468B46002944D08F1ED8F83034B1
:104380009F423BD207F00705012303FA05F5EDB282
:10439000C7F3C80A3E463C46D8F82C14002201EB6D
:1043A00014314046FFF7A0FAC0B110F80A100AE035
:1043B0004A452AD0A74210D0D8F83024944217D2C8
:1043C00013F0FF050CD001340D424FEA4503A4EB76
:1043D0000602EDD0A7422646EED10120BDE8F88FB7
:1043E0000AF1010ABAF5007F4FF00105DDD101E0C5
:1043F000002634464FF0000A0125CDE70027BA46D3
:104400000125C7E7D0F82074B8E7BBF1000F04D14D
:10441000B9F1010F08BFC8F82064B01CBDE8F88FDF
:104420002DE9F04702398046D0F8300415468A1845
:10443000824238D89A46D8F82034BAF1000F35D1E4
:10444000994238BFC8F8201401F007040122D8F8B7
:104450002C3402FA04F4E4B203EB1139C1F3C806B8
:104460000122494640469144FFF73EFAD8B18719E8
:1044700000F5007017F8012B224214BF0126002618
:10448000564582EA04024FEA44040CD0013D07F885
:10449000012C15D014F0FF04EED1B84226464FF09F
:1044A0000104E7D1DCE70020BDE8F0879942CBD8D2
:1044B0009A42C9D9824228BF0022C8F82024C3E703
:1044C0000120BDE8F08700BF70B582B002AE05469E
:1044D00046F8041D0024D5F830340199013399427F
:1044E00002D9002002B070BD32462846FFF70EFF09
:1044F00040B20028F5DB04F10104ECD1204602B003
:1045000070BD00BFF8B50E4696E82800D0F8381404
:10451000D0F82C4490F845742940023B04EB51211B
:10452000BB40194400F50470FFF7DEF918B1736859
:10453000C3F308031844F8BD70B54C680D46A318C2
:10454000D0F838146B6090F845340C40093322449D
:10455000DBB222FA03F406463CB12B7A3BB12B685E
:1045600001332B60013C002CF7D1012070BDD6F83F
:10457000303429680133994202D94FF0FF3070BDC1
:104580002A463046FFF7C2FE40B20128EAD070BD8D
:10459000D0F8303401338B4201D2FF207047FFF74F
:1045A000B5BE00BF01290DD9D0F83034013399428E
:1045B00010B403D900205DF8044B70475DF8044B3C
:1045C000FFF7BEBE00207047F0B50C4683B005462D
:1045D0000E46D5F8303401339C4202D9002003B096
:1045E000F0BD01AA21462846FFF790FE47B2002FF2
:1045F000F4DB012CF2D9D5F8303401339C42EDD8EC
:10460000002221462846FFF79BFE0028E6D0019BAA
:1046100001349C420BD1002FDBD13B46A21B31461B
:104620002846FFF7FDFE0028D8D003B0F0BDA21B3E
:10463000314600232846FFF7F3FE0028CED0019C28
:10464000002FCCD02646C4E72DE9F8430024D0F84B
:104650002C64804600F50477254631460022384612
:104660000136FFF741F930B300F1FF3ED8F830C40E
:104670001EF8010FFF2805F5805913D048B1082214
:10468000012318424FEA430118BF0134013ACBB26B
:10469000F7D10835AC450AD94D45DED01EF8010FDB
:1046A000FF28EBD10835AC4504F10804F4D8C4EB7D
:1046B0000C00BDE8F883BDE8F88300BFF8B50446F8
:1046C00000234FF0FF3600F50477C0F84014416036
:1046D000C0F814121546384684F84434237084F820
:1046E0001032E660C4F81C621A461946FFF7FCF85F
:1046F000042D0CD8064650B15DB905222649F01CA0
:1047000008F00CF918B996F86C30092B19D0002074
:10471000F8BD6B1E00EB031393F8BE2112F07F026D
:10472000F5D193F8C231002BF1D000EB05153846D6
:10473000D5F8B6512946FFF7D7F806460028DCD150
:10474000E5E7336D2B44C4F82434736DC4F8283482
:10475000B36D1D44C4F82C54F36DC4F83034336E7B
:10476000C4F8343496F86D3084F8453401250933A3
:1047700005FA03F35A1EC4F820040146C4F83C3479
:10478000C4F8382420462A46FFF7F0FD402384F879
:1047900044342846F8BD00BF5034010010B504462B
:1047A000D0F83414FFF790FE94F845340933DBB2A7
:1047B000984010BD43B370B444887E2C1ED8134477
:1047C000CD180A44023012F8013BE4B2A3F16101B2
:1047D0001929A4F1610194BF20260026192994BF4C
:1047E000202100219B1B641ADBB2E4B29C4205D15C
:1047F000AA4206D030F8024F7E2CE4D9002070BCCB
:104800007047012070BC704701207047C9B110B4D7
:104810000144D30343EA520310F8012BA2F16104CF
:10482000192C9CBF203AD2B212FA83F292B2D3036F
:1048300043EA5202814292B2EBD110465DF8044B3A
:1048400070471046704700BF8169F8B50446006A9A
:1048500001B101310122FFF789FD012806462FD958
:10486000012301461A46206AFFF7DAFD074638B3EE
:10487000A06994F8333030B35A0613D5421C9642DF
:1048800025D023F0400284F83320E36905E0206A54
:10489000FFF788FEA0B1A0692B465D1C8342194634
:1048A0002A46F4D34FF0FF323146206AFFF77AFEF2
:1048B00030B1A16959B13246206AFFF773FE30B9B1
:1048C00000273846F8BD43F0400384F83330A66132
:1048D0003846F8BD2DE9F04300F12403054693E87E
:1048E000070085B095F8333001AE86E807009A07D7
:1048F0001BD5E969E9B9002401223146286AFFF78E
:1049000001FE0134E4B280B1037803F07F03037049
:1049100095F83030A34231D3002CEDD0202231461F
:10492000286AFFF709FE0128E6D0002005B0BDE89F
:10493000F0835B06286A1CD5D5E9022390F845442C
:104940000934E4B212F1FF3843F1FF39C4F1200712
:1049500009FA07F728FA04F2A4F1200329FA03F36D
:104960003A431A4301320023FFF75AFD0028C2D10F
:10497000DBE7FFF729FE0028BDD1D6E72C6A00232C
:10498000204685F8313085F83330FEF7DDFF00280A
:10499000CBD004F50470FEF7D7FF0028C5D0D4F8BB
:1049A000400403689B699847C0E700BF90F8313026
:1049B000D90601D40020704710B5002288B000232A
:1049C0000446FFF78DF906E0202819D19DF8003044
:1049D0001A0615D433B1202269462046FFF794F811
:1049E0000028F1D194F83330082243F0020384F810
:1049F000333084F831202046FFF76CFF08B010BD3B
:104A0000002008B010BD00BF2DE9F04F00F1240BCD
:104A100006469BE8070087B00DF10C0888E8070000
:104A20000027BA463C4600224146306AFFF76AFD3D
:104A30005FFA87F9054630B10378C02B51D0C12BFE
:104A40004DD0852B09D096F8323043F0010386F81B
:104A50003230002007B0BDE8F08F3B4B96F8312094
:104A60001B6890F801A002F03702828083B10DF13B
:104A700007020DF10A0102A89847BDF80A20BDF807
:104A800008309DF807106975AA812A82EB816B8234
:104A9000326A92F8103243F0010382F8103228781B
:104AA00000216A5CE30343EA540412FA84F4012906
:104AB000A4B201F101010DD01F29F2D9CA4526D0B7
:104AC00020224146306AFFF737FD012807F1010730
:104AD000A9D0B8E785280CBF04210221E1E71846D8
:104AE000DEE796F8333013F0400F437814BF43F0FD
:104AF000020323F002034370D6E90423C0E9022332
:104B0000D6E90223F1694161C0E90623C0E75946AD
:104B10000122306AFFF7F6FC002894D0356A448001
:104B20002846FEF711FF00288DD005F50470FEF72A
:104B30000BFF002887D0D5F8400403689B6998478D
:104B4000002880D086E700BF149C012090F8312017
:104B500092B138B590F8332011060FD4056A044697
:104B60002846FEF7F1FE88B994F8323043F001038D
:104B700084F83230002038BD0120704702F07F02F7
:104B800080F83320BDE83840FFF73EBF05F50470DC
:104B9000FEF7DAFE0028E7D0D5F8400403689B69E9
:104BA00098470028E0D0012038BD00BF2DE9F04132
:104BB00090F831305906044660D48068236AD3F8EF
:104BC0003C341844B0F1806F02D30020BDE8F0817E
:104BD0002046FFF739FE0028F7D0266A96F81032F3
:104BE000DA074FD44FF0FF33002506F50878C6F8F2
:104BF0001C3286F8105229464FF40072404607F0E6
:104C0000A5FA226AA36992F84504D2F82C14023B53
:104C1000834001265F1816FA00F310D0D2F8400442
:104C200003687919DB694246984701350028CCD0E2
:104C3000226A92F8453406FA03F3AB42EED894F8B0
:104C400031305B0615D494F8333063F07F0384F879
:104C50003330D2F83C64D4E90223D4E90401921938
:104C60004FF000077B4180197941C4E90223C4E970
:104C700004012046BDE8F041FFF768BF006AFFF776
:104C80008DFD9BE706F50470FEF75EFE0028A9D1B6
:104C90009BE700BF91F8313013F0500F01D1002095
:104CA000704730B583B040F60225137852680095FE
:104CB0000446FFF795F810B9002003B030BD10236B
:104CC00084F831302046FFF771FF0028F4D0A36943
:104CD000E361002200232046FFF702F8C1232046AB
:104CE00084F8333003B0BDE83040FFF72FBF00BF7A
:104CF0002DE9F043064695B096F831500392002016
:104D00008DF849008DF84A008DF84B0035B9994669
:104D100091F8313013F0500F0C4603D1002015B03C
:104D2000BDE8F08313782F2B114636D04FF00008E2
:104D300003AB04AA3046FEF785FE0028EED0039BA5
:104D40001B78002B37D09DF81030059ACDF80080E5
:104D500021463046FFF744F848B9B9F1000FDDD0DD
:104D6000214604AA3046FFF795FF0028D6D03446E6
:104D700006AF06F1300E20686168A268E3683D4620
:104D80000FC5103474452F46F5D120682860304691
:104D9000FEF7E2FD06AC0399CAE7013103910B78F7
:104DA0002F2BFAD0216A06A8FEF738FE0028B5D0CE
:104DB000039906ACBAE704AA21463046FFF76AFF1A
:104DC00015B0BDE8F08300BF52EA030103D090F8AC
:104DD0003310890701D400207047C1690029FAD136
:104DE0002DE9F8430646006A1D4690F8453409331C
:104DF00012F1FF38DBB245F1FF39C3F1200709FAA0
:104E000007F7144628FA03F2203B3A4329FA03F342
:104E10001A43571C3A46FFF7A9FA0128804606D9DB
:104E200001463A460123306AFFF7FAFA10B900202A
:104E3000BDE8F88396F83330C6F81C8063F03F0372
:104E400086F83330C6E902453046BDE8F843FFF73F
:104E50007DBE00BFF0B590F831409DB0002314F046
:104E6000180F8DF831308DF832308DF833308DF8E1
:104E700069308DF86A308DF86B3003D00B6A046AA4
:104E80009C4202D000201DB0F0BD044640F6012334
:104E90006846FFF793F90028F4D00EAF254604F1D9
:104EA000300E28686968AA68EB683E460FC6103560
:104EB00075453746F5D12868306009AB93E807009F
:104EC00004F1240383E8070094F833309DF8302080
:104ED00084F8302063F07F0384F833302046FFF7F6
:104EE00035FE0028CED00021022208230EA81591FD
:104EF0008DF86B208DF86930FFF7ECFCC3E700BF3D
:104F000090F833309A0718D5F0B5C56983B08DB1E4
:104F100003F04003044603F0FF0083B9A1690029B0
:104F200041D10195E1612946206AFFF74DFB30BB75
:104F3000002000E0012003B0F0BD00207047206A8F
:104F4000A16990F84534D4E902670933DBB216F160
:104F5000FF36C3F1200E47F1FF3726FA03F207FAB6
:104F60000EFE203B42EA0E0227FA03F31A430132F7
:104F7000B1B1013D6D1A01312A4401910ABBD4E956
:104F8000000194F8333063F07F03C4E90201C4E9FF
:104F9000040184F833302046FFF7D8FD03B0F0BD9C
:104FA0000195E161EAE702AA42F8040D206AFFF7E1
:104FB000EFFA40B20028BBDB0AD1019D002DDED004
:104FC000B1E700230199FFF72BFA0028D7D1AFE70B
:104FD0004FF0FF32A169206AFFF7E4FA0028ECD114
:104FE000A6E700BF2DE9F04F90F8333083B09D075E
:104FF000044600920AD494F8323043F0010384F856
:1050000032304FF0FF3003B0BDE8F08F1A07894609
:1050100000F10181009B002B00F011812146F1E895
:105020000623DDF8008001914FF0010BCA46206A8B
:10503000D0F838541540C5F3080945BBA1690029CB
:1050400000F0AE8094F833305B0640F1CD80D4E9B7
:10505000026790F84524E3690932D2B216F1FF36AF
:1050600047F1FF37C2F1200ED64007FA0EFE203A74
:1050700046EA0E0627FA02F2164333449942C0F07C
:10508000A6802046FFF7E0FB0028B4D0206AA6697E
:10509000D0F82C7490F845E46D0A023EE91906FA3E
:1050A0000EF63144B9F1000F73D1B8F5007F4DD23F
:1050B000D4E90423D4E90067B8F5007F454628BF4A
:1050C0004FF400759F4208BF964234BF012205226B
:1050D00000F50470FEF708FC00288CD048442A46EE
:1050E0005146A94403F09AFCB9F5007F00F08A808C
:1050F00028460021D4E90023D4E9046712184B4163
:105100009F4208BF9642AA44C5EB0808C4E90023A1
:1051100007D294F83310C4E9042361F07F0184F8C6
:105120003310B8F1000F82D1D4E90201994208BFCF
:10513000904278D3434B1B68002B7ED094F83330D9
:10514000009863F07F0384F833305CE7B8F5806F34
:105150002AD30BFA0EF35D1BD0F81C224FEA58231A
:10516000AB4228BF2B4691424FEA432508D8CE18C0
:10517000B24205D24FF0FF3280F81092C0F81C22E4
:10518000D0F8140206685246366AB0470028AFD1FC
:1051900031E7C9F50075454528BF4546012297E727
:1051A000E669BEB1A66173E7D0F81C32994222D0FD
:1051B000D0F8140203685246DB69984700283FF490
:1051C0001AAF4FF4007000214FF4007592E74E1CA7
:1051D000A6615DE72046FFF737FB00283FF40BAFE1
:1051E000A669E661206A53E7019AFFF7D1F9002822
:1051F0007FF44CAF45E74FF0FF3380F81092C0F8D2
:105200001C32D5E7206A00F50470FEF79DFB0028EC
:105210007FF46EAFEFE6D0E90423FEF761FD0028CE
:105220003FF4E9AEF6E694F83310009861F07F01A0
:10523000C4E9022384F83310E5E60098E3E6D4E9F4
:10524000002371E7149C012038B504460D46242242
:10525000002106F07BFFA560EB79102B08D0202BF6
:1052600004D1402301202370A07038BD002038BD38
:10527000202301202370A07038BD00BF024638B53E
:1052800052F8105F04462946806800F043FF50B191
:1052900055B123690135AB42A37818BF03F0BF03B2
:1052A00063F07F03A37038BDA37843F04003F7E7B2
:1052B0002DE9F041037803F020032BB903F0FF043C
:1052C0004169204B994203D900263046BDE8F08160
:1052D0000546FFF7D3FF06460028F5D0A8682B69DE
:1052E00087794269023BBB409F182430394605222A
:1052F000FEF7FAFA80460028E6D04FF40072214605
:1053000006F024FFAB681A79012A10D9012403E0C2
:10531000AB681A79A2420AD918680368E119DB69F7
:10532000424698470134E4B20028F1D1CCE79B799A
:1053300069694FF4007202FA03F311FA83F36B61A7
:10534000C3E700BFFFFD1F0010B5044680680A4692
:105350002430A169FEF7C8FA20B1A38803F00F0337
:1053600000EB431010BD00BF70B590F90230002B68
:1053700082B0044619DBA56805F12400FEF7E4FAC3
:1053800030B9637843F001036370002002B070BD50
:1053900005F50D70FEF7D8FA0028F2D028680368EA
:1053A0009B6998470028ECD0F0E70121FFF7CCFF7C
:1053B00005460028E5D00378E52BE2D023780E4A95
:1053C0001B0744BFE369C361236A166843831B0C50
:1053D000838266B10DF103020DF1060101A8B04709
:1053E000BDF80430BDF806202B836B82EA82A378D7
:1053F00003F07F03A370BEE7149C012010B503786F
:10540000044623B900232370A370012010BDFFF7C9
:10541000ABFF00232370A37010BD00BF2DE9F04344
:105420000C7814F0700F89B003D1002009B0BDE8EA
:10543000F08340F6022305460C4601F0CFFA00281F
:10544000F3D001221023AA702B702846FFF730FFFB
:105450000028EAD02B782A692A62002B75D1012115
:105460002846FFF771FF06460028DED01023C372DE
:1054700082687168F3680068B6F81480B6F81A900C
:105480006F460FC77169B269F369306908AE0FC71B
:105490002E2306F8203D0DF10A013346202203F8A1
:1054A000012F8B42FBD1A8682B6A82794169023BAC
:1054B0009340194424300122FEF716FA864600284C
:1054C000B3D03746ADF81480ADF81A900FCFCEF8B0
:1054D0000000CEF80410CEF80820CEF80C300FCF24
:1054E000CEF81000CEF81410CEF81820CEF81C30EC
:1054F000236AADF81A302E221B0C3446ADF8143056
:105500008DF801200FCC0EF12006CEF8200071603E
:10551000B260F3600FCC30617161B261F361AC686D
:1055200004F12400FEF710FA00283FF47EAF04F5E2
:105530000D70FEF709FA00283FF477AF2068036882
:105540009B6909B0BDE8F04318476B6933B1AB788C
:10555000002223F02003AB702A616A612846FFF71E
:1055600003FF00283FF461AF79E700BF2DE9F04168
:10557000064692B03578019200208DF824008DF80F
:1055800025008DF826002DB998460B7813F0700F82
:105590000C4603D1002012B0BDE8F08113782F2B08
:1055A00010462AD0002701AA03A901F001F803AA96
:1055B000214600230028EDD0019D2D783046002D96
:1055C0002DD001F00BFA48B9B8F1000FE2D0214616
:1055D00003AA3046FFF722FF0028DBD035460FCD67
:1055E00009AC0FC40FCD0FC433782A68226093B979
:1055F0003770B770019809ACD5E701300190037896
:105600002F2BFAD0A16809A8FFF71EFE0028C1D0F1
:10561000019809ACC6E73046FFF7A6FEE8E703AA03
:1056200021463046FFF7FAFE12B0BDE8F08100BF18
:105630002DE9F041064692B03578019200208DF8B0
:1056400024008DF825008DF826002DB998460B789A
:1056500013F0700F0C4603D1002012B0BDE8F081AA
:1056600013782F2B104625D0002703E001983770C0
:10567000B77009AC01AA03A900F09AFF03AA21465A
:1056800000230028E8D0019D2D7830460DB301F0AD
:10569000A5F9354609AC0028DED00FCD0FC40FCDDB
:1056A0000FC433782A682260002BDFD03046FFF722
:1056B0005BFEDBE70130019003782F2BFAD08BB132
:1056C000A16809A8FFF7C0FD0028C5D0019809AC62
:1056D000CAE7434603AA2146304601F07FF912B0DB
:1056E000BDE8F081A1683046FFF7AEFDB5E700BF29
:1056F00019B101F24441FFF79BBF0846704700BF54
:1057000003780BB100207047FFF79EBD09B9002058
:10571000704738B583789B0701D4002038BD036AF1
:10572000002BFAD104468068837909330D46DBB239
:105730000139D940013104F1200200F02DFD00288B
:10574000EBD0A3782278E56163F01F03A37002B960
:1057500038BD2046BDE83840FFF706BE2DE9F04FC2
:105760008378DF0783B0054640F192800F460178C9
:105770000E07914600F195808C0608D58268436932
:105780001289C3EB42139BB2994528BF9946B9F1E0
:10579000000F00F0AC806B69AA6888064E464FF097
:1057A000000805F1100AC3F3080B40D5116A01EB9C
:1057B0005321BBF1000F55D1B6F5007F52D3136BC7
:1057C00099424FD0B6F5806F74D3287880064FEA9F
:1057D000562B05D41079C8EB0000834528BF8346BB
:1057E00099424FEA4B240DD801EB0B00834209D2BA
:1057F00002F1240001910092FEF7A6F8009A0199A7
:10580000002845D0906A02685B46D2F810B03A464C
:10581000D84700283CD06B69361B234427446B6172
:1058200065D02978AA688806C3F3080BBED492F81D
:10583000058008EA5328BBF1000F39D1B8F1000FF9
:1058400036D1002B40D149064CBF146A2C6A2C611A
:1058500091795069023C8C4008EB00012144BBF176
:10586000000FA9D002F124000022FEF73DF878B124
:10587000CBF50074B44228BF344600EB0B0122463E
:10588000384603F0CBF8C6E72B7813F0700F2FD112
:105890006B784FF0FF3043F002036B7003B0BDE84C
:1058A000F08FC36942699B1A994528BF99466EE7F4
:1058B0002C69CDE7906A03683A46DB689847002870
:1058C000E6D04FF40074A6E70B0705D5AB785C066D
:1058D00002D52C690134BAE710462969524600F016
:1058E000ADFB0028D4DBCFD0AA682C69B0E7002636
:1058F000C6EB090003B0BDE8F08F00BF70B582B001
:1059000001220DF10701044646690569FFF726FFEC
:10591000012808BF9DF80700666118BF4FF0FF30EF
:10592000256102B070BD00BF30B54369C3F34315B4
:1059300083B0044605B189B901220DF10701204663
:10594000FFF70CFF40B201280BD163691F3363617D
:10595000A068343000EB451003B030BD2033436104
:10596000F6E7002003B030BD2DE9F04105789AB08C
:10597000002415F0180F8DF820408DF821408DF887
:1059800022408DF844408DF845408DF8464004D0C3
:1059900086688D68AE42034603D000201AB0BDE889
:1059A000F0811D4690460E46FFF7DEFCAE46BEE88F
:1059B0000F0011AF0FC7BEE80F000FC7DEF80030B1
:1059C0003B6021462846FFF7BFFC86460028E4D00E
:1059D000DEF80410DEF80820DEF80C30006895F8D8
:1059E00000C06F460FC7DEF81410DEF81820DEF88E
:1059F0001C30DEF810000CF0080E0FC70EF0FF038D
:105A000042463146BEF1000F00F0908040F601237F
:105A100008A8FFF70DFE0028BFD00E98BDF824108F
:105A20009DF823200B9BA8610026A980EA70EB60FB
:105A3000012128468DF820608DF82260FFF784FC54
:105A40000028AAD01AAB9DF80B2053F85B7DC0F854
:105A50000D705F68C0F811709F68C0F81570DF683E
:105A6000C0F819701F8A9B7CA0F81D70C377C272A2
:105A7000002C39D0A86882794169A31E934019444B
:105A800032462430FDF730FF002886D006466F46A8
:105A900056F8200F7168B268F3680FC730697169F2
:105AA000B269F3690FC72146A86800F0C9FB002856
:105AB0003FF473AFA8682B6A82794169023B934037
:105AC000194424300122FDF70FFF074600283FF458
:105AD00064AF6C460FCC38627962BA62FB620FCC5D
