:1000000000000320D1010000C59700007D9700008B
:100010007D9700007D9700007D9700007D97000090
:100020007D9700007D9700007D970000C597000038
:10003000C59700007D970000F9A80000FDA800000A
:10004000C5970000C5970000C5970000C597000040
:10005000C5970000C5970000C5970000C597000030
:10006000C5970000C5970000C5970000C597000020
:10007000C5970000C5970000C5970000C597000010
:10008000C5970000C5970000C5970000C597000000
:10009000C5970000C5970000C5970000C5970000F0
:1000A000E93C0000F53C0000C5970000C597000042
:1000B000C5970000C5970000C5970000C5970000D0
:1000C000C5970000C5970000C5970000C5970000C0
:1000D000C5970000C5970000C5970000C5970000B0
:1000E000C5970000C5970000C5970000C5970000A0
:1000F000C5970000C5970000C5970000C597000090
:10010000C5970000C5970000C5970000C59700007F
:10011000C59700008D9D0000C5970000C5970000A1
:10012000C5970000C5970000C5970000C59700005F
:10013000C5970000C5970000C5970000C59700004F
:1001400005AD0000C5970000C5970000C5970000E9
:10015000C5970000C5970000C5970000C59700002F
:10016000C5970000C5970000013D0000C59700003D
:10017000C5970000C5970000C5970000C59700000F
:10018000C5970000C5970000C5970000C5970000FF
:10019000C5970000C5970000C5970000C5970000EF
:1001A000C5970000C5970000C5970000C5970000DF
:1001B000C5970000C5970000C5970000C5970000CF
:1001C000C5970000C5970000C5970000C5970000BF
:1001D000594B4CF2205210B51A804DF628121A8055
:1001E00000BF00BF09F0F2FA544B4FF030621A60C2
:1001F000534A9A60534ADA60534B4FF470021A60C4
:10020000524B534A1A60534B1A78110703D51A7888
:1002100042F008021A70504B5049AA221A70504AF4
:10022000504B8B4204D252F8040F43F8040BF8E70A
:100230004D4B4E4900228B4202D243F8042BFAE781
:100240004B494C4A002352F8230041F82300013364
:10025000742BF8D1484B494A802103F8011B934283
:10026000FBD1474B424A1A60464B8A221A70A3F5CB
:10027000805324225A70A0221A709A799207FCD5D2
:100280009A79D406FCD4404A937903F00C03082BE6
:100290003D4BF9D101221A7148225A719A79900680
:1002A000FCD5394A9179384B4906FBD5374A38494C
:1002B00011600221516020221A709A7902F00C021A
:1002C0000C2AFAD1334B344A1A60344A344C13683E
:1002D00013F4807303D123604FF4A8531360314BA0
:1002E000314A1A6000225A60072243F8042C2F4A30
:1002F000C3F80C2D62B609F095FB2368DA0705D523
:100300002B4809F0F3FA2B4B2B4A1A602B4B1B7826
:100310005B0609D5274C284B22689A4204D1244811
:1003200009F0E4FA002323600BF0A2FC09F054FA70
:100330000AF07CFBFEE700BF0E2005403080044041
:10034000823F04000100002B88ED00E0002008E05F
:100350000300008502D0074000E007404843012029
:100360006C3F01003037012048430120B89D012037
:10037000003201200000000000E400E064E400E03E
:1003800008ED00E000500640004006404480044074
:100390000000030104800440C010050010D0034099
:1003A00014D0034014E000E0FF760100000020209C
:1003B000CBE1A4611CE00340A5C3945A00F00740C0
:1003C000FFFFFFFFFFFFFFFFFFFFFFFFFFFFFFFF3D
:1003D000FFFFFFFFFFFFFFFFFFFFFFFFFFFFFFFF2D
:1003E000FFFFFFFFFFFFFFFFFFFFFFFFFFFFFFFF1D
:1003F000FFFFFFFFFFFFFFFFFFFFFFFFFFFFFFFF0D
:10040000FFFFFFFFFFFFFFFFFFFFFFFFDEF9FFFF23
:1004100010B5054C237833B9044B13B10448AFF33E
:1004200000800123237010BD48430120000000001C
:10043000683F0100084B10B51BB108490848AFF3ED
:1004400000800848036803B910BD074B002BFBD0A0
:10045000BDE81040184700BF000000004C430120D9
:10046000683F010048430120000000000020704761
:10047000704700BF4FF0FF30704700BF044A054986
:100480001378002043F0200313700860704700BF0A
:100490000DC007401CD003402DE9F0410F46164621
:1004A000804602F04FF9044602F03CF9054602F09E
:1004B00029F9A4F2BC739BB27F2B02D8EAB20C2AB2
:1004C0002BD90023A8F8003002F0ECF8044602F023
:1004D000F9F8054602F006F9E3B2172B02D8EBB2A1
:1004E0003B2B0BD900233B8002F0FCF810F0010FEE
:1004F00014BF642300233370BDE8F081C3B23B2BEB
:10050000F0D8E4026B0104F4FF2403F4FF53234307
:10051000C0F3460003439BB2E5E7C0B21F28D0D822
:100520006D0105F4FF55284340EA43239BB2C9E718
:1005300010B5044B044640F8103B07F091F82046F4
:1005400010BD00BFC430010010B5054BC0F8B43475
:10055000044600F2C44007F083F8204610BD00BFF7
:10056000C430010009F0BCB910B504460AF074FBB0
:10057000204610BD10B5002104460AF02DFBA8B19D
:10058000B4F810349BB293B1B4F80C34B4F80E2420
:1005900001339BB2FA2B28BF002392B293420AD0B8
:1005A00003F1080244F82200A4F80C3410BDBDE8A1
:1005B00010400AF0CDBA0AF0CBFAA3690133A36167
:1005C00010BD00BF70B582B002F06CF8054602F0B5
:1005D00079F8064602F086F8054C009033462A4624
:1005E000204604490CF0AEF9204602B070BD00BFB1
:1005F000D49201200431010070B582B002F0A2F85B
:10060000054602F08FF8064602F07CF8054C009093
:1006100033462A46204604490CF094F9204602B09D
:1006200070BD00BFD492012014310100826C62B110
:10063000137803F0080303F0FF0003B3D369506994
:10064000181A48BF6FF000407047C16CC1B191F8F3
:10065000313003F0080303F0FF0083B1D1E9042334
:10066000D1E90001101A30B463EB010100256FF0ED
:1006700000448D4208BF844200D2204630BC7047FF
:1006800008467047836C13B1184605F039BDC06C3D
:1006900008B103F00FBF4FF0FF307047836C13B108
:1006A000184605F07FBFC06C08B104F051BE70471A
:1006B00000B5836C83B063B1184601220DF10701C8
:1006C00005F04EFC01280CD19DF8070003B05DF841
:1006D00004FBC06C28B101220DF1070103F016FEE6
:1006E000F0E74FF0FF30F1E7836C13B1184605F0E7
:1006F0009BBFC06C08B105F077B8704700B5836C3C
:1007000083B08DF8071043B1184601220DF107019F
:1007100005F08AFF03B05DF804FBC06C0028F9D037
:1007200001220DF1070105F05FF803B05DF804FB4D
:1007300070B5044608460D460CF022FA23680246BE
:10074000294620465B68BDE87040184738B5044626
:1007500008460D460CF014FA2368024629465B68E9
:1007600020469847054620460AF0FAF8284438BD46
:100770002DE9F04387B0044601F0E4FF054601F09F
:10078000D1FF814601F0BEFF064601F08BFF074610
:1007900001F098FF804601F0A5FF18490490224619
:1007A0002B460591CDF800901549CDF80C800297A5
:1007B000019614480CF0C6F812480CF0E1F9014615
:1007C000104808F067FE10480AF0CAF80D480CF00F
:1007D000D7F90E490246886C48B10A4905F024FF52
:1007E0000A480AF0BDF8074807B0BDE8F083C86CB6
:1007F0000028F5D0034904F0F7FFF1E7383701206E
:100800003C310100A8920120E438012050950120DC
:10081000144B1549154AF0B4DA61024603C9144E67
:10082000186096E80300134D986095E80300124C99
:10083000D86094E803002C3A22F0030202F1240766
:10084000012602254BF68034586204219A62102258
:100850005F609E82DD829C61184619841A615A8409
:10086000F0BC7047F8920120803101000077010050
:100870008831010090310100983101002DE9F04FDD
:10088000814691B0C82009F07FF82024574F584E78
:1008900009F5926825464FF0000A4FF000014046E6
:1008A00008F090F8C9F88C84B8F1000F03D04046E6
:1008B00007F028FCD8B101210D2009F03DF84FF0D8
:1008C000080BC8203D6009F05FF83460C82009F0CB
:1008D0005BF8BBF1010BF4D141F2883009F054F818
:1008E000444A4FF480630AF1010A1360D5E7D9F84E
:1008F0008C14484606F038FF0028DCD03E493F4AB9
:1009000002A80CF01FF83E4B196809F2C44429B143
:1009100002AA40F20923204606F0B6FE01F012FFBB
:10092000054601F0FFFE064601F0ECFE2A46009067
:100930003346344908A80CF005F808A80CF020F953
:100940000246D9F8FC04002838D008A905F06CFE4E
:1009500001F0A8FE054601F0B5FE064601F0C2FE14
:100960002A4633460090284908A80BF0EBFF08A858
:100970000CF006F90246D9F8FC0478B308A905F092
:1009800053FE5246214908A80BF0DCFF08A80CF0E2
:10099000F7F80246D9F8FC04C0B108A905F044FEF6
:1009A000204606F05DFE1A4B1A4A1A600023A9F889
:1009B0000635A9F8043511B0BDE8F08FD9F8000567
:1009C0000028C5D008A904F00FFFC1E7D9F8000539
:1009D0000028E5D008A904F007FFE1E7D9F80005F1
:1009E0000028CED008A904F0FFFECAE784F00F402B
:1009F00088F00F4014B00440C83101008437012052
:100A0000609B0120A0310100B0310100C031010024
:100A1000549B0120990400002DE9F0470546D0F8C9
:100A2000FC04002841D005F0C3FDD5F8FC34002BB0
:100A300044D0D3F81CA04FF00009D0465046FFF731
:100A4000E7FE364F044600F1200E20686168A26878
:100A5000E3683E460FC6103474453746F5D120682A
:100A60006168A26807C7D5F8FC04002840D00021BF
:100A700005F094FCD5F8FC0448B34FF40072274904
:100A800005F0D2FDD5F8FC0470BBD5F8000518B10F
:100A900042464B4603F026FD05F2C44006F0E0FD59
:100AA0000020A5F80405BDE8F087D5F8000540B39F
:100AB00004F028FED5F8FC34002BBAD1D5F8003567
:100AC0002BB3D3E904894FF00009C246B6E7D5F845
:100AD00000050028E0D04FF40072104904F084FEB5
:100AE000D5F8FC040028D0D0514605F057FCD3E7D8
:100AF000D5F800050028CFD00022002303F0F2FC37
:100B0000B8E782464FF000084FF0000996E79A4692
:100B10004FF000084FF0000990E700BFA8500120F7
:100B20002DE9F04F444C8BB02468DDF850900193D0
:100B300005468A46904600F2C44B34B1214640F245
:100B400001633E4A584606F09FFDB8F1000F70DD84
:100B5000AAF10407002602AC04E005F065FD0136A9
:100B6000B0451CD057F8042F354920460BF0EAFE5B
:100B700020460CF005F8D5F8FC348646024621469E
:100B80001846002BE9D1D5F80035724621461846A3
:100B9000002BE4D0013604F027FEB045E2D1B9F1D4
:100BA000000F25DD019B00261F1F04E005F03CFD22
:100BB0000136B1451CD057F8042F214920460BF0CF
:100BC000C1FE20460BF0DCFFD5F8FC348646024619
:100BD00021461846002BE9D1D5F80035724621464A
:100BE0001846002BE4D0013604F0FEFDB145E2D1F9
:100BF0000AEB8802134920460BF0A4FED5F8FC044A
:100C000048B12146062205F00FFD584606F028FDA2
:100C10000BB0BDE8F08FD5F800050028F5D02146CF
:100C2000062204F0E1FD584606F01AFD0BB0BDE8BF
:100C3000F08F02ACB3E700BF609B0120D43101000C
:100C4000C0310100E03101002DE9F04F3F4C8BB085
:100C50002468DDF85090002C3DD000F2C44B019385
:100C600090468A460546214658460023384A06F0F3
:100C70000BFD80B3B8F1000FD5F8FC342EDD5746DC
:100C8000002602AC0FE005F06BF90028314903DDC6
:100C90003A4620460BF07CFED5F8FC340136B045D0
:100CA00007F104071BD00C2221461846002BEAD17D
:100CB000D5F800050028F1D00C22214603F026FBD0
:100CC000E3E783B318460622214605F049F998BBAD
:100CD000584606F0C5FC0BB0BDE8F08F02ACB9F188
:100CE000000FEEDD019E00270FE005F039F9002826
:100CF000184903DD324620460BF04AFED5F8FC3495
:100D00000137B94506F10406DBD00C22214618460E
:100D1000002BEAD1D5F800050028F1D00C2221469D
:100D200003F0F4FAE3E7D5F8000528B106222146DE
:100D300003F0ECFA0028CBD000230AEB880220460F
:100D400005498DF80D300BF023FEC1E7609B0120B3
:100D5000D4310100E83101005C3101002DE9F0419E
:100D60004D4C4E4A23684E49DFF878814D4E43F092
:100D70000053236013684C4C43F4807307461360A0
:100D8000152008F0A5FD494BDFF85CC148494948EA
:100D9000494ADFF858E120251D704FF40013CCF8C4
:100DA00000302360454B00248EF800406FF47F7CB8
:100DB0000C70047014701C700C71A1F553316144F7
:100DC000047114711D710B683D4ADFF824C143F0B2
:100DD00080630B60136843F08043136001F540515A
:100DE00002F54052AEF54B3EA0F54B30AEF57E7E9F
:100DF000A0F2F63004310C32324BC8F80040CCF887
:100E00000040CEF8004004600C6014601B68A1F53F
:100E10005041A2F54F42F03A3B440B60136843F057
:100E20000403136009F04EFC23460A22394630467B
:100E300009F0BCFD304609F093FD01210D2008F0BA
:100E40007BFD214B214E1D604FF47A7008F09CFD14
:100E50001F4B204F1D6072791F4D20482049A3F57C
:100E6000012302F0DF027271873B02223A701A7886
:100E700002F0F8021A701A7842F004021A702C700C
:100E80001B78036823F0020303600B6843F004033C
:100E90000B6030BFBDE8F0813C80044010D00340BF
:100EA0007D040000E438012000E100E015E400E0EA
:100EB00001C0074002C0074003C0074004C007400C
:100EC0000070044000D0034084F00F400040064012
:100ED00088F00F4000E0074002E0074010E000E02B
:100EE00010ED00E00090044080E200E000C0074008
:100EF00004900440F8B506460D4601F083FB044615
:100F000001F0D0FBB789B6F818E0338AB18A77458B
:100F100080B20DD988423AD3002D07DB42D05D4D17
:100F2000B2882B6813449C4280F096800020F8BD64
:100F3000B84201D39842EFD3884240D2564A574D27
:100F4000A2FB0462120C984205FB124201D38842B4
:100F500044D30024704501D3774537D3B84204D237
:100F60004FF4616000FB07F0841A00230A22214637
:100F70004B4809F01BFD4A4809F0F2FC0F21494893
:100F800008F088FA464809F0EBFC2046F8BD7045A9
:100F9000C2D3B842D2D398422CBF00220122002AE9
:100FA000CCD0B9E7404B1A8802B3338830898342EA
:100FB00003D2F26913449C421FD22846F8BD704503
:100FC0002CBF00220122002AB8D0A5E707F118049F
:100FD0004FF4616303FB04F39C1ABFE74FF46163B2
:100FE00003FB01F39A42B4D29C1AB3E72949F46196
:100FF000012228460C601A80F8BD1044041B2B46C1
:101000000A2221462648294E09F0D0FC244809F03E
:10101000A7FC0F21264808F03DFA214809F0A0FC62
:101020002B4621460A22304609F0C0FC304609F022
:1010300097FCB06C40B10F221D4905F0F5FA1B4832
:1010400009F08EFC2046F8BDF06C0028F7D00F2286
:10105000174904F0C9FBF2E71121164808F01AFA03
:101060000F4809F07DFC114B986C50B111221149C9
:1010700005F0DAFA0D4809F073FC2C604FF0FF30F0
:10108000F8BDD86C0028F5D011220A4904F0ACFB59
:10109000F0E700BFD092012007452EC28051010029
:1010A000E438012024320100AC9501205095012044
:1010B000143201000032010070B582B00646079C70
:1010C000069D8DF8043002A8632CCCBFA4F2B27444
:1010D0001E3400F8082D8DF801108DF806408DF8AB
:1010E00005508DF8026001F00FFA044608F0FEFB8F
:1010F000204601F039FB02B070BD00BF2DE9F0437E
:10110000AF4D83B008F09CF90028FBD008F05CF9E3
:10111000C4B22146AB480BF069FC0028F2D03F2C4A
:101120000FD040F3A980612C00F05281782CE9D1D6
:10113000A54809F08BFE00B20028E3D003B0BDE85B
:10114000F08308F07DF90028FBD008F03DF9C4B227
:1011500021469E480BF04AFC0028D3D0313C432C5A
:10116000D0D801A353F824F0351500004115000034
:101170004D15000059150000051100000511000073
:101180000511000005110000051100000511000007
:1011900005110000051100000511000005110000F7
:1011A00005110000051100000511000005110000E7
:1011B00005110000051100000511000005110000D7
:1011C00005110000051100000511000005110000C7
:1011D00005110000051100000511000005110000B7
:1011E00005110000051100000511000005110000A7
:1011F0000511000005110000051100000511000097
:101200000511000005110000051100000511000086
:101210000511000005110000051100000511000076
:101220000511000005110000651500000511000002
:1012300005110000711500000511000005110000E6
:101240000511000005110000051100000511000046
:1012500005110000051100000511000081150000B6
:101260008D15000005110000051100009915000002
:1012700005110000A5150000212C7FF443AF05F1F6
:101280000C0696E8C00108F0DBF80028FBD008F057
:101290009BF8C4B221464D480BF0A8FB00283FF450
:1012A00031AF313C432C3FF62DAF01A353F824F06E
:1012B000B5150000CD150000ED1500000316000067
:1012C00005110000051100000511000005110000C6
:1012D00005110000051100000511000005110000B6
:1012E00005110000051100000511000005110000A6
:1012F0000511000005110000051100000511000096
:101300000511000005110000051100000511000085
:101310000511000005110000051100000511000075
:101320000511000005110000051100000511000065
:101330000511000005110000051100000511000055
:101340000511000005110000051100000511000045
:101350000511000005110000051100000511000035
:101360000511000005110000051100000511000025
:101370002116000005110000051100003D160000B7
:101380000511000005110000051100000511000005
:1013900005110000051100000511000005110000F5
:1013A000051100009B160000111700000511000038
:1013B000051100002B17000005110000DB140000D0
:1013C0006437012034320100E43801203C3201004E
:1013D0002B68B849B8486F2209F0DAFA22466B68E0
:1013E000B649B54809F0D4FAAB68B549B24872229B
:1013F00009F0CEFAEB68B349AF48312209F0C8FAD8
:101400002B69B149AC48322209F0C2FA6B69AF4985
:10141000A948332209F0BCFAAB69AD49A648342289
:1014200009F0B6FAA44809F09BFAAA4BAA49A248C7
:101430006E2209F0ADFAFFF7DFF864220346A749F0
:101440009D4809F0A5FAFFF7BDF874220346A449A8
:10145000994809F09DFA984809F082FA964809F0EF
:101460007FFA17219F4808F015F8934809F078FA99
:1014700040219D4808F00EF88F4809F071FA2021AC
:101480009A4808F007F88C4809F06AFA58219848F9
:1014900008F000F8884809F063FA2621954807F01B
:1014A000F9FF854809F05CFA4521934807F0F2FFFF
:1014B000814809F055FA3221904807F0EBFF7E4849
:1014C00009F04EFA2B218E4807F0E4FF7A4809F024
:1014D00047FA794809F044FA14E6774809F0B6FC6F
:1014E000041EC0F25D81172CA8BF1724724809F0B2
:1014F000ADFC061EC0F250813B2EA8BF3B266E48B5
:1015000009F0A4FC071EC0F245813B2FA8BF3B2772
:1015100001F0F8F8804601F005F9814601F012F972
:10152000CDF80090019043463A4631462046FFF7F9
:10153000C3FDE7E5EA6873495F4809F029FAE1E588
:101540002A6970495C4809F023FADBE56A696D494C
:10155000594809F01DFAD5E5AA696A49564809F0C3
:1015600017FACFE56A686749534809F011FAC9E5E7
:10157000FFF742F8644902464F4809F009FAC1E50D
:10158000544A61494C4809F003FABBE52A685D49B1
:10159000494809F0FDF9B5E5AA685A49464809F0F5
:1015A000F7F9AFE5FFF70EF857490246424809F050
:1015B000EFF9A7E5404809F049FC0028C0F2EE80A9
:1015C00018280346A8BF1823EB609BE53A4809F0AA
:1015D0003DFC172E00F3BE80864205DC1828C8BFEC
:1015E000182000F3BA8006463046B6E0324809F0CB
:1015F0002DFC172F00F3A980874240F3C5806F614F
:1016000080E52D4809F022FC4645444640F3A7807A
:10161000804503DC8642C0F2B58004462646B1E030
:10162000254809F013FC0028C0F2C480B0F5003F43
:101630000346A8BF4FF400336B6063E51E4809F012
:1016400005FCB0F5FA6F04467CDB40F6B8339842EF
:10165000A8BF1C46184809F0F9FB071E40F3A880F4
:101660000C2FA8BF0C27144809F0F0FB061E40F30E
:101670009D801F2EA8BF1F2601F014F8804601F0A0
:1016800021F8814601F02EF8494602460194404671
:1016900000973346FFF710FD34E51C4C261D07F07C
:1016A00093FE04F8010FB442F9D1002385F82430E9
:1016B00028E500BF58320100E43801206C320100F7
:1016C0008032010094320100A8320100C0320100D2
:1016D000D432010084370120E8320100F8320100E1
:1016E0000833010018330100303301007433010066
:1016F00098330100F43301001C340100643401000C
:101700009834010050320100E0310100833701209C
:101710002A4809F09BFB002846DBB0F5003F034652
:10172000A8BF4FF400332B60ECE4244809F08EFB93
:10173000002837DBB0F5003F0346A8BF4FF4003365
:10174000AB60DFE44FF4FA6484E71828A8BF1820E0
:10175000074654E71828A8BF18202861D2E40028BB
:101760002ADB1828A8BF182086420ADA804508DD3F
:1017700006EB080303EBD373B0EB630FC8BF464619
:1017800000E00646AE61BDE41828C8BF18273FF741
:1017900036AFDDE70027BBE60026B0E6002313E7FF
:1017A0000024A3E60023CBE70023BCE7012663E780
:1017B000012758E700233FE70020D5E7E438012060
:1017C0002DE9F04F032083B0022108F0B5F85D4801
:1017D0005D4C5E4D5E4F5F4E00F0E8FF23780320C6
:1017E000002B00F0A6802B78DA0740F1A2803B683E
:1017F00032689B1A0E2B40F29C801221564807F04B
:1018000049FE564809F0ACF840F22521544809F049
:1018100015F908245348FFF731F8534B009422463A
:1018200052495048FFF710FA514B1B68DB0410D4A3
:10183000FFF764FC0094054622464B4B4B49494850
:10184000FFF76EF9002D04DDC5EB05108000FFF7F2
:1018500085FA4FF0FF314548FFF74CFB002801DDCA
:10186000FFF77CFA434C204601F062FA4021204603
:1018700001F092FA20465522202101F02DF938B1CD
:10188000E28842F0040292B22046242101F024F9B9
:1018900039493A483A4F0BF011F94FF00008B94670
:1018A000C34640F2144AD9F8080418B109F050F9B7
:1018B000C9F808B40AFB0875B5F80E44B5F80C343D
:1018C000A4B29BB2A34214D008EB881608EB86069C
:1018D0000134A4B2F92C88BF0024234633440833D2
:1018E00057F8230009F034F9B5F80C349BB2A34241
:1018F000EED101220AFB08739044B8F1020FA3F85D
:101900000E4409F21449A3F81024CCD10C211D482F
:1019100007F0C0FD114809F023F81B4B196871B19D
:101920001A4A1B4840F20A2303B0BDE8F04F05F005
:10193000ABBE07F0F3FF00283FF450AF5DE703B004
:10194000BDE8F08F65050000A89C0120C09B012028
:10195000C49B0120A89D0120C4340100E43801206B
:101960000002FF1F6443012040370120643701203B
:1019700010F00F40A0950120843701206E4801200F
:1019800080480120D8340100609B0120E834010028
:10199000609501200546D0F88C0408B50C46B8B116
:1019A00003689B6A984798B9D5F8803423B1DB79EE
:1019B0004BB108F087FEFCE7D5F884341BB193F8EF
:1019C0004434002BF5D120461549FEF7BFFEF0E761
:1019D00014492046FEF7ACFED5F88C04F0B103683C
:1019E0009B6A9847014600231022204608F0DEFF3C
:1019F0000D492046FEF79CFED5F88C0460B10368C3
:101A0000DB6A9847C1B200231022204608F0CEFFBF
:101A1000204608F0A5FFCCE70146F4E72A21E2E7DB
:101A200004350100F434010000350100074C08B50D
:101A300005460E4620460649FEF77AFE3146204608
:101A4000FEF784FE21462846FFF7A4FFE438012074
:101A50001835010070B50446B0F904050E46154668
:101A600030B1431E9BB2012B25D903285CD070BD39
:101A700004F20A50FEF77CFE00285BD0334B196855
:101A800000293ED0024640F2026304F2C44005F051
:101A9000FBFDB0B3D4F8FC0428B34FF0207104F080
:101AA00037FA50B34FF400723146294807F0B8FBBB
:101AB0000023A4F80635D4F8FC0402236D00A4F832
:101AC000043510B331462A4604F0AEFDA84238D1A1
:101AD000B4F80635B4F908250133A4F80635EAB997
:101AE000B4F90405C1E7D4F8000530B14FF0207215
:101AF000002303F06BFD0028D4D120461549FFF7E1
:101B000095FF20461449FFF791FFD4F800050028FF
:101B1000DCD031462A4603F067FED7E700220323D4
:101B2000A4F80825A4F804352046FEF775FFA4F8AC
:101B3000040570BD4FF6FF73A4F804354FF0FF3075
:101B400070BD20460549FFF771FF00BF609B012073
:101B5000A85001204C350100383501002035010026
:101B60002DE9F047A74EB6F80C34B6F80E149BB228
:101B700089B28B423ABF03F1FA02531A5B1AB6F8E4
:101B80002028B6F822189BB292B289B2003318BF4F
:101B900001238A4238BFFA32521A92B288B0002A20
:101BA00000F0AE80002B00F0AB80974C9748B4F962
:101BB0000010FFF79FF9051EC0F21F8105D0944861
:101BC00005F04EFD2846FFF7C9F88E49002206A809
:101BD00040F21445D1F80834002B00F06D81002349
:101BE00040F822300132022A01F21441F2D1894B2D
:101BF0000699079A03F500750239023A31F9020F86
:101C000023F8040C32F9020F23F8020C0433AB4220
:101C1000F4D1D6F808047B4D20B108F099FF0023D9
:101C2000C5F80834D6F81C08764D20B108F090FFAE
:101C30000023C5F81C38784BB3F90030002B00F0B6
:101C4000B380B4F90000754D002800F011812E68B2
:101C5000734FBF1B7F10B7F5807FB04600F3C08085
:101C6000704BB3F90835002B40F04E81002F40F344
:101C70005681DFF8F0E133467E009819724632F95A
:101C8000021B23F8021B9842F9D17644804607F0E4
:101C900059FEDFF89C91C9EB080252108246494672
:101CA0006048FFF7D7FE208007F04CFE5E4A1368BD
:101CB000CAEB000098425D4B38BF10601A68C7F548
:101CC0008077904288BF1860594A3FB100230133A2
:101CD00036F8021B22F8021B9F42F8DCB4F90030F0
:101CE0002A606BB908220092524B48494D48FEF7D2
:101CF00017FF0621504807F0CDFB504808F030FE92
:101D0000DFF864E14E48DEF800304E4D059303687D
:101D10002A68059903F57A7301328B422A603FD213
:101D2000414FDFF848813968DFF8F890464CDEF81B
:101D300000E0B9F806353D4ECDF818E0414588BFC2
:101D40004FF0FF31009121880291DDF818E03168F1
:101D50000191C0F800E03D49384808F019FE3968A3
:101D600020882A68B9F806350290414588BF4FF0AF
:101D7000FF310091316801913548364908F008FE7D
:101D8000354B2E481B88238000244FF000433B60D6
:101D9000346008F0E5FD314A314B14602C601C6062
:101DA00030BF08B0BDE8F087B4F90030164E002B04
:101DB000A6DD1A4DDFF878902B68C9EB03035A10A3
:101DC00040F0A7801748FEF727FE08222080194B15
:101DD00000920E491348FEF7A3FEC5F800908FE766
:101DE000204BB21E03F5007033F9021B22F8021FCC
:101DF0008342F9D106F5007270E70A4B0122A3F87D
:101E00000825E2E680480120D095012064370120B2
:101E10006095012054930120603701203437012060
:101E2000A892012064430120784801207C480120C9
:101E3000A85201204037012064350100E438012018
:101E4000D4950120CC950120CC9C01206C3501005B
:101E5000509501208C3501004C9D0120C895012032
:101E6000F492012050930120C49B0120A086010020
:101E7000FEF7CEFC2F682B4ABE1A7610002E0CDD22
:101E800006F10046013E02EB4606931E2A3233F964
:101E9000021F22F8021FB342F9D1224A031F283041
:101EA00053F8041F42F8041B9842F9D107F12C069D
:101EB00001232E602380CBE605FB026E9C46BEF814
:101EC0000E74BEF80C84BFB21FFA88F807F1010E39
:101ED00047451FFA8EFE3FF483AEBEF1F90F02EBC9
:101EE000821398BFF44602EB8303634403F10803B3
:101EF00005FB026756F82330C1F8083488BFE64670
:101F00000433A7F80EE46BE607EBD77727F0010759
:101F1000ACE649460448FFF79DFD308052E7034E8A
:101F2000B5E600BFA8520120644301205093012070
:101F30002DE9F0476D4F6E496E4D6F4B3A68DFF8F3
:101F4000E0810B600A2000230872C5F800806B72E4
:101F50002B612B72EB600AB9C5E01A465369002B5E
:101F6000FBD155610024654B62486C61AC80EC800C
:101F7000AC722B6000F0D2FC614ADFF8A891DFF868
:101F80006CA1214602F6280C4FF0010E42F81C8C81
:101F900002F813EC42F80C2C02F8141C42F8101C46
:101FA000A2F11C061046002301E052F80C0C40F888
:101FB000231012F8130C01339842F6DC386808B984
:101FC0008EE018464369002BFBD14661C2F8EC1342
:101FD00042F8081C22F8181C22F8161C02F8121CE1
:101FE00042F81C9C02F214426245A6F80C144FF011
:101FF0000004A6F80E14A6F81014C7D1DFF8288143
:10200000404FDFF82891C8F80050404688F8084053
:1020100088F80940C8F80C4088F81040C8F80490C7
:1020200008F0E6FD384A3949404608F083FF4FF092
:10203000010A09F2144338467B603D607C72FC6003
:102040003C7487F808A008F0D3FD38462E4A2F4983
:10205000DFF8DC80DFF8DC9008F06CFF2C4B2A4ABC
:102060001C714FF47A751C739C64DC649D60294973
:10207000C3F80080184608F05DFF274BDFF8B8E092
:10208000DFF8B8C083F89844292783F8994483F887
:10209000B24483F8B844C3F8BC5483F8C0444FF644
:1020A000FF7583F8AF7483F8ADA4C3F88044C3F818
:1020B0008444C3F8FC44C3F80045C3F8B484A3F8CF
:1020C0000845C3F89094C3F8A4E4A3F8045518464F
:1020D0000D4A1249C3F89CC4BDE8F04708F02ABF76
:1020E000CAF8006072E73D603CE700BFC89C012071
:1020F000A0950120B0950120CC350100C03501002C
:102100009C4801203C9301203037012069050000E4
:10211000509501203105000064430120490500006D
:10212000AC300100B8300100289301208048012024
:10213000E83001001438010001100138BC370100FB
:102140002DE9F0410468E56815F0807F794D256040
:1021500052D1DF0740F1B380002900F0E3800D7811
:10216000012B18BF45F000456563013190F82C80C4
:1021700003F1FF3C48EA0828BCF1000F00F0A880FA
:1021800021B14D7811F8028B45EA082845682E7A6E
:10219000BCF1020F06F1FF364FEA06360CBF48F0DD
:1021A000805548F01045B6B26563ACF1020C08E00A
:1021B0000AB114700132013B05F47045B54216D9DD
:1021C0000468E56A15F0F00FF6D0A46B13F0010F68
:1021D00017464FEA242EEBD11AB107F802EB5470E0
:1021E0003A4605F47045B542A3F10203E8D8BCF1C4
:1021F000000F6DD00468C3E7DD074CD5002900F05F
:1022000089800D78012B18BF45F0004565630131C9
:1022100003F1FF3E90F82CC0BEF1000F41D029B170
:1022200091F801C00D78023145EA0C2C45682E7AF0
:10223000BEF1020F06F1FF364FEA06360CBF4CF036
:1022400080554CF01045B6B26563AEF1020E08E061
:102250000AB114700132013B05F47045B54215D93D
:102260000468E56A15F0F00FF6D013F0010F174679
:10227000A46BEDD122B107F8024B241254703A46F8
:1022800005F47045B542A3F10203E9D8BEF1000F91
:1022900007D00468C3E79E4690F82CC0BEF1000F3B
:1022A000BDD11BB30468E16A11F0F00FFBD0A16B44
:1022B000DC071DD50AB111700132013BF1E790F83E
:1022C0002C809C4648EA0828BCF1000F7FF458AFE8
:1022D00063B10468E16A11F0F00FFBD0DE07A16B77
:1022E0000FD50AB111700132013BF1E7BDE8F08171
:1022F0002AB114460D1204F8021B55702246023B07
:10230000CFE72AB114460D1204F8025B5170224641
:10231000023BDDE790F82C50012B18BF45F000453B
:10232000656375E790F82C50012B18BF45F0004508
:1023300065631BE700041F800BB1FFF701BF704707
:10234000644A654B2DE9F04F644EDFF8A0A1644C60
:10235000DFF89091A2FB00524FEA124C0CF10407F7
:10236000A3FB0025A6FB0062A7FB0AAB6D09D20AFE
:10237000A3FB0563A4FB0264CBEB07060BEB56063D
:102380005B09B6082409C6EBC606C3EB031304EBCE
:102390004404A5EB8303BE1BC5EB0515A2EBC402E9
:1023A000A0EB8500013600248A7008704B70CE7057
:1023B000224640F26D1B4FF064084FF4C87A0EE0DD
:1023C000C6EBE5150AFB153570BB002D14BF58464A
:1023D0004FF4B7700244944504F1010413D3E7B2FB
:1023E00007F2B27389FB0305DE17C6EB651013F025
:1023F000030E08FB1030E3D040F26D100244944508
:1024000004F10104EBD28F71BEF1000F0FD13548FA
:10241000DE1780FB0340C6EB6014642505FB143413
:10242000BCB34FF4B77405E04FF4B770D2E740F295
:102430006D14DE172B482C4D80FB0370C6EB601823
:10244000121BC6EBE01664244FF4C87000FB16366E
:1024500004FB1838C2EB0C020120002302E001301B
:10246000C0B20133012BDFB220D05C5D944209D8A9
:102470000C28A2EB0402F2D10D2701320A714F7130
:10248000BDE8F08F0137FFB201320A714F71BDE82C
:10249000F08F4FF4C874C6EBE01004FB1030002836
:1024A00040F26D1408BF4FF4B774C3E7BEF1000FDC
:1024B0000AD1B8F1000F0BD1002E14BF1C241D242B
:1024C000A24203D3121BCAE71C24F9E70227D4E770
:1024D0001D24F5E707452EC289888888C5B3A291D7
:1024E000ABAAAAAA1F85EB51AC350100254992245D
:1024F00010B503490446FFF723FF024B1C6010BDD3
:10250000DC950120D89501202DE9F04139498679E3
:1025100001FB06F106B306F2B27C40F2B373DFF8BA
:10252000D8E064274FF4C8780DE013F0030F09D109
:10253000C2EBE51208FB123204B91AB901F5A83151
:1025400001F5C07101338EFB0325DA17C2EB651468
:10255000634507FB1434E8D14779012F2FDD264C62
:10256000264ADFF89CE006F2B27384FB0346DC17D0
:10257000C4EB661C6425C4EBE6164FF4C87405FB77
:102580001C3C04FB163603F00305012307E0147816
:102590000133BB420EFB041102F101020FD0022BEA
:1025A000F5D1002DF3D1BCF1000F1BD001F51811AE
:1025B00001F56E510133BB4202F10102EFD14378C4
:1025C0008578047802790E48C3EB03134FF46166F3
:1025D0009B0006FB05332344013A00FB023008440C
:1025E000BDE8F081002ED2D101F5181101F56E5130
:1025F000E0E700BF8033E1011F85EB51AC350100FE
:1026000080510100F0B5204C204E23683268204DE7
:1026100083B028680093009B9B1AB3F57A7F0FD391
:10262000013000E0084623680093009B02F57A72AF
:102630009B1AB3F57A7F00F10101F3D22860326072
:10264000144F3B6898420FD3134B1B6863B19847F4
:10265000124B58B912491A680B78286800330244A3
:1026600018BF01233A600B7003B0F0BD22680192DD
:102670001B680B4A019C28600344022134603B60C4
:10268000117003B0F0BD00BFC49B0120F095012084
:10269000E4950120F4950120EC9501208C37012070
:1026A000E895012008B5FFF7ADFF044B1B68984281
:1026B00001D0FFF71DFF024B987808BDD895012087
:1026C000DC95012008B5FFF79DFF044B1B6898427D
:1026D00001D0FFF70DFF024B587808BDD8950120B7
:1026E000DC95012008B5FFF78DFF044B1B6898426D
:1026F00001D0FFF7FDFE024B187808BDD8950120E8
:10270000DC95012008B5FFF77DFF044B1B6898425C
:1027100001D0FFF7EDFE024B187908BDD8950120D6
:10272000DC95012008B5FFF76DFF044B1B6898424C
:1027300001D0FFF7DDFE024B587908BDD895012086
:10274000DC95012008B5FFF75DFF054B1B6898423B
:1027500001D0FFF7CDFE034B987900F2B27008BDAF
:10276000D8950120DC95012070B40A4B0A4A1B68F9
:1027700012680A4E0A4D0B49306083B01044019331
:10278000019C094B286002220C601A7003B070BCD7
:10279000704700BFC49B01208C370120E4950120C5
:1027A000F4950120F0950120E89501200349044AA1
:1027B000044B096811601860FFF724BFE4950120FD
:1027C000F4950120EC95012010B5044608F056F868
:1027D000204610BD024A0349034808F0ABBB00BFC6
:1027E00030370120C9270000F89501201A4A1B4BF9
:1027F00011681B48096970B499421279027008D2B5
:10280000184A12782AB3184A0121116003F580741E
:1028100002E01C46A3F58073144A154912680D683E
:10282000AAB1A5B1134E3088402810D841000A44FF
:102830004030294402320231308033F9040B22F84F
:10284000020F9C4233F9020C21F8020FF5D870BC3C
:10285000704703F58074DFE708960120A03001205F
:102860001F8000400296012008E200E0109601203F
:102870000496012000960120F8B5064608F014F9E8
:102880000446E8B108F010F9054600283AD072B6BF
:102890001F4B1A887F2A19D8002C31D01D490A688D
:1028A00042B162B6204608F053F92846BDE8F84028
:1028B00008F04EB918480C601A80056062B6F8BD81
:1028C000054672B6124B1A887F2AE5D9114A124979
:1028D0001768146000220C681A800D6062B63946D1
:1028E000304608F05FF9384608F032F930462146A4
:1028F000012208F057F92046BDE8F84008F028B951
:1029000062B6F8BD204608F023F92C46BFE700BFA9
:10291000009601201096012004960120F8B5284C5D
:10292000284E294F294D0121204607F041FF002064
:1029300000F0F2FD264B274A27484FF480611960CA
:10294000236800211A60998022791E6102F1804279
:1029500040F20116DE809F6102F504324FF480766A
:102960000627DE82DE839F8302268C27D9609E6045
:102970009E82117017702B68184E43F0124343F07B
:1029800001032B600368164D43F01043036008F009
:10299000A1F92279134B144C187053119B0003F1C9
:1029A0006043174602F1100003F5614302F01F0275
:1029B0000121377001FA02F245F820401A60F8BD93
:1029C00008960120A02F012000FEFFFF80F00240AA
:1029D00014B00440A2F0024000F002401B8000400E
:1029E0000032012002960120ED270000024A03492F
:1029F000034808F09FBA00BF30370120C927000004
:102A000008960120024A0349034808F093BA00BF20
:102A100030370120C927000014960120024A0349DB
:102A2000034808F087BA00BF30370120C9270000EB
:102A30001C960120024A0349034808F07BBA00BFF4
:102A400030370120C927000024960120002070475C
:102A500000207047F8B51F4C027A0E465200C1F3B1
:102A6000072101250746204684F83B2084F85E5064
:102A700084F85D5000F034FEF1B2204600F030FEE4
:102A80002046002100F098FF08B10020F8BD2B4639
:102A9000397A0222204601F019F80128F5D994F874
:102AA000381094F83950A94210D263184A1CD2B297
:102AB000187E84F8382095424FEA002306D9224434
:102AC0000231107E84F838101843F8BD4FF0FF3003
:102AD000F8BD00BFFC370120F8B5144C037A242957
:102AE00008BFC2805B0001250E462046C1F30721C6
:102AF000174684F83B3084F85E5084F85D5000F04F
:102B0000EFFDF1B2204600F0EBFDC7F307212046B0
:102B100000F0E6FDF9B2204600F0E2FD294620462D
:102B200000F04AFFB0FA80F04009F8BDFC37012000
:102B3000F8B504467B480D46164600F0E5FD052035
:102B400006F022FF20460621FFF784FF002D00F04B
:102B50009580B02800F0E0800127277144F26002E0
:102B600030212046FFF7B8FF08B90020F8BD6C22DD
:102B700026212046FFF7B0FF4FF4F97228212046A6
:102B8000FFF7AAFF40F622722C212046FFF7A4FF90
:102B900044F246423C212046FFF79EFF40F23712A6
:102BA00024212046FFF798FF5F4B9D4200F2AE8044
:102BB000002234212046FFF78FFFB6FBF5F207EE27
:102BC000906AF8EE676A07EE905AF8EE677A02F0BC
:102BD0001F0286EEA77A3221204607EE902AF8EEF1
:102BE000E77ADFED526A77EE677A67EEA67AFCEE57
:102BF000E77A17EE903AC3F30A0343EAC222FFF7DB
:102C00006BFF44F2FF5230212046FFF765FF73222D
:102C100002212046FFF760FF4FF4C87006F0B4FEB3
:102C200041F61D522E212046FFF756FF07220421B0
:102C30002046FFF751FFB02206212046FFF74CFF48
:102C400010220A212046FFF747FF00220E212046CE
:102C5000FFF742FF43F63C4210212046FFF73CFFBE
:102C600047F67F7222212046FFF736FF36222421C5
:102C70002046FFF731FF01206072F8BD0123237168
:102C800044F2600230212046FFF726FF00283FF47F
:102C90006CAF6C2226212046FFF71EFF4FF4F9721D
:102CA00028212046FFF718FF40F622722C212046EB
:102CB000FFF712FF44F246423C212046FFF70CFF8B
:102CC00040F2371224212046FFF706FF44F2FF02AC
:102CD00030212046FFF700FF732202212046FFF734
:102CE000FBFE4FF4C87006F04FFE41F61D522E2138
:102CF0002046FFF7F1FE042211462046FFF7ECFEC6
:102D0000302206212046FFF7E7FE99E73A463421B4
:102D10002046FFF7E1FE50E7002301202371607297
:102D2000F8BD00BFFC3701204066030100000045EC
:102D3000014A0021FFF7FCBE605AC50A10B50446DF
:102D400019B1012911D0002010BD55222021FFF713
:102D5000C3FE0028F7D0E28842F00402204692B277
:102D60002421BDE81040FFF7B7BE40F273122A21BC
:102D7000FFF7B2FE0028E6D0882220212046FFF788
:102D8000ABFE0028DFD0E288204622F00402242196
:102D9000BDE81040FFF7A0BE38B50546F1B1802967
:102DA00003799ABFC1F1800444EA0424002433B9B2
:102DB000224628462221BDE83840FFF78DBEC28852
:102DC000002322F0100203712421FFF785FE224622
:102DD00028462221BDE83840FFF77EBE012303715B
:102DE00047F67F722221FFF777FEEA8842F0100251
:102DF000284692B22421BDE83840FFF76DBE00BFDF
:102E00009FED057ADFED057AE0EE077AFCEEE77AD2
:102E100017EE901AFFF7C0BF00000143EE7CFF3EA3
:102E2000024A0349034808F085B800BF3037012043
:102E3000C92700002C96012038B5074D074C0848DB
:102E40002A46214608F076F82A4621460548BDE87C
:102E5000384008F06FB800BF30370120C9270000A4
:102E6000349601203C960120024A0349034808F0A9
:102E700061B800BF30370120C92700004496012007
:102E8000024A0349034808F055B800BF3037012013
:102E9000C92700004C960120006910B103689B6AA5
:102EA00018477047006910B10368DB6A184770471C
:102EB000006910B103681B6918477047006910B1B9
:102EC00003689B6918474FF0FF307047006910B1E5
:102ED0000368DB6818477047006910B10168096B27
:102EE0000847704710B4006920B10468616B5DF851
:102EF000044B08475DF8044B704700BF006910B1F0
:102F000003689B6B1847002000217047006910B1CF
:102F10000368DB6B1847002000217047006910B17F
:102F200003681B6C18477047006910B103685B6C3D
:102F300018477047006910B103689B6C1847014837
:102F4000704700BFE4310100006910B10368DB6C19
:102F50001847704738B50B6904462BB11D681946F0
:102F60002B6D9847204638BD4FF47A70064A23717E
:102F70002373A06022600B692361002BF2D01A69D1
:102F800001321A61204638BD0C360100006910B1CB
:102F900003685B6D18477047006980B100B503682E
:102FA00083B09B6A01220DF10701984720B19DF87B
:102FB000070003B05DF804FB4FF0FF30F9E74FF076
:102FC000FF30704710B582B002AB026803F8011DF4
:102FD000D46A19460122A04702B010BDC36D0BB1DF
:102FE00001207047006E003018BF0120704700BFFD
:102FF00010B50446406E18B108F092FE00236366D7
:1030000004F12400BDE8104004F02ABB10B50446CA
:10301000024603690549064807F0BAFC206920B159
:103020000368BDE810405B6A184710BDC436010054
:10303000E4380120024603690149024807F0A8BCB0
:10304000E0360100E43801202DE9F041002394B07E
:103050001A460546243104A84FF47A74254F8DF89A
:1030600004308DF80C30129313930294009704F0FF
:103070004BFB129B002B32D0682007F0EDFE04467C
:103080009DF80460029A9DF80C301B481B49267677
:103090004FF47A78002620606161E26184F8203084
:1030A00004F1240004A9267126732661C4F808805F
:1030B00004F09AFA2369124A6761013366662E7139
:1030C000C5F808802E732C6123612A600D4B009394
:1030D00004A804F0C5FA284614B0BDE8F081139B9B
:1030E000002BC9D1064A2B71AC602B732B612A606F
:1030F000ECE700BFE83001006C360100E835010064
:103100000C360100C4300100C36D13B1184602F043
:10311000F7BF006E08B101F0CDB94FF0FF30704736
:10312000C36D13B1184603F03DBA006E08B102F04A
:103130000FB9704738B5446E0CB1204638BD05460E
:103140004FF4807008F0E4FD0146686680B1E86DD8
:103150000C7028B14FF4807203F0B6FD6C6EECE792
:10316000286E40B14FF4807201F002F86C6EE4E713
:10317000024C6C66E1E70C46DFE700BF5496012085
:10318000C36D9BB11A7812F0700F00D1704710B563
:1031900004460021184603F001F9206E28B10022F0
:1031A0000023BDE8104001F09DB910BD006E00285D
:1031B000ECD090F8313013F0500FE7D0002200230C
:1031C00001F090B9D0B5C46D8CB1012B08BF002AB5
:1031D00001D30020D0BD1146204603F0DFF80028BF
:1031E000F7D0204603F0E4F90028F2D0D0BD046EF9
:1031F000002CEED0204601F075F90028E9D02046D9
:10320000BDE8D04002F07EBAC36D13B1D869002189
:103210007047036E13B1186959697047184619460B
:10322000704700BFC36D13B1586900217047036E2A
:1032300013B193E80300704718461946704700BF62
:10324000C36D13B1184602F08BBE006E08B101F0D9
:103250005DB84FF0FF307047C36D33B11B7813F08A
:10326000700F14BF012000207047006E30B190F83D
:10327000313013F0500F14BF01200020704700BF01
:10328000C36D13B1184603F0CFB9006E08B102F058
:10329000ABBA7047C26D62B1137803F0080303F054
:1032A000FF0003B3D3695069181A48BF6FF000409C
:1032B0007047016EC1B191F8313003F0080303F09B
:1032C000FF0083B1D1E90423D1E90001101A30B421
:1032D00063EB010100256FF000448D4208BF84427A
:1032E00000D2204630BC704708467047D0B4039CDB
:1032F00016461F4634B1012C1ED0022C0DD00020E2
:10330000D0BC7047C46DDCB1012B08BF002AF6D2D7
:1033100020461146D0BC03F041B8C36DB3B1DA69A1
:10332000B61847F10007012F08BF002EE7D231463B
:103330001846D0BC03F032B8C36D8BB15A69EFE7C1
:10334000006E0028DBD0D0BC01F0CCB8006E0028A5
:10335000D5D0D0E9042392197B41D0BC01F0C2B88A
:10336000006E0028CBD0D0E9002392197B41EAE718
:103370000269084B10B50446036042B11369013B72
:10338000136123B9006910B103681B6A984720468E
:1033900010BD00BF0C36010038B5C36D144A026081
:1033A000044600F12405F3B1284604F059F9606E93
:1033B00008B108F0B5FC0F4B6361284604F050F9E2
:1033C00022690D4B236042B11369013B136123B99C
:1033D000206910B103681B6A98472046682107F0EE
:1033E0003DFD204638BD036E002BDDD1DFE700BF79
:1033F0006C360100C43001000C36010002690A4B32
:1034000010B50446036042B11369013B136123B94F
:10341000006910B103681B6A98472046142107F021
:103420001DFD204610BD00BF0C36010038B5C36D30
:10343000124A0260044600F12405D3B1284604F084
:103440000FF9606E08B108F06BFC0D4B6361284604
:1034500004F006F922690B4B236042B11369013B6A
:10346000136123B9206910B103681B6A984720468D
:1034700038BD036E002BE1D1E3E700BF6C360100DD
:10348000C43001000C360100024A0349034807F02A
:1034900051BD00BF30370120C927000058960120D8
:1034A000024A0349034807F045BD00BF30370120F9
:1034B000C927000060960120024A0349034807F02B
:1034C00039BD00BF30370120C927000068960120B0
:1034D000024A0349034807F02DBD00BF30370120E1
:1034E000C927000070960120024A0349034807F0EB
:1034F00021BD00BF30370120C92700007896012088
:10350000024A0349034807F015BD00BF30370120C8
:10351000C9270000809601202E4B2F491A6842F4DB
:103520000042F0B51A600A682C4C42F002020A60B0
:103530001A6842F002021A602368002B41DB284B14
:103540001B68002B3DDB274A4FF08643136013684E
:10355000002BFCDB244D254CDFF8C4E02449254A30
:10356000254B264F264E41F2100CC5F800C0002511
:1035700025600124CEF80040DFF8A8E0C1F800E0A3
:103580004FF480311160DFF8A0E01E4A1A601E4B34
:103590003B603560CEF8004004F18E447C671B4DE3
:1035A0001B4C46F8541C2A60236028B919491A4A52
:1035B0004FF4C0630B601360184B4FF4C0621A6085
:1035C000F0BD30B91349144A4FF4C0630B60136067
:1035D000F0BDF0BD3C8004404080044000F002405B
:1035E00080F0024000F1024004F1024060F002402D
:1035F00008F002400CF0024010F0024014F00240CB
:10360000E0F002401B1F0100001F1F1F90F002404E
:1036100094F0024008B0044018B004400CB00440DC
:1036200004F002400100000784F00240024A03490E
:10363000034807F07FBC00BF30370120C9270000D6
:1036400088960120024A0349034807F073BC00BF73
:1036500030370120C92700009096012090F83920CA
:1036600090F83800101A704790F8383090F83920E8
:103670009A4205D95A1C034480F83820187E7047B6
:103680004FF0FF30704700BF90F8383090F8392085
:103690009A4286BF1B18187E4FF0FF30704700BF5C
:1036A000704700BF38B50546B0F85E0090B195F898
:1036B0005D301446C3F1210294420CD805F13B0061
:1036C0001844224605F0ACFD95F85D30234485F89A
:1036D0005D30204638BD012014462871EEE700BF5A
:1036E000B0F85E306BB190F85D30202B07D8C2186F
:1036F000013380F85D30012082F83B1070470123D0
:1037000003710020704700BF0023426980F8383001
:1037100080F8393080F85C3080F85D3080F85E30B9
:1037200080F85F3006CA30B40D68046943662A43E6
:1037300083660A60A370426990F861301649146884
:1037400013441D7A5B7B01EBC5051B026D6803F416
:10375000E06343F064032B6090F8623013449D7C77
:10376000DB7D01EBC5011B02496803F4E06343F014
:1037700064030B6021685368194205D0036927224E
:103780005A70036904229A71036920225A710369ED
:1037900080229A7030BC70476438010038B50269E5
:1037A000D478E4B2E106054624D51023D37063062D
:1037B0001FD504F0040404F0FF03002C5AD0424942
:1037C0006A6E00230B7085F85D30002A66D0904742
:1037D00095F85D30002B61D02B69D0229A702B694F
:1037E00095F83B201A712B69012285F85C20022292
:1037F000DA7038BD04F0400303F0FF00002BD8D18D
:103800009379DBB203F0600160294ED0937803F026
:10381000100303F0FF01B3B114F0010437D195F8A0
:103820005C3095F85D1099424BD9591C2B4485F8B2
:103830005C1093F83B3013712B69D0229A702B697E
:103840000222DA70D5E785F86010937943F02003FF
:1038500093712B6995F839101A791F29D2B2C6D8FD
:10386000194800780028C2D06818013185F839104D
:103870000276BCE72A6985F83930C02393702B693A
:10388000114A1979012111700222DA70B1E7C023BF
:1038900093702B691A790222DA70AAE701220023B9
:1038A00085F85D2085F83B3096E703F0DF039371E0
:1038B000AB6E23B185F8380095F8390098472A692E
:1038C000A4E71471B8E700BF989601202DE9F047EE
:1038D000374FDFF8E0903B68026982B006460093FC
:1038E000DDF800800021A025D3789B065BD53B68DE
:1038F0000193019BC8EB03030F2BF5D949B1102BA2
:10390000F2D000209070336980229A7002B0BDE836
:10391000F087726996F8613013440521187A06F031
:103920000BF8726996F861301344012193F812A0E4
:10393000504606F001F809240021504605F0E8FF42
:103940002B46013BFDD10121504605F0E1FF2B46FE
:10395000013BFDD1013CEFD1706996F86110014443
:103960004FF4A0720C7A4B7B09EBC4011B0249682F
:1039700003F4E06343F064030B6096F862300344A1
:10398000997CDB7D09EBC1011B02496803F4E0630C
:1039900043F064030B60013AFDD13269D3789B0692
:1039A0004FF00101A3D4012002B0BDE8F08700BFB1
:1039B000C49B012064380100F0B503691222DA705B
:1039C0000269937803F0200385B004460D46002B6E
:1039D0005ED0B42393703C4922690B680093009E2B
:1039E00005E00B680193019B9B1B042B42D8D37805
:1039F00003F0200303F0FF00002BF2D094F85D30B9
:103A0000002B31D04FF0000E4FF0020C04EB0E03F0
:103A100093F83B3013710B680393039F206907E011
:103A20009B060DD50B680293029BDB1B052B28D848
:103A3000C378DBB203F0020202F0FF06002AEFD0E7
:103A400080F803C02669F378DBB2DF0632462DD456
:103A50009F062BD5DB0731D40EF1010E94F85D30B3
:103A60005FFA8EFE7345D1D800201DBB002384F879
:103A70005E3004E09070236980229A70042005B0C3
:103A8000F0BD86702369802204209A7005B0F0BDD5
:103A900003F0FF06FFF71AFF10B9042005B0F0BDD0
:103AA000236984F85F60B0229A7094E78023B37032
:103AB0000420DAE726698023B370D7E7BEF1000F50
:103AC0000CBF02200320F6E7C49B01202DE9F04142
:103AD00006690025122780F8385080F83950F770B1
:103AE000D0F810C09CF802E00EF0200E88B004461A
:103AF000884615461E46BEF1000F49D0B4238CF807
:103B00000230784B21691A680092DDF800E006E087
:103B10001A6801920198CEEB0000042830D8C878CA
:103B200000F0200000F0FF070028F1D04FEA480223
:103B300042F00102D2B20A711A680292DDF808E07E
:103B4000206906E01A6803920399CEEB010105296A
:103B50002AD8C17801F0020101F0FF070029F1D055
:103B60004FF0020C80F803C02269D17811F01107E0
:103B700022D12DBB002E0CBFA0238023937003E025
:103B80008F70236980229A70384608B0BDE8F081B2
:103B90000EF0FF07FFF79AFE0028F5D0236984F89E
:103BA0005F70B0229A70ACE7877023698022384634
:103BB0009A7008B0BDE8F081802393700027E3E796
:103BC000012D75D0A021917021690A79BE46674602
:103BD0004FF0A80C1A680492049805E01A68059240
:103BE000059A121A052A4AD8CA7802F0020202F08F
:103BF000FF08002AF2D0CF702169CA78D2B212F041
:103C0000100F08465AD1920658D5013DEDB2012D4C
:103C100049D0BEF11F0F3BD90A79012DDAD11A68BC
:103C20000692069D05E01A680792079A521B052A1C
:103C300046D8C27802F0020202F0FF01002AF2D058
:103C40000223C3702269D378DBB2D9063AD49B062B
:103C500034D5B023BEF11F0F93703FD8226904EB17
:103C60000E0312791A760EF1010E5FFA8EFE16B16E
:103C7000236980229A7084F839E0774684E781F8D6
:103C80000280236980229A70774684F839E07BE7C6
:103C900004EB0E0291F8048082F818800EF1010EF8
:103CA0005FFA8EFEB9E781F802C021690846B0E7E5
:103CB000A82191702069BE460279B0E7774663E794
:103CC0008170DEE71021A023D170013BFDD1226974
:103CD000937803F0F7037746937055E723691B79D0
:103CE000C5E700BFC49B01200148FFF757BD00BFD7
:103CF000FC3701200148FFF751BD00BF68380120A3
:103D00000148FFF74BBD00BF90370120704700BF4F
:103D100010B5D0F884448EB0A4B10A466846214656
:103D2000012300248DF800408DF801408DF80240F9
:103D300002F0E0F808B90EB010BD684603F060F973
:103D40000EB010BDD0F888040028F4D00A46012334
:103D5000014668468DF831408DF832408DF8334089
:103D600000F0AEFE0028E6D0684601F0B5F90EB0CE
:103D700010BD00BF10B5D0F884448EB07CB10A46A7
:103D8000012304F24441684600248DF800408DF878
:103D900001408DF8024001F0EBFF0EB010BDD0F8ED
:103DA00088040028F9D00A46012300F58961684695
:103DB0008DF831408DF832408DF8334001F09AFB98
:103DC0000EB010BD30B5D0F884448FB074B100256A
:103DD0000A462B46214668468DF800508DF8015062
:103DE0008DF8025002F086F80FB030BDD0F888048C
:103DF0000028F9D00A462346014668468DF831402E
:103E00008DF832408DF8334000F05AFE0FB030BDCF
:103E100038B50546D0F88404C0B1C469013C02F04D
:103E20002FFED5F88434241A43B198794FF40073E7
:103E300003FA00F080B2A0FB040138BDD5F8883445
:103E400063B1D3F83C04A0FB040138BDD5F8880465
:103E500020B1D0F8304400F0F9FFE2E70020002163
:103E600038BD00BF30B5D0F884448FB0A4B1002570
:103E70000A462B46214668468DF800508DF80150C1
:103E80008DF8025002F036F808B90FB030BD684620
:103E900002F056FA0FB030BDD0F888040028F4D0F4
:103EA0000A462346014668468DF831408DF8324077
:103EB0008DF8334000F004FE0028E6D0684601F09B
:103EC00077F90FB030BD00BF70B5D0F884448EB024
:103ED0001646C4B1002504F244440A462B46214646
:103EE00068468DF800508DF801508DF8025001F0B1
:103EF000A1FF08B90EB070BD32462146684602F0F7
:103F000035F90EB070BDD0F888040028F2D000F565
:103F100089650A462346294668468DF831408DF862
:103F200032408DF8334000F04BFD0028E2D032469D
:103F30002946684601F090FB0EB070BDD0F884248D
:103F40004AB19179D0694FF400738B409BB201382C
:103F5000A3FB00017047D0F8882432B1D2F8303486
:103F6000D2F83C04A3FB00017047002000217047F9
:103F70002DE9F041012B94B0054641D0022B01F10F
:103F8000040140F20223684618BF002303F050FCEE
:103F9000129B002B3DD0682006F05EFF04469DF882
:103FA000046022482249029A9DF80C30206004AF38
:103FB0002676616100264FF47A78394604F12400B0
:103FC000E26184F82030267126732661C4F80880E7
:103FD00003F00AFB23691749174A666601332E71FD
:103FE000C5F808802E732C61616123612A60134B30
:103FF0000093384603F034FB284614B0BDE8F08146
:1040000044F202230431684603F012FC129B002B99
:10401000C1D1139B002BBED14FF47A71064A2B718C
:104020002B732B61A9602A6004AFE0E76C360100B6
:10403000E8350100E83001000C360100C430010011
:10404000F0B4114B114D124C1D60C3F8A04429254A
:1040500000241048104F83F8B354012683F89C4481
:1040600083F89D4483F8B644C3F89404C3F8A87455
:1040700083F8B164C3F88444C3F88844074A084904
:104080001846F0BC06F056BF9C9601208C37010004
:10409000BC3701001438010001100138303701200D
:1040A0000D3D0000F8B5044600F110064068E168D7
:1040B00003683246DB69984740B123789A07054682
:1040C00007D423F0010323702846F8BD00252846B5
:1040D000F8BD6068E1680268A368D7691944324690
:1040E000B8470028F2D02378EBE700BFF8B5456861
:1040F000FDB1C3688B42044617460E460ED00378C6
:10410000DA0712D47B0716D504F1100507F0030275
:104110000023134323702846E660F8BD10F9103BD6
:1041200007F0030213432370F8BDFFF7BBFF00281D
:10413000E8D10020F8BD6068036804F11005DB6871
:104140002A46314698470028E0D1F2E70378DB079A
:1041500001D401207047FFF7A5BF00BF10B504468A
:1041600001F0F6F8002384F8313084F8333010BDC4
:104170002DE9F04300F1240381460F46154693E8EC
:10418000070085B099F8313001AE86E80700002BB2
:104190003ED099F83030012B3FD94FF00108002470
:1041A000B8F1010F14BF202240223146D9F8200077
:1041B00000F0C4FD01282BD100223146D9F820009F
:1041C00000F0A2FD20B30378C12B21D1391904F1ED
:1041D0000F0E00E0144630F8023F621C93B1AA4271
:1041E00010D27E2B94BFDBB23F23724501F8013B16
:1041F000F0D108F1010899F830305FFA88F84345AA
:104200001446CDD8002320463B5505B0BDE8F083C9
:104210000020387005B0BDE8F0830024F2E700BF4D
:1042200090F831200AB10020704738B504460D4699
:104230001146382208F032F94023012084F8313049
:1042400084F83300256238BDF0B50878202803D102
:1042500011F8010F2028FBD051600878002851D0B8
:104260002F282BD05C2820D0A0F12204E4B21D2CF2
:104270001DD9DFF894E04E1C00247C28A0F1200515
:10428000374612D05E2D10D816F8010BA0F122058A
:10429000EDB2013478B32F2811D05C282EFA05F73F
:1042A00003D01D2DE9D8FD07E7D50020F0BD164D40
:1042B00025FA04F4E607DCD50020F0BD00240F1930
:1042C0003E4625462F2002E016F8010F0135202832
:1042D000FAD02F28F8D02944196044B1394611F892
:1042E000013D2E2B01D0202B08D1013CF7D12046D7
:1042F00010600120F0BD1F600F19EFE7FF2CF6DD05
:104300000020F0BD1960F3E7010100352DE9F04F01
:1043100090F83330DE0783B004465AD55D060E466A
:10432000934640F1B880D4E90001D4E9042310EBAE
:104330000B0841F100094B4508BF4245C0F0B18070
:10434000BBF1000F6ED0A146F9E806015D46276A71
:10435000D7F838340340C3F3080A002B68D150EA79
:10436000010275D194F8312051064CBFD7F834249E
:10437000E269A261D7F82C0497F845E45B0A023A97
:10438000191802FA0EF21144BAF1000F2CD1B5F54A
:10439000007F29D3D7F81C22914225D0B5F5806F34
:1043A0005DD34FF0010808FA0EF8C3EB08034FEA9B
:1043B0005528984528BF984691423BD808EB010301
:1043C0009A4237D207F504700191FFF7BFFE0199B9
:1043D00080BB94F832304FF0FF3043F0020384F892
:1043E000323003B0BDE8F08F07F504700022FFF70C
:1043F0007DFE0028EDD0CAF50078A84528BFA84664
:1044000000EB0A014246304604F00AFF4246002310
:10441000D4E9000180185941B5EB08054644C4E9C8
:10442000000194D10025C5EB0B0003B0BDE8F08F6F
:10443000A2699FE7D7F81402036832461F69434612
:10444000B8470028C5D04FEA482842460023DFE796
:1044500094F83320520610D5A269013289E7D7F8C3
:10446000140203683246DB6898470028B1D04FF445
:10447000007200234FF40078CAE738464A46A16923
:10448000019300F087FC40B20028A2DB0CD0276A21
:10449000A269019B6EE790F8313018073FF543AFF2
:1044A0004EE7C0EB020B4BE794F8313013F0500F9E
:1044B000B9D18EE7F0B583B001220DF107010446B2
:1044C000D0E900678569FFF721FF012808BF9DF843
:1044D0000700A56118BF4FF0FF30C4E9006703B0C3
:1044E000F0BD00BF2DE9F04F90F831E0856983B051
:1044F0000446BEF1000F1BD0D0E90001994208BF6D
:10450000904216461F463BD056EA070307D10023C8
:10451000A3610120C4E9006703B0BDE8F08F1EF07D
:10452000080F0AD0D4E90423BB4208BFB24204D228
:10453000A561002003B0BDE8F08F236A019393F8D2
:1045400045C494F833A00CF1090C5FFA8CFC16F109
:10455000FF3247F1FF33CCF1200803FA08FB22FABF
:104560000CF242EA0B02ACF1200B23FA0BF31AF027
:10457000400F42EA030205D0E3691A44A261C8E78A
:104580000120D7E710F1FF3941F1FF3A29FA0CFC7D
:104590000AFA08F84CEA080C2AFA0BFB4CEA0B0C56
:1045A0006245534617D21EF0400F16BF019BE369C8
:1045B000D3F83434A361904604F118094A46B8F19F
:1045C000000FA6D0A169206A00F0E4FB08F1FF38D3
:1045D0000028F3D1ACE750EA0103E4D0CCEB0202AF
:1045E000E9E700BF2DE9F04F0E4693B090F8311087
:1045F0000092054629B99A4696F8313013F0500FCB
:1046000007D1002085F8310085F8330013B0BDE8EC
:10461000F08F1C9B03F00303012B06D0022B00F04C
:104620000981002BEDD1012300E002231C9A02F046
:10463000080213430193009B002B00F0FD801846F5
:104640000022514600F0E4FC96F8313002904BB164
:10465000D6E90023134305D000220023C6E9002336
:104660000021B161B84A0AF10E0382FB03121A4419
:10467000DB17C3EBE203DBB24FF000090393023315
:104680005FFA83FB4C464F4620220AA93046FFF7CB
:104690003DFE00283DD02028B3D19DF828301A06D1
:1046A00066D4002C61D13268B1690791203A089232
:1046B0000134E4B26BB3C02B00F09380C12B62D005
:1046C000852BE1D138220021284607F0E7FE9DF82E
:1046D0002C309DF8292085F83020D80603F03702C9
:1046E00058BF42F0080285F831203368316AB26958
:1046F0006A62203B2962AB6296F83330C3F38013C1
:1047000085F82C3020220AA93046FFF7FFFD00284B
:10471000C1D11C9B99057FF574AF019B9A077FF56A
:1047200070AF009B002B3FF46CAF5C450CD386E070
:1047300020287FF466AF24B93268B1690791203A26
:104740000892DCB2A3457AD920220AA93046FFF7A5
:10475000DDFD631C0028EBD13046B76900F028FE70
:1047600000283FF44EAFB761ECE75C45A2D29FE76B
:10477000B9F1000F9FD15C4538BF0024852B83D150
:104780004FF001099EE7C7EB0A085FFA88F8B8F115
:104790000F0F28BF4FF00F0843463A4600990AA86A
:1047A00000F00AFC00283CD04744FFB2BA457FF431
:1047B0006BAF1C9B1B053FF524AF1C9B13F4884F6C
:1047C00040F0A08095F833309F0700F19B801C9B40
:1047D0005B053FF516AF1C9B580400F1B780012024
:1047E00014E79DF82930019A85F83320990703D5FD
:1047F00042F0400385F83330DDE90C23DDE9100198
:10480000C5E904230F9BEB61009BC5E90201002B66
:10481000CFD09DF82B30534505D04FF000094F46BF
:1048200032E7814630E7BDF82C30029A9342F4D14A
:10483000002729E70323F9E6009B029312E796F885
:1048400033303822C3F38013002128460DF11C08B1
:104850008DF8243007F022FE039C336ACDF80CA0BB
:1048600098E8070004F10109082485F831400AF1AD
:104870001E0705F12404DDF800A02B625FFA89F918
:1048800084E80700FFB2002618460122414600F0E6
:104890003BFA044600283FF4B4AE90F90030002BF8
:1048A000FFF6AFAE2022002107F0F8FD002E66D003
:1048B000012E54D0C6EB06130F2FA3F11E034FF0A9
:1048C000C102394628BF0F21DBB2227051B1023438
:1048D00009B204EB4101534413F8012B24F8022BD5
:1048E000A142F9D10136F6B2B34529D92022414679
:1048F000286A00F023FA01287FF483AE0F3FFFB24D
:10490000286AC2E795F8313013F0110F7FF479AEC1
:104910001C9B5E057FF55FAF95F833309C077FF5F4
:1049200070AE002200232846FFF7DCFD00283FF48C
:1049300068AE284600F0E6FE00283FF462AE4EE77F
:10494000284600F005FD61E689888888D5E90423BA
:104950002846FFF7C7FD00287FF441AF51E6C0238A
:104960002370019B032263F03F03627085F83330AC
:104970009DF80C30E370BDF80830A380B2E78523C2
:1049800023700E4B85F8309084F801901B687BB142
:104990000DF117020DF11A0106A89847BDF818107D
:1049A000BDF81A209DF8173061812281237599E79F
:1049B00045F221236381E381638293E7549B0120C5
:1049C0002DE9F043064695B096F831400392002059
:1049D0008DF849008DF84A008DF84B0034B999469E
:1049E00091F8313013F0500F0D4603D1002015B06F
:1049F000BDE8F08313782F2B144632D04FF0000817
:104A0000214603AB04AA3046FFF71EFC0028EDD078
:104A1000039B1B78002B39D09DF81030059ACDF8F8
:104A2000008029463046FFF7DDFD0028DED0344601
:104A300006AF06F1300E20686168A268E3683D4663
:104A40000FC5103474452F46F5D1206828603046D4
:104A500000F07EFC06AD86F8318086F83380039C3A
:104A6000CEE70134039421782F29FAD0D1B138222E
:104A700006A800212F6A07F011FD4022012306AD90
:104A80000E978DF849208DF84B30B7E79DF8103020
:104A9000059ACDF8009029463046FFF7A3FD15B0E2
:104AA000BDE8F083382230462C6A07F0F7FC40233B
:104AB0000120346286F8313086F8330097E700BF72
:104AC00019B101F58961FFF77BBF0846704700BF48
:104AD00090F8313053B930B591F8314014F05004AA
:104AE00083B00D4604D1204603B030BD002070478E
:104AF000D5E90045002504F01F042C4302D01846D8
:104B000003B030BD00921A46FFF76CFD03B030BD14
:104B100038B50C46D0F82414154601EBD41100F535
:104B200004700022FFF7E2FA40B1A400C4F30804C5
:104B300003595A1C04D02B60012038BDFF2038BD1A
:104B4000002038BD38B50C46D0F82414154601EBCA
:104B5000D41100F504700122FFF7C8FA034628B10A
:104B6000A400C4F3080401201D5138BD38BD00BFA6
:104B70002DE9F84F804691468B46002944D08F1E80
:104B8000D8F830349F423BD207F00705012303FADF
:104B900005F5EDB2C7F3C80A3E463C46D8F82C14DA
:104BA000002201EB14314046FFF7A0FAC0B110F823
:104BB0000A100AE04A452AD0A74210D0D8F830247B
:104BC000944217D213F0FF050CD001340D424FEA86
:104BD0004503A4EB0602EDD0A7422646EED1012004
:104BE000BDE8F88F0AF1010ABAF5007F4FF0010520
:104BF000DDD101E0002634464FF0000A0125CDE763
:104C00000027BA460125C7E7D0F82074B8E7BBF102
:104C1000000F04D1B9F1010F08BFC8F82064B01C1F
:104C2000BDE8F88F2DE9F04702398046D0F830040E
:104C300015468A18824238D89A46D8F82034BAF1F4
:104C4000000F35D1994238BFC8F8201401F007048D
:104C50000122D8F82C3402FA04F4E4B203EB11393F
:104C6000C1F3C8060122494640469144FFF73EFA87
:104C7000D8B1871900F5007017F8012B224214BF34
:104C800001260026564582EA04024FEA44040CD06D
:104C9000013D07F8012C15D014F0FF04EED1B84205
:104CA00026464FF00104E7D1DCE70020BDE8F0879D
:104CB0009942CBD89A42C9D9824228BF0022C8F86B
:104CC0002024C3E70120BDE8F08700BF70B582B0A3
:104CD00002AE054646F8041D0024D5F8303401998B
:104CE0000133994202D9002002B070BD32462846F5
:104CF000FFF70EFF40B20028F5DB04F10104ECD110
:104D0000204602B070BD00BFF8B50E4696E82800F8
:104D1000D0F83814D0F82C4490F845742940023B60
:104D200004EB5121BB40194400F50470FFF7DEF994
:104D300018B17368C3F308031844F8BD70B54C6824
:104D40000D46A318D0F838146B6090F845340C4029
:104D500009332244DBB222FA03F406463CB12B7A33
:104D60003BB12B6801332B60013C002CF7D10120B3
:104D700070BDD6F8303429680133994202D94FF01A
:104D8000FF3070BD2A463046FFF7C2FE40B2012810
:104D9000EAD070BDD0F8303401338B4201D2FF200D
:104DA0007047FFF7B5BE00BF01290DD9D0F83034E8
:104DB0000133994210B403D900205DF8044B7047C9
:104DC0005DF8044BFFF7BEBE00207047F0B50C46FF
:104DD00083B005460E46D5F8303401339C4202D9E3
:104DE000002003B0F0BD01AA21462846FFF790FE3F
:104DF00047B2002FF4DB012CF2D9D5F8303401335F
:104E00009C42EDD8002221462846FFF79BFE002851
:104E1000E6D0019B01349C420BD1002FDBD13B46F5
:104E2000A21B31462846FFF7FDFE0028D8D003B06C
:104E3000F0BDA21B314600232846FFF7F3FE0028F1
:104E4000CED0019C002FCCD02646C4E72DE9F843F4
:104E50000024D0F82C64804600F5047725463146BE
:104E6000002238460136FFF741F930B300F1FF3E2A
:104E7000D8F830C41EF8010FFF2805F5805913D06B
:104E800048B10822012318424FEA430118BF0134F8
:104E9000013ACBB2F7D10835AC450AD94D45DED041
:104EA0001EF8010FFF28EBD10835AC4504F10804CA
:104EB000F4D8C4EB0C00BDE8F883BDE8F88300BF6C
:104EC000F8B5044600234FF0FF3600F50477C0F82C
:104ED00040144160C0F814121546384684F8443432
:104EE000237084F81032E660C4F81C621A46194632
:104EF000FFF7FCF8042D0CD8064650B15DB9052229
:104F00002649F01C07F0AAFE18B996F86C30092B58
:104F100019D00020F8BD6B1E00EB031393F8BE21DF
:104F200012F07F02F5D193F8C231002BF1D000EBE3
:104F300005153846D5F8B6512946FFF7D7F8064685
:104F40000028DCD1E5E7336D2B44C4F82434736DBD
:104F5000C4F82834B36D1D44C4F82C54F36DC4F860
:104F60003034336EC4F8343496F86D3084F84534F8
:104F70000125093305FA03F35A1EC4F8200401463B
:104F8000C4F83C34C4F8382420462A46FFF7F0FD24
:104F9000402384F844342846F8BD00BFAC370100F4
:104FA00010B50446D0F83414FFF790FE94F8453459
:104FB0000933DBB2984010BD43B370B444887E2CF3
:104FC0001ED81344CD180A44023012F8013BE4B253
:104FD000A3F161011929A4F1610194BF20260026E3
:104FE000192994BF202100219B1B641ADBB2E4B273
:104FF0009C4205D1AA4206D030F8024F7E2CE4D95B
:10500000002070BC7047012070BC704701207047C1
:10501000C9B110B40144D30343EA520310F8012B81
:10502000A2F16104192C9CBF203AD2B212FA83F289
:1050300092B2D30343EA5202814292B2EBD11046BC
:105040005DF8044B70471046704700BF8169F8B5A2
:105050000446006A01B101310122FFF789FD0128F0
:1050600006462FD9012301461A46206AFFF7DAFDCA
:10507000074638B3A06994F8333030B35A0613D5D5
:10508000421C964225D023F0400284F83320E36985
:1050900005E0206AFFF788FEA0B1A0692B465D1CE1
:1050A000834219462A46F4D34FF0FF323146206A34
:1050B000FFF77AFE30B1A16959B13246206AFFF795
:1050C00073FE30B900273846F8BD43F0400384F83A
:1050D0003330A6613846F8BD2DE9F04300F12403D2
:1050E000054693E8070085B095F8333001AE86E8B1
:1050F00007009A071BD5E969E9B900240122314666
:10510000286AFFF701FE0134E4B280B1037803F0AE
:105110007F03037095F83030A34231D3002CEDD0DB
:1051200020223146286AFFF709FE0128E6D0002038
:1051300005B0BDE8F0835B06286A1CD5D5E90223DB
:1051400090F845440934E4B212F1FF3843F1FF39D5
:10515000C4F1200709FA07F728FA04F2A4F12003A2
:1051600029FA03F33A431A4301320023FFF75AFDA9
:105170000028C2D1DBE7FFF729FE0028BDD1D6E722
:105180002C6A0023204685F8313085F83330FEF74D
:10519000DDFF0028CBD004F50470FEF7D7FF002810
:1051A000C5D0D4F8400403689B699847C0E700BFA6
:1051B00090F83130D90601D40020704710B5002294
:1051C00088B000230446FFF78DF906E0202819D1A6
:1051D0009DF800301A0615D433B1202269462046C6
:1051E000FFF794F80028F1D194F83330082243F007
:1051F000020384F8333084F831202046FFF76CFF37
:1052000008B010BD002008B010BD00BF2DE9F04F60
:1052100000F1240B06469BE8070087B00DF10C084F
:1052200088E807000027BA463C4600224146306A1B
:10523000FFF76AFD5FFA87F9054630B10378C02BA6
:1052400051D0C12B4DD0852B09D096F8323043F088
:10525000010386F83230002007B0BDE8F08F3B4BE9
:1052600096F831201B6890F801A002F03702828086
:1052700083B10DF107020DF10A0102A89847BDF8AC
:105280000A20BDF808309DF807106975AA812A82A6
:10529000EB816B82326A92F8103243F0010382F89C
:1052A0001032287800216A5CE30343EA540412FABE
:1052B00084F40129A4B201F101010DD01F29F2D912
:1052C000CA4526D020224146306AFFF737FD012823
:1052D00007F10107A9D0B8E785280CBF04210221F6
:1052E000E1E71846DEE796F8333013F0400F4378D5
:1052F00014BF43F0020323F002034370D6E90423F2
:10530000C0E90223D6E90223F1694161C0E906231D
:10531000C0E759460122306AFFF7F6FC002894D016
:10532000356A44802846FEF711FF00288DD005F528
:105330000470FEF70BFF002887D0D5F840040368FF
:105340009B699847002880D086E700BF549B0120C6
:1053500090F8312092B138B590F8332011060FD46F
:10536000056A04462846FEF7F1FE88B994F8323003
:1053700043F0010384F83230002038BD012070472B
:1053800002F07F0280F83320BDE83840FFF73EBFCF
:1053900005F50470FEF7DAFE0028E7D0D5F84004E2
:1053A00003689B6998470028E0D0012038BD00BF02
:1053B0002DE9F04190F831305906044660D48068F8
:1053C000236AD3F83C341844B0F1806F02D3002034
:1053D000BDE8F0812046FFF739FE0028F7D0266AA5
:1053E00096F81032DA074FD44FF0FF33002506F558
:1053F0000878C6F81C3286F8105229464FF400721D
:10540000404607F04BF8226AA36992F84504D2F8A7
:105410002C14023B834001265F1816FA00F310D0CB
:10542000D2F8400403687919DB6942469847013590
:105430000028CCD0226A92F8453406FA03F3AB4236
:10544000EED894F831305B0615D494F8333063F01D
:105450007F0384F83330D2F83C64D4E90223D4E9E2
:10546000040192194FF000077B4180197941C4E98A
:105470000223C4E904012046BDE8F041FFF768BFFC
:10548000006AFFF78DFD9BE706F50470FEF75EFEF0
:105490000028A9D19BE700BF91F8313013F0500FDD
:1054A00001D10020704730B583B040F60225137853
:1054B000526800950446FFF795F810B9002003B034
:1054C00030BD102384F831302046FFF771FF0028EB
:1054D000F4D0A369E361002200232046FFF702F81D
:1054E000C123204684F8333003B0BDE83040FFF7D5
:1054F0002FBF00BF2DE9F043064695B096F8315016
:10550000039200208DF849008DF84A008DF84B0079
:1055100035B9994691F8313013F0500F0C4603D14C
:10552000002015B0BDE8F08313782F2B114636D03C
:105530004FF0000803AB04AA3046FEF785FE0028B2
:10554000EED0039B1B78002B37D09DF81030059AC6
:10555000CDF8008021463046FFF744F848B9B9F14C
:10556000000FDDD0214604AA3046FFF795FF002842
:10557000D6D0344606AF06F1300E20686168A268C6
:10558000E3683D460FC5103474452F46F5D12068B9
:1055900028603046FEF7E2FD06AC0399CAE7013108
:1055A00003910B782F2BFAD0216A06A8FEF738FE5C
:1055B0000028B5D0039906ACBAE704AA21463046C4
:1055C000FFF76AFF15B0BDE8F08300BF52EA0301A0
:1055D00003D090F83310890701D400207047C169C7
:1055E0000029FAD12DE9F8430646006A1D4690F8D5
:1055F0004534093312F1FF38DBB245F1FF39C3F10D
:10560000200709FA07F7144628FA03F2203B3A4329
:1056100029FA03F31A43571C3A46FFF7A9FA01285F
:10562000804606D901463A460123306AFFF7FAFA66
:1056300010B90020BDE8F88396F83330C6F81C8016
:1056400063F03F0386F83330C6E902453046BDE8D3
:10565000F843FFF77DBE00BFF0B590F831409DB034
:10566000002314F0180F8DF831308DF832308DF89A
:1056700033308DF869308DF86A308DF86B3003D097
:105680000B6A046A9C4202D000201DB0F0BD0446A3
:1056900040F601236846FFF793F90028F4D00EAFD7
:1056A000254604F1300E28686968AA68EB683E4612
:1056B0000FC6103575453746F5D12868306009ABFF
:1056C00093E8070004F1240383E8070094F83330DB
:1056D0009DF8302084F8302063F07F0384F8333065
:1056E0002046FFF735FE0028CED0002102220823F5
:1056F0000EA815918DF86B208DF86930FFF7ECFC42
:10570000C3E700BF90F833309A0718D5F0B5C569E4
:1057100083B08DB103F04003044603F0FF0083B96A
:10572000A169002941D10195E1612946206AFFF76D
:105730004DFB30BB002000E0012003B0F0BD002095
:105740007047206AA16990F84534D4E902670933AB
:10575000DBB216F1FF36C3F1200E47F1FF3726FA10
:1057600003F207FA0EFE203B42EA0E0227FA03F389
:105770001A430132B1B1013D6D1A01312A44019140
:105780000ABBD4E9000194F8333063F07F03C4E925
:105790000201C4E9040184F833302046FFF7D8FD44
:1057A00003B0F0BD0195E161EAE702AA42F8040DF9
:1057B000206AFFF7EFFA40B20028BBDB0AD1019D57
:1057C000002DDED0B1E700230199FFF72BFA002866
:1057D000D7D1AFE74FF0FF32A169206AFFF7E4FAB3
:1057E0000028ECD1A6E700BF2DE9F04F90F8333048
:1057F00083B09D07044600920AD494F8323043F0F7
:10580000010384F832304FF0FF3003B0BDE8F08F71
:105810001A07894600F10181009B002B00F01181DD
:105820002146F1E80623DDF8008001914FF0010BDD
:10583000CA46206AD0F838541540C5F3080945BB5C
:10584000A169002900F0AE8094F833305B0640F186
:10585000CD80D4E9026790F84524E3690932D2B2D9
:1058600016F1FF3647F1FF37C2F1200ED64007FA96
:105870000EFE203A46EA0E0627FA02F21643334499
:105880009942C0F0A6802046FFF7E0FB0028B4D084
:10589000206AA669D0F82C7490F845E46D0A023E9F
:1058A000E91906FA0EF63144B9F1000F73D1B8F5D3
:1058B000007F4DD2D4E90423D4E90067B8F5007F16
:1058C000454628BF4FF400759F4208BF964234BF3B
:1058D0000122052200F50470FEF708FC00288CD098
:1058E00048442A465146A94403F09AFCB9F5007F82
:1058F00000F08A8028460021D4E90023D4E9046717
:1059000012184B419F4208BF9642AA44C5EB0808B3
:10591000C4E9002307D294F83310C4E9042361F0EA
:105920007F0184F83310B8F1000F82D1D4E902016D
:10593000994208BF904278D3434B1B68002B7ED01E
:1059400094F83330009863F07F0384F833305CE7D9
:10595000B8F5806F2AD30BFA0EF35D1BD0F81C222A
:105960004FEA5823AB4228BF2B4691424FEA4325CA
:1059700008D8CE18B24205D24FF0FF3280F810920C
:10598000C0F81C22D0F8140206685246366AB047A6
:105990000028AFD131E7C9F50075454528BF454618
:1059A000012297E7E669BEB1A66173E7D0F81C3221
:1059B000994222D0D0F8140203685246DB69984716
:1059C00000283FF41AAF4FF4007000214FF4007527
:1059D00092E74E1CA6615DE72046FFF737FB0028E3
:1059E0003FF40BAFA669E661206A53E7019AFFF71F
:1059F000D1F900287FF44CAF45E74FF0FF3380F832
:105A00001092C0F81C32D5E7206A00F50470FEF74A
:105A10009DFB00287FF46EAFEFE6D0E90423FEF78C
:105A200061FD00283FF4E9AEF6E694F833100098E3
:105A300061F07F01C4E9022384F83310E5E60098A1
:105A4000E3E6D4E9002371E7549B012038B504460E
:105A50000D462422002106F021FDA560EB79102BD4
:105A600008D0202B04D1402301202370A07038BD22
:105A7000002038BD202301202370A07038BD00BF56
:105A8000024638B552F8105F04462946806800F097
:105A900043FF50B155B123690135AB42A37818BF1C
:105AA00003F0BF0363F07F03A37038BDA37843F016
:105AB0004003F7E72DE9F041037803F020032BB909
:105AC00003F0FF044169204B994203D90026304678
:105AD000BDE8F0810546FFF7D3FF06460028F5D064
