:1000000000000320D1010000A58C00005D8C0000E1
:100010005D8C00005D8C00005D8C00005D8C00003C
:100020005D8C00005D8C00005D8C0000A58C0000E4
:10003000A58C00005D8C000079A000007DA0000070
:10004000A58C0000A58C0000A58C0000A58C0000EC
:10005000A58C0000A58C0000A58C0000A58C0000DC
:10006000A58C0000A58C0000A58C0000A58C0000CC
:10007000A58C0000A58C0000A58C0000A58C0000BC
:10008000A58C0000A58C0000A58C0000A58C0000AC
:10009000A58C0000A58C0000A58C0000A58C00009C
:1000A000A1330000AD330000A58C0000A58C00003A
:1000B000A58C0000A58C0000A58C0000A58C00007C
:1000C000A58C0000A58C0000A58C0000A58C00006C
:1000D000A58C0000A58C0000A58C0000A58C00005C
:1000E000A58C0000A58C0000A58C0000A58C00004C
:1000F000A58C0000A58C0000A58C0000A58C00003C
:10010000A58C0000A58C0000A58C0000A58C00002B
:10011000A58C0000B1920000A58C0000A58C000009
:10012000A58C0000A58C0000A58C0000A58C00000B
:10013000A58C0000A58C0000A58C0000A58C0000FB
:1001400085A40000A58C0000A58C0000A58C0000F3
:10015000A58C0000A58C0000A58C0000A58C0000DB
:10016000A58C0000A58C0000B9330000A58C000010
:10017000A58C0000A58C0000A58C0000A58C0000BB
:10018000A58C0000A58C0000A58C0000A58C0000AB
:10019000A58C0000A58C0000A58C0000A58C00009B
:1001A000A58C0000A58C0000A58C0000A58C00008B
:1001B000A58C0000A58C0000A58C0000A58C00007B
:1001C000A58C0000A58C0000A58C0000A58C00006B
:1001D000594B4CF2205210B51A804DF628121A8055
:1001E00000BF00BF08F062FD544B4FF030621A6050
:1001F000534A9A60534ADA60534B4FF470021A60C4
:10020000524B534A1A60534B1A78110703D51A7888
:1002100042F008021A70504B5049AA221A70504AF4
:10022000504B8B4204D252F8040F43F8040BF8E70A
:100230004D4B4E4900228B4202D243F8042BFAE781
:100240004B494C4A002352F8230041F82300013364
:10025000742BF8D1484B494A802103F8011B934283
:10026000FBD1474B424A1A60464B8A221A70A3F5CB
:10027000805324225A70A0221A709A799207FCD5D2
:100280009A79D406FCD4404A937903F00C03082BE6
:100290003D4BF9D101221A7148225A719A79900680
:1002A000FCD5394A9179384B4906FBD5374A38494C
:1002B00011600221516020221A709A7902F00C021A
:1002C0000C2AFAD1334B344A1A60344A344C13683E
:1002D00013F4807303D123604FF4A8531360314BA0
:1002E000314A1A6000225A60072243F8042C2F4A30
:1002F000C3F80C2D62B608F005FE2368DA0705D5B1
:100300002B4808F063FD2B4B2B4A1A602B4B1B78B4
:100310005B0609D5274C284B22689A4204D1244811
:1003200008F054FD002323600BF0A8F908F0C4FC8A
:1003300009F03CFFFEE700BF0E200540308004407E
:10034000823F04000100002B88ED00E0002008E05F
:100350000300008502D0074000E007404845012027
:100360005439010030390120484501204C9F0120BB
:10037000003401200000000000E400E064E400E03C
:1003800008ED00E000500640004006404480044074
:100390000000030104800440C010050010D0034099
:1003A00014D0034014E000E0FF760100000020209C
:1003B0007AC4D45F1CE00340A5C3945A00F0074000
:1003C000FFFFFFFFFFFFFFFFFFFFFFFFFFFFFFFF3D
:1003D000FFFFFFFFFFFFFFFFFFFFFFFFFFFFFFFF2D
:1003E000FFFFFFFFFFFFFFFFFFFFFFFFFFFFFFFF1D
:1003F000FFFFFFFFFFFFFFFFFFFFFFFFFFFFFFFF0D
:10040000FFFFFFFFFFFFFFFFFFFFFFFFDEF9FFFF23
:1004100010B5054C237833B9044B13B10448AFF33E
:1004200000800123237010BD48450120000000001A
:1004300050390100084B10B51BB108490848AFF30B
:1004400000800848036803B910BD074B002BFBD0A0
:10045000BDE81040184700BF000000004C450120D7
:10046000503901004845012000000000002070477D
:10047000704700BF1F4A204B11682048096970B4BB
:1004800099421279027008D21D4A127872B31D4A3D
:100490000121116003F5007602E01E46A3F500730A
:1004A00019491A4A09681068F1B1E8B1184D2C8849
:1004B000402C19D862001144104404F14002154C3C
:1004C0002A800231023053F8082BB4F900502A4137
:1004D00021F8022F53F8042CB4F900509E4242FA3E
:1004E00005F220F8022FEED870BC704703F50076B5
:1004F000D6E700BF4C8F01200004FF1F1F80004083
:10050000C88C012008E200E0488F0120A48C012063
:100510007C970120383901204FF0FF30704700BF31
:10052000044A05491378002043F020031370086043
:10053000704700BF0DC007401CD00340F8B5064609
:1005400009F072FE0446E8B109F06EFE0546002887
:100550003AD072B61F4B1A887F2A19D8002C31D096
:100560001D490A6842B162B6204609F0B1FE28462C
:10057000BDE8F84009F0ACBE18480C601A80056070
:1005800062B6F8BD054672B6124B1A887F2AE5D9C5
:10059000114A12491768146000220C681A800D6015
:1005A00062B63946304609F0BDFE384609F090FE85
:1005B00030462146012209F0B5FE2046BDE8F8404C
:1005C00009F086BE62B6F8BD204609F081FE2C46D1
:1005D000BFE700BF7C970120488F0120A48C012039
:1005E0002DE9F0410F461646804602F0D9F904463F
:1005F00002F0C6F9054602F0B3F9A4F2BC739BB24F
:100600007F2B02D8EAB20C2A2BD90023A8F800309D
:1006100002F076F9044602F083F9054602F090F9FB
:10062000E3B2172B02D8EBB23B2B0BD900233B8054
:1006300002F086F910F0010F14BF64230023337019
:10064000BDE8F081C3B23B2BF0D8E4026B0104F4A7
:10065000FF2403F4FF532343C0F3460003439BB23C
:10066000E5E7C0B21F28D0D86D0105F4FF55284337
:1006700040EA43239BB2C9E710B5054BC0F8AC3440
:10068000044600F2BC4006F083FB204610BD00BFCC
:10069000042B010008F094BB10B5044609F09CFE41
:1006A000204610BD10B5044609F0A8FC204610BD38
:1006B00010B50021044609F04FFEA8B1B4F810347B
:1006C0009BB293B1B4F80C34B4F80E2401339BB24E
:1006D000FA2B28BF002392B293420AD003F10802FA
:1006E00044F82200A4F80C3410BDBDE8104009F015
:1006F000EFBD09F0EDFDA3690133A36110BD00BF9B
:1007000070B582B002F0FCF8054602F009F9064621
:1007100002F016F9054C009033462A46204604495B
:100720000BF018FE204602B070BD00BFA88C01205F
:10073000502B010070B582B002F032F9054602F08C
:100740001FF9064602F00CF9054C009033462A4684
:10075000204604490BF0FEFD204602B070BD00BFEC
:10076000A88C0120602B0100826C62B1137803F029
:10077000080303F0FF0003B3D3695069181A48BF98
:100780006FF000407047C16CC1B191F8313003F097
:10079000080303F0FF0083B1D1E90423D1E900018C
:1007A000101A30B463EB010100256FF000448D4254
:1007B00008BF844200D2204630BC704708467047CC
:1007C000836C13B1184604F0F1BFC06C08B103F09C
:1007D00065B94FF0FF307047836C13B1184605F0D0
:1007E0002BBAC06C08B104F0FBB8704700B5836C3D
:1007F00083B063B1184601220DF1070104F00AFF2E
:1008000001280CD19DF8070003B05DF804FBC06C13
:1008100028B101220DF1070103F070F8F0E74FF065
:10082000FF30F1E7836C13B1184605F047BAC06C8E
:1008300008B104F023BB704700B5836C83B08DF81A
:10084000071043B1184601220DF1070105F036FAF1
:1008500003B05DF804FBC06C0028F9D001220DF153
:10086000070104F00BFB03B05DF804FB70B5044610
:1008700008460D460BF0A4FE236802462946204692
:100880005B68BDE87040184738B5044608460D4619
:100890000BF096FE2368024629465B68204698477F
:1008A0000546204609F01CFC284438BD284B294940
:1008B0001A68294842F400421A600A6842F00202AB
:1008C0000A601A6842F002021A600368002B3EDBDD
:1008D000224B1B68002B3ADB214A4FF08643136002
:1008E0001368002BFCDBF0B51E4C1F48DFF8A8E0B6
:1008F0001E491F4B1F4A204F204E214D41F2100C24
:10090000C4F800C0002404600120CEF80000DFF825
:100910008CE0C1F800E04FF480311960194B13608E
:10092000DFF87CE0184A3A603460286000F18E40BD
:10093000CEF80000154CB9671548164946F8503CEA
:100940004FF4C0632A61236003600B60F0BD704701
:100950003C8004404080044000F0024080F00240AF
:1009600000F1024004F1024060F0024008F0024051
:100970000CF0024010F0024014F00240E0F002409F
:1009800084F002401B1F0100001F1F1F08B004401D
:100990000CB0044018B0044004F00240010000070D
:1009A00088F00240F8B5294C294E05460121204621
:1009B00009F0BEFA2846FFF779FF264B264A27485A
:1009C0004FF480611960236800211A6099802279B0
:1009D000186102F1804202F5043240F20220D88010
:1009E0009E614FF48075042006278C26DD82D96035
:1009F000DD8398609F8398821170167009F02AFD3C
:100A00001749184B2279184F08701A7039682279E3
:100A1000164C174D174E41F0124141F00101531190
:100A200039609B00206803F1604302F1100703F571
:100A3000614302F01F02012140F0104001FA02F26E
:100A4000206045F827601A60F8BD00BF4C8F012078
:100A500000FCFFFF14B00440A0F002400002FF1FA2
:100A6000C88C01201B80004080F0024000F0024052
:100A700000340120750400002DE9F84381468068A8
:100A80002DED048B013008EE901A002108EE102A9B
:100A90000AF0E6FBDFED237A9FED239A07EE100ABA
:100AA000C7EE876A012080460124002540F2011626
:100AB0000027F8EE687AB8EE488AB7EE007A68EE5A
:100AC000277AC6EEA78A07EE904AF8EEE77A67EE35
:100AD000A87ABDEEE78AB8EEC88A37EEC88AB4EEC7
:100AE000C78AF1EE10FA0BD5F4EEC97AF1EE10FADE
:100AF00006D517EE900A0AF009FCA046B0EE487A37
:100B0000013445F10005BD4208BFB442DBD1BDEC64
:100B1000048B08F1FF330138C9F80030C9F804002C
:100B2000BDE8F883001B374C00008045F0B5082A6B
:100B30008BB00CBF002301230E461446074601FB71
:100B400002F2014607A80993FFF796FFDDED077A49
:100B5000089ADFED2D6A099D079B0196B8EE677A2A
:100B60000132F7EE007A77EE277A07EE102A67EE69
:100B7000A67AB8EE477A0135C7EE876A591C02910A
:100B80003B4603920495214A2149224807EE905A98
:100B9000B6EE006AB8EE677A66EE866A07EE904AAD
:100BA00086EE876A1C4D1D4C07EE106AF8EEE77A58
:100BB000B8EEC77A67EE877A86EE277ABDEEC77AF7
:100BC0008DED007A09F0A4FA154916480B6823F058
:100BD00010430B60079A089B120302F47F22C3F3B1
:100BE0000B0313432B609DF8243043F0E063236034
:100BF0009DF8243043F08E4303600B6843F01043AC
:100C00000B600BB0F0BD00BF001BB74C00D8B8059F
:100C1000702B0100E83A012004F1024008F0024084
:100C200080F0024088F002402DE9F04786B005468A
:100C300001F0B6FE064601F0A3FE824601F090FEEA
:100C4000074601F05DFE804601F06AFE814601F034
:100C500077FE0F4C0F49049033462A460591CDF894
:100C600000A00D49CDF80C90CDF8088001972046E2
:100C70000BF070FB20460BF0A3FC0146204607F06A
:100C800079FE064809F02CFA204606B0BDE8F08748
:100C9000788C01203C390120882B0100E83A0120A2
:100CA000144B1549154AF0B4DA61024603C9144ED3
:100CB000186096E80300134D986095E80300124C05
:100CC000D86094E803002C3A22F0030202F12407D2
:100CD000012602254BF68034586204219A621022C4
:100CE0005F609E82DD829C61184619841A615A8475
:100CF000F0BC7047D08C0120CC2B010000770100A4
:100D0000D42B0100DC2B0100E42B010070B504465C
:100D100000F5916528464FF0000107F097F9C4F8F7
:100D2000845425B1284606F041FD054678B10F4EA2
:100D30000F4D012120240D2008F06EF83460C820EA
:100D400008F092F82C60C82008F08EF8F1E7D4F88B
:100D50008414204606F0A0F80028E8D0054B064A87
:100D6000A4F8FE54A4F8FC541A6070BD84F00F403F
:100D700088F00F40F49C0120E10500002DE9F047C8
:100D80000546D0F8F404002841D004F05BFFD5F804
:100D9000F434002B44D0D3F81CA04FF00009D04607
:100DA0005046FFF77DFF364F044600F1200E2068C5
:100DB0006168A268E3683E460FC610347445374642
:100DC000F5D120686168A26807C7D5F8F404002847
:100DD00040D0002104F03AFED5F8F40448B34FF4B3
:100DE0000072274904F06AFFD5F8F40470BBD5F807
:100DF000F80418B142464B4602F068FE05F2BC40CA
:100E000005F0C6FF0020A5F8FC04BDE8F087D5F882
:100E1000F80440B303F0C0FFD5F8F434002BBAD186
:100E2000D5F8F8342BB3D3E904894FF00009C24652
:100E3000B6E7D5F8F8040028E0D04FF40072104966
:100E400004F01CF8D5F8F4040028D0D0514604F082
:100E5000FDFDD3E7D5F8F8040028CFD00022002309
:100E600002F034FEB8E782464FF000084FF0000968
:100E700096E79A464FF000084FF0000990E700BF50
:100E8000784A01202DE9F04F444C8BB02468DDF8FE
:100E90005090019305468A46904600F2BC4B34B10F
:100EA000214640F201633E4A584605F085FFB8F1FD
:100EB000000F70DDAAF10407002602AC04E004F084
:100EC000FDFE0136B0451CD057F8042F35492046A9
:100ED0000BF040FA20460BF073FBD5F8F43486464D
:100EE000024621461846002BE9D1D5F8F83472465F
:100EF00021461846002BE4D0013603F0BFFFB04571
:100F0000E2D1B9F1000F25DD019B00261F1F04E08F
:100F100004F0D4FE0136B1451CD057F8042F214906
:100F200020460BF017FA20460BF04AFBD5F8F434B4
:100F30008646024621461846002BE9D1D5F8F834FA
:100F4000724621461846002BE4D0013603F096FF86
:100F5000B145E2D10AEB8802134920460BF0FAF9B9
:100F6000D5F8F40448B12146062204F0A7FE5846FD
:100F700005F00EFF0BB0BDE8F08FD5F8F80400289F
:100F8000F5D02146062203F079FF584605F000FF10
:100F90000BB0BDE8F08F02ACB3E700BFF89C0120B6
:100FA000EC2B0100002C0100F82B01002DE9F04F83
:100FB0003F4C8BB02468DDF85090002C3DD000F2FF
:100FC000BC4B019390468A4605462146584600236D
:100FD000384A05F0F1FE80B3B8F1000FD5F8F434CB
:100FE0002EDD5746002602AC0FE004F013FB00286C
:100FF000314903DD3A4620460BF0D2F9D5F8F434F6
:101000000136B04507F104071BD00C2221461846D3
:10101000002BEAD1D5F8F8040028F1D00C222146A3
:1010200002F06CFCE3E783B318460622214604F085
:10103000F1FA98BB584605F0ABFE0BB0BDE8F08F57
:1010400002ACB9F1000FEEDD019E00270FE004F0C5
:10105000E1FA0028184903DD324620460BF0A0F9DA
:10106000D5F8F4340137B94506F10406DBD00C227B
:1010700021461846002BEAD1D5F8F8040028F1D013
:101080000C22214602F03AFCE3E7D5F8F80428B137
:101090000622214602F032FC0028CBD000230AEBC6
:1010A0008802204605498DF80D300BF079F9C1E72B
:1010B000F89C0120EC2B0100082C0100A82B01005A
:1010C0002DE9F0414D4C4E4A23684E49DFF87881B6
:1010D0004D4E43F00053236013684C4C43F480732F
:1010E00007461360152007F063FE494BDFF85CC12B
:1010F00048494948494ADFF858E120251D704FF416
:101100000013CCF800302360454B00248EF80040DB
:101110006FF47F7C0C70047014701C700C71A1F55E
:1011200053316144047114711D710B683D4ADFF83D
:1011300024C143F080630B60136843F08043136065
:1011400001F5405102F54052AEF54B3EA0F54B3053
:10115000AEF57E7EA0F2F63004310C32324BC8F888
:101160000040CCF80040CEF8004004600C601460F1
:101170001B68A1F55041A2F54F42F03A3B440B6089
:10118000136843F00403136008F05CFE23460A2250
:101190003946304608F0CAFF304608F0A1FF012169
:1011A0000D2007F039FE214B214E1D604FF47A705F
:1011B00007F05AFE1F4B204F1D6072791F4D2048CB
:1011C0002049A3F5012302F0DF027271873B02225E
:1011D0003A701A7802F0F8021A701A7842F0040293
:1011E0001A702C701B78036823F0020303600B68ED
:1011F00043F004030B6030BFBDE8F0813C80044045
:1012000010D0034021050000E83A012000E100E091
:1012100015E400E001C0074002C0074003C00740DA
:1012200004C007400070044000D0034084F00F4029
:101230000040064088F00F4000E0074002E0074011
:1012400010E000E010ED00E00090044080E200E0DB
:1012500000C0074004900440F8B506460D4601F072
:10126000FFFA044601F04CFBB789B6F818E0338A60
:10127000B18A774580B20CD9884239D3002D06DB7C
:1012800041D0464DB2882B6813449C427AD200204C
:10129000F8BDB84201D39842F0D3884240D2404AC8
:1012A000404DA2FB0462120C984205FB124201D38E
:1012B000884244D30024704501D3774537D3B842E0
:1012C00004D24FF4616000FB07F0841A00230A2265
:1012D0002146354808F02AFF334808F001FF0F2166
:1012E000324807F047FB304808F0FAFE2046F8BDC8
:1012F0007045C3D3B842D2D398422CBF00220122FA
:10130000002ACCD0BAE72A4B1A8802B33388308936
:10131000834203D2F26913449C421FD22846F8BD8F
:1013200070452CBF00220122002AB8D0A6E707F1A1
:1013300018044FF4616303FB04F18C1ABFE74FF408
:10134000616303FB01F39A42B4D29C1AB3E71349D9
:10135000F461012228460C601A80F8BD1044041B79
:101360002B460A222146104808F0E0FE0E4808F0FD
:10137000B7FE0F210F4807F0FDFA0B4808F0B0FE4A
:101380002046F8BD11210C4807F0F4FA064808F091
:10139000A7FE2C604FF0FF30F8BD00BFA08C0120ED
:1013A00007452EC280510100E83A0120642C01005B
:1013B000448F0120542C0100402C010070B582B0F4
:1013C0000646079C069D8DF8043002A8632CCCBF0E
:1013D000A4F2B2741E3400F8082D8DF801108DF8B7
:1013E00006408DF805508DF8026001F0BBF9044607
:1013F00007F0ECFC204601F0E5FA02B070BD00BF3A
:101400002DE9F043AF4D83B007F08AFA0028FBD0F6
:1014100007F04AFAC4B22146AB480AF0EFFF0028B1
:10142000F2D03F2C0FD040F3A980612C00F0528104
:10143000782CE9D1A54809F0C9F800B20028E3D01A
:1014400003B0BDE8F08307F06BFA0028FBD007F08B
:101450002BFAC4B221469E480AF0D0FF0028D3D010
:10146000313C432CD0D801A353F824F039180000A4
:1014700045180000511800005D1800000914000014
:1014800009140000091400000914000009140000E8
:1014900009140000091400000914000009140000D8
:1014A00009140000091400000914000009140000C8
:1014B00009140000091400000914000009140000B8
:1014C00009140000091400000914000009140000A8
:1014D0000914000009140000091400000914000098
:1014E0000914000009140000091400000914000088
:1014F0000914000009140000091400000914000078
:101500000914000009140000091400000914000067
:101510000914000009140000091400000914000057
:1015200009140000091400000914000069180000E3
:1015300009140000091400007518000009140000C7
:101540000914000009140000091400000914000027
:101550000914000009140000091400000914000017
:1015600085180000911800000914000009140000FB
:101570009D18000009140000A9180000212C7FF418
:1015800043AF05F10C0696E8C00107F0C9F9002841
:10159000FBD007F089F9C4B221464D480AF02EFF6E
:1015A00000283FF431AF313C432C3FF62DAF01A36F
:1015B00053F824F0B9180000D1180000F118000009
:1015C00007190000091400000914000009140000A4
:1015D0000914000009140000091400000914000097
:1015E0000914000009140000091400000914000087
:1015F0000914000009140000091400000914000077
:101600000914000009140000091400000914000066
:101610000914000009140000091400000914000056
:101620000914000009140000091400000914000046
:101630000914000009140000091400000914000036
:101640000914000009140000091400000914000026
:101650000914000009140000091400000914000016
:101660000914000009140000091400000914000006
:1016700009140000251900000914000009140000D5
:1016800041190000091400000914000009140000A9
:1016900009140000091400000914000009140000D6
:1016A00009140000091400009F190000151A000019
:1016B00009140000091400002F1A0000091400008A
:1016C000DF17000068390120742C0100E83A01207E
:1016D0007C2C01002B68B849B8486F2208F018FD2F
:1016E00022466B68B649B54808F012FDAB68B549AB
:1016F000B248722208F00CFDEB68B349AF483122C2
:1017000008F006FD2B69B149AC48322208F000FD13
:101710006B69AF49A948332208F0FAFCAB69AD49BF
:10172000A648342208F0F4FCA44808F0D9FCAA4BDF
:10173000AA49A2486E2208F0EBFCFEF7FBFF6422E8
:101740000346A7499D4808F0E3FCFEF7D9FF742241
:101750000346A449994808F0DBFC984808F0C0FC0F
:10176000964808F0BDFC17219F4807F003F99348FD
:1017700008F0B6FC40219D4807F0FCF88F4808F0BF
:10178000AFFC20219A4807F0F5F88C4808F0A8FC37
:101790005821984807F0EEF8884808F0A1FC262167
:1017A000954807F0E7F8854808F09AFC45219348EA
:1017B00007F0E0F8814808F093FC3221904807F0E8
:1017C000D9F87E4808F08CFC2B218E4807F0D2F81F
:1017D0007A4808F085FC794808F082FC14E67748DE
:1017E00008F0F4FE041EC0F25D81172CA8BF172478
:1017F000724808F0EBFE061EC0F250813B2EA8BFD7
:101800003B266E4808F0E2FE071EC0F245813B2FE2
:10181000A8BF3B2701F0A4F8804601F0B1F881464B
:1018200001F0BEF8CDF80090019043463A463146AB
:101830002046FFF7C3FDE7E5EA6873495F4808F013
:1018400067FCE1E52A6970495C4808F061FCDBE56A
:101850006A696D49594808F05BFCD5E5AA696A498F
:10186000564808F055FCCFE56A686749534808F0C8
:101870004FFCC9E5FEF75EFF644902464F4808F099
:1018800047FCC1E5544A61494C4808F041FCBBE5BE
:101890002A685D49494808F03BFCB5E5AA685A4901
:1018A000464808F035FCAFE5FEF72AFF57490246E7
:1018B000424808F02DFCA7E5404808F087FE0028C4
:1018C000C0F2EE8018280346A8BF1823EB609BE502
:1018D0003A4808F07BFE172E00F3BE80864205DCF6
:1018E0001828C8BF182000F3BA8006463046B6E074
:1018F000324808F06BFE172F00F3A980874240F3AF
:10190000C5806F6180E52D4808F060FE464544467D
:1019100040F3A780804503DC8642C0F2B5800446D0
:101920002646B1E0254808F051FE0028C0F2C480E8
:10193000B0F5003F0346A8BF4FF400336B6063E58A
:101940001E4808F043FEB0F5FA6F04467CDB40F613
:10195000B8339842A8BF1C46184808F037FE071E47
:1019600040F3A8800C2FA8BF0C27144808F02EFEC7
:10197000061E40F39D801F2EA8BF1F2600F0C0FF4B
:10198000804600F0CDFF814600F0DAFF494602466E
:101990000194404600973346FFF710FD34E51C4C98
:1019A000261D06F081FF04F8010FB442F9D100238F
:1019B00085F8243028E500BF982C0100E83A012082
:1019C000AC2C0100C02C0100D42C0100E82C01003B
:1019D000002D0100142D010088390120282D01005F
:1019E000382D0100482D0100582D0100702D0100F7
:1019F000B42D0100D82D0100342E01005C2E010011
:101A0000A42E0100D82E0100902C0100F82B01001B
:101A1000873901202A4808F0D9FD002846DBB0F5B7
:101A2000003F0346A8BF4FF400332B60ECE424488A
:101A300008F0CCFD002837DBB0F5003F0346A8BF17
:101A40004FF40033AB60DFE44FF4FA6484E7182806
:101A5000A8BF1820074654E71828A8BF18202861F7
:101A6000D2E400282ADB1828A8BF182086420ADA08
:101A7000804508DD06EB080303EBD373B0EB630F7F
:101A8000C8BF464600E00646AE61BDE41828C8BFA0
:101A900018273FF736AFDDE70027BBE60026B0E6A4
:101AA000002313E70024A3E60023CBE70023BCE7D1
:101AB000012663E7012758E700233FE70020D5E729
:101AC000E83A01202DE9F04F032083B0022107F00E
:101AD000A3F95248524C534D534F544E00F094FFCB
:101AE00023780320002B00F092802B78DA0740F156
:101AF0008E803B6832689B1A0E2B40F28880122140
:101B00004B4806F037FF4B4808F0EAFA40F225212F
:101B1000494808F053FB494A4948136823F01043E9
:101B200013600824FFF7F2F8464B0094224646491A
:101B30004348FFF73BFA454B1B68DB0408D4FFF72B
:101B40005FFC009422463F4B3F493D48FFF79AF91E
:101B50004FF0FF313C48FFF77FFB002806DD3C4A91
:101B6000136823F400431360FFF7AAFA022220212E
:101B70004BF68030FEF7DAFF364B37493748384F9F
:101B80000C221A800AF0A2FC4FF00008B946C346A6
:101B900040F2144AD9F8080418B108F099FBC9F8C2
:101BA00008B40AFB0875B5F80E44B5F80C34A4B2B5
:101BB0009BB29C4214D008EB881608EB86060134D1
:101BC000A4B2F92C88BF002423463344083357F8C5
:101BD000230008F07DFBB5F80C349BB2A342EED194
:101BE00001220AFB08739044B8F1020FA3F80E44D7
:101BF00009F21449A3F81024CCD10C21194806F09D
:101C0000B9FE0C4803B0BDE8F04F08F069BA07F020
:101C1000F5F800283FF464AF71E700BF95060000B7
:101C20003C9E0120549D0120589D01203C9F012095
:101C3000042F0100E83A01200006FF1F80F0024057
:101C400064450120443901206839012010F00F401B
:101C50003C8004403839012088390120664A01203F
:101C6000548F0120182F01000546D0F8840408B5D0
:101C70000C46B8B103685B6A984798B9D5F87834D0
:101C800023B1DB794BB108F0DDF8FCE7D5F87C3403
:101C90001BB193F83C34002BF5D120461549FEF7D3
:101CA000F3FDF0E714492046FEF7E0FDD5F8840483
:101CB000F0B103685B6A9847014600231022204672
:101CC00008F034FA0D492046FEF7D0FDD5F884041B
:101CD00060B103689B6A9847C1B200231022204676
:101CE00008F024FA204608F0FBF9CCE70146F4E7B7
:101CF0002921E2E7382F0100282F0100342F0100AD
:101D0000074C08B505460E4620460649FEF7AEFDCF
:101D100031462046FEF7B8FD21462846FFF7A4FFCE
:101D2000E83A01204C2F010070B50446B0F9FC04DC
:101D30000E46154630B1431E9BB2012B25D9032810
:101D40005CD070BD04F20250FEF76EFF00285BD03D
:101D5000334B196800293ED0024640F2026304F278
:101D6000BC4005F029F8B0B3D4F8F40428B34FF020
:101D7000207103F0AFFA50B34FF400723146294896
:101D800006F0F8FC0023A4F8FE34D4F8F40402238F
:101D90006D00A4F8FC3410B331462A4603F08EFFE0
:101DA000A84238D1B4F8FE34B4F900250133A4F8C0
:101DB000FE34EAB9B4F9FC04C1E7D4F8F80430B150
:101DC0004FF02072002302F04BFF0028D4D12046B0
:101DD0001549FFF795FF20461449FFF791FFD4F806
:101DE000F8040028DCD031462A4603F047F8D7E74C
:101DF00000220323A4F80025A4F8FC342046FEF7B3
:101E0000BDFFA4F8FC0470BD4FF6FF73A4F8FC34CA
:101E10004FF0FF3070BD20460549FFF771FF00BF4E
:101E2000F89C0120784A0120802F01006C2F0100CE
:101E3000542F01002DE9F047AF4EB6F80C34B6F838
:101E40000E149BB289B28B423ABF03F1FA02531AC5
:101E50005B1AB6F82028B6F822189BB292B289B263
:101E6000003318BF01238A4238BFFA32521A92B2A5
:101E700088B0002A00F0AF80002B00F0AC809F4CAF
:101E80009F48B4F90010FFF7E7F90028C0F20B8172
:101E900006D09C4A136823F400431360FFF710F93F
:101EA0009549002206A840F21445D1F80834002BC9
:101EB00000F05481002340F822300132022A01F25E
:101EC0001441F2D1904B0699079A03F50075023937
:101ED000023A31F9020F23F8040C32F9020F23F809
:101EE000020C0433AB42F4D1D6F80804824D20B181
:101EF00008F0EEF90023C5F80834D6F81C087E4D2A
:101F000020B108F0E5F90023C5F81C387F4BB3F980
:101F10000030002B00F09E80B4F900007C4D0028BA
:101F200000F0C6802E687B4FBF1B7F10B7F5807F07
:101F3000B04600F3AB80784BB3F90035002B40F08E
:101F40003581002F40F33D81DFF804E233467E0007
:101F50009819724632F9021B23F8021B9842F9D1F4
:101F60007644804606F05EFFDFF8B891C9EB0802C0
:101F70005210824649466848FFF7D6FE208006F098
:101F800051FF664A1368CAEB00009842644B38BFA1
:101F900010601A68C7F58077904288BF1860614A60
:101FA0003FB10023013336F8021B22F8021B9F4287
:101FB000F8DCB4F900302A606BB9082200925A4B61
:101FC0004F495548FEF75EFF0621584806F0D2FCFF
:101FD000574808F085F85749DFF878E10B68564D07
:101FE0000593DEF800302A68059803F57A7301320C
:101FF00098422A602AD9494F09683868DFF858C1E1
:102000004E4C06910699444BCEF80010604588BFAF
:102010004FF0FF302188424EB3F8FE340090029119
:10202000316801914248464908F072F8454B4048F2
:102030001B88238000244FF000433B60346008F08D
:102040004FF8414A414B14602C601C6030BF08B00F
:10205000BDE8F087B4F90030284E002BBBDD2C4DD5
:10206000DFF8C0902B68C9EB03035A1040F0A3803F
:102070002948FEF783FE082220802B4B009220493E
:102080002548FEF7FFFEC5F80090A4E7304BB21ECE
:1020900003F5007033F9021B22F8021F8342F9D1C5
:1020A00006F5007285E71C4B0122A3F80025F7E630
:1020B000FEF7F6FD2F681B4ABE1A7610002E0CDDC7
:1020C00006F10046013E02EB4606931E2A3233F922
:1020D000021F22F8021FB342F9D1124A031F28300F
:1020E00053F8041F42F8041B9842F9D107F12C065B
:1020F00001232E60238016E7548F0120849701204E
:10210000683901203C800440488D01206439012059
:1021100034390120788C012064450120704A012067
:10212000744A0120784C012044390120982F010085
:10213000E83A0120589D0120408D0120609E012039
:10214000A02F0100E09E012080970120CC8C01206F
:10215000448D012088970120A086010005FB026EB6
:102160009C46BEF80E74BEF80C84BFB21FFA88F805
:1021700007F1010E47451FFA8EFE3FF49CAEBEF1FB
:10218000F90F02EB821398BFF44602EB830363441A
:1021900003F1080305FB026756F82330C1F8083441
:1021A00088BFE6460433A7F80EE484E607EBD7774A
:1021B00027F00107C5E649460348FFF7B5FD308023
:1021C00056E7024ECEE600BF64450120448D012053
:1021D0002DE9F0475E4E5F4A5F496048604C614FB1
:1021E00008F068FA32682760002363722361237263
:1021F000E3600AB9A9E01A465369002BFBD1546188
:102200000025594B56486561A580E580A57223607D
:10221000FEF7C8FB554ADFF87C91DFF834A1294668
:1022200002F6280C4FF0010E42F81C7C02F813EC69
:1022300042F80C2C02F8141C42F8101CA2F11C08E5
:102240001046002301E052F80C0C40F8231012F85D
:10225000130C01339842F6DC306808B972E0184676
:102260004369002BFBD1C0F81480C2F8EC1342F88C
:10227000081C22F8181C22F8161C02F8121C42F83E
:102280001C9C02F214429445A8F80C144FF000056F
:10229000A8F80E14A8F81014C6D1354F354EDFF843
:1022A000F8903C6038463D727D72FD603D74C7F821
:1022B000049008F05DF83049264A384608F0FAF9EB
:1022C00009F2144301223046736034607572F56080
:1022D0003574327208F04CF830461E4A2649274CB5
:1022E000274E08F0E7F9274B2748284983F89054F0
:1022F000282783F8AA5483F8B05483F8B854C3F855
:102300007854C3F87C54C3F8F454C3F8F854A3F8D1
:102310000055C3F888444FF47A754FF6FF7483F87C
:10232000A774C3F89404C3F89C14C3F8B454C3F856
:10233000AC64A3F8FC44074A15491846BDE8F047C9
:1023400008F0B8B9CAF800808FE7346058E700BFDA
:102350005C9E012030390120A50600004C8F012031
:10236000288D0120EC2A01004C2B0100708F0120E8
:10237000008D0120148D012099060000003201001B
:10238000282B010064450120A8310100011001380B
:1023900079060000F82A0100548F01202DE9F04150
:1023A0000468E56815F0807F794D256052D1DF071C
:1023B00040F1B380002900F0E3800D78012B18BFB5
:1023C00045F000456563013190F82C8003F1FF3C36
:1023D00048EA0828BCF1000F00F0A88021B14D7830
:1023E00011F8028B45EA082845682E7ABCF1020FE5
:1023F00006F1FF364FEA06360CBF48F0805548F02C
:102400001045B6B26563ACF1020C08E00AB1147075
:102410000132013B05F47045B54216D90468E56AFE
:1024200015F0F00FF6D0A46B13F0010F17464FEA2A
:10243000242EEBD11AB107F802EB54703A4605F49A
:102440007045B542A3F10203E8D8BCF1000F6DD08E
:102450000468C3E7DD074CD5002900F089800D78BA
:10246000012B18BF45F000456563013103F1FF3EC4
:1024700090F82CC0BEF1000F41D029B191F801C0F5
:102480000D78023145EA0C2C45682E7ABEF1020F18
:1024900006F1FF364FEA06360CBF4CF080554CF083
:1024A0001045B6B26563AEF1020E08E00AB11470D1
:1024B0000132013B05F47045B54215D90468E56A5F
:1024C00015F0F00FF6D013F0010F1746A46BEDD105
:1024D00022B107F8024B241254703A4605F47045B5
:1024E000B542A3F10203E9D8BEF1000F07D004689A
:1024F000C3E79E4690F82CC0BEF1000FBDD11BB3C0
:102500000468E16A11F0F00FFBD0A16BDC071DD568
:102510000AB111700132013BF1E790F82C809C4622
:1025200048EA0828BCF1000F7FF458AF63B1046893
:10253000E16A11F0F00FFBD0DE07A16B0FD50AB1F5
:1025400011700132013BF1E7BDE8F0812AB1144678
:102550000D1204F8021B55702246023BCFE72AB148
:1025600014460D1204F8025B51702246023BDDE76F
:1025700090F82C50012B18BF45F00045656375E7B6
:1025800090F82C50012B18BF45F0004565631BE700
:1025900000041F800BB1FFF701BF7047644A654B11
:1025A0002DE9F04F644EDFF8A0A1644CDFF8909164
:1025B000A2FB00524FEA124C0CF10407A3FB0025CA
:1025C000A6FB0062A7FB0AAB6D09D20AA3FB056359
:1025D000A4FB0264CBEB07060BEB56065B09B608BF
:1025E0002409C6EBC606C3EB031304EB4404A5EBB6
:1025F0008303BE1BC5EB0515A2EBC402A0EB85004F
:10260000013600248A7008704B70CE70224640F26A
:102610006D1B4FF064084FF4C87A0EE0C6EBE51569
:102620000AFB153570BB002D14BF58464FF4B77028
:102630000244944504F1010413D3E7B207F2B273E4
:1026400089FB0305DE17C6EB651013F0030E08FBCC
:102650001030E3D040F26D100244944504F10104BF
:10266000EBD28F71BEF1000F0FD13548DE1780FB22
:102670000340C6EB6014642505FB1434BCB34FF46F
:10268000B77405E04FF4B770D2E740F26D14DE176F
:102690002B482C4D80FB0370C6EB6018121BC6EB59
:1026A000E01664244FF4C87000FB163604FB18389B
:1026B000C2EB0C020120002302E00130C0B2013362
:1026C000012BDFB220D05C5D944209D80C28A2EB2C
:1026D0000402F2D10D2701320A714F71BDE8F08F6B
:1026E0000137FFB201320A714F71BDE8F08F4FF42C
:1026F000C874C6EBE01004FB1030002840F26D14E3
:1027000008BF4FF4B774C3E7BEF1000F0AD1B8F1A8
:10271000000F0BD1002E14BF1C241D24A24203D392
:10272000121BCAE71C24F9E70227D4E71D24F5E7AA
:1027300007452EC289888888C5B3A291ABAAAAAAE8
:102740001F85EB51C02F01002549922410B5034984
:102750000446FFF723FF024B1C6010BD9097012039
:102760008C9701202DE9F0413949867901FB06F16A
:1027700006B306F2B27C40F2B373DFF8D8E0642708
:102780004FF4C8780DE013F0030F09D1C2EBE51246
:1027900008FB123204B91AB901F5A83101F5C0716C
:1027A00001338EFB0325DA17C2EB6514634507FB83
:1027B0001434E8D14779012F2FDD264C264ADFF863
:1027C0009CE006F2B27384FB0346DC17C4EB661C84
:1027D0006425C4EBE6164FF4C87405FB1C3C04FBEF
:1027E000163603F00305012307E014780133BB42DA
:1027F0000EFB041102F101020FD0022BF5D1002DC6
:10280000F3D1BCF1000F1BD001F5181101F56E5189
:102810000133BB4202F10102EFD14378857804789D
:1028200002790E48C3EB03134FF461669B0006FB6D
:1028300005332344013A00FB02300844BDE8F0812F
:10284000002ED2D101F5181101F56E51E0E700BF5D
:102850008033E1011F85EB51C02F01008051010041
:10286000F0B5204C204E23683268204D83B0286894
:102870000093009B9B1AB3F57A7F0FD3013000E0E1
:10288000084623680093009B02F57A729B1AB3F501
:102890007A7F00F10101F3D228603260144F3B6867
:1028A00098420FD3134B1B6863B19847124B58B92A
:1028B00012491A680B7828680033024418BF0123B4
:1028C0003A600B7003B0F0BD226801921B680B4A9E
:1028D000019C28600344022134603B60117003B006
:1028E000F0BD00BF589D0120A497012098970120BA
:1028F000A8970120A0970120903901209C970120E2
:1029000008B5FFF7ADFF044B1B68984201D0FFF7F5
:102910001DFF024B987808BD8C97012090970120ED
:1029200008B5FFF79DFF044B1B68984201D0FFF7E5
:102930000DFF024B587808BD8C970120909701201D
:1029400008B5FFF78DFF044B1B68984201D0FFF7D5
:10295000FDFE024B187808BD8C970120909701204E
:1029600008B5FFF77DFF044B1B68984201D0FFF7C5
:10297000EDFE024B187908BD8C970120909701203D
:1029800008B5FFF76DFF044B1B68984201D0FFF7B5
:10299000DDFE024B587908BD8C97012090970120ED
:1029A00008B5FFF75DFF054B1B68984201D0FFF7A4
:1029B000CDFE034B987900F2B27008BD8C970120D0
:1029C0009097012070B40A4B0A4A1B6812680A4E9D
:1029D0000A4D0B49306083B010440193019C094BB0
:1029E000286002220C601A7003B070BC704700BFF0
:1029F000589D01209039012098970120A897012027
:102A0000A49701209C9701200349044A044B0968BC
:102A100011601860FFF724BF98970120A897012044
:102A2000A0970120024A0349034807F043BE00BFB4
:102A300030390120A5060000AC970120024A034965
:102A4000034807F037BE00BF30390120A50600005B
:102A5000B4970120024A0349034807F02BBE00BF88
:102A600030390120A5060000BC970120024A034925
:102A7000034807F01FBE00BF30390120A506000043
:102A8000C4970120024A0349034807F013BE00BF60
:102A900030390120A5060000CC970120024A0349E5
:102AA000034807F007BE00BF30390120A50600002B
:102AB000D4970120024A0349034807F0FBBD00BF39
:102AC00030390120A5060000DC970120024A0349A5
:102AD000034807F0EFBD00BF30390120A506000014
:102AE000E497012038B5074D074C08482A4621468F
:102AF00007F0E0FD2A4621460548BDE8384007F0CA
:102B0000D9BD00BF30390120A5060000EC97012097
:102B1000F4970120024A0349034807F0CBBD00BFE8
:102B200030390120A5060000FC970120024A034924
:102B3000034807F0BFBD00BF30390120A5060000E3
:102B400004980120006910B103689B6A1847704718
:102B5000006910B10368DB6A18477047006910B15B
:102B600003681B6918477047006910B103689B69C7
:102B700018474FF0FF307047006910B10368DB68F9
:102B800018477047006910B10168096B0847704722
:102B900010B4006920B10468616B5DF8044B08470C
:102BA0005DF8044B704700BF006910B103689B6B70
:102BB0001847002000217047006910B10368DB6BE3
:102BC0001847002000217047006910B103681B6C92
:102BD00018477047006910B103685B6C184770476D
:102BE000006910B103689B6C18470148704700BF2B
:102BF000FC2B0100006910B10368DB6C18477047BB
:102C000038B50B6904462BB11D6819462B6D9847E2
:102C1000204638BD4FF47A70064A23712373A060B2
:102C200022600B692361002BF2D01A6901321A610C
:102C3000204638BDF82F0100006910B103685B6DB4
:102C400018477047006980B100B5036883B09B6A7C
:102C500001220DF10701984720B19DF8070003B04C
:102C60005DF804FB4FF0FF30F9E74FF0FF3070479D
:102C700010B582B002AB026803F8011DD46A194690
:102C80000122A04702B010BDC36D0BB101207047F7
:102C9000006E003018BF0120704700BF10B5044619
:102CA000406E18B108F042FD0023636604F1240071
:102CB000BDE8104004F06CB810B504460246036944
:102CC0000549064807F024FA206920B10368BDE8E9
:102CD00010405B6A184710BDB0300100E83A01208F
:102CE000024603690149024807F012BACC300100DC
:102CF000E83A01202DE9F041002394B01A46054638
:102D0000243104A84FF47A74254F8DF804308DF8DF
:102D10000C30129313930294009704F08DF8129BD9
:102D2000002B32D0682007F057FC04469DF8046061
:102D3000029A9DF80C301B481B4926764FF47A788E
:102D4000002620606161E26184F8203004F12400F3
:102D500004A9267126732661C4F8088003F0DCFFFD
:102D60002369124A6761013366662E71C5F80880CF
:102D70002E732C6123612A600D4B009304A804F08C
:102D800007F8284614B0BDE8F081139B002BC9D189
:102D9000064A2B71AC602B732B612A60ECE700BFF5
:102DA000282B010058300100D42F0100F82F01001A
:102DB000042B0100C26D62B1137803F0080303F025
:102DC000FF0003B3D3695069181A48BF6FF0004081
:102DD0007047016EC1B191F8313003F0080303F080
:102DE000FF0083B1D1E90423D1E90001101A30B406
:102DF00063EB010100256FF000448D4208BF84425F
:102E000000D2204630BC704708467047C36D13B1EE
:102E1000184602F0CBBC006E08B100F03FBE4FF088
:102E2000FF307047C36D13B1184602F005BF006E46
:102E300008B101F0D5BD704738B5446E0CB12046DD
:102E400038BD05464FF4807008F068FC014668669E
:102E500080B1E86D0C7028B14FF4807203F0C6FAAF
:102E60006C6EECE7286E40B14FF4807200F07CFC91
:102E70006C6EE4E7024C6C66E1E70C46DFE700BFEE
:102E80000C980120C36D9BB11A7812F0700F00D11D
:102E9000704710B504460021184602F0D7FD206E99
:102EA00028B100220023BDE8104000F00FBE10BD85
:102EB000006E0028ECD090F8313013F0500FE7D0BE
:102EC0000022002300F002BED0B5C46D8CB1012BEE
:102ED00008BF002A01D30020D0BD1146204602F0D1
:102EE000B5FD0028F7D0204602F0ACFE0028F2D055
:102EF000D0BD046E002CEED0204600F0E7FD002887
:102F0000E9D02046BDE8D04001F046BFC36D13B103
:102F1000D86900217047036E13B118695969704769
:102F200018461946704700BFC36D13B15869002198
:102F30007047036E13B193E80300704718461946B3
:102F4000704700BFC36D13B1184602F063BB006E3B
:102F500008B100F0D3BC4FF0FF307047C36D33B100
:102F60001B7813F0700F14BF012000207047006E13
:102F700030B190F8313013F0500F14BF0120002011
:102F8000704700BFC36D13B1184602F097BE006EC4
:102F900008B101F073BF7047D0B4039C16461F46BA
:102FA00034B1012C1ED0022C0DD00020D0BC7047B3
:102FB000C46DDCB1012B08BF002AF6D220461146B1
:102FC000D0BC02F043BDC36DB3B1DA69B61847F1A6
:102FD0000007012F08BF002EE7D231461846D0BCAB
:102FE00002F034BDC36D8BB15A69EFE7006E002863
:102FF000DBD0D0BC00F06ABD006E0028D5D0D0E98F
:10300000042392197B41D0BC00F060BD006E002803
:10301000CBD0D0E9002392197B41EAE70269084B43
:1030200010B50446036042B11369013B136123B933
:10303000006910B103681B6A9847204610BD00BFA5
:10304000F82F010038B5C36D144A0260044600F140
:103050002405F3B1284603F09BFE606E08B108F02A
:1030600065FB0F4B6361284603F092FE22690D4B0E
:10307000236042B11369013B136123B9206910B188
:1030800003681B6A98472046682107F0A7FA204684
:1030900038BD036E002BDDD1DFE700BF58300100E3
:1030A000042B0100F82F010002690A4B10B50446F9
:1030B000036042B11369013B136123B9006910B188
:1030C00003681B6A98472046142107F087FA2046B8
:1030D00010BD00BFF82F010038B5C36D124A026061
:1030E000044600F12405D3B1284603F051FE606E7A
:1030F00008B108F01BFB0D4B6361284603F048FE46
:1031000022690B4B236042B11369013B136123B960
:10311000206910B103681B6A9847204638BD036ECA
:10312000002BE1D1E3E700BF58300100042B010080
:10313000F82F0100024A0349034807F0BBBA00BF59
:1031400030390120A506000010980120024A0349E9
:10315000034807F0AFBA00BF30390120A5060000D0
:1031600018980120024A0349034807F0A3BA00BF98
:1031700030390120A506000020980120024A0349A9
:10318000034807F097BA00BF30390120A5060000B8
:1031900028980120024A0349034807F08BBA00BF70
:1031A00030390120A506000030980120024A034969
:1031B000034807F07FBA00BF30390120A5060000A0
:1031C0003898012090F8392090F83800101A70478C
:1031D00090F8383090F839209A4205D95A1C0344A7
:1031E00080F83820187E70474FF0FF30704700BFDE
:1031F00090F8383090F839209A4286BF1B18187E14
:103200004FF0FF30704700BF704700BF38B505462C
:10321000B0F85E0090B195F85D301446C3F121021C
:1032200094420CD805F13B001844224605F0A2FA5E
:1032300095F85D30234485F85D30204638BD012087
:1032400014462871EEE700BFB0F85E306BB190F81D
:103250005D30202B07D8C218013380F85D30012083
:1032600082F83B107047012303710020704700BFB4
:1032700038B50269D478E4B2E106054624D51023B6
:10328000D37063061FD504F0040404F0FF03002C80
:103290005AD042496A6E00230B7085F85D30002ACF
:1032A00066D0904795F85D30002B61D02B69D02215
:1032B0009A702B6995F83B201A712B69012285F8C9
:1032C0005C200222DA7038BD04F0400303F0FF00F6
:1032D000002BD8D19379DBB203F0600160294ED086
:1032E000937803F0100303F0FF01B3B114F001046D
:1032F00037D195F85C3095F85D1099424BD9591C3F
:103300002B4485F85C1093F83B3013712B69D02265
:103310009A702B690222DA70D5E785F860109379EC
:1033200043F0200393712B6995F839101A791F29FE
:10333000D2B2C6D8194800780028C2D06818013126
:1033400085F839100276BCE72A6985F83930C02340
:1033500093702B69114A1979012111700222DA70D8
:10336000B1E7C02393702B691A790222DA70AAE7B9
:103370000122002385F85D2085F83B3096E703F0B5
:10338000DF039371AB6E23B185F8380095F83900EF
:1033900098472A69A4E71471B8E700BF4098012054
:1033A0000148FFF765BF00BF003A01200148FFF761
:1033B0005FBF00BF6C3A01200148FFF759BF00BF53
:1033C00094390120704700BF10B5D0F87C448EB00E
:1033D000A4B10A4668462146012300248DF8004026
:1033E0008DF801408DF8024002F006F908B90EB0E0
:1033F00010BD684603F0A0F90EB010BDD0F88004EF
:103400000028F4D00A460123014668468DF8314071
:103410008DF832408DF8334000F042FE0028E6D0AF
:10342000684601F097F90EB010BD00BF70B5D0F836
:103430007C448EB01646C4B1002504F23C440A46D2
:103440002B46214668468DF800508DF801508DF8C6
:10345000025002F071F808B90EB070BD3246214634
:10346000684602F0D9F90EB070BDD0F8800400288B
:10347000F2D000F588650A462346294668468DF84D
:1034800031408DF832408DF8334000F089FD00283E
:10349000E2D032462946684601F028FC0EB070BDE5
:1034A00010B5D0F87C448EB07CB10A46012304F2FA
:1034B0003C41684600248DF800408DF801408DF8AD
:1034C000024001F0D7FF0EB010BDD0F880040028F4
:1034D000F9D00A46012300F5886168468DF831402D
:1034E0008DF832408DF8334001F04EFB0EB010BD28
:1034F00030B5D0F87C448FB074B100250A462B4615
:10350000214668468DF800508DF801508DF8025024
:1035100002F072F80FB030BDD0F880040028F9D066
:103520000A462346014668468DF831408DF8324000
:103530008DF8334000F0B4FD0FB030BD38B505460E
:10354000D0F87C04C0B1C469013C02F02FFED5F86C
:103550007C34241A43B198794FF4007303FA00F0D5
:1035600080B2A0FB040138BDD5F880346BB1D3F82C
:103570003404A0FB040138BDD5F880342BB11846C3
:10358000D3F8284401F010F8E1E70020002138BD0D
:1035900030B5D0F87C448FB0A4B100250A462B4644
:1035A000214668468DF800508DF801508DF8025084
:1035B00002F022F808B90FB030BD684602F018FAE0
:1035C0000FB030BDD0F880040028F4D00A4623465E
:1035D000014668468DF831408DF832408DF8334011
:1035E00000F05EFD0028E6D0684601F01FF90FB03C
:1035F00030BD00BFD0F87C244AB19179D0694FF436
:1036000000738B409BB20138A3FB00017047D0F8D8
:10361000802432B1D2F82834D2F83404A3FB00015C
:1036200070470020002170472DE9F041012B94B034
:10363000054641D0022B01F1040140F20223684605
:1036400018BF002303F08AFC129B002B3DD068209A
:1036500006F0C2FF04469DF8046022482249029AFF
:103660009DF80C30206004AF2676616100264FF48F
:103670007A78394604F12400E26184F8203026711A
:1036800026732661C4F8088003F046FB23691749B6
:10369000174A666601332E71C5F808802E732C61B7
:1036A000616123612A60134B0093384603F070FB7D
:1036B000284614B0BDE8F08144F202230431684684
:1036C00003F04CFC129B002BC1D1139B002BBED1ED
:1036D0004FF47A71064A2B712B732B61A9602A6013
:1036E00004AFE0E758300100D42F0100282B01007F
:1036F000F82F0100042B0100F0B40F4B0F4CC3F85E
:103700008C44282500240E480E4F0F4E83F8AB54EE
:1037100083F8944483F8AE441860C3F89874C3F8EF
:10372000A064C3F87C44C3F88044084A084918469A
:10373000F0BC06F0BFBF00BF44980120003201007A
:1037400078310100A8310100011001383039012021
:10375000C533000010B5044601F042F9002384F897
:10376000313084F8333010BD2DE9F04300F12403EB
:1037700006468846154693E8070085B096F831302E
:103780000DF1040989E80700002B38D096F8303095
:10379000012B3AD901270024012F0CBF40222022FF
:1037A0004946306A00F078FE012828D100224946B7
:1037B000306A00F057FE10B30378C12B1FD100F11F
:1037C0001E0108EB040223460134AC4210D230F84B
:1037D000023F7E2B94BFDBB23F23884202F8013BBD
:1037E0002346F1D1013796F83020FFB2BA42D3D840
:1037F0000022184608F8032005B0BDE8F083002039
:1038000088F8000005B0BDE8F0830023F0E700BFB2
:1038100090F831200AB10020704738B504460D46B3
:103820001146382208F042FB4023012084F8313051
:1038300084F83300256238BDF0B50878202803D11C
:1038400011F8010F2028FBD051600878002851D0D2
:103850002F282BD05C2820D0A0F12204E4B21D2C0C
:103860001DD9DFF894E04E1C00247C28A0F120052F
:10387000374612D05E2D10D816F8010BA0F12205A4
:10388000EDB2013478B32F2811D05C282EFA05F759
:1038900003D01D2DE9D8FD07E7D50020F0BD164D5A
:1038A00025FA04F4E607DCD50020F0BD00240F194A
:1038B0003E4625462F2002E016F8010F013520284C
:1038C000FAD02F28F8D02944196044B1394611F8AC
:1038D000013D2E2B01D0202B08D1013CF7D12046F1
:1038E00010600120F0BD1F600F19EFE7FF2CF6DD1F
:1038F0000020F0BD1960F3E7010100352DE9F04F1C
:1039000090F83330DD0783B0044640F1AC805806B0
:103910000D46164640F1B280D4E90001D4E90423F3
:1039200010EB060841F100094B4508BF4245C0F0C5
:10393000AB80002E00F0AA80A146F9E80623B0462D
:103940004FE013436BD194F831305A064CBFD0F896
:103950002C14E169A16190F83DC4D0F82424023907
:103960007F0A01FA0CFEB9187144BAF1000F42D176
:10397000B8F5007F3FD3D0F8142291423BD0B8F580
:10398000806F53D3012303FA0CFCC7EB0C074FEAFB
:1039900058239F4228BF1F4691424FEA472B0BD81E
:1039A0007B18934208D900F50370019100F016FCD2
:1039B000002858D0206A0199D0F8380402683B46A4
:1039C000D7682A46B84700284DD058460021D4E988
:1039D000002312184B41B8EB0B085D44C4E90023E7
:1039E00054D0206AD0F830741740C7F3080A002F6B
:1039F000A7D0A169AFE700F50370002200F08EFBAD
:103A000088B3CAF5007BC34528BFC34600EB0A0153
:103A10005A46284604F0AEFE58460021D7E794F8EF
:103A200033305B060FD5A169013193E7D0F8380434
:103A300003682A469B689847A8B14FF4007000219C
:103A40004FF4007BC3E74A46A16900F051FD40B244
:103A5000002808DB02D0206AA1697CE794F83130A5
:103A600013F0500F14D194F832304FF0FF3043F080
:103A7000020384F8323003B0BDE8F08F94F831309F
:103A800019073FF549AF54E7161A52E74FF00008FF
:103A9000C8EB060003B0BDE8F08F00BFF0B583B0FF
:103AA00001220DF107010446D0E900678569FFF79F
:103AB00025FF012808BF9DF80700A56118BF4FF03A
:103AC000FF30C4E9006703B0F0BD00BF2DE9F04F3F
:103AD00090F831E0856983B00446BEF1000F1BD039
:103AE000D0E90001994208BF904216461F463BD0DC
:103AF00056EA070307D10023A3610120C4E9006748
:103B000003B0BDE8F08F1EF0080F0AD0D4E90423FB
:103B1000BB4208BFB24204D2A561002003B0BDE899
:103B2000F08F236A019393F83DC494F833A00CF10D
:103B3000090C5FFA8CFC16F1FF3247F1FF33CCF130
:103B4000200803FA08FB22FA0CF242EA0B02ACF15D
:103B5000200B23FA0BF31AF0400F42EA030205D0C0
:103B6000E3691A44A261C8E70120D7E710F1FF39E1
:103B700041F1FF3A29FA0CFC0AFA08F84CEA080C61
:103B80002AFA0BFB4CEA0B0C6245534617D21EF087
:103B9000400F16BF019BE369D3F82C34A361904614
:103BA00004F118094A46B8F1000FA6D0A169206AAD
:103BB00000F09EFC08F1FF380028F3D1ACE750EA92
:103BC0000103E4D0CCEB0202E9E700BF2DE9F04F9E
:103BD0000E4693B090F831100092054629B99A46E6
:103BE00096F8313013F0500F07D1002085F83100DE
:103BF00085F8330013B0BDE8F08F1C9B03F003037E
:103C0000012B06D0022B00F00981002BEDD10123FE
:103C100000E002231C9A02F0080213430193009B68
:103C2000002B00F0FD8018460022514600F002FDF6
:103C300096F8313002904BB1D6E90023134305D0FA
:103C400000220023C6E900230021B161B84A0AF12D
:103C50000E0382FB03121A44DB17C3EBE203DBB251
:103C60004FF00009039302335FFA83FB4C464F4643
:103C700020220AA93046FFF741FE00283DD0202827
:103C8000B3D19DF828301A0666D4002C61D1326871
:103C9000B1690791203A08920134E4B26BB3C02BAA
:103CA00000F09380C12B62D0852BE1D13822002116
:103CB000284608F0FBF89DF82C309DF8292085F85F
:103CC0003020D80603F0370258BF42F0080285F8CA
:103CD00031203368316AB2696A62203B2962AB6283
:103CE00096F83330C3F3801385F82C3020220AA9CC
:103CF0003046FFF703FE0028C1D11C9B99057FF5D4
:103D000074AF019B9A077FF570AF009B002B3FF4C7
:103D10006CAF5C450CD386E020287FF466AF24B9F5
:103D20003268B1690791203A0892DCB2A3457AD98A
:103D300020220AA93046FFF7E1FD631C0028EBD1E1
:103D40003046B76900F07CFE00283FF44EAFB76103
:103D5000ECE75C45A2D29FE7B9F1000F9FD15C452B
:103D600038BF0024852B83D14FF001099EE7C7EBB4
:103D70000A085FFA88F8B8F10F0F28BF4FF00F0854
:103D800043463A4600990AA800F072FC00283CD04D
:103D90004744FFB2BA457FF46BAF1C9B1B053FF550
:103DA00024AF1C9B13F4884F40F0A08095F833306B
:103DB0009F0700F19B801C9B5B053FF516AF1C9B8A
:103DC000580400F1B780012014E79DF82930019ACA
:103DD00085F83320990703D542F0400385F8333046
:103DE000DDE90C23DDE91001C5E904230F9BEB613C
:103DF000009BC5E90201002BCFD09DF82B30534525
:103E000005D04FF000094F4632E7814630E7BDF854
:103E10002C30029A9342F4D1002729E70323F9E6D4
:103E2000009B029312E796F833303822C3F38013D5
:103E3000002128460DF11C088DF8243008F036F8D2
:103E4000039C336ACDF80CA098E8070004F101093F
:103E5000082485F831400AF11E0705F12404DDF835
:103E600000A02B625FFA89F984E80700FFB2002600
:103E700018460122414600F0F5FA044600283FF4B6
:103E8000B4AE90F90030002BFFF6AFAE2022002137
:103E900008F00CF8002E66D0012E54D0C6EB0613A5
:103EA0000F2FA3F11E034FF0C102394628BF0F2187
:103EB000DBB2227051B1023409B204EB4101534428
:103EC00013F8012B24F8022BA142F9D10136F6B2E6
:103ED000B34529D920224146286A00F0DDFA01289D
:103EE0007FF483AE0F3FFFB2286AC2E795F8313006
:103EF00013F0110F7FF479AE1C9B5E057FF55FAF69
:103F000095F833309C077FF570AE002200232846D9
:103F1000FFF7DCFD00283FF468AE284600F03CFFC8
:103F200000283FF462AE4EE7284600F059FD61E6F6
:103F300089888888D5E904232846FFF7C7FD00282B
:103F40007FF441AF51E6C0232370019B032263F04D
:103F50003F03627085F833309DF80C30E370BDF894
:103F60000830A380B2E7852323700C4B85F830908E
:103F700084F801901B68002BA8D00DF117020DF1F9
:103F80001A0106A898479DF81710BDF81A20BDF829
:103F9000183021752281638198E700BFF49C0120CD
:103FA0002DE9F043064695B096F831400392002083
:103FB0008DF849008DF84A008DF84B0034B99946C8
:103FC00091F8313013F0500F0D4603D1002015B099
:103FD000BDE8F08313782F2B144632D04FF0000841
:103FE000214603AB04AA3046FFF726FC0028EDD09B
:103FF000039B1B78002B39D09DF81030059ACDF823
:10400000008029463046FFF7E1FD0028DED0344627
:1040100006AF06F1300E20686168A268E3683D468D
:104020000FC5103474452F46F5D1206828603046FE
:1040300000F0D6FC06AD86F8318086F83380039C0C
:10404000CEE70134039421782F29FAD0D1B1382258
:1040500006A800212F6A07F029FF4022012306ADA0
:104060000E978DF849208DF84B30B7E79DF810304A
:10407000059ACDF8009029463046FFF7A7FD15B008
:10408000BDE8F083382230462C6A07F00FFF40234A
:104090000120346286F8313086F8330097E700BF9C
:1040A00019B101F58861FFF77BBF0846704700BF73
:1040B00090F8313053B930B591F8314014F05004D4
:1040C00083B00D4604D1204603B030BD00207047B8
:1040D000D5E90045002504F01F042C4302D0184602
:1040E00003B030BD00921A46FFF770FD03B030BD3B
:1040F00010B500F10C0204464068A16803689B6992
:10410000984718B1237823F00103237010BD00BF36
:1041100000224FF0FF33027083607047F8B54568A6
:10412000FDB183688B42044617460E460ED00378D5
:10413000DA0712D4BB0716D504F10C0507F001020B
:104140000023134323702846A660F8BD10F90C3BEA
:1041500007F0010213432370F8BDFFF7C9FF0028E1
:10416000E8D10020F8BD6068036804F10C059B6885
:104170002A46314698470028E0D1F2E738B50C4688
:10418000D0F81C14154601EBD41100F50370002281
:10419000FFF7C4FF40B1A400C4F3080403595A1C3C
:1041A00004D02B60012038BDFF2038BD002038BD71
:1041B00038B50C46D0F81C14154601EBD41100F5A7
:1041C00003700122FFF7AAFF034628B1A400C4F33D
:1041D000080401201D5138BD38BD00BF0378DB073E
:1041E00001D401207047FFF783BF00BF2DE9F84FCE
:1041F000804691468B46002944D08F1ED8F828343B
:104200009F423BD207F00705012303FA05F5EDB203
:10421000C7F3C80A3E463C46D8F82414002201EBF6
:1042200014314046FFF77AFFC0B110F80A100AE0D7
:104230004A452AD0A74210D0D8F82824944217D251
:1042400013F0FF050CD001340D424FEA4503A4EBF7
:104250000602EDD0A7422646EED10120BDE8F88F38
:104260000AF1010ABAF5007F4FF00105DDD101E046
:10427000002634464FF0000A0125CDE70027BA4654
:104280000125C7E7D0F81874B8E7BBF1000F04D1D7
:10429000B9F1010F08BFC8F81864B01CBDE8F88F69
:1042A000F8B5044600234FF0FF3600F50377C0F859
:1042B00038144160C0F810121546384684F83C3472
:1042C000237084F80C32A660C4F814621A461946AA
:1042D000FFF724FF042D0CD8064650B15DB9052226
:1042E0002649F01C08F0DAF918B996F86C30092B59
:1042F00019D00020F8BD6B1E00EB031393F8BE210C
:1043000012F07F02F5D193F8C231002BF1D000EB0F
:1043100005153846D5F8B6512946FFF7FFFE064683
:104320000028DCD1E5E7336D2B44C4F81C34736DF1
:10433000C4F82034B36D1D44C4F82454F36DC4F89C
:104340002834336EC4F82C3496F86D3084F83D343C
:104350000125093305FA03F35A1EC4F8180401466F
:10436000C4F83434C4F8302420462A46FFF73EFF10
:10437000402384F83C342846F8BD00BF9831010042
:104380002DE9F04702398046D0F8280415468A18EE
:10439000824238D89A46D8F81834BAF1000F35D18D
:1043A000994238BFC8F8181401F007040122D8F860
:1043B000243402FA04F4E4B203EB1139C1F3C80661
:1043C0000122494640469144FFF7A8FED8B187191B
:1043D00000F5007017F8012B224214BF01260026B9
:1043E000564582EA04024FEA44040CD0013D07F826
:1043F000012C15D014F0FF04EED1B84226464FF040
:104400000104E7D1DCE70020BDE8F0879942CBD872
:104410009A42C9D9824228BF0022C8F81824C3E7AB
:104420000120BDE8F08700BF70B582B002AE05463E
:1044300046F8041D0024D5F8283401990133994227
:1044400002D9002002B070BD32462846FFF796FE22
:1044500040B20028F5DB04F10104ECD1204602B0A3
:1044600070BD00BFF8B50E4696E82800D0F83014AD
:10447000D0F8244490F83D742940023B04EB5121CC
:10448000BB40194400F50370FFF748FE18B173688C
:10449000C3F308031844F8BD70B54C680D46A31863
:1044A000D0F830146B6090F83D340C40093322444E
:1044B000DBB222FA03F406463CB12B7A3BB12B68FF
:1044C00001332B60013C002CF7D1012070BDD6F8E0
:1044D000283429680133994202D94FF0FF3070BD6A
:1044E0002A463046FFF74AFE40B20128EAD070BDA6
:1044F000D0F8283401338B4201D2FF207047FFF7F8
:104500003DBE00BF01290DD9D0F8283401339942AE
:1045100010B403D900205DF8044B70475DF8044BDC
:10452000FFF746BE00207047F0B50C4683B0054645
:104530000E46D5F8283401339C4202D9002003B03E
:10454000F0BD01AA21462846FFF718FE47B2002F0A
:10455000F4DB012CF2D9D5F8283401339C42EDD894
:10456000002221462846FFF723FE0028E6D0019BC3
:1045700001349C420BD1002FDBD13B46A21B3146BC
:104580002846FFF7FDFE0028D8D003B0F0BDA21BDF
:10459000314600232846FFF7F3FE0028CED0019CC9
:1045A000002FCCD02646C4E72DE9F8430024D0F8EC
:1045B0002464804600F503772546314600223846BC
:1045C0000136FFF7ABFD30B300F1FF3ED8F828C449
:1045D0001EF8010FFF2805F5805913D048B10822B5
:1045E000012318424FEA430118BF0134013ACBB20C
:1045F000F7D10835AC450AD94D45DED01EF8010F7C
:10460000FF28EBD10835AC4504F10804F4D8C4EB1D
:104610000C00BDE8F883BDE8F88300BF10B5044680
:10462000D0F82C14FFF700FF94F83D340933DBB2C7
:10463000984010BDC9B110B40144D30343EA5203FA
:1046400010F8012BA2F16104192C9CBF203AD2B2C0
:1046500012FA83F292B2D30343EA5202814292B237
:10466000EBD110465DF8044B70471046704700BF11
:1046700043B370B444887E2C1ED81344CD180A442A
:10468000023012F8013BE4B2A3F161011929A4F14F
:10469000610194BF20260026192994BF2021002102
:1046A0009B1B641ADBB2E4B29C4205D1AA4206D03D
:1046B00030F8024F7E2CE4D9002070BC70470120F6
:1046C00070BC7047012070478169F8B50446006AE4
:1046D00001B101310122FFF789FD012806462FD9DA
:1046E000012301461A46206AFFF74AFE074638B3FF
:1046F000A06994F8333030B35A0613D5421C964261
:1047000025D023F0400284F83320E36905E0206AD5
:10471000FFF7F8FEA0B1A0692B465D1C8342194645
:104720002A46F4D34FF0FF323146206AFFF7EAFE03
:1047300030B1A16959B13246206AFFF7E3FE30B9C2
:1047400000273846F8BD43F0400384F83330A661B3
:104750003846F8BD2DE9F04300F12403054693E8FF
:10476000070085B095F8333001AE86E807009A0758
:104770001BD5E969E9B9002401223146286AFFF70F
:1047800071FE0134E4B280B1037803F07F0303705B
:1047900095F83030A34231D3002CEDD020223146A1
:1047A000286AFFF779FE0128E6D0002005B0BDE8B1
:1047B000F0835B06286A1CD5D5E9022390F83D44B6
:1047C0000934E4B212F1FF3843F1FF39C4F1200794
:1047D00009FA07F728FA04F2A4F1200329FA03F3EF
:1047E0003A431A4301320023FFF7CAFD0028C2D121
:1047F000DBE7FFF799FE0028BDD1D6E72C6A00233E
:10480000204685F8313085F83330FFF7E7FC002883
:10481000CBD004F50370FFF7E1FC0028C5D0D4F835
:10482000380403685B699847C0E700BF90F83130EF
:10483000D90601D40020704710B5002288B00023AB
:104840000446FFF743F906E0202819D19DF800300F
:104850001A0615D433B1202269462046FFF74EF8D8
:104860000028F1D194F83330082243F0020384F891
:10487000333084F831202046FFF76CFF08B010BDBC
:10488000002008B010BD00BF2DE9F04F00F1240B4F
:1048900006469BE8070087B00DF10C0888E8070082
:1048A0000027BA463C4600224146306AFFF7DAFD4F
:1048B0005FFA87F9054630B10278C02A52D0C12A82
:1048C0000BD0852A29D096F8323043F0010386F8C0
:1048D0003230002007B0BDE8F08F104600216A5C3E
:1048E000E30343EA540412FA84F40129A4B201F167
:1048F00001010DD01F29F2D9CA4551D020224146CD
:10490000306AFFF7C9FD012807F10107CBD0DAE7CC
:1049100085280CBF04210221E1E7304B96F83110C5
:104920001B6890F801A001F037018180002BD4D0E2
:10493000316A91F80C2242F0010281F80C2202A89F
:104940000DF107020DF10A019847BDF80A20BDF8E4
:1049500008309DF807106975AA812A82EB816B8265
:104960002878BBE796F8333013F0400F437814BF34
:1049700043F0020323F002034370D6E90423C0E9A5
:104980000223D6E90223F1694161C0E90623326AB4
:1049900092F80C3243F0010382F80C3200789DE764
:1049A00059460122306AFFF75DFD00288BD0356A39
:1049B00044802846FFF712FC002884D005F50370D8
:1049C000FFF70CFC00283FF47EAFD5F838040368ED
:1049D0005B69984700283FF476AF7BE7F49C0120A1
:1049E00090F8312092B138B590F8332011060FD4E9
:1049F000056A04462846FFF7F1FB88B994F832307F
:104A000043F0010384F83230002038BD01207047A4
:104A100002F07F0280F83320BDE83840FFF734BF52
:104A200005F50370FFF7DAFB0028E7D0D5F8380466
:104A300003685B6998470028E0D0012038BD00BFBB
:104A40002DE9F04190F831305906044663D480686E
:104A5000236AD3F834341844B0F1806F02D30020B5
:104A6000BDE8F0812046FFF72FFE0028F7D0266A28
:104A700096F80C32DA0706F5037550D4284606F589
:104A80000676FFF745FB4FF400720021304607F031
:104A90000DFA226AA36992F83D04D2F82414A3F116
:104AA0000208012708FA00F817FA00F3884418BF33
:104AB000002511D0D2F83804036808EB05019B6982
:104AC0003246984701350028C9D0226A92F83D3411
:104AD00007FA03F3AB42EDD894F831305B0615D4F6
:104AE00094F8333063F07F0384F83330D2F83464C1
:104AF000D4E90223D4E9040192194FF000077B4165
:104B000080197941C4E90223C4E904012046BDE8C3
:104B1000F041FFF765BF006AFFF780FD98E7284680
:104B2000FFF75CFB0028A9D199E700BF91F831306D
:104B300013F0500F01D10020704730B583B040F61C
:104B400002251378526800950446FFF73FF810B924
:104B5000002003B030BD102384F831302046FFF729
:104B60006FFF0028F4D0A369E361002200232046F0
:104B7000FEF7ACFFC123204684F8333003B0BDE814
:104B80003040FFF72DBF00BF2DE9F043064695B03A
:104B900096F83150039200208DF849008DF84A00B4
:104BA0008DF84B0035B9994691F8313013F0500F1C
:104BB0000C4603D1002015B0BDE8F08313782F2BED
:104BC000114636D04FF0000803AB04AA3046FEF77A
:104BD00033FE0028EED0039B1B78002B37D09DF8C6
:104BE0001030059ACDF8008021463046FEF7EEFFE2
:104BF00048B9B9F1000FDDD0214604AA3046FFF7CD
:104C000095FF0028D6D0344606AF06F1300E206856
:104C10006168A268E3683D460FC5103474452F46AD
:104C2000F5D1206828603046FEF794FD06AC039964
:104C3000CAE7013103910B782F2BFAD0216A06A81D
:104C4000FEF7E6FD0028B5D0039906ACBAE704AA42
:104C500021463046FFF76AFF15B0BDE8F08300BF7C
:104C600052EA030103D090F83310890701D40020E1
:104C70007047C1690029FAD12DE9F8430646006A58
:104C80001D4690F83D34093312F1FF38DBB245F18F
:104C9000FF39C3F1200709FA07F7144628FA03F28F
:104CA000203B3A4329FA03F31A43571C3A46FFF7CD
:104CB0009DFA0128804606D901463A460123306A0A
:104CC000FFF75EFB10B90020BDE8F88396F833309B
:104CD000C6F81C8063F03F0386F83330C6E902450E
:104CE0003046BDE8F843FFF77BBE00BFF0B590F853
:104CF00031409DB0002314F0180F8DF831308DF83D
:104D000032308DF833308DF869308DF86A308DF897
:104D10006B3003D00B6A046A9C4202D000201DB0A5
:104D2000F0BD044640F601236846FFF739F9002834
:104D3000F4D00EAF254604F1300E28686968AA68E1
:104D4000EB683E460FC6103575453746F5D12868E5
:104D5000306009AB93E8070004F1240383E80700FF
:104D600094F833309DF8302084F8302063F07F03CE
:104D700084F833302046FFF733FE0028CED00021E0
:104D8000022208230EA815918DF86B208DF869304A
:104D9000FFF7E0FCC3E700BF90F833309A0718D55F
:104DA000F0B5C56983B08DB103F04003044603F04C
:104DB000FF0083B9A169002941D10195E16129462C
:104DC000206AFFF7B1FB30BB002000E0012003B0F8
:104DD000F0BD00207047206AA16990F83D34D4E905
:104DE00002670933DBB216F1FF36C3F1200E47F13B
:104DF000FF3726FA03F207FA0EFE203B42EA0E02C4
:104E000027FA03F31A430132B1B1013D6D1A0131A2
:104E10002A4401910ABBD4E9000194F8333063F0CD
:104E20007F03C4E90201C4E9040184F83330204659
:104E3000FFF7D6FD03B0F0BD0195E161EAE702AAF4
:104E400042F8040D206AFFF753FB40B20028BBDB99
:104E50000AD1019D002DDED0B1E700230199FFF7B3
:104E60008FFA0028D7D1AFE74FF0FF32A169206A4F
:104E7000FFF748FB0028ECD1A6E700BF2DE9F04F73
:104E800090F8333085B09C07064601920AD496F814
:104E9000323043F0010386F832304FF0FF3005B076
:104EA000BDE8F08F1A078A4600F11281019B002BA2
:104EB00000F022813146F1E80623DDF804800391F9
:104EC0009346306AB569D0F830445B461C40C4F361
:104ED00008094CBB002D00F0BE8096F833305B060D
:104EE00040F1DD80D6E9022390F83D740937FFB226
:104EF00012F1FF3243F1FF33C7F1200E03FA0EFE29
:104F000022FA07F1203F23FA07F741EA0E01F3697D
:104F100039430B449D42C0F0B5803046FFF7D4FBC7
:104F20000028B4D0306AB569D0F8247490F83DE414
:104F3000640A023DE11905FA0EF52944B9F1000FA2
:104F400040F08280B8F5007F57D2D6E90423D6E935
:104F50000045B8F5007F474628BF4FF400779D42D3
:104F600008BF944234BF0122032200F50370FFF70B
:104F7000D5F800288BD048443A465146B94403F04E
:104F8000F9FBB9F5007F00F0928038460021D6E9A0
:104F90000023D6E9044512EB000B43EB010C6545F9
:104FA0005A46634608BF5C45BA44C7EB0808C6E9E1
:104FB000002309D296F8331064465B46C6E90434F0
:104FC00061F07F0186F83310B8F1000F7FF479AFFC
:104FD0005A466346D6E90201994208BF90427FD300
:104FE000474B1B68002B00F0858096F83330019802
:104FF00063F07F0386F8333051E7B8F5806F2ED326
:10500000012303FA0EFEC4EB0E0ED0F814324FEA61
:105010005824744528BF744699424FEA442709D85A
:1050200062189A4206D900F503700291FFF770F8F2
:10503000306A0299D0F83804056823465246EC6974
:10504000A0470028A1D122E7C9F50077474528BF2E
:105050004746012289E7F569BDB1B56164E7D0F83B
:10506000143299422CD0D0F83804036852469B6918
:10507000984700283FF40BAF4FF4007000214FF425
:10508000007784E70135B5614EE73046FFF71CFB3A
:1050900000283FF4FCAEB569F561306A44E7294663
:1050A000039AFFF725FA00287FF43CAF35E7306A12
:1050B00000F50370FFF792F800287FF466AFE6E68C
:1050C00000F503700291FFF723F8306A0299CAE7EE
:1050D000D0E90423FEF7FAFC00283FF4D8AEE5E659
:1050E00096F83310019861F07F01C6E9022386F833
:1050F0003310D4E60198D2E6D6E900236AE700BF70
:10510000F49C012038B504460D462422002106F007
:10511000CDFEA560EB79102B08D0202B04D14023C5
:1051200001202370A07038BD002038BD202301204D
:105130002370A07038BD00BF024638B552F8105F2A
:1051400004462946806800F07DFF50B155B12369BF
:105150000135AB42A37818BF03F0BF0363F07F03B0
:10516000A37038BDA37843F04003F7E72DE9F04181
:10517000037803F020032BB903F0FF0441691F4BB0
:10518000994203D900263046BDE8F0810546FFF775
:10519000D3FF06460028F5D02969A86800F0E0FE94
:1051A0000746A86839462430052200F0A1FE804653
:1051B0000028E7D04FF40072214606F077FEAB6876
:1051C0001A79012A10D9012403E0AB681A79A242A6
:1051D0000AD918680368E1199B6942469847013467
:1051E000E4B20028F1D1CDE79B7969694FF40072F0
:1051F00002FA03F311FA83F36B61C4E7FFFD1F00AA
:1052000010B5044680680A462430A16900F070FE9B
:1052100020B1A38803F00F0300EB431010BD00BFC3
:1052200070B590F90230002B82B0044619DBA568F6
:1052300005F1240000F08CFE30B9637843F00103DF
:105240006370002002B070BD05F50C7000F080FEA8
:105250000028F2D0286803685B6998470028ECD0E2
:10526000F0E70121FFF7CCFF05460028E5D00378E1
:10527000E52BE2D023780E4A1B0744BFE369C361E4
:10528000236A166843831B0C838266B10DF1030207
:105290000DF1060101A8B047BDF80430BDF80620A5
:1052A0002B836B82EA82A37803F07F03A370BEE7AF
:1052B000F49C012010B50378044623B90023237021
:1052C000A370012010BDFFF7ABFF00232370A37074
:1052D00010BD00BF09B90020704738B583789B071F
:1052E00001D4002038BD036A002BFAD1044680683F
:1052F000837909330D46DBB20139D940013104F11C
:10530000200200F0E1FE0028EBD0A3782278E561CE
:1053100063F01F03A37002B938BD2046BDE83840D2
:10532000FFF77EBF2DE9F0430D7815F0700F89B0BF
:1053300003D1002009B0BDE8F08340F60223044603
:105340000D4601F0E9FA0028F3D001221023A270E3
:1053500023702046FFF70AFF0028EAD0237822694D
:105360002262002B75D101212046FFF749FF064636
:105370000028DED01023C37282687168F368006869
:10538000B6F81480B6F81A906F460FC77169B26903
:10539000F369306908AE0FC72E2306F8203D0DF1E2
:1053A0000A013346202203F8012F9942FBD1216ADA
:1053B000A06800F0D5FDA3680146012203F1240096
:1053C00000F096FD86460028B3D03746ADF814802D
:1053D000ADF81A900FCFCEF80000CEF80410CEF83A
:1053E0000820CEF80C300FCFCEF81000CEF81410F5
:1053F000CEF81820CEF81C302B6AADF81A302E22C9
:105400001B0C3546ADF814308DF801200FCD0EF190
:105410002006CEF820007160B260F3600FCD3061DD
:105420007161B261F361A46804F1240000F090FDA1
:1054300000283FF47EAF04F50C7000F089FD0028D1
:105440003FF477AF206803685B6909B0BDE8F043BB
:105450001847636933B1A378002223F02003A370B7
:10546000226162612046FFF7DBFE00283FF461AF56
:1054700079E700BF2DE9F041064692B035780192F8
:1054800000208DF824008DF825008DF826002DB918
:1054900098460B7813F0700F0C4603D1002012B021
:1054A000BDE8F08113782F2B10462AD0002701AADF
:1054B00003A901F01BF803AA214600230028EDD020
:1054C000019D2D783046002D2DD001F025FA48B9E8
:1054D000B8F1000FE2D0214603AA3046FFF722FFC1
:1054E0000028DBD035460FCD09AC0FC40FCD0FC45B
:1054F00033782A68226093B93770B770019809AC85
:10550000D5E70130019003782F2BFAD0A16809A8C4
:10551000FFF7F8FD0028C1D0019809ACC6E7304676
:10552000FFF77EFEE8E703AA21463046FFF7FAFEC2
:1055300012B0BDE8F08100BF2DE9F041064692B0FF
:105540003578019200208DF824008DF825008DF823
:1055500026002DB998460B7813F0700F0C4603D136
:10556000002012B0BDE8F08113782F2B104625D013
:10557000002703E001983770B77009AC01AA03A9AE
:1055800000F0B4FF03AA214600230028E8D0019DC3
:105590002D7830460DB301F0BFF9354609AC00282F
:1055A000DED00FCD0FC40FCD0FC433782A68226030
:1055B000002BDFD03046FFF733FEDBE701300190F0
:1055C00003782F2BFAD08BB1A16809A8FFF79AFDB9
:1055D0000028C5D0019809ACCAE7434603AA214672
:1055E000304601F099F912B0BDE8F081A16830466B
:1055F000FFF788FDB5E700BF19B101F23C41FFF7A5
:105600009BBF0846704700BF03780BB1002070476E
:10561000FFF778BD2DE9F04F8378DF0783B00546AB
:1056200040F18F800F4601780E07914600F192807D
:105630008C0608D5826843691289C3EB42139BB27A
:10564000994528BF9946B9F1000F00F0A9806B6910
:10565000AA6888064E464FF0000805F1100AC3F309
:10566000080B3ED5116A01EB5321BBF1000F52D15B
:10567000B6F5007F4FD3D36A99424CD0B6F5806F10
:1056800071D3287880064FEA562B05D41079C8EBE1
:105690000000834528BF834699424FEA4B240BD82C
:1056A0005B44994208D202F12400019100F050FCC1
:1056B000002846D0AA680199106802685B46D2F8B3
:1056C0000CB03A46D84700283BD06B69361B2344C0
:1056D00027446B6164D02978AA688806C3F3080B55
:1056E000C0D492F8058008EA5328BBF1000F38D1E6
:1056F000B8F1000F35D1002B3FD149064CBF116ADC
:10570000296A2961104600F02BFCAA6808EB000109
:10571000BBF1000FACD002F12400002200F0E8FB46
:1057200078B1CBF50074B44228BF344600EB0B01CE
:105730002246384603F01EF8C7E72B7813F0700FA7
:105740002FD16B784FF0FF3043F002036B7003B042
:10575000BDE8F08FC36942699B1A994528BF9946F5
:1057600071E72969CEE7106803683A469B68984755
:105770000028E6D04FF40074A7E70B0705D5AB78F7
:105780005C0602D529690131BBE7104629695246FA
:1057900000F0ECFB0028D4DBCFD0AA682969B1E780
:1057A0000026C6EB090003B0BDE8F08F70B582B0EB
:1057B00001220DF10701044646690569FFF72AFF3A
:1057C000012808BF9DF80700666118BF4FF0FF3041
:1057D000256102B070BD00BF30B54369C3F3431506
:1057E00083B0044605B189B901220DF107012046B5
:1057F000FFF710FF40B201280BD163691F336361CB
:10580000A068303000EB451003B030BD2033436159
:10581000F6E7002003B030BD2DE9F04105789AB0DD
:10582000002415F0180F8DF820408DF821408DF8D8
:1058300022408DF844408DF845408DF8464004D014
:1058400086688D68AE42034603D000201AB0BDE8DA
:10585000F0811D4690460E46FFF7E2FCAE46BEE8DC
:105860000F0011AF0FC7BEE80F000FC7DEF8003002
:105870003B6021462846FFF7C3FC86460028E4D05B
:10588000DEF80410DEF80820DEF80C30006895F829
:1058900000C06F460FC7DEF81410DEF81820DEF8DF
:1058A0001C30DEF810000CF0080E0FC70EF0FF03DE
:1058B00042463146BEF1000F00F0918040F60123D0
:1058C00008A8FFF739FE0028BFD00E98BDF82410B5
:1058D0009DF823200B9BA8610026A980EA70EB604D
:1058E000012128468DF820608DF82260FFF788FCA2
:1058F0000028AAD01AAB9DF80B2053F85B7DC0F8A6
:105900000D705F68C0F811709F68C0F81570DF688F
:10591000C0F819701F8A9B7CA0F81D70C377C272F3
:10592000002C3AD02146A86800F01AFBAB6801466B
:10593000324603F1240000F0DBFA002885D0064649
:105940006F4656F8200F7168B268F3680FC7306968
:105950007169B269F3690FC72146A86800F008FCB5
:1059600000283FF472AF296AA86800F0F9FAAB6822
:105970000146012203F1240000F0BAFA074600288C
:105980003FF463AF6C460FCC38627962BA62FB6257
:105990000FCC38637963BA63FB63002102220823CA
:1059A00011A819918DF846208DF8443000F0C4FEFE
:1059B00000283FF44AAFAC6804F1240000F0C8FAB4
:1059C00000283FF442AF04F50C7000F0C1FA002843
:1059D0003FF43BAF206803685B69984736E708A847
:1059E000FFF748FD00283FF430AF109C6DE700BF83
:1059F0000378DA061AD5436910B5044633B18378C3
:105A0000002223F0200383700261426101212046BD
:105A1000FFF7E2FE60B103786BB1E52BF6D02E2BD9
:105A2000F4D0C37A1B07F1D4002010BD00207047CA
:105A30006378002BF8D1A378082243F00203A37007
:105A400022702046BDE8104000F076BE2DE9F041FE
:105A5000037807690446B3B142698A420E463AD0D8
:105A600041B92161A378666123F02003A37001206E
:105A7000BDE8F08118070AD499060BD5A3681B89E5
:105A8000B6EB431FEED927610020BDE8F081E16944
:105A90008E42F8D8D4F808E09EF806500935E9B2ED
:105AA000501E751EC840CD40A84200D8B2B95B0652
:105AB0004CBFDEF82030236A236104F1100842460F
:105AC000002DCFD02169A06800F050FA002805F120
:105AD000FF35F4DCD7E70120BDE8F0812D1AECE7B3
