:1000000000000320D10100002D8D0000E58C0000D0
:10001000E58C0000E58C0000E58C0000E58C00001C
:10002000E58C0000E58C0000E58C00002D8D0000C3
:100030002D8D0000E58C0000C1A00000C5A10000CE
:100040002D8D00002D8D00002D8D00002D8D0000C8
:100050002D8D00002D8D00002D8D00002D8D0000B8
:100060002D8D00002D8D00002D8D00002D8D0000A8
:100070002D8D00002D8D00002D8D00002D8D000098
:100080002D8D00002D8D00002D8D00002D8D000088
:100090002D8D00002D8D00002D8D00002D8D000078
:1000A000513800005D3800002D8D00002D8D0000BE
:1000B0002D8D00002D8D00002D8D000039AB00002E
:1000C0002D8D000015A900002D8D000031AE00001F
:1000D0002D8D000041AA00002D8D00002D8D000007
:1000E0002D8D00002D8D00002D8D00002D8D000028
:1000F0002D8D00002D8D00002D8D00002D8D000018
:100100002D8D00002D8D00002D8D00002D8D000007
:100110002D8D0000399300002D8D00002D8D0000E5
:100120002D8D00002D8D00002D8D00002D8D0000E7
:100130002D8D00002D8D00002D8D00002D8D0000D7
:10014000A5A600002D8D00001DA800002D8D00002B
:100150002D8D00002D8D00002D8D00002D8D0000B7
:100160002D8D00002D8D0000693800002D8D0000C0
:100170002D8D00002D8D00002D8D00002D8D000097
:100180002D8D00002D8D00002D8D00002D8D000087
:100190002D8D00002D8D000065AC00002D8D000020
:1001A0002D8D00002D8D00002D8D00002D8D000067
:1001B0002D8D00002D8D00002D8D00002D8D000057
:1001C0002D8D00002D8D00002D8D00002D8D000047
:1001D000594B4CF2205210B51A804DF628121A8055
:1001E00000BF00BF08F0A6FD544B4FF030621A600C
:1001F000534A9A60534ADA60534B4FF470021A60C4
:10020000524B534A1A60534B1A78110703D51A7888
:1002100042F008021A70504B5049AA221A70504AF4
:10022000504B8B4204D252F8040F43F8040BF8E70A
:100230004D4B4E4900228B4202D243F8042BFAE781
:100240004B494C4A002352F8230041F82300013364
:10025000742BF8D1484B494A802103F8011B934283
:10026000FBD1474B424A1A60464B8A221A70A3F5CB
:10027000805324225A70A0221A709A799207FCD5D2
:100280009A79D406FCD4404A937903F00C03082BE6
:100290003D4BF9D101221A7148225A719A79900680
:1002A000FCD5394A9179384B4906FBD5374A38494C
:1002B00011600221516020221A709A7902F00C021A
:1002C0000C2AFAD1334B344A1A60344A344C13683E
:1002D00013F4807303D123604FF4A8531360314BA0
:1002E000314A1A6000225A60072243F8042C2F4A30
:1002F000C3F80C2D62B608F049FE2368DA0705D56D
:100300002B4808F0A7FD2B4B2B4A1A602B4B1B7870
:100310005B0609D5274C284B22689A4204D1244811
:1003200008F098FD002323600BF02AFE08F008FD7A
:100330000AF04AF8FEE700BF0E2005403080044076
:10034000823F04000100002B88ED00E0002008E05F
:100350000300008502D0074000E0074080830120B1
:1003600000430100307701208083012048E2012012
:10037000007201200000000000E400E064E400E0FE
:1003800008ED00E000500640004006404480044074
:100390000000030104800440C010050010D0034099
:1003A00014D0034014E000E0FF760100000020209C
:1003B000F1FF725F1CE00340A5C3945A00F00740B0
:1003C000FFFFFFFFFFFFFFFFFFFFFFFFFFFFFFFF3D
:1003D000FFFFFFFFFFFFFFFFFFFFFFFFFFFFFFFF2D
:1003E000FFFFFFFFFFFFFFFFFFFFFFFFFFFFFFFF1D
:1003F000FFFFFFFFFFFFFFFFFFFFFFFFFFFFFFFF0D
:10040000FFFFFFFFFFFFFFFFFFFFFFFFDEF9FFFF23
:1004100010B5054C237833B9044B13B10448AFF33E
:1004200000800123237010BD8083012000000000A4
:10043000FC420100084B10B51BB108490848AFF356
:1004400000800848036803B910BD074B002BFBD0A0
:10045000BDE81040184700BF000000008483012061
:10046000FC42010080830120000000000020704752
:10047000704700BF1F4A204B11682048096970B4BB
:1004800099421279027008D21D4A127872B31D4A3D
:100490000121116003F5007602E01E46A3F500730A
:1004A00019491A4A09681068F1B1E8B1184D2C8849
:1004B000402C19D862001144104404F14002154C3C
:1004C0002A800231023053F8082BB4F900502A4137
:1004D00021F8022F53F8042CB4F900509E4242FA3E
:1004E00005F220F8022FEED870BC704703F50076B5
:1004F000D6E700BFC8D001200004FF1F1F800040C6
:10050000ACCD012008E200E040D0012070CD0120F8
:10051000C0D901205E7701204FF0FF30704700BF47
:10052000044A05491378002043F020031370086043
:10053000704700BF0DC007401CD00340F8B5064609
:1005400009F082FF0446E8B109F07EFF0546002865
:100550003AD072B61F4B1A887F2A19D8002C31D096
:100560001D490A6842B162B6204609F0C1FF28461B
:10057000BDE8F84009F0BCBF18480C601A8005605F
:1005800062B6F8BD054672B6124B1A887F2AE5D9C5
:10059000114A12491768146000220C681A800D6015
:1005A00062B63946304609F0CDFF384609F0A0FF63
:1005B00030462146012209F0C5FF2046BDE8F8403B
:1005C00009F096BF62B6F8BD204609F091FF2C46AF
:1005D000BFE700BFC0D9012040D0012070CD01206D
:1005E00010B50021044609F0C7FFB0B1B4F8743467
:1005F0009BB29BB1B4F87034B4F8722401339BB24F
:10060000B3F5897F88BF002392B293420AD003F1E9
:10061000080244F82200A4F8703410BDBDE8104070
:1006200009F066BF09F064FFA3690133A36110BD3F
:10063000B0F882309BB22DE9F041054623B1B0F805
:1006400082309BB20B2B13D900242146284609F097
:1006500093FFE2B206460134014628B1284609F06C
:1006600071FF304609F044FF022CEED1BDE8F08165
:10067000B0F88020274C92B2013284FB0234D317A9
:10068000C3EB640404EB4404A2EB8404002707EBEF
:10069000470604EB860605EB8606336A13B1306A1B
:1006A00009F026FF3946284609F066FF0137022F78
:1006B0003062ECD1A4B2A5F88040B5F88030B5F82E
:1006C0008210144E9BB203F10C028BB2D31A86FB3C
:1006D0000326DA17C2EB660606EB4606A3EB860393
:1006E00000279EB2B84607EB470406EB840405EBEF
:1006F0008404FAB2236A013728463BB1216A09F023
:1007000021FF206A09F0F4FEC4F82080022FEAD10C
:10071000BDE8F081ABAAAA2A2DE9F0410F461646A2
:10072000804602F08DFE044602F07AFE054602F095
:1007300067FEA4F2BC739BB27F2B02D8EAB20C2AEC
:100740002BD90023A8F8003002F02AFE044602F05C
:1007500037FE054602F044FEE3B2172B02D8EBB297
:100760003B2B0BD900233B8002F03AFE10F0010F27
:1007700014BF642300233370BDE8F081C3B23B2B68
:10078000F0D8E4026B0104F4FF2403F4FF53234385
:10079000C0F3460003439BB2E5E7C0B21F28D0D8A0
:1007A0006D0105F4FF55284340EA43239BB2C9E796
:1007B00010B5054BC0F8AC34044600F2BC4006F05E
:1007C0006FFB204610BD00BF1034010008F03CBB99
:1007D00010B5044609F010FF204610BD10B50446C0
:1007E00009F0F0FB204610BD70B582B002F0D8FDD4
:1007F000054602F0E5FD064602F0F2FD054C0090CC
:1008000033462A46204604490CF024FA204602B01A
:1008100070BD00BF74CD01206834010070B582B096
:1008200002F00EFE054602F0FBFD064602F0E8FD72
:10083000054C009033462A46204604490CF00AFA3B
:10084000204602B070BD00BF74CD01207834010095
:10085000826C62B1137803F0080303F0FF0003B366
:10086000D3695069181A48BF6FF000407047C16CD7
:10087000C1B191F8313003F0080303F0FF0083B1F8
:10088000D1E90423D1E90001101A30B463EB01016E
:1008900000256FF000448D4208BF844200D22046FC
:1008A00030BC704708467047836C13B1184605F09A
:1008B0006DBBC06C08B103F0CFBF4FF0FF30704785
:1008C000836C13B1184605F04DBCC06C08B104F040
:1008D00071BE704700B5836C83B063B118460122C6
:1008E0000DF1070105F086FA01280CD19DF80700EB
:1008F00003B05DF804FBC06C28B101220DF10701C3
:1009000003F0DAFEF0E74FF0FF30F1E7836C13B14C
:10091000184605F069BCC06C08B104F0A9BF704767
:1009200000B5836C83B08DF8071043B118460122DF
:100930000DF1070105F058FC03B05DF804FBC06C35
:100940000028F9D001220DF1070104F091FF03B056
:100950005DF804FB2DE9F04F002185B0044609F055
:100960000BFE01210546204609F006FE0746002D34
:1009700000F07581636C002BC0F26681E36B01337C
:10098000E36309F061FD0190002F00F0288109F078
:100990005BFD0646019B06F1040903F10408484685
:1009A00041463B1D2A1D07F5827C1DB1B2F900E0CE
:1009B000A1F800E0023202311FB1B3F900E0A0F863
:1009C00000E00233634500F10200EED115B1284684
:1009D00009F08EFD17B1384609F08AFD019B002B06
:1009E00000F05281AD49B3F904300B60404601F587
:1009F000FE7E0346B0F90220B3F90030D31A41F865
:100A0000043F8E4500F10200F3D1A54900200A46BB
:100A100052F8043F03FB03F39842B8BF18467245EF
:100A20001360F5D1E0620022002351F8040F121880
:100A300043EBE0737145F8D1002A73F10001C0F275
:100A4000F580D20942EA43626263002E00F02281FF
:100A50009249B6F904300B604D4601F5FE702B4605
:100A6000B5F90220B3F90030D31A41F8043F8842A7
:100A700005F10205F3D18A4900250A4652F8043FE0
:100A800003FB03F39D42B8BF1D4682421360F5D1BC
:100A900025630022002351F8047FD21943EBE7734A
:100AA0008842F8D1002A73F10001C0F2BB80D2095C
:100AB00042EA4362A263236A616CE26DE76A002B3B
:100AC00002FB01F240F3BA80974240F38180236D2C
:100AD0002362002B15DD734A636AB2F900100133FB
:100AE000636209B100231380616E19B100222046B0
:100AF00009F028FDA16E19B10122204609F022FD5E
:100B0000236A002B6DD1684DB5F90020002A00F052
:100B1000B080002A6ADD626D013B5242934223623B
:100B200007DA236C5F482262591C012513462164B1
:100B30000580002BB4BFA56CE56CE06D616BA0FB7C
:100B400005234FEAE079081A171805FB093343EB30
:100B5000E0782A463846002341460AF0F1FF226E2B
:100B6000A36BE0659B1A07464FEAE27BA2FB0501F7
:100B7000C01805FB0B1141EBE3712A4600230AF074
:100B8000DFFF4A4B20661A68B842B8BF3846904229
:100B900003908CBF039919681960454A236BE06A7A
:100BA00011688342B8BF034603938B42606E8CBFCB
:100BB000039B1368136008B109F09AFCA06E08B19A
:100BC00009F096FC019B6366A66605B0BDE8F08F50
:100BD000226E02FB01F2AA42BFF67BAF77E73E46E8
:100BE000D8E6314AB2F90020002A94DCA26D002A2E
:100BF00091DD002B8FDA206CB0FBF2F102FB1102C9
:100C0000002A88D1A36A616E0133A36211B1204624
:100C100009F098FCA16E19B10122204609F092FC5E
:100C2000236A78E77F3243F1000340E77F3243F1E4
:100C30000003D20942EA4362626306E7606D404204
:100C400083423FF75EAF3FE7284609F051FC002F93
:100C5000BBD0384605B0BDE8F04F09F049BC0028CC
:100C6000B3D0636C002BF4DBE36B01950133E363DA
:100C70008DE609210F4807F0C1FE0F4809F03AFB45
:100C800001232B80236A46E7019BE3626363002E06
:100C90007FF4DEAE2663A66335460CE7A888012004
:100CA000A48801206077012062770120B0CD012067
:100CB000C4D901208834010024790120002310B414
:100CC000114C4172026104600372C36041B1194664
:100CD00000E0026942F82310427A01339A42F8DCBC
:100CE0000A4B1A680AB90CE01A465369002BFBD16B
:100CF0005061002343618380C38083725DF8044B9D
:100D000070471860F5E700BFEC33010074DE012086
:100D100070B5044608460D460CF0D2F8236802462A
:100D2000294620465B68BDE87040184738B5044640
:100D300008460D460CF0C4F82368024629465B6855
:100D4000204698470546204609F0D4FA284438BD85
:100D5000284B29491A68294842F400421A600A6857
:100D600042F002020A601A6842F002021A60036846
:100D7000002B3EDB224B1B68002B3ADB214A4FF055
:100D8000864313601368002BFCDBF0B51E4C1F4834
:100D9000DFF8A8E01E491F4B1F4A204F204E214D6F
:100DA00041F2100CC4F800C0002404600120CEF809
:100DB0000000DFF88CE0C1F800E04FF480311960EA
:100DC000194B1360DFF87CE0184A3A603460286001
:100DD00000F18E40CEF80000154CB9671548164951
:100DE00046F8503C4FF4C0632A61236003600B60F7
:100DF000F0BD70473C8004404080044000F0024059
:100E000080F0024000F1024004F1024060F0024034
:100E100008F002400CF0024010F0024014F00240D2
:100E2000E0F0024084F002401B1F0100001F1F1F62
:100E300008B004400CB0044018B0044004F0024074
:100E40000100000788F00240F8B5294C294E0546FC
:100E50000121204609F050F82846FFF779FF264B7C
:100E6000264A27484FF480611960236800211A60E0
:100E700099802279186102F1804202F5043240F231
:100E80000220D8809E614FF48075042006278C26AE
:100E9000DD82D960DD8398609F839882117016701F
:100EA00009F0E8FB1749184B2279184F08701A709F
:100EB00039682279164C174D174E41F0124141F016
:100EC0000101531139609B00206803F1604302F176
:100ED000100703F5614302F01F02012140F01040AA
:100EE00001FA02F2206045F827601A60F8BD00BFE1
:100EF000C8D0012000FCFFFF14B00440A0F0024065
:100F00000002FF1FACCD01201B80004080F002409A
:100F100000F0024000720120750400002DE9F84342
:100F2000814680682DED048B013008EE901A002177
:100F300008EE102A0AF0C6FDDFED237A9FED239A12
:100F400007EE100AC7EE876A0120804601240025BB
:100F500040F201160027F8EE687AB8EE488AB7EE3C
:100F6000007A68EE277AC6EEA78A07EE904AF8EE76
:100F7000E77A67EEA87ABDEEE78AB8EEC88A37EE60
:100F8000C88AB4EEC78AF1EE10FA0BD5F4EEC97A2E
:100F9000F1EE10FA06D517EE900A0AF039FEA046D7
:100FA000B0EE487A013445F10005BD4208BFB442B5
:100FB000DBD1BDEC048B08F1FF330138C9F80030F8
:100FC000C9F80400BDE8F883001B374C00008045D9
:100FD000F0B5082A8BB00CBF002301230E4614463F
:100FE000074601FB02F2014607A80993FFF796FFA7
:100FF000DDED077A089ADFED2D6A099D079B0196C2
:10100000B8EE677A0132F7EE007A77EE277A07EECC
:10101000102A67EEA67AB8EE477A0135C7EE876ADE
:10102000591C02913B4603920495214A21492248CA
:1010300007EE905AB6EE006AB8EE677A66EE866AF8
:1010400007EE904A86EE876A1C4D1D4C07EE106A2B
:10105000F8EEE77AB8EEC77A67EE877A86EE277AF7
:10106000BDEEC77A8DED007A09F05CF91549164896
:101070000B6823F010430B60079A089B120302F4DD
:101080007F22C3F30B0313432B609DF8243043F0FE
:10109000E06323609DF8243043F08E4303600B68C7
:1010A00043F010430B600BB0F0BD00BF001BB74C0A
:1010B00000D8B805943401002479012004F10240DD
:1010C00008F0024080F0024088F002402DE9F0472D
:1010D00086B0054602F0B4F9064602F0A1F9824650
:1010E00002F08EF9074602F05BF9804602F068F9DB
:1010F000814602F075F90F4C0F49049033462A4699
:101100000591CDF800A00D49CDF80C90CDF80880E0
:10111000019720460BF09EFD20460BF0D1FE0146C4
:10112000204607F06BFC064809F0E4F8204606B0BC
:10113000BDE8F087ACCC012058770120AC34010029
:1011400024790120144B1549154AF0B4DA6102469E
:1011500003C9144E186096E80300134D986095E893
:101160000300124CD86094E803002C3A22F00302EA
:1011700002F12407012602254BF68034586204212F
:101180009A6210225F609E82DD829C6118461984FB
:101190001A615A84F0BC7047B4CD0120F0340100CC
:1011A00000770100F8340100003501000835010026
:1011B00070B5044600F5916528464FF0000106F031
:1011C00089FFC4F8845425B1284606F033FB054650
:1011D00078B10F4E0F4D012120240D2007F060FE45
:1011E0003460C82007F084FE2C60C82007F080FE21
:1011F000F1E7D4F88414204605F0A6FE0028E8D0D4
:10120000054B064AA4F8FE54A4F8FC541A6070BDBD
:1012100084F00F4088F00F4000DD01201907000026
:101220002DE9F0470546D0F8F404002849D004F031
:101230009FFFD5F8F434002B4CD0D3F81CA04FF00E
:101240000009D0465046FFF77DFF3A4F044600F1B3
:10125000200E20686168A268E3683E460FC610341D
:1012600074453746F5D120686168A26807C7D5F88C
:10127000F404002848D0002104F0BEFED5F8F404A0
:1012800088B34FF400722B4904F0AEFFD5F8F40494
:10129000002835D1D5F8F80418B142464B4603F082
:1012A000F3FA05F2BC4005F0FBFD0B21224807F0E4
:1012B000A5FB224809F01EF80020A5F8FC04BDE8B3
:1012C000F087D5F8F80440B304F060FAD5F8F434A8
:1012D000002BB2D1D5F8F8342BB3D3E904894FF001
:1012E0000009C246AEE7D5F8F8040028D9D04FF47B
:1012F0000072104904F0BCFAD5F8F4040028C9D0F3
:10130000514604F079FECCE7D5F8F8040028C8D09F
:101310000022002303F0B8FAB0E782464FF000083D
:101320004FF000098EE79A464FF000084FF0000991
:1013300088E700BFAC8A0120103501002479012024
:101340002DE9F04F444C8BB02468DDF850900193A8
:1013500005468A46904600F2BC4B34B1214640F225
:1013600001633E4A584605F0AFFDB8F1000F70DD4D
:10137000AAF10407002602AC04E004F035FF0136B0
:10138000B0451CD057F8042F354920460BF062FCBD
:1013900020460BF095FDD5F8F434864602462146EA
:1013A0001846002BE9D1D5F8F83472462146184684
:1013B000002BE4D0013604F05BFAB045E2D1B9F17C
:1013C000000F25DD019B00261F1F04E004F00CFF29
:1013D0000136B1451CD057F8042F214920460BF0A7
:1013E00039FC20460BF06CFDD5F8F43486460246F5
:1013F00021461846002BE9D1D5F8F834724621462B
:101400001846002BE4D0013604F032FAB145E2D19F
:101410000AEB8802134920460BF01CFCD5F8F404B3
:1014200048B12146062204F0DFFE584605F038FD9B
:101430000BB0BDE8F08FD5F8F8040028F5D02146B0
:10144000062204F015FA584605F02AFD0BB0BDE857
:10145000F08F02ACB3E700BF04DD01201C350100B2
:1014600030350100283501002DE9F04F3F4C8BB09D
:101470002468DDF85090002C3DD000F2BC4B019365
:1014800090468A460546214658460023384A05F0CC
:101490001BFD80B3B8F1000FD5F8F4342EDD5746AC
:1014A000002602AC0FE004F0A5FC0028314903DD62
:1014B0003A4620460BF0F4FBD5F8F4340136B0453B
:1014C00007F104071BD00C2221461846002BEAD155
:1014D000D5F8F8040028F1D00C22214603F0ECF8EE
:1014E000E3E783B318460622214604F083FC98BB49
:1014F000584605F0D5FC0BB0BDE8F08F02ACB9F151
:10150000000FEEDD019E00270FE004F073FC0028C1
:10151000184903DD324620460BF0C2FBD5F8F434FF
:101520000137B94506F10406DBD00C2221461846E6
:10153000002BEAD1D5F8F8040028F1D00C2221467E
:1015400003F0BAF8E3E7D5F8F80428B106222146FB
:1015500003F0B2F80028CBD000230AEB8802204623
:1015600005498DF80D300BF09BFBC1E704DD012030
:101570001C35010038350100CC3401002DE9F04163
:101580004D4C4E4A23684E49DFF878814D4E43F06A
:101590000053236013684C4C43F480730746136078
:1015A000152007F049FC494BDFF85CC14849494820
:1015B000494ADFF858E120251D704FF40013CCF89C
:1015C00000302360454B00248EF800406FF47F7C90
:1015D0000C70047014701C700C71A1F553316144CF
:1015E000047114711D710B683D4ADFF824C143F08A
:1015F00080630B60136843F08043136001F5405132
:1016000002F54052AEF54B3EA0F54B30AEF57E7E76
:10161000A0F2F63004310C32324BC8F80040CCF85E
:101620000040CEF8004004600C6014601B68A1F517
:101630005041A2F54F42F03A3B440B60136843F02F
:101640000403136008F0C6FD23460A2239463046DB
:1016500008F076FE304608F04DFE01210D2007F01F
:101660001FFC214B214E1D604FF47A7007F040FCA7
:101670001F4B204F1D6072791F4D20482049A3F554
:10168000012302F0DF027271873B02223A701A785E
:1016900002F0F8021A701A7842F004021A702C70E4
:1016A0001B78036823F0020303600B6843F0040314
:1016B0000B6030BFBDE8F0813C80044010D0034097
:1016C000210500002479012000E100E015E400E09C
:1016D00001C0074002C0074003C0074004C00740E4
:1016E0000070044000D0034084F00F4000400640EA
:1016F00088F00F4000E0074002E0074010E000E003
:1017000010ED00E00090044080E200E000C00740DF
:1017100004900440F8B506460D4601F0F1FD04467C
:1017200001F03EFEB789B6F818E0338AB18A7745F2
:1017300080B20CD9884239D3002D06DB41D0464D0A
:10174000B2882B6813449C427AD20020F8BDB8427C
:1017500001D39842F0D3884240D2404A404DA2FB88
:101760000462120C984205FB124201D3884244D312
:101770000024704501D3774537D3B84204D24FF4E3
:10178000616000FB07F0841A00230A2221463548D5
:1017900008F0D6FD334808F0ADFD0F21324807F0C0
:1017A0002DF9304808F0A6FD2046F8BD7045C3D39A
:1017B000B842D2D398422CBF00220122002ACCD0BA
:1017C000BAE72A4B1A8802B333883089834203D29E
:1017D000F26913449C421FD22846F8BD70452CBFC5
:1017E00000220122002AB8D0A6E707F118044FF41E
:1017F000616303FB04F18C1ABFE74FF4616303FBE1
:1018000001F39A42B4D29C1AB3E71349F46101225E
:1018100028460C601A80F8BD1044041B2B460A228F
:101820002146104808F08CFD0E4808F063FD0F219A
:101830000F4807F0E3F80B4808F05CFD2046F8BDC0
:1018400011210C4807F0DAF8064808F053FD2C6027
:101850004FF0FF30F8BD00BF6CCD012007452EC210
:101860008051010024790120943501003CD00120F1
:10187000843501007035010070B582B00646079CC2
:10188000069D8DF8043002A8632CCCBFA4F2B2747C
:101890001E3400F8082D8DF801108DF806408DF8E3
:1018A00005508DF8026001F0ADFC044607F0D2FA55
:1018B000204601F0D7FD02B070BD00BF2DE9F04316
:1018C000B54D83B007F070F80028FBD007F030F872
:1018D000C4B22146B1480BF011FA0028F2D03F2CD7
:1018E0000FD040F3AF80612C00F05E81782CE9D1FD
:1018F000AB4808F07BFF00B20028E3D003B0BDE89E
:10190000F08307F051F80028FBD007F011F8C4B2BB
:101910002146A4480BF0F2F90028D3D0313C462CE4
:10192000D0D801A353F824F0311D00003D1D000064
:10193000491D0000551D0000C5180000C518000015
:10194000C5180000C5180000C5180000C518000023
:10195000C5180000C5180000C5180000C518000013
:10196000C5180000C5180000C5180000C518000003
:10197000C5180000C5180000C5180000C5180000F3
:10198000C5180000C5180000C5180000C5180000E3
:10199000C5180000C5180000C5180000C5180000D3
:1019A000C5180000C5180000C5180000C5180000C3
:1019B000C5180000C5180000C5180000C5180000B3
:1019C000C5180000C5180000C5180000C5180000A3
:1019D000C5180000C5180000C5180000C518000093
:1019E000C5180000C5180000611D0000C5180000E2
:1019F0006D1D00007B1D00008B1D0000C518000040
:101A0000C5180000991D0000A71D0000C5180000A2
:101A1000B51D0000C5180000C5180000C31D00005A
:101A2000CF1D0000DB1D0000C5180000E91D0000EF
:101A3000F51D0000031E0000C5180000C5180000B9
:101A4000131E0000212C7FF43DAF05F10C0696E833
:101A5000C00106F0A9FF0028FBD006F069FFC4B260
:101A6000214650480BF04AF900283FF42BAF313C97
:101A7000462C3FF627AF01A353F824F0211E0000A7
:101A8000391E0000D91E0000EF1E0000C51800001E
:101A9000C5180000C5180000C5180000C5180000D2
:101AA000C5180000C5180000C5180000C5180000C2
:101AB000C5180000C5180000C5180000C5180000B2
:101AC000C5180000C5180000C5180000C5180000A2
:101AD000C5180000C5180000C5180000C518000092
:101AE000C5180000C5180000C5180000C518000082
:101AF000C5180000C5180000C5180000C518000072
:101B0000C5180000C5180000C5180000C518000061
:101B1000C5180000C5180000C5180000C518000051
:101B2000C5180000C5180000C5180000C518000041
:101B3000C5180000C5180000C51800000D1F0000E2
:101B4000C51800003F20000057200000B120000011
:101B5000C5180000C5180000CD200000291F000096
:101B6000C5180000451F0000C5180000C51800007A
:101B7000611F0000791F0000951F0000C5180000BC
:101B8000AD1F0000C91F0000E51F0000C5180000C0
:101B9000C5180000151D000064770120A435010060
:101BA00024790120AC3501002B68AB49AB48AC4E21
:101BB0006F2208F0B7FB22466B68AA49A74808F0D5
:101BC000B1FBAB68A849A548722208F0ABFBEB68F3
:101BD000A649A248312208F0A5FB2B69A4499F48D9
:101BE000322208F09FFB6B69A2499C48332208F01F
:101BF00099FBAB69A0499948342208F093FB9748B8
:101C000008F078FB9D4B9E4994486E2208F08AFBB1
:101C1000FEF704FE642203469A49904808F082FBCE
:101C2000FEF7E2FD7422034697498C4808F07AFBE0
:101C30008A4808F05FFB336894498848632208F0BB
:101C400071FB736892498548682208F06BFBB368A2
:101C500090498248772208F065FBF3688E497F48F7
:101C6000732208F05FFB33698C497C48652208F0D9
:101C700059FB73698A497948692208F053FBB369B3
:101C8000884976486B2208F04DFBF3698649734812
:101C9000702208F047FB714808F02CFB172183489D
:101CA00006F0ACFE6D4808F025FB4021804806F0A8
:101CB000A5FE6A4808F01EFB20217E4806F09EFE25
:101CC000664808F017FB58217B4806F097FE6348EA
:101CD00008F010FB2621794806F090FE5F4808F0D6
:101CE00009FB4521764806F089FE5C4808F002FBB6
:101CF0003221744806F082FE584808F0FBFA2B2186
:101D0000714806F07BFE554808F0F4FA534808F095
:101D1000F1FAD7E5514808F069FD0028C0F22182A8
:101D2000B0F5003FA8BF4FF400304D4B9860C9E5B7
:101D3000EA686649494808F0F5FAC3E52A69634943
:101D4000464808F0EFFABDE56A696049434808F083
:101D5000E9FAB7E5AA695D49404808F0E3FAB1E558
:101D60006A685A493D4808F0DDFAABE53C4B5849F2
:101D70001A683A4808F0D6FAA4E5FEF74FFD55492F
:101D80000246364808F0CEFA9CE5354B50491A69B0
:101D9000324808F0C7FA95E5314B4D495A682F484B
:101DA00008F0C0FA8EE52E4B49495A692B4808F0D5
:101DB000B9FA87E52A4B46499A69284808F0B2FAE9
:101DC00080E52E4A4349254808F0ACFA7AE52A68AE
:101DD0003E49224808F0A6FA74E5214B3C49DA69ED
:101DE0001E4808F09FFA6DE5AA6838491B4808F0BC
:101DF00099FA67E51A4B3649DA68184808F092FAFA
:101E000060E5FEF7F1FC33490246144808F08AFA0F
:101E100058E5134B2E499A68104808F083FA51E5AB
:101E20000E4808F0E3FC0028C0F299811828034608
:101E3000A8BF1823EB6045E5084808F0D7FC172E2B
:101E400000F35A81864205DC1828C8BF182000F329
:101E500056810646304652E1D035010024790120F2
:101E600034770120E4350100F83501000C3601001B
:101E700020360100383601004C36010084770120FD
:101E80006036010070360100803601009036010096
:101E9000AC360100C0360100D8360100F036010032
:101EA0000C3701002437010044370100603701007E
:101EB00078370100BC370100E03701003C380100F1
:101EC00064380100AC380100E0380100C035010081
:101ED000C835010028350100AB4808F087FC172FF2
:101EE00000F30581874240F321816F61EAE4A6484F
:101EF00008F07CFC4645444640F30481804503DC01
:101F00008642C0F21081044626460CE19E4808F045
:101F10006DFC0028C0F21481B0F5003F0346A8BF55
:101F20004FF400336B60CDE4974808F05FFC002865
:101F3000C0F22781B0F5003FA8BF4FF40030934BAB
:101F40005861BFE4904808F051FC0028C0F21781A6
:101F5000B0F5003FA8BF4FF400308C4B9861B1E45E
:101F60008B4C261D06F0E4FC04F8010FB442F9D1B5
:101F7000002385F82430A5E4834808F037FC0028C6
:101F8000C0F2FB80B0F5003F0346A8BF4FF400331A
:101F90002B6097E47C4808F029FC0028C0F2EB8015
:101FA0000A28A8BF0A20794BD8618BE4764808F04C
:101FB0001DFC0028C0F2DD80B0F5003F0346A8BF3D
:101FC0004FF40033AB607DE46F4808F00FFC00284D
:101FD000C0F2CD80B0F5003FA8BF4FF400306B4B8E
:101FE000D8606FE4684808F001FC041EC0F2BD80B0
:101FF000172CA8BF1724644808F0F8FB061EC0F28F
:10200000B2803B2EA8BF3B265F4808F0EFFB071EBF
:10201000C0F29F803B2FA8BF3B2701F0F1F980461B
:1020200001F0FEF9814601F00BFACDF80090019025
:1020300043463A4631462046FFF71EFC42E45248EA
:1020400008F0D4FB0028C0F282800128A8BF01203C
:102050004E4B186036E44C4808F0C8FBB0F5FA6FF8
:10206000044641DB40F6B8339842A8BF1C464648B8
:1020700008F0BCFB071E70DD0C2FA8BF0C274248E0
:1020800008F0B4FB061E66DD1F2EA8BF1F2601F058
:1020900087F9804601F094F9814601F0A1F949469B
:1020A00002460194404600973346FFF7E5FB09E4FA
:1020B000354808F09BFB002847DBB0F5003FA8BF80
:1020C0004FF40030314B1861FFF7FCBB2E4808F08D
:1020D0008DFB431C36DBB0F5003FA8BF4FF400304A
:1020E0002A4B5860FFF7EEBB4FF4FA64BFE718289D
:1020F000A8BF18200746F8E61828A8BF18202861AE
:10210000FFF7E0BB002817DB1828A8BF182086427D
:1021100014DA804512DD06EB080303EBD373B0EB52
:10212000630FC8BF4646AE61FFF7CCBB1828C8BFD7
:1021300018273FF7DAAEDDE70020E8E70646F2E7CA
:102140000023EFE64FF0FF30CAE70020BAE7002097
:102150007EE7002761E7012699E701278FE7002343
:1021600068E60020E1E500264EE7002443E7002072
:1021700035E7002326E7002015E7002308E70020C5
:10218000EBE60020DBE600BF247901203477012054
:10219000837701202DE9F04F032083B0022106F060
:1021A0007FFE6748674C684D684F694E01F07CF9C7
:1021B00023780320002B00F0BD802B78DA0740F154
:1021C000B9803B6832689B1A0E2B40F2B380122113
:1021D0006048614D06F012FC604808F08BF840F250
:1021E00062215F4808F0FAF85E4A5F48136823F0FE
:1021F000104313600824FEF7DBFF2B4600942246B1
:102200005A495948FFF730F9594B1B68DB0408D489
:10221000FFF754FB009422462B4654495248FFF7DF
:102220008FF84FF0FF315148FFF774FA002806DDB0
:10223000504A136823F400431360FFF79FF94BF6ED
:10224000803002222021FEF7C3FE6C684A4B4B49C6
:102250004B4E0C22002C1A804A4BA7BF00200A22AA
:102260004FF6FF7000220880A3F8822046494748B5
:102270000AF0ACFD464BA968E8685C6400224FF0A8
:10228000FF345A62904693469A62DA635A669A66B7
:102290001A641C622A699964AC696969D8644FF44C
:1022A00080601A6559659C65D8651866B1464FF41B
:1022B0008F6AD9F86C0418B108F01AF9C9F86CB42F
:1022C0000AFB0865B5F87244B5F87034A4B29BB245
:1022D0009C4215D04FF48F7707FB08F70134A4B266
:1022E000B4F5897F88BF002423463B44083356F861
:1022F000230008F0FDF8B5F870349BB2A342EDD18D
:1023000001220AFB08639044B8F1020FA3F872445B
:1023100009F58F69A3F87424CBD10C211D4806F070
:102320006DFB0E4807F0E6FF1B4B00221A6003B05E
:10233000BDE8F08F06F0A6FD00283FF439AF46E770
:10234000CD07000048DE012060DD012064DD0120B2
:1023500038E201200C390100347701202479012072
:102360000006FF1F80F002409C830120647701205B
:1023700010F00F403C8004405E770120627701201E
:10238000D0D00120D4CC0120847701209E88012068
:1023900044D0012020390100C8D901200546D0F8D9
:1023A000840408B50C46B8B103685B6A984798B9CD
:1023B000D5F8783423B1DB794BB107F00BFFFCE79C
:1023C000D5F87C341BB193F83C34002BF5D1204672
:1023D0001549FEF7ABFCF0E714492046FEF798FCE0
:1023E000D5F88404F0B103685B6A9847014600237E
:1023F0001022204607F0A4FF0D492046FEF788FC76
:10240000D5F8840460B103689B6A9847C1B2002381
:102410001022204607F094FF204607F06BFFCCE720
:102420000146F4E72921E2E7403901003039010093
:102430003C390100074C08B505460E4620460649C2
:10244000FEF766FC31462046FEF770FC2146284622
:10245000FFF7A4FF247901205439010070B5044628
:10246000B0F9FC040E46154630B1431E9BB2012B59
:1024700025D903285CD070BD04F20250FEF726FE79
:1024800000285BD0334B196800293ED0024640F249
:10249000026304F2BC4004F017FDB0B3D4F8F404B6
:1024A00028B34FF0207103F00FFC50B34FF40072CB
:1024B0003146294806F0A2F90023A4F8FE34D4F8E6
:1024C000F40402236D00A4F8FC3410B331462A460C
:1024D00003F08AFEA84238D1B4F8FE34B4F90025DE
:1024E0000133A4F8FE34EAB9B4F9FC04C1E7D4F826
:1024F000F80430B14FF02072002303F001F90028F6
:10250000D4D120461549FFF795FF20461449FFF71F
:1025100091FFD4F8F8040028DCD031462A4603F0B5
:10252000A7F9D7E700220323A4F80025A4F8FC3478
:102530002046FEF775FEA4F8FC0470BD4FF6FF734D
:10254000A4F8FC344FF0FF3070BD20460549FFF77A
:1025500071FF00BF04DD0120AC8A01208839010031
:10256000743901005C3901002DE9F04FB94CB4F821
:102570007034B4F872149BB289B2994286BF03F2E8
:102580001312531A5B1AB4F8E828B4F8EA189BB28D
:1025900092B289B2003318BF0123914288BF02F280
:1025A0001312521A92B28BB0002A00F00C81002B49
:1025B00000F00981A84DA94BB5F90010A8480126E3
:1025C0001E60FFF7A7F80028C0F2CF8106D0A54A09
:1025D000136823F400431360FEF7D0FFB5F9000041
:1025E000A14E002800F09B819A49002208A84FF4D0
:1025F0008F6E4FF48F7CD1F86C34002B00F0B981D2
:10260000002340F822300132022A01F58F61F2D115
:10261000964B0899099A03F500770239023A31F985
:10262000020F23F8040C32F9020F23F8020C0433D2
:102630009F42F4D1D4F86C04864F20B107F058FFC4
:102640000023C7F86C34D4F8E408824F20B107F0B7
:102650004FFF0023C7F8E4383768854BDB1B4FEA90
:102660006308B8F5807FB94600F32C81814BB3F93C
:1026700000351BB108EBD87828F00108B8F1000F3D
:1026800040F39D81DFF834E23B464FEA4807D81912
:10269000724632F9021B23F8021B9842F9D17744A3
:1026A000814606F003FCDFF8D8A1CAEB09025210FC
:1026B000834651466F48FFF7D1FE288006F0F6FBAF
:1026C0006D4A1368CBEB000098426C4B38BF10602A
:1026D0001A68C8F58078904288BF1860684AB8F1D7
:1026E000000F00F0FB800023013337F8021B22F8B3
:1026F000021B9845F8DCB5F900303260002B00F081
:10270000F380DFF8BC815F4FD8F800305E4D07934F
:102710003B682A68079903F57A7301328B422A6075
:102720004DD25A4EDFF854A1524B3188DAF80000EE
:10273000DFF844B1B3F8FE3401900291DBF80010E9
:10274000009153485349DFF8649107F0EBFD52497B
:10275000524B0988318052491B6809680091D9F8A9
:1027600028100491D9F824100391D9F8201002916F
:102770004FF00041CBF8001049484849A269D1F810
:1027800000C0D0F800E04749BCFBFEF00026CAF8C4
:10279000006001903E4807F0C5FD3D48C9F824603F
:1027A000C9F82860A66107F0A5FDD8F800300893A5
:1027B000089B3A4A3B603A4B16602E601E6030BF61
:1027C0000BB0BDE8F08F254B1B68002B99D0364F1E
:1027D000B7F90030002B40F39680344B1B6A0A3364
:1027E0008FDA1D4D3248DFF870801F4EDFF890A061
:1027F0000B2106F003F9264807F07CFDB5F90030FF
:10280000002B15DB33681B48CAEB030252105146FC
:10281000FFF724FEA8F800001648FEF701FD082285
:10282000A8F80000234B00920D491248FEF788FDDE
:10283000204B21485B68C6F800A0002BACBF0023EA
:102840004FF6FF730B213B8006F0D8F8104807F0D5
:1028500051FD56E7D0D0012020D00120C8D9012059
:10286000647701203C8004405477012010CE012081
:10287000ACCC01209C830120A8CD0120A88A012096
:10288000AC8C0120CCD90120B0D0012078DE012011
:1028900024790120B4390100F8DE0120C4D90120D7
:1028A000B0CD0120D43901006277012044D001204D
:1028B000F839010034770120A83901000CCE01203D
:1028C00064DD01203F4BBA1E03F5007033F9021B93
:1028D00022F8021F8342F9D107F50072B5F90030E2
:1028E0003260002B7FF40DAF0621374806F086F8E2
:1028F000364807F0FFFC08220092354B3549364830
:10290000FEF71EFDFDE67FF4FCAE344D3148B5F90F
:102910000010FEF7FFFE0028BFF6F3AE62E7FEF7F9
:1029200011FCD6F800E02E4AC2EB0E077F10002FF4
:102930000CDD07F10047013F02EB4707931E2A32E7
:1029400033F9021F22F8021FBB42F9D1244A031FA8
:10295000283053F8041F42F8041B8342F9D10EF1CA
:102960002C03012233602A803EE61B4BA3F800654E
:1029700034E60EFB02481F46B8F87294B8F870A40B
:102980001FFA89F91FFA8AFA09F10108D1451FFADD
:1029900088F83FF436AEB8F5897F98BF47460CFB00
:1029A000027303F1080388BFB84654F82330C1F816
:1029B0006C340EFB02470433A7F8728421E6014F02
:1029C0006FE600BF0CCE0120A03901002479012060
:1029D00034770120647701209C83012020D00120DE
:1029E000AC8C01202DE9F84FA54CA64AA649A74872
:1029F000A74DA84F08F090FA22682F6000236B7251
:102A00002B612B72EB600AB936E11A465369002B31
:102A1000FBD155614FF000089F4EA04B9C48C5F874
:102A20001480A5F80480A5F8068085F80A802B603C
:102A3000DFF89492FEF708FA06F11C0201213046F5
:102A4000FEF73CF9A6F8708406F294420121A6F83C
:102A5000728406F58F60C6F86C84A6F87484C6F894
:102A60000090FEF72BF98E4BA6F8E8884FF0020E87
:102A700003F11801A6F8EA8883F809E04246C6F88F
:102A80007894C6F8E488A6F8EC8840461F6083F87E
:102A90000880C3F80C8019619E4601E0DEF8101032
:102AA00041F82200597A7E4F01329142F6DC2168CA
:102AB000734A09B9E2E011464A69002AFBD14B6129
:102AC00000214FF00C0E774FA3F880E002240A4655
:102AD00059619980D980997208461F60A3F8824095
:102AE00002F1080101320C2A43F82100F8D100223A
:102AF000104602F1140101320C2A43F82100684FFC
:102B00004FF00004F5D1DFF8C4B1DFF8C481A7F8B5
:102B1000802002210BF118025846FEF7CFF8DFF8AB
:102B2000B491614BCBF80030404688E8200888F823
:102B3000084088F80940C8F80C4088F8104007F0B1
:102B400027FD504A5949404608F0E6F9DFF88881E8
:102B5000C9F80C404FF0010A484689E8200889F876
:102B6000104089F808A089F809A007F011FD454A2E
:102B70004E49484608F0D0F9DFF8609188F80840DF
:102B8000404688E8A00088F80940C8F80C4088F85A
:102B9000104007F0FDFC3B4A4449404608F0BCF9B0
:102BA000DFF83C81C9F80C40484689E8A00089F864
:102BB000104089F808A089F809A007F0E9FC314A1B
:102BC0003A493B4D484608F0A7F94046C8F800701E
:102BD000C8F8046088F8084088F80940C8F80C4034
:102BE00088F8104007F0D4FC264A3049404608F0E7
:102BF00093F9304B6B60284685F808A02F606C7203
:102C0000EC602C7407F0C4FC28461E4A27492A4D64
:102C100008F082F9294B2A48DFF8C8E0C3F8784465
:102C20002827C3F87C4483F8904483F8AA4483F8A7
:102C3000B04483F8B844C3F8F444C3F8F844A3F8A4
:102C400000454FF47A764FF6FF74DFF89CC083F8A6
:102C5000A774C3F89404C3F888C41846C3F89CE466
:102C6000C3F8B464C3F8AC54A3F8FC44054A15494E
:102C7000BDE8F84F08F050B92560CBE617601FE7B4
:102C800074DE012030770120DD070000C8D001206C
:102C900024D00120EC330100D0D0012064340100A5
:102CA000D4CC01200434010058340100D1070000C5
:102CB000B4D0012048D50120343401009C83012088
:102CC000503B0100B1070000F833010044D001205F
:102CD00058CD01200CD00120E4CD0120F8CD0120F9
:102CE00094CD012001100138A83B010010B4047FED
:102CF0004160022CC26003D05DF8044B07F07EB93E
:102D000083685DF8044B18472DE9F0410468E568D5
:102D100015F0807F794D256052D1DF0740F1B380F7
:102D2000002900F0E3800D78012B18BF45F0004525
:102D30006563013190F82C8003F1FF3C48EA0828D4
:102D4000BCF1000F00F0A88021B14D7811F8028B82
:102D500045EA082845682E7ABCF1020F06F1FF36D5
:102D60004FEA06360CBF48F0805548F01045B6B221
:102D70006563ACF1020C08E00AB114700132013B4A
:102D800005F47045B54216D90468E56A15F0F00FF0
:102D9000F6D0A46B13F0010F17464FEA242EEBD1A7
:102DA0001AB107F802EB54703A4605F47045B54283
:102DB000A3F10203E8D8BCF1000F6DD00468C3E7AB
:102DC000DD074CD5002900F089800D78012B18BF54
:102DD00045F000456563013103F1FF3E90F82CC0DA
:102DE000BEF1000F41D029B191F801C00D78023138
:102DF00045EA0C2C45682E7ABEF1020F06F1FF362B
:102E00004FEA06360CBF4CF080554CF01045B6B278
:102E10006563AEF1020E08E00AB114700132013BA5
:102E200005F47045B54215D90468E56A15F0F00F50
:102E3000F6D013F0010F1746A46BEDD122B107F8BD
:102E4000024B241254703A4605F47045B542A3F182
:102E50000203E9D8BEF1000F07D00468C3E79E461D
:102E600090F82CC0BEF1000FBDD11BB30468E16A1D
:102E700011F0F00FFBD0A16BDC071DD50AB111706A
:102E80000132013BF1E790F82C809C4648EA082883
:102E9000BCF1000F7FF458AF63B10468E16A11F030
:102EA000F00FFBD0DE07A16B0FD50AB11170013214
:102EB000013BF1E7BDE8F0812AB114460D1204F898
:102EC000021B55702246023BCFE72AB114460D1271
:102ED00004F8025B51702246023BDDE790F82C506B
:102EE000012B18BF45F00045656375E790F82C503D
:102EF000012B18BF45F0004565631BE700041F80E8
:102F0000F0B4464B464A986B5C6B017911704549A9
:102F100022790A701A6B00790870002A46D0596825
:102F2000C9688A423ED82168CC8B240402F1FF3064
:102F300065D4C0F30E00C883C88B80B2C882996B79
:102F40000968C88B000452D4C2F30E00C883C88B32
:102F5000002480B212F1FF32C88218BF01221C6324
:102F6000596B2E4809680D6800F12C04A54236D033
:102F70000068C46814F0804F0C680D6815BF248881
:102F800024780235013544F000440D604463996BA8
:102F9000254B09791970214912B14A6B12791A70BF
:102FA000F0BC7047521A1A630122D9E7D86B19682E
:102FB00005681E4C0A63CC62CC682D681C4E24F058
:102FC00080440327B542CC6083F82D701FD1037F66
:102FD0004260022BC2601ED0F0BC07F00FB801683F
:102FE00090F82C00CC6840F000404863CFE7CC8BD1
:102FF000C2F3080004F47E442043C883A7E7CC8BC7
:10300000C0F3080004F47E442043C88394E72B46B1
:103010001146F0BC18478368F0BC18478C77012034
:103020001F8000401C8000401B80004000000FFFFC
:10303000ED2C00000BB1FFF767BE7047644A654B8B
:103040002DE9F04F644EDFF8A0A1644CDFF89091B9
:10305000A2FB00524FEA124C0CF10407A3FB00251F
:10306000A6FB0062A7FB0AAB6D09D20AA3FB0563AE
:10307000A4FB0264CBEB07060BEB56065B09B60814
:103080002409C6EBC606C3EB031304EB4404A5EB0B
:103090008303BE1BC5EB0515A2EBC402A0EB8500A4
:1030A000013600248A7008704B70CE70224640F2C0
:1030B0006D1B4FF064084FF4C87A0EE0C6EBE515BF
:1030C0000AFB153570BB002D14BF58464FF4B7707E
:1030D0000244944504F1010413D3E7B207F2B2733A
:1030E00089FB0305DE17C6EB651013F0030E08FB22
:1030F0001030E3D040F26D100244944504F1010415
:10310000EBD28F71BEF1000F0FD13548DE1780FB77
:103110000340C6EB6014642505FB1434BCB34FF4C4
:10312000B77405E04FF4B770D2E740F26D14DE17C4
:103130002B482C4D80FB0370C6EB6018121BC6EBAE
:10314000E01664244FF4C87000FB163604FB1838F0
:10315000C2EB0C020120002302E00130C0B20133B7
:10316000012BDFB220D05C5D944209D80C28A2EB81
:103170000402F2D10D2701320A714F71BDE8F08FC0
:103180000137FFB201320A714F71BDE8F08F4FF481
:10319000C874C6EBE01004FB1030002840F26D1438
:1031A00008BF4FF4B774C3E7BEF1000F0AD1B8F1FE
:1031B000000F0BD1002E14BF1C241D24A24203D3E8
:1031C000121BCAE71C24F9E70227D4E71D24F5E700
:1031D00007452EC289888888C5B3A291ABAAAAAA3E
:1031E0001F85EB51983A01002549922410B50349F7
:1031F0000446FFF723FF024B1C6010BDD4D9012009
:10320000D0D901202DE9F0413949867901FB06F139
:1032100006B306F2B27C40F2B373DFF8D8E064275D
:103220004FF4C8780DE013F0030F09D1C2EBE5129B
:1032300008FB123204B91AB901F5A83101F5C071C1
:1032400001338EFB0325DA17C2EB6514634507FBD8
:103250001434E8D14779012F2FDD264C264ADFF8B8
:103260009CE006F2B27384FB0346DC17C4EB661CD9
:103270006425C4EBE6164FF4C87405FB1C3C04FB44
:10328000163603F00305012307E014780133BB422F
:103290000EFB041102F101020FD0022BF5D1002D1B
:1032A000F3D1BCF1000F1BD001F5181101F56E51DF
:1032B0000133BB4202F10102EFD1437885780478F3
:1032C00002790E48C3EB03134FF461669B0006FBC3
:1032D00005332344013A00FB02300844BDE8F08185
:1032E000002ED2D101F5181101F56E51E0E700BFB3
:1032F0008033E1011F85EB51983A010080510100B4
:10330000F0B5204C204E23683268204D83B02868E9
:103310000093009B9B1AB3F57A7F0FD3013000E036
:10332000084623680093009B02F57A729B1AB3F556
:103330007A7F00F10101F3D228603260144F3B68BC
:1033400098420FD3134B1B6863B19847124B58B97F
:1033500012491A680B7828680033024418BF012309
:103360003A600B7003B0F0BD226801921B680B4AF3
:10337000019C28600344022134603B60117003B05B
:10338000F0BD00BF64DD0120E8D90120DCD90120B7
:10339000ECD90120E4D90120CC770120E0D901202B
:1033A00008B5FFF7ADFF044B1B68984201D0FFF74B
:1033B0001DFF024B987808BDD0D90120D4D9012037
:1033C00008B5FFF79DFF044B1B68984201D0FFF73B
:1033D0000DFF024B587808BDD0D90120D4D9012067
:1033E00008B5FFF78DFF044B1B68984201D0FFF72B
:1033F000FDFE024B187808BDD0D90120D4D9012098
:1034000008B5FFF77DFF044B1B68984201D0FFF71A
:10341000EDFE024B187908BDD0D90120D4D9012086
:1034200008B5FFF76DFF044B1B68984201D0FFF70A
:10343000DDFE024B587908BDD0D90120D4D9012036
:1034400008B5FFF75DFF054B1B68984201D0FFF7F9
:10345000CDFE034B987900F2B27008BDD0D901209F
:10346000D4D9012070B40A4B0A4A1B6812680A4E6C
:103470000A4D0B49306083B010440193019C094B05
:10348000286002220C601A7003B070BC704700BF45
:1034900064DD0120CC770120DCD90120ECD90120AA
:1034A000E8D90120E0D901200349044A044B096806
:1034B00011601860FFF724BFDCD90120ECD901208E
:1034C000E4D90120024A0349034807F025BD00BFA3
:1034D00030770120DD070000F0D90120024A0349BE
:1034E000034807F019BD00BF30770120DD07000059
:1034F000F8D90120024A0349034807F00DBD00BF77
:1035000030770120DD07000000DA0120024A03497C
:10351000034807F001BD00BF30770120DD07000040
:1035200008DA0120024A0349034807F0F5BC00BF4E
:1035300030770120DD07000010DA0120024A03493C
:10354000034807F0E9BC00BF30770120DD07000029
:1035500018DA0120024A0349034807F0DDBC00BF26
:1035600030770120DD07000020DA0120024A0349FC
:10357000034807F0D1BC00BF30770120DD07000011
:1035800028DA012038B5074D074C08482A4621465D
:1035900007F0C2FC2A4621460548BDE8384007F03E
:1035A000BBBC00BF30770120DD07000030DA01200E
:1035B00038DA0120024A0349034807F0ADBC00BFD6
:1035C00030770120DD07000040DA0120024A03497C
:1035D000034807F0A1BC00BF30770120DD070000E1
:1035E00048DA0120024A0349034807F095BC00BFAE
:1035F00030770120DD07000050DA0120024A03493C
:10360000034807F089BC00BF30770120DD070000C8
:1036100058DA0120024A0349034807F07DBC00BF85
:1036200030770120DD07000060DA0120024A0349FB
:10363000034807F071BC00BF30770120DD070000B0
:1036400068DA0120024A0349034807F065BC00BF5D
:1036500030770120DD07000070DA0120024A0349BB
:10366000034807F059BC00BF30770120DD07000098
:1036700078DA012090F8392090F83800101A704755
:1036800090F8383090F839209A4205D95A1C0344F2
:1036900080F83820187E70474FF0FF30704700BF29
:1036A00090F8383090F839209A4286BF1B18187E5F
:1036B0004FF0FF30704700BF704700BF38B5054678
:1036C000B0F85E0090B195F85D301446C3F1210268
:1036D00094420CD805F13B001844224605F08EF8C0
:1036E00095F85D30234485F85D30204638BD0120D3
:1036F00014462871EEE700BFB0F85E306BB190F869
:103700005D30202B07D8C218013380F85D300120CE
:1037100082F83B107047012303710020704700BFFF
:1037200038B50269D478E4B2E106054624D5102301
:10373000D37063061FD504F0040404F0FF03002CCB
:103740005AD042496A6E00230B7085F85D30002A1A
:1037500066D0904795F85D30002B61D02B69D02260
:103760009A702B6995F83B201A712B69012285F814
:103770005C200222DA7038BD04F0400303F0FF0041
:10378000002BD8D19379DBB203F0600160294ED0D1
:10379000937803F0100303F0FF01B3B114F00104B8
:1037A00037D195F85C3095F85D1099424BD9591C8A
:1037B0002B4485F85C1093F83B3013712B69D022B1
:1037C0009A702B690222DA70D5E785F86010937938
:1037D00043F0200393712B6995F839101A791F294A
:1037E000D2B2C6D8194800780028C2D06818013172
:1037F00085F839100276BCE72A6985F83930C0238C
:1038000093702B69114A1979012111700222DA7023
:10381000B1E7C02393702B691A790222DA70AAE704
:103820000122002385F85D2085F83B3096E703F000
:10383000DF039371AB6E23B185F8380095F839003A
:1038400098472A69A4E71471B8E700BF80DA01201D
:103850000148FFF765BF00BF3C7801200148FFF732
:103860005FBF00BFA87801200148FFF759BF00BF24
:10387000D0770120064B074ADA6202210022596004
:103880009A7083F8242083F8302083F83220704720
:1038900084DA0120303B010070B51A4C23780BB953
:1038A000012070BD184D194B286819680378FE2B4C
:1038B00017D0174A00F032FE88B1164E316819B998
:1038C00000232370012070BD28680378FE2B0FD0E1
:1038D0000F4A00F023FE10B100233360F0E7002010
:1038E00070BD0B4800F026FAB0FA80F04009E3E71B
:1038F000074800F01FFAB0FA80F040090028EBD129
:10390000EDE700BFE0DC0120DCDA012014790120C2
:10391000E0DA0120D8DA012070B5124D2B6883421D
:103920000E4611D00446FFF7B7FF08B9002070BD5E
:103930000D4B18680378FE2B0CD00C4A214600F082
:1039400027FD0028F2D02C60094B197831431970FB
:10395000012070BD2146054800F06AF9B0FA80F0F8
:103960004009EEE714790120DCDA0120E0DA0120D9
:10397000E0DC0120F8B590F82030C469102B1A4B18
:1039800005460E4617461B6816D004EBD1149C4220
:1039900016D106F07F06154A42F826701449287E93
:1039A0000A78012842F001020A7018D9A968114A60
:1039B0000B4413600120F8BD04EB11249C4208D095
:1039C00000212046FFF7A8FF50B195F82030102BBA
:1039D00007D1F6B2054A234622F81670DEE7012029
:1039E000F8BD2346D5E700BF14790120E0DA0120B5
:1039F000E0DC0120D8DA0120C36801338B4218D300
:103A000070B590F82030102B154B044616460D4625
:103A1000C0691B680FD000EBD11098420FD105F0A0
:103A20007F01104B53F8213023F0704333600120A5
:103A300070BD0020704700EB1120984207D0002194
:103A4000FFF76AFF50B194F82030102BE7D1E9B2AC
:103A5000044B33F811303360012070BD002070BD7D
:103A600014790120E0DA01202DE9F04F176883B0C6
:103A70006FB301374FF0000AC36803F1010813B3B5
:103A80008B46064691463C46002505E01C461F46EF
:103A9000F3680135AB4216D9A04538BF0224214650
:103AA00001AA304638BF2746FFF7A6FF631CD91B83
:103AB00048B1019A002AE9D18B4510D01C46F36821
:103AC0000135AB42E8D8002003B0BDE8F08FA1F18A
:103AD000010ABAFA8AFA07684FEA5A1ACCE7012CA7
:103AE000F1D9F36801339C42EDD86FF07042214662
:103AF0003046FFF73FFF0028E5D0A74214D2013C33
:103B0000012CE0D9F36801339C42DCD8621C2146C9
:103B10003046FFF72FFF0028D5D0A74204F1FF342D
:103B200002D0012CEED1CEE7D9F8001059B101290D
:103B3000C9D9F36801339942C5D83A463046FFF7F0
:103B400019FF0028BFD0C9F80070BAF1000F01D0EA
:103B5000013737600120B7E72049214A0B6843F05D
:103B600080030B6011461368DB07FCD40B689B07CE
:103B7000F9D41C4B30B44FF08072184D186000E03F
:103B8000A2B12968184B154C0B40013A002BF7D015
:103B900062B1012B0AD1236813F0800F23680FD084
:103BA00043F001132360032030BC70470B4A1368B5
:103BB00043F4702343F001031360012030BC7047CD
:103BC00013F48030236804D043F0011323600520F0
:103BD000F4E743F001032360F0E700BF30100B402F
:103BE00024100B400C100B4001000E0070B50D4D61
:103BF0000D480E4E00232B60FFF7AEFF40F2E73476
:103C000003463268520701D507480BB1184670BD0C
:103C10002B60FFF7A1FF013C0346F2D1002808BF4B
:103C2000052070BD08100B400000DB0C24100B4079
:103C3000F8B5384B1A780AB10320F8BD5B78064610
:103C400003B94902344D354C354B36484FF6FF77B2
:103C50004FF481322F6021601A60FFF77DFF00284A
:103C6000EBD1314B31491B681C3406F1400206F59B
:103C700010702B68284F43F0200613F4E00F2E60DD
:103C80003ED123681E05FCD50B6842F8403C0B680A
:103C900042F83C3C0B6842F8383C0B6842F8343C34
:103CA0000B6842F8303C0B6842F82C3C0B6842F839
:103CB000283C0B6842F8243C0B6842F8203C0B6817
:103CC00042F81C3C0B6842F8183C0B6842F8143C64
:103CD0000B6842F8103C0B6842F80C3C0B6842F849
:103CE000083C0B6842F8043C40328242C1D10020BB
:103CF00009490B68084A9B07FBD50D4B1360F8BDBB
:103D000043F4E00343F020033B60FFF76FFF012023
:103D1000EEE700BFE4DC012030100B4008100B4040
:103D200004100B4010003A1110100B4020100B40F3
:103D300022000001F8B52B4B1A780AB10320F8BD18
:103D40005B78044603B94902274D28482A68284B66
:103D50002A604FF48132016026481A60FFF7FCFEAA
:103D60000028ECD1244B254E1B68294604F500772A
:103D70000B681D4AD806FBD52B6813F4E00F1AD147
:103D800004F1400254F8043B3360A242FAD10B68BC
:103D9000DFF854E043F010030B600B6813F4E0000D
:103DA00013D19742E4D110490B680F4A9B07FBD50A
:103DB000134B1360F8BD136843F4E00343F01003A2
:103DC0001360FFF713FF0120EDE7DEF8003043F446
:103DD000E00343F01003CEF80030FFF707FF0120A7
:103DE000E1E700BFE4DC012030100B4008100B407D
:103DF00004100B4000003A1810100B4020100B402C
:103E00001200000138B590F90530002B03DBBDE846
:103E10003840FFF741BD044601210069FFF77CFDF2
:103E2000F8B1257D104B13EB45151AD0A3790F4A35
:103E3000012B9CBFA369EB61E36912686B831B0CC8
:103E4000AB8232B105F1160105F1180090472B8BBA
:103E50006B82637903F07F036371BDE83840FFF73D
:103E60001BBD002038BD00BFE0DA0120F4DC0120DA
:103E700010B500F1080204460121006AFFF7F4FDC5
:103E800050B1E3693BB96379A268E26163F07F03F3
:103E90006371012010BD012010BD00BFF8B583790A
:103EA00013B182698A4201D20020F8BD022B0F466D
:103EB00005461AD007B32B6AE9681C7C4A1E04F138
:103EC00009037C1EDA40DC40A24211D9EB69AB60E9
:103ED00005F1080606E0A968286AFFF78DFD013C98
:103EE0000028E1D03246002CF5D1EF600120F8BD6A
:103EF0000029EBD0A41AEBE7AF60EF600120F8BD1A
:103F00002DE9F04F8B46817985B001290746019252
:103F100005D001233B71002005B0BDE8F08F427948
:103F20009107F6D5530708D5FC68B9698C4200F0B3
:103F3000B480FFF7B3FF0028EBD0019BFC68002B97
:103F40004AD0DFF8A491DFF8A4A1DDF80480386A34
:103F50000679013E06EA542616F0FF06C4F308046B
:103F600043D1002C41D1B968002973D1FA69002AE4
:103F700000F08380BA60C4F50075ADB245453AD90A
:103F8000057C4169023AAA400E4416441FFA88F59E
:103F90001CB9F868BA6990424FD230460121FFF748
:103FA000BBFC0028B5D04C4404EB050E74450DD085
:103FB0000BF1FF31621E0EF1FF3611F8010F02F80E
:103FC000010F9642F9D1C4EB0E04A344FC68B8EB90
:103FD00005082C44FC60BAD1BB69A34262D27A794D
:103FE000BC6142F080027A7165E0C4F50075ADB243
:103FF0004545BA68C4D8017C4069023A8A40064403
:10400000B5F5007F1644C3D1DAF80020964204BF0C
:104010004FF0FF32CAF800202F4A10680278FE2ABB
:10402000314633D05A4600F079FA00283FF471AF98
:104030000BF5007B4FF40075C8E7FFF72DFC002857
:104040003FF467AF2549CAF800600A7842F00102E0
:104050000A70A8E703AAFFF7CFFC00283FF45CAF83
:10406000386A1F4B90F82050039A4FF6F871102DC4
:1040700018BF19468A42FFF47DAF3846FFF7F8FEB5
:1040800000283FF446AF386ABA6874E75846FFF72D
:1040900051FEB0FA80F04009C7E7019B002B7FF486
:1040A00050AF08E00F4B7A791B6823B1019B13B125
:1040B00042F080027A71120709D5BB79002B3FF4D8
:1040C00028AF3846FFF79EFE00283FF422AF019844
:1040D00005B0BDE8F08F00BFDCDA0120E0DC012094
:1040E000F8FFFF0FF4DC0120E0DA01201479012051
:1040F00000B583B002AB012203F8011D1946FFF79A
:10410000FFFE03B05DF804FB10B50121007804F058
:10411000B3FE114A1378C3B11049CB7A0024184674
:10412000147093B1DA0703D50D4AC86910601846B8
:104130009C0703D50B4B0A6AC87A1A60420705D45C
:10414000030702D5084B8A6A1A6010BD074B4A6AFA
:10415000C87A1A60F4E700BFFCDC01208C770120EC
:1041600000E100E004E100E00CE100E008E100E033
:10417000234B1A781AB10078002104F07DBE70B488
:10418000204A2149D47A096801251D70002C26D0C7
:1041900072B6D47AE607234606D51C4DD3682E683E
:1041A0003340D3612B602346A50706D5184D14690B
:1041B0002E68D37A344014622C605C0706D5154D06
:1041C00054692E68D37A344054622C601B0705D59D
:1041D000114C936925682B409362236062B6136883
:1041E000DA688A4207D00D4C1C600D4AD96041F054
:1041F00080441C611A600078002170BC04F03CBE51
:10420000FCDC01208C770120F8DC012080E100E05B
:1042100084E100E088E100E08CE100E001403F0043
:1042200000003F80F0B41248124A036882B016467C
:104230000093009F4FF00045FF24136843F4806310
:104240001360D5625463D36A002BFCDAB36BDBB224
:10425000FF2B09D003680193019BDB1B8B42ECD33E
:10426000002002B0F0BC7047012002B0F0BC7047E3
:1042700064DD012000C00240F8B50D464FF4967190
:1042800016460446FFF7CEFF284B1A684FF0004051
:1042900042F4806245F040011A60D8621A465963C0
:1042A000D36A002BFCDA214918204FF000470A6836
:1042B00026FA00F342F48062DBB20A60CF624B63FD
:1042C000CB6A002BFCDA083810F1080FEFD155B398
:1042D000082D0CBF8721FF21144B1A684FF00040B6
:1042E00042F480621A60D8621A465963D36A002B7E
:1042F000FCDA0E4A002716464FF00045FF211368EE
:1043000043F480631360D5625163D36A002BFCDAF7
:10431000B36BD8B21B06607000D4F8BD0137B7F597
:10432000807FECD1F8BD9521D6E700BF00C00240E8
:10433000F0B41549154A0B6882B016460093009FE9
:104340004FF00045FF24136843F480631360D56287
:104350005463D36A002BFCDAB36BDBB2FF2B4370E0
:104360000AD10B680193019BDB1BB3F5967FEAD959
:10437000002002B0F0BC7047A3F1FE00B0FA80F05C
:10438000400902B0F0BC704764DD012000C002406B
:10439000F8B58378032B0E46044618BF4E02154627
:1043A000FFF7E6FE324611212046FFF765FF18B9F8
:1043B0002046FFF7BDFF20B92046FFF7A5FE0020ED
:1043C000F8BD204B2049214A1A608E4659631A468F
:1043D00059631E46596305F5FD70A91C05F5FE7766
:1043E000D36A13F0F00FFBD0C6F834E0B36B01F8DA
:1043F000013C1B1201F8023C02318F42F0D105F55D
:104400000075A8420DD20F4A1646D36A13F0F00F7A
:10441000FBD0B36B191200F8021BA84200F8013C54
:10442000F3D3084B0949084A196019465A63CB6A05
:10443000044A13F0F00FFAD02046936BFFF764FEA6
:104440000120F8BD00C00240FFFF009000041F8063
:10445000F0B4314E33684FF0004743F4806333606B
:104460003D46F762344671633346511C02F2012720
:10447000E26A002AFCDA1A6811F8016C42F48062E0
:104480001A60DD625E63E26A002AFCDA1A6811F8DB
:10449000026B42F480628F421A60DD625E63E7D194
:1044A0001D49CA6A1C4B002AFBDA1A684FF0004506
:1044B00042F48062FF241A601946DD625C63CB6AB5
:1044C000154A002BFBDA13684FF0004543F4806374
:1044D000FF2413601146D5625463CB6A0E4A002B49
:1044E000FBDA13684FF0004543F48063FF24136048
:1044F0001146D5625463CB6A074A002BFBDA936BF3
:10450000DBB203F01F024370A2F10500B0FA80F0A5
:104510004009F0BC704700BF00C0024070B50446BF
:1045200071B18378032B0D4618BF4D021646FFF775
:104530001FFE2A4618212046FFF79EFE054620B1A1
:104540002046FFF7E1FD002070BD3246FE212046E7
:10455000FFF77EFF0028F3D04FF416712046FFF7D7
:1045600061FE0028ECD02A460D212046FFF784FE8C
:104570000028E5D10B4B1A684FF0004542F48062E9
:10458000FF201A601946DD625863CB6A054A002B8A
:10459000FBDA936B13F0FF0FD2D12046FFF7B4FD87
:1045A000012070BD00C00240014B024A1A607047F2
:1045B000F8DC01200110013810B5044600F0FAFFC4
:1045C000002384F8313084F8333010BD90F8312066
:1045D0000AB10020704738B504460D46114638220E
:1045E00008F0E4F84023012084F8313084F83300E7
:1045F000256238BDF0B50878202803D111F8010FE5
:104600002028FBD051600878002851D02F282BD0CB
:104610005C2820D0A0F12204E4B21D2C1DD9DFF8C3
:1046200094E04E1C00247C28A0F12005374612D0CF
:104630005E2D10D816F8010BA0F12205EDB2013461
:1046400078B32F2811D05C282EFA05F703D01D2D42
:10465000E9D8FD07E7D50020F0BD164D25FA04F492
:10466000E607DCD50020F0BD00240F193E462546A4
:104670002F2002E016F8010F01352028FAD02F284C
:10468000F8D02944196044B1394611F8013D2E2B68
:1046900001D0202B08D1013CF7D120461060012029
:1046A000F0BD1F600F19EFE7FF2CF6DD0020F0BD15
:1046B0001960F3E7010100352DE9F04F90F8333030
:1046C000DD0783B0044640F1AC8058060D4616461F
:1046D00040F1B280D4E90001D4E9042310EB0608CC
:1046E00041F100094B4508BF4245C0F0AB80002EA8
:1046F00000F0AA80A146F9E80623B0464FE0134334
:104700006BD194F831305A064CBFD0F82C14E169C3
:10471000A16190F83DC4D0F8242402397F0A01FA3F
:104720000CFEB9187144BAF1000F42D1B8F5007F00
:104730003FD3D0F8142291423BD0B8F5806F53D3C9
:10474000012303FA0CFCC7EB0C074FEA58239F42E6
:1047500028BF1F4691424FEA472B0BD87B18934244
:1047600008D900F50370019100F0F6FB002858D03D
:10477000206A0199D0F8380402683B46D7682A4677
:10478000B84700284DD058460021D4E9002312181C
:104790004B41B8EB0B085D44C4E9002354D0206AB8
:1047A000D0F830741740C7F3080A002FA7D0A169CA
:1047B000AFE700F50370002200F06EFB88B3CAF586
:1047C000007BC34528BFC34600EB0A015A46284672
:1047D00004F014F858460021D7E794F833305B060C
:1047E0000FD5A169013193E7D0F8380403682A4650
:1047F0009B689847A8B14FF4007000214FF4007BEC
:10480000C3E74A46A16900F031FD40B2002808DB49
:1048100002D0206AA1697CE794F8313013F0500F80
:1048200014D194F832304FF0FF3043F0020384F893
:10483000323003B0BDE8F08F94F8313019073FF5FE
:1048400049AF54E7161A52E74FF00008C8EB0600CC
:1048500003B0BDE8F08F00BFF0B583B001220DF1C9
:1048600007010446D0E900678569FFF725FF0128A5
:1048700008BF9DF80700A56118BF4FF0FF30C4E9DD
:10488000006703B0F0BD00BF2DE9F04F90F831E0B4
:10489000856983B00446BEF1000F1BD0D0E900014A
:1048A000994208BF904216461F463BD056EA07037E
:1048B00007D10023A3610120C4E9006703B0BDE86C
:1048C000F08F1EF0080F0AD0D4E90423BB4208BFC2
:1048D000B24204D2A561002003B0BDE8F08F236A84
:1048E000019393F83DC494F833A00CF1090C5FFADE
:1048F0008CFC16F1FF3247F1FF33CCF1200803FAAC
:1049000008FB22FA0CF242EA0B02ACF1200B23FA6C
:104910000BF31AF0400F42EA030205D0E3691A4490
:10492000A261C8E70120D7E710F1FF3941F1FF3A52
:1049300029FA0CFC0AFA08F84CEA080C2AFA0BFBD4
:104940004CEA0B0C6245534617D21EF0400F16BFBF
:10495000019BE369D3F82C34A361904604F1180954
:104960004A46B8F1000FA6D0A169206A00F07EFC8B
:1049700008F1FF380028F3D1ACE750EA0103E4D096
:10498000CCEB0202E9E700BF2DE9F04F0E4693B0F1
:1049900090F831100092054629B99A4696F83130C0
:1049A00013F0500F07D1002085F8310085F833004F
:1049B00013B0BDE8F08F1C9B03F00303012B06D05E
:1049C000022B00F00981002BEDD1012300E002232E
:1049D0001C9A02F0080213430193009B002B00F085
:1049E000FD8018460022514600F0A8FC96F83130B0
:1049F00002904BB1D6E90023134305D000220023D7
:104A0000C6E900230021B161B84A0AF10E0382FB16
:104A100003121A44DB17C3EBE203DBB24FF00009C9
:104A2000039302335FFA83FB4C464F4620220AA9C8
:104A30003046FFF741FE00283DD02028B3D19DF835
:104A400028301A0666D4002C61D13268B16907910A
:104A5000203A08920134E4B26BB3C02B00F093808B
:104A6000C12B62D0852BE1D138220021284607F0E6
:104A70009DFE9DF82C309DF8292085F83020D80621
:104A800003F0370258BF42F0080285F8312033683E
:104A9000316AB2696A62203B2962AB6296F83330B0
:104AA000C3F3801385F82C3020220AA93046FFF783
:104AB00003FE0028C1D11C9B99057FF574AF019BB3
:104AC0009A077FF570AF009B002B3FF46CAF5C45FD
:104AD0000CD386E020287FF466AF24B93268B16930
:104AE0000791203A0892DCB2A3457AD920220AA97C
:104AF0003046FFF7E1FD631C0028EBD13046B76973
:104B000000F088FD00283FF44EAFB761ECE75C454C
:104B1000A2D29FE7B9F1000F9FD15C4538BF0024B6
:104B2000852B83D14FF001099EE7C7EB0A085FFA96
:104B300088F8B8F10F0F28BF4FF00F0843463A46E8
:104B400000990AA800F018FC00283CD04744FFB2A6
:104B5000BA457FF46BAF1C9B1B053FF524AF1C9B34
:104B600013F4884F40F0A08095F833309F0700F190
:104B70009B801C9B5B053FF516AF1C9B580400F106
:104B8000B780012014E79DF82930019A85F8332079
:104B9000990703D542F0400385F83330DDE90C2353
:104BA000DDE91001C5E904230F9BEB61009BC5E91A
:104BB0000201002BCFD09DF82B30534505D04FF08C
:104BC00000094F4632E7814630E7BDF82C30029AA3
:104BD0009342F4D1002729E70323F9E6009B0293CF
:104BE00012E796F833303822C3F3801300212846A9
:104BF0000DF11C088DF8243007F0D8FD039C336AB2
:104C0000CDF80CA098E8070004F10109082485F804
:104C100031400AF11E0705F12404DDF800A02B62E3
:104C20005FFA89F984E80700FFB2002618460122DE
:104C3000414600F0D5FA044600283FF4B4AE90F99E
:104C40000030002BFFF6AFAE2022002107F0AEFDB2
:104C5000002E66D0012E54D0C6EB06130F2FA3F101
:104C60001E034FF0C102394628BF0F21DBB222706C
:104C700051B1023409B204EB4101534413F8012B42
:104C800024F8022BA142F9D10136F6B2B34529D955
:104C900020224146286A00F0BDFA01287FF483AE45
:104CA0000F3FFFB2286AC2E795F8313013F0110FB9
:104CB0007FF479AE1C9B5E057FF55FAF95F83330CE
:104CC0009C077FF570AE002200232846FFF7DCFD2D
:104CD00000283FF468AE284600F058FD00283FF455
:104CE00062AE4EE7284600F065FC61E68988888858
:104CF000D5E904232846FFF7C7FD00287FF441AF1C
:104D000051E6C0232370019B032263F03F036270CE
:104D100085F833309DF80C30E370BDF80830A3807F
:104D2000B2E7852323700C4B85F8309084F801900E
:104D30001B68002BA8D00DF117020DF11A0106A86F
:104D400098479DF81710BDF81A20BDF81830217546
:104D50002281638198E700BF00DD01202DE9F04347
:104D6000064695B096F83140039200208DF8490030
:104D70008DF84A008DF84B0034B9994691F83130DE
:104D800013F0500F0D4603D1002015B0BDE8F0839D
:104D900013782F2B144632D04FF00008214603AB76
:104DA00004AA3046FFF726FC0028EDD0039B1B78B1
:104DB000002B39D09DF81030059ACDF80080294697
:104DC0003046FFF7E1FD0028DED0344606AF06F19D
:104DD000300E20686168A268E3683D460FC5103454
:104DE00074452F46F5D120682860304600F0E2FB7C
:104DF00006AD86F8318086F83380039CCEE7013417
:104E0000039421782F29FAD0D1B1382206A80021A5
:104E10002F6A07F0CBFC4022012306AD0E978DF8D8
:104E200049208DF84B30B7E79DF81030059ACDF842
:104E3000009029463046FFF7A7FD15B0BDE8F08386
:104E4000382230462C6A07F0B1FC4023012034623E
:104E500086F8313086F8330097E700BF19B101F5C5
:104E60008861FFF77BBF0846704700BF10B500F1AF
:104E70000C0204464068A16803689B69984718B112
:104E8000237823F00103237010BD00BF00224FF0F0
:104E9000FF33027083607047F8B54568FDB18368E1
:104EA0008B42044617460E460ED00378DA0712D41A
:104EB000BB0716D504F10C0507F0010200231343CC
:104EC00023702846A660F8BD10F90C3B07F00102DC
:104ED00013432370F8BDFFF7C9FF0028E8D1002075
:104EE000F8BD6068036804F10C059B682A463146EA
:104EF00098470028E0D1F2E738B50C46D0F81C14EA
:104F0000154601EBD41100F503700022FFF7C4FF32
:104F100040B1A400C4F3080403595A1C04D02B6008
:104F2000012038BDFF2038BD002038BD38B50C4603
:104F3000D0F81C14154601EBD41100F503700122C2
:104F4000FFF7AAFF034628B1A400C4F30804012018
:104F50001D5138BD38BD00BF0378DB0701D40120E7
:104F60007047FFF783BF00BF2DE9F84F8046914699
:104F70008B46002944D08F1ED8F828349F423BD25C
:104F800007F00705012303FA05F5EDB2C7F3C80AD8
:104F90003E463C46D8F82414002201EB143140462A
:104FA000FFF77AFFC0B110F80A100AE04A452AD08C
:104FB000A74210D0D8F82824944217D213F0FF0546
:104FC0000CD001340D424FEA4503A4EB0602EDD0AC
:104FD000A7422646EED10120BDE8F88F0AF1010A6A
:104FE000BAF5007F4FF00105DDD101E0002634461F
:104FF0004FF0000A0125CDE70027BA460125C7E793
:10500000D0F81874B8E7BBF1000F04D1B9F1010F63
:1050100008BFC8F81864B01CBDE8F88FF8B504469E
:1050200000234FF0FF3600F50377C0F838144160D5
:10503000C0F810121546384684F83C34237084F8C2
:105040000C32A660C4F814621A461946FFF724FF12
:10505000042D0CD8064650B15DB905222649F01C36
:1050600007F09CFF18B996F86C30092B19D0002076
:10507000F8BD6B1E00EB031393F8BE2112F07F0204
:10508000F5D193F8C231002BF1D000EB051538466D
:10509000D5F8B6512946FFF7FFFE06460028DCD1B9
:1050A000E5E7336D2B44C4F81C34736DC4F8203429
:1050B000B36D1D44C4F82454F36DC4F82834336E22
:1050C000C4F82C3496F86D3084F83D34012509334A
:1050D00005FA03F35A1EC4F818040146C4F8343420
:1050E000C4F8302420462A46FFF73EFF402384F8C8
:1050F0003C342846F8BD00BF403B01002DE9F04795
:1051000002398046D0F8280415468A18824238D8D9
:105110009A46D8F81834BAF1000F35D1994238BF01
:10512000C8F8181401F007040122D8F8243402FA50
:1051300004F4E4B203EB1139C1F3C8060122494675
:1051400040469144FFF7A8FED8B1871900F50070DA
:1051500017F8012B224214BF01260026564582EA89
:1051600004024FEA44040CD0013D07F8012C15D08D
:1051700014F0FF04EED1B84226464FF00104E7D107
:10518000DCE70020BDE8F0879942CBD89A42C9D924
:10519000824228BF0022C8F81824C3E70120BDE8D6
:1051A000F08700BF70B582B002AE054646F8041D18
:1051B0000024D5F8283401990133994202D90020FE
:1051C00002B070BD32462846FFF796FE40B2002876
:1051D000F5DB04F10104ECD1204602B070BD00BF44
:1051E000F8B50E4696E82800D0F83014D0F82444DC
:1051F00090F83D742940023B04EB5121BB40194417
:1052000000F50370FFF748FE18B17368C3F3080395
:105210001844F8BD70B54C680D46A318D0F830148A
:105220006B6090F83D340C4009332244DBB222FA23
:1052300003F406463CB12B7A3BB12B6801332B605B
:10524000013C002CF7D1012070BDD6F82834296824
:105250000133994202D94FF0FF3070BD2A463046E3
:10526000FFF74AFE40B20128EAD070BDD0F82834DA
:1052700001338B4201D2FF207047FFF73DBE00BFD4
:1052800001290DD9D0F828340133994210B403D93B
:1052900000205DF8044B70475DF8044BFFF746BEF5
:1052A00000207047F0B50C4683B005460E46D5F891
:1052B000283401339C4202D9002003B0F0BD01AA7A
:1052C00021462846FFF718FE47B2002FF4DB012CD9
:1052D000F2D9D5F8283401339C42EDD8002221467A
:1052E0002846FFF723FE0028E6D0019B01349C42AC
:1052F0000BD1002FDBD13B46A21B31462846FFF7DE
:10530000FDFE0028D8D003B0F0BDA21B314600231B
:105310002846FFF7F3FE0028CED0019C002FCCD00A
:105320002646C4E710B50446D0F82C14FFF73AFF20
:1053300094F83D340933DBB2984010BDC9B110B4C4
:105340000144D30343EA520310F8012BA2F1610494
:10535000192C9CBF203AD2B212FA83F292B2D30334
:1053600043EA5202814292B2EBD110465DF8044BFF
:1053700070471046704700BF43B370B444887E2C1A
:105380001ED81344CD180A44023012F8013BE4B28F
:10539000A3F161011929A4F1610194BF202600261F
:1053A000192994BF202100219B1B641ADBB2E4B2AF
:1053B0009C4205D1AA4206D030F8024F7E2CE4D997
:1053C000002070BC7047012070BC704701207047FE
:1053D0008169F8B50446006A01B101310122FFF785
:1053E000C3FD012806462FD9012301461A46206A2B
:1053F000FFF784FE074638B3A06994F8333030B322
:105400005A0613D5421C964225D023F0400284F858
:105410003320E36905E0206AFFF732FFA0B1A069FD
:105420002B465D1C834219462A46F4D34FF0FF32C7
:105430003146206AFFF724FF30B1A16959B13246E5
:10544000206AFFF71DFF30B900273846F8BD43F04A
:10545000400384F83330A6613846F8BD2DE9F04F9B
:1054600000F1240B06469BE8070087B00DF10C08FD
:1054700088E807000027BA463C4600224146306AC9
:10548000FFF7AEFE5FFA87F9054630B10278C02A11
:1054900052D0C12A0BD0852A29D096F8323043F059
:1054A000010386F83230002007B0BDE8F08F1046C7
:1054B00000216A5CE30343EA540412FA84F40129EC
:1054C000A4B201F101010DD01F29F2D9CA4551D072
:1054D00020224146306AFFF79DFE012807F10107AF
:1054E000CBD0DAE785280CBF04210221E1E7304B5D
:1054F00096F831101B6890F801A001F03701818007
:10550000002BD4D0316A91F80C2242F0010281F8CC
:105510000C2202A80DF107020DF10A019847BDF80F
:105520000A20BDF808309DF807106975AA812A8203
:10553000EB816B822878BBE796F8333013F0400F8D
:10554000437814BF43F0020323F002034370D6E90B
:105550000423C0E90223D6E90223F1694161C0E9CD
:105560000623326A92F80C3243F0010382F80C32BF
:1055700000789DE759460122306AFFF731FE002886
:105580008BD0356A44802846FFF7E6FC002884D09B
:1055900005F50370FFF7E0FC00283FF47EAFD5F877
:1055A000380403685B69984700283FF476AF7BE7CF
:1055B00000DD012090F8312092B138B590F8332009
:1055C00011060FD4056A04462846FFF7C5FC88B9C2
:1055D00094F8323043F0010384F83230002038BDB3
:1055E0000120704702F07F0280F83320BDE8384088
:1055F000FFF734BF05F50370FFF7AEFC0028E7D0D6
:10560000D5F8380403685B6998470028E0D001208A
:1056100038BD00BF2DE9F04190F8313059060446FD
:1056200063D48068236AD3F834341844B0F1806FAF
:1056300002D30020BDE8F0812046FFF7C9FE002814
:10564000F7D0266A96F80C32DA0706F5037550D4BF
:10565000284606F50676FFF719FC4FF40072002184
:10566000304607F0A3F8226AA36992F83D04D2F805
:105670002414A3F10208012708FA00F817FA00F32E
:10568000884418BF002511D0D2F83804036808EB0D
:1056900005019B693246984701350028C9D0226A26
:1056A00092F83D3407FA03F3AB42EDD894F8313069
:1056B0005B0615D494F8333063F07F0384F83330FD
:1056C000D2F83464D4E90223D4E9040192194FF0EA
:1056D00000077B4180197941C4E90223C4E9040130
:1056E0002046BDE8F041FFF765BF006AFFF71AFEEC
:1056F00098E72846FFF730FC0028A9D199E700BFBA
:1057000052EA030103D090F83310890701D4002036
:105710007047C1690029FAD12DE9F8430646006AAD
:105720001D4690F83D34093312F1FF38DBB245F1E4
:10573000FF39C3F1200709FA07F7144628FA03F2E4
:10574000203B3A4329FA03F31A43571C3A46FFF722
:105750000BFC0128804606D901463A460123306AEF
:10576000FFF7CCFC10B90020BDE8F88396F8333081
:10577000C6F81C8063F03F0386F83330C6E9024563
:105780003046BDE8F843FFF715BF00BF90F833304F
:105790009A0718D5F0B5C56983B08DB103F0400301
:1057A000044603F0FF0083B9A169002941D10195A6
:1057B000E1612946206AFFF775FD30BB002000E05B
:1057C000012003B0F0BD00207047206AA16990F865
:1057D0003D34D4E902670933DBB216F1FF36C3F179
:1057E000200E47F1FF3726FA03F207FA0EFE203BA0
:1057F00042EA0E0227FA03F31A430132B1B1013D26
:105800006D1A01312A4401910ABBD4E9000194F8D0
:10581000333063F07F03C4E90201C4E9040184F872
:1058200033302046FFF7C6FE03B0F0BD0195E161BD
:10583000EAE702AA42F8040D206AFFF717FD40B21A
:105840000028BBDB0AD1019D002DDED0B1E700238B
:105850000199FFF753FC0028D7D1AFE74FF0FF3293
:10586000A169206AFFF70CFD0028ECD1A6E700BF74
:105870002DE9F04F90F8333085B09C070646019231
:105880000AD496F8323043F0010386F832304FF0F4
:10589000FF3005B0BDE8F08F1A078A4600F112818B
:1058A000019B002B00F022813146F1E80623DDF850
:1058B000048003919346306AB569D0F830445B4662
:1058C0001C40C4F308094CBB002D00F0BE8096F8C4
:1058D00033305B0640F1DD80D6E9022390F83D7459
:1058E0000937FFB212F1FF3243F1FF33C7F1200E47
:1058F00003FA0EFE22FA07F1203F23FA07F741EAE6
:105900000E01F36939430B449D42C0F0B580304627
:10591000FFF75EFD0028B4D0306AB569D0F8247472
:1059200090F83DE4640A023DE11905FA0EF52944B8
:10593000B9F1000F40F08280B8F5007F57D2D6E968
:105940000423D6E90045B8F5007F474628BF4FF449
:1059500000779D4208BF944234BF0122032200F524
:105960000370FFF799FA00288BD048443A46514615
:10597000B94402F043FFB9F5007F00F09280384649
:105980000021D6E90023D6E9044512EB000B43EBD6
:10599000010C65455A46634608BF5C45BA44C7EBEF
:1059A0000808C6E9002309D296F8331064465B461E
:1059B000C6E9043461F07F0186F83310B8F1000FB6
:1059C0007FF479AF5A466346D6E90201994208BF8F
:1059D00090427FD3474B1B68002B00F0858096F8E0
:1059E0003330019863F07F0386F8333051E7B8F520
:1059F000806F2ED3012303FA0EFEC4EB0E0ED0F8F7
:105A000014324FEA5824744528BF744699424FEA2D
:105A1000442709D862189A4206D900F5037002910A
:105A2000FFF734FA306A0299D0F838040568234643
:105A30005246EC69A0470028A1D122E7C9F50077BA
:105A4000474528BF4746012289E7F569BDB1B561E1
:105A500064E7D0F8143299422CD0D0F838040368A7
:105A600052469B69984700283FF40BAF4FF40070F3
:105A700000214FF4007784E70135B5614EE73046E9
:105A8000FFF7A6FC00283FF4FCAEB569F561306A6B
:105A900044E72946039AFFF7E9FB00287FF43CAF6F
:105AA00035E7306A00F50370FFF756FA00287FF4F7
:105AB00066AFE6E600F503700291FFF7E7F9306A9A
:105AC0000299CAE7D0E90423FEF7DEFE00283FF47E
:105AD000D8AEE5E696F83310019861F07F01C6E98B
