:1000000000000320D10100001D910000D5900000E8
:10001000D5900000D5900000D5900000D59000004C
:10002000D5900000D5900000D59000001D910000F3
:100030001D910000D5900000F1A40000F5A400007F
:100040001D9100001D9100001D9100001D910000F8
:100050001D9100001D9100001D9100001D910000E8
:100060001D9100001D9100001D9100001D910000D8
:100070001D9100001D9100001D9100001D910000C8
:100080001D9100001D9100001D9100001D910000B8
:100090001D9100001D9100001D9100001D910000A8
:1000A00045330000513300001D9100001D910000F8
:1000B0001D9100001D9100001D9100001D91000088
:1000C0001D9100001D9100001D9100001D91000078
:1000D0001D9100001D9100001D9100001D91000068
:1000E0001D9100001D9100001D9100001D91000058
:1000F0001D9100001D9100001D9100001D91000048
:100100001D9100001D9100001D9100001D91000037
:100110001D910000299700001D9100001D91000015
:100120001D9100001D9100001D9100001D91000017
:100130001D9100001D9100001D9100001D91000007
:10014000FDA800001D9100001D9100001D91000000
:100150001D9100001D9100001D9100001D910000E7
:100160001D9100001D9100005D3300001D910000F5
:100170001D9100001D9100001D9100001D910000C7
:100180001D9100001D9100001D9100001D910000B7
:100190001D9100001D9100001D9100001D910000A7
:1001A0001D9100001D9100001D9100001D91000097
:1001B0001D9100001D9100001D9100001D91000087
:1001C0001D9100001D9100001D9100001D91000077
:1001D000594B4CF2205210B51A804DF628121A8055
:1001E00000BF00BF08F09EFF544B4FF030621A6012
:1001F000534A9A60534ADA60534B4FF470021A60C4
:10020000524B534A1A60534B1A78110703D51A7888
:1002100042F008021A70504B5049AA221A70504AF4
:10022000504B8B4204D252F8040F43F8040BF8E70A
:100230004D4B4E4900228B4202D243F8042BFAE781
:100240004B494C4A002352F8230041F82300013364
:10025000742BF8D1484B494A802103F8011B934283
:10026000FBD1474B424A1A60464B8A221A70A3F5CB
:10027000805324225A70A0221A709A799207FCD5D2
:100280009A79D406FCD4404A937903F00C03082BE6
:100290003D4BF9D101221A7148225A719A79900680
:1002A000FCD5394A9179384B4906FBD5374A38494C
:1002B00011600221516020221A709A7902F00C021A
:1002C0000C2AFAD1334B344A1A60344A344C13683E
:1002D00013F4807303D123604FF4A8531360314BA0
:1002E000314A1A6000225A60072243F8042C2F4A30
:1002F000C3F80C2D62B609F041F82368DA0705D57A
:100300002B4808F09FFF2B4B2B4A1A602B4B1B7876
:100310005B0609D5274C284B22689A4204D1244811
:1003200008F090FF002323600BF09EFA08F000FF16
:100330000AF078F9FEE700BF0E2005403080044047
:10034000823F04000100002B88ED00E0002008E05F
:100350000300008502D0074000E007404843012029
:10036000943B01003037012048430120789C012054
:10037000003201200000000000E400E064E400E03E
:1003800008ED00E000500640004006404480044074
:100390000000030104800440C010050010D0034099
:1003A00014D0034014E000E0FF760100000020209C
:1003B0006C1401611CE00340A5C3945A00F007408F
:1003C000FFFFFFFFFFFFFFFFFFFFFFFFFFFFFFFF3D
:1003D000FFFFFFFFFFFFFFFFFFFFFFFFFFFFFFFF2D
:1003E000FFFFFFFFFFFFFFFFFFFFFFFFFFFFFFFF1D
:1003F000FFFFFFFFFFFFFFFFFFFFFFFFFFFFFFFF0D
:10040000FFFFFFFFFFFFFFFFFFFFFFFFDEF9FFFF23
:1004100010B5054C237833B9044B13B10448AFF33E
:1004200000800123237010BD48430120000000001C
:10043000903B0100084B10B51BB108490848AFF3C9
:1004400000800848036803B910BD074B002BFBD0A0
:10045000BDE81040184700BF000000004C430120D9
:10046000903B01004843012000000000002070473D
:10047000704700BF4FF0FF30704700BF044A054986
:100480001378002043F0200313700860704700BF0A
:100490000DC007401CD003402DE9F0410F46164621
:1004A000804602F005F9044602F0F2F8054602F033
:1004B000DFF8A4F2BC739BB27F2B02D8EAB20C2AFD
:1004C0002BD90023A8F8003002F0A2F8044602F06D
:1004D000AFF8054602F0BCF8E3B2172B02D8EBB236
:1004E0003B2B0BD900233B8002F0B2F810F0010F38
:1004F00014BF642300233370BDE8F081C3B23B2BEB
:10050000F0D8E4026B0104F4FF2403F4FF53234307
:10051000C0F3460003439BB2E5E7C0B21F28D0D822
:100520006D0105F4FF55284340EA43239BB2C9E718
:1005300010B5044B044640F8103B06F0BFFB2046C4
:1005400010BD00BFC42C010010B5054BC0F8B43479
:10055000044600F2C44006F0B1FB204610BD00BFC7
:10056000C42C010008F068BE10B504460AF070F90A
:10057000204610BD10B5002104460AF029F9B0B19B
:10058000B4F8F8379BB29BB1B4F8F437B4F8F62757
:1005900001339BB2B3F5FA7F28BF002392B2934296
:1005A0000AD003F1080244F82200A4F8F43710BD81
:1005B000BDE810400AF0C8B80AF0C6F8A3690133D4
:1005C000A36110BD70B582B002F022F8054602F0BA
:1005D0002FF8064602F03CF8054C009033462A46B8
:1005E000204604490BF0AEFF204602B070BD00BFAC
:1005F000A8920120042D010070B582B002F058F8D5
:10060000054602F045F8064602F032F8054C009027
:1006100033462A46204604490BF094FF204602B098
:1006200070BD00BFA8920120142D0100826C62B140
:10063000137803F0080303F0FF0003B3D369506994
:10064000181A48BF6FF000407047C16CC1B191F8F3
:10065000313003F0080303F0FF0083B1D1E9042334
:10066000D1E90001101A30B463EB010100256FF0ED
:1006700000448D4208BF844200D2204630BC7047FF
:1006800008467047836C13B1184605F067B8C06C14
:1006900008B103F03DBA4FF0FF307047836C13B1DF
:1006A000184605F0ADBAC06C08B104F07FB97047C8
:1006B00000B5836C83B063B1184601220DF10701C8
:1006C00004F07CFF01280CD19DF8070003B05DF811
:1006D00004FBC06C28B101220DF1070103F044F9BD
:1006E000F0E74FF0FF30F1E7836C13B1184605F0E7
:1006F000C9BAC06C08B104F0A5BB704700B5836CE3
:1007000083B08DF8071043B1184601220DF107019F
:1007100005F0B8FA03B05DF804FBC06C0028F9D00E
:1007200001220DF1070104F08DFB03B05DF804FB1D
:1007300070B5044608460D460CF022F823680246C0
:10074000294620465B68BDE87040184738B5044626
:1007500008460D460CF014F82368024629465B68EB
:10076000204698470546204609F0F6FE284438BD45
:10077000002310B4114C4172026104600372C36023
:1007800041B1194600E0026942F82310427A013370
:100790009A42F8DC0A4B1A680AB90CE01A46536907
:1007A000002BFBD15061002343618380C38083729F
:1007B0005DF8044B70471860F5E700BFAC2C0100F2
:1007C000889B01202DE9F041DFF8C8C1564E574FF4
:1007D000DCF8004035684FF0000ECCF800E0C6F8B9
:1007E00000E03E6826F080063E6088461F461646BA
:1007F00008F080FB022008F057FB404608F0AEFBF3
:100800004B494C4B0A681006FCD41A681206F9D4FE
:1008100072B64949494B4A4AD1F800E01B68126850
:10082000C868734410311344464A09681268034487
:100830000B441344C3F34E03434A4449444843F42E
:10084000004313603432D0F800E00B681268886807
:1008500073440C3113443F4A0968126803440B4443
:1008600013443D483D493E4AC3F34E0343F400431D
:1008700003603C4BD1F800E012681B68C868724402
:1008800010311A44384B09681B68DFF810E1024444
:100890000A441A44C2F34E02344B3548354942F4F7
:1008A00000421A603433096802681B6808300A4441
:1008B000006831491A44DEF80030096802441A44DD
:1008C0000A442E4BC2F34E0242F400421A6062B652
:1008D00026BB27B12A4A136843F004031360294951
:1008E000294A0B68294F2A4E2A4843F044030B60DB
:1008F0001368A1F59F4143F04403683913600B4B23
:100900003A68326804600D601A6842F080021A602A
:100910001A6842F480321A60BDE8F0811E4A1368FA
:1009200043F020031360D4E73860034000600340C5
:1009300024B0034024B00B4038B003403CB0034027
:1009400040B003404CB003402CB003405CB00340C7
:1009500058B003406CB0034030B0034038B00B4097
:100960003CB00B4040B00B404CB00B402CB00B40A7
:100970005CB00B4058B00B406CB00B4030B00B403B
:100980000CB0034020B0034020B00B4010B0034037
:1009900010B00B401060034000B0034068B00B4043
:1009A0002DE9F04387B0044601F082FE054601F0D0
:1009B0006FFE814601F05CFE064601F029FE074607
:1009C00001F036FE804601F043FE184904902246AD
:1009D0002B460591CDF800901549CDF80C80029773
:1009E000019614480BF0AEFD12480BF0C9FE01460B
:1009F000104808F043F8104809F0AEFD0D480BF020
:100A0000BFFE0E490246886C48B10A4905F03AF922
:100A10000A4809F0A1FD074807B0BDE8F083C86C9B
:100A20000028F5D0034904F00DFAF1E7383701202A
:100A30003C2D01007C920120E4380120FC93012030
:100A4000144B1549154AF0B4DA61024603C9144E35
:100A5000186096E80300134D986095E80300124C67
:100A6000D86094E803002C3A22F00102102402F12D
:100A700024074BF680360225012158625F609E6193
:100A80001D841C615C8418469A629982D982F0BCEC
:100A9000704700BFCC920120802D0100007701003B
:100AA000882D0100902D0100982D010070B504469D
:100AB00000F5926528464FF0000107F0B1FAC4F83E
:100AC0008C5425B1284606F04BFE054678B10F4EF2
:100AD0000F4D012120240D2008F0DAFB3460C820DE
:100AE00008F0FEFB2C60C82008F0FAFBF1E7D4F810
:100AF0008C14204606F066F90028E8D0054B064A1B
:100B0000A4F80655A4F804551A6070BD84F00F408F
:100B100088F00F40109A0120990400002DE9F04759
:100B20000546D0F8FC04002841D005F06FF8D5F850
:100B3000FC34002B44D0D3F81CA04FF00009D04661
:100B40005046FFF77DFF364F044600F1200E206827
:100B50006168A268E3683E460FC6103474453746A4
:100B6000F5D120686168A26807C7D5F8FC040028A1
:100B700040D0002104F040FFD5F8FC0448B34FF406
:100B80000072274905F07EF8D5F8FC0470BBD5F853
:100B9000000518B142464B4602F0D2FF05F2C440B0
:100BA00006F08CF80020A5F80405BDE8F087D5F81C
:100BB000000540B304F0D4F8D5F8FC34002BBAD1CA
:100BC000D5F800352BB3D3E904894FF00009C246AC
:100BD000B6E7D5F800050028E0D04FF400721049C0
:100BE00004F030F9D5F8FC040028D0D0514604F0C8
:100BF00003FFD3E7D5F800050028CFD0002200235B
:100C000002F09EFFB8E782464FF000084FF000095F
:100C100096E79A464FF000084FF0000990E700BFB2
:100C20007C5001202DE9F04F444C8BB02468DDF856
:100C30005090019305468A46904600F2C44B34B169
:100C4000214640F201633E4A584606F04BF8B8F19F
:100C5000000F70DDAAF10407002602AC04E005F0E5
:100C600011F80136B0451CD057F8042F35492046FD
:100C70000BF068FC20460BF083FDD5F8FC3486466B
:100C8000024621461846002BE9D1D5F800357246B8
:100C900021461846002BE4D0013604F0D3F8B045C5
:100CA000E2D1B9F1000F25DD019B00261F1F04E0F2
:100CB00004F0E8FF0136B1451CD057F8042F214954
:100CC00020460BF03FFC20460BF05AFDD5F8FC34D3
:100CD0008646024621461846002BE9D1D5F8003554
:100CE000724621461846002BE4D0013604F0AAF8DB
:100CF000B145E2D10AEB8802134920460BF022FCF1
:100D0000D5F8FC0448B12146062204F0BBFF584642
:100D100005F0D4FF0BB0BDE8F08FD5F80005002832
:100D2000F5D02146062204F08DF8584605F0C6FF9E
:100D30000BB0BDE8F08F02ACB3E700BF1C9A0120F6
:100D4000A02D0100B42D0100AC2D01002DE9F04FC4
:100D50003F4C8BB02468DDF85090002C3DD000F261
:100D6000C44B019390468A460546214658460023C7
:100D7000384A05F0B7FF80B3B8F1000FD5F8FC345E
:100D80002EDD5746002602AC0FE004F017FC0028C9
:100D9000314903DD3A4620460BF0FAFBD5F8FC3426
:100DA0000136B04507F104071BD00C222146184636
:100DB000002BEAD1D5F800050028F1D00C222146FD
:100DC00002F0D2FDE3E783B318460622214604F081
:100DD000F5FB98BB584605F071FF0BB0BDE8F08FEE
:100DE00002ACB9F1000FEEDD019E00270FE004F028
:100DF000E5FB0028184903DD324620460BF0C8FB0E
:100E0000D5F8FC340137B94506F10406DBD00C22D5
:100E100021461846002BEAD1D5F800050028F1D06C
:100E20000C22214602F0A0FDE3E7D5F8000528B129
:100E30000622214602F098FD0028CBD000230AEBC1
:100E40008802204605498DF80D300BF0A1FBC1E763
:100E50001C9A0120A02D0100BC2D01005C2D010079
:100E60002DE9F0414D4C4E4A23684E49DFF8788118
:100E70004D4E43F00053236013684C4C43F4807391
:100E800007461360152008F0CFF9494BDFF85CC125
:100E900048494948494ADFF858E120251D704FF478
:100EA0000013CCF800302360454B00248EF800403E
:100EB0006FF47F7C0C70047014701C700C71A1F5C1
:100EC00053316144047114711D710B683D4ADFF8A0
:100ED00024C143F080630B60136843F080431360C8
:100EE00001F5405102F54052AEF54B3EA0F54B30B6
:100EF000AEF57E7EA0F2F63004310C32324BC8F8EB
:100F00000040CCF80040CEF8004004600C60146053
:100F10001B68A1F55041A2F54F42F03A3B440B60EB
:100F2000136843F00403136009F0C8F923460A224A
:100F30003946304609F036FB304609F00DFB0121F9
:100F40000D2008F0A5F9214B214E1D604FF47A7059
:100F500008F0C6F91F4B204F1D6072791F4D2048C5
:100F60002049A3F5012302F0DF027271873B0222C0
:100F70003A701A7802F0F8021A701A7842F00402F5
:100F80001A702C701B78036823F0020303600B684F
:100F900043F004030B6030BFBDE8F0813C800440A7
:100FA00010D003407D040000E438012000E100E09F
:100FB00015E400E001C0074002C0074003C007403D
:100FC00004C007400070044000D0034084F00F408C
:100FD0000040064088F00F4000E0074002E0074074
:100FE00010E000E010ED00E00090044080E200E03E
:100FF00000C0074004900440F8B506460D4601F0D5
:10100000B7FA044601F004FBB789B6F818E0338A52
:10101000B18A774580B20DD988423AD3002D07DBDB
:1010200042D05D4DB2882B6813449C4280F096807C
:101030000020F8BDB84201D39842EFD3884240D295
:10104000564A574DA2FB0462120C984205FB12420D
:1010500001D3884244D30024704501D3774537D368
:10106000B84204D24FF4616000FB07F0841A0023F9
:101070000A2221464B4809F095FA4A4809F06CFAD1
:101080000F21494807F0FAFC464809F065FA204666
:10109000F8BD7045C2D3B842D2D398422CBF0022CB
:1010A0000122002ACCD0B9E7404B1A8802B333881A
:1010B0003089834203D2F26913449C421FD22846EE
:1010C000F8BD70452CBF00220122002AB8D0A5E748
:1010D00007F118044FF4616303FB04F39C1ABFE7A4
:1010E0004FF4616303FB01F39A42B4D29C1AB3E755
:1010F0002949F461012228460C601A80F8BD104489
:10110000041B2B460A2221462648294E09F04AFA9A
:10111000244809F021FA0F21264807F0AFFC2148A6
:1011200009F01AFA2B4621460A22304609F03AFA0B
:10113000304609F011FAB06C40B10F221D4904F09D
:10114000A1FD1B4809F008FA2046F8BDF06C002804
:10115000F7D00F22174903F075FEF2E71121164868
:1011600007F08CFC0F4809F0F7F9114B986C50B15F
:101170001122114904F086FD0D4809F0EDF92C60AB
:101180004FF0FF30F8BDD86C0028F5D011220A4985
:1011900003F058FEF0E700BFA492012007452EC2DD
:1011A00080510100E4380120182E010064940120D0
:1011B000FC930120082E0100F42D010070B582B0CF
:1011C0000646079C069D8DF8043002A8632CCCBF10
:1011D000A4F2B2741E3400F8082D8DF801108DF8B9
:1011E00006408DF805508DF8026001F043F9044681
:1011F00008F028F8204601F06DFA02B070BD00BF7B
:101200002DE9F043AF4D83B007F00EFC0028FBD072
:1012100007F0CEFBC4B22146AB480BF0E7F900283B
:10122000F2D03F2C0FD040F3A980612C00F0528106
:10123000782CE9D1A54809F005FC00B20028E3D0DC
:1012400003B0BDE8F08307F0EFFB0028FBD007F008
:10125000AFFBC4B221469E480BF0C8F90028D3D09A
:10126000313C432CD0D801A353F824F039160000A8
:1012700045160000511600005D160000091200001E
:1012800009120000091200000912000009120000F2
:1012900009120000091200000912000009120000E2
:1012A00009120000091200000912000009120000D2
:1012B00009120000091200000912000009120000C2
:1012C00009120000091200000912000009120000B2
:1012D00009120000091200000912000009120000A2
:1012E0000912000009120000091200000912000092
:1012F0000912000009120000091200000912000082
:101300000912000009120000091200000912000071
:101310000912000009120000091200000912000061
:1013200009120000091200000912000069160000ED
:1013300009120000091200007516000009120000D1
:101340000912000009120000091200000912000031
:101350000912000009120000091200000912000021
:101360008516000091160000091200000912000005
:101370009D16000009120000A9160000212C7FF420
:1013800043AF05F10C0696E8C00107F04DFB0028BD
:10139000FBD007F00DFBC4B221464D480BF026F9F7
:1013A00000283FF431AF313C432C3FF62DAF01A371
:1013B00053F824F0B9160000D1160000F116000011
:1013C00007170000091200000912000009120000AE
:1013D00009120000091200000912000009120000A1
:1013E0000912000009120000091200000912000091
:1013F0000912000009120000091200000912000081
:101400000912000009120000091200000912000070
:101410000912000009120000091200000912000060
:101420000912000009120000091200000912000050
:101430000912000009120000091200000912000040
:101440000912000009120000091200000912000030
:101450000912000009120000091200000912000020
:101460000912000009120000091200000912000010
:1014700009120000251700000912000009120000DF
:1014800041170000091200000912000009120000B3
:1014900009120000091200000912000009120000E0
:1014A00009120000091200009F1700001518000023
:1014B00009120000091200002F1800000912000094
:1014C000DF15000064370120282E0100E4380120D8
:1014D000302E01002B68B849B8486F2209F054F843
:1014E00022466B68B649B54809F04EF8AB68B54975
:1014F000B248722209F048F8EB68B349AF4831228C
:1015000009F042F82B69B149AC48322209F03CF8A5
:101510006B69AF49A948332209F036F8AB69AD4988
:10152000A648342209F030F8A44809F015F8AA4B6F
:10153000AA49A2486E2209F027F8FFF75DF8642255
:101540000346A7499D4809F01FF8FFF73BF87422AE
:101550000346A449994809F017F8984808F0FCFF99
:10156000964808F0F9FF17219F4807F087FA93483B
:1015700008F0F2FF40219D4807F080FA8F4808F0FC
:10158000EBFF20219A4807F079FA8C4808F0E4FF35
:101590005821984807F072FA884808F0DDFF2621A4
:1015A000954807F06BFA854808F0D6FF4521934827
:1015B00007F064FA814808F0CFFF3221904807F025
:1015C0005DFA7E4808F0C8FF2B218E4807F056FAD6
:1015D0007A4808F0C1FF794808F0BEFF14E6774862
:1015E00009F030FA041EC0F25D81172CA8BF172441
:1015F000724809F027FA061EC0F250813B2EA8BFA0
:101600003B266E4809F01EFA071EC0F245813B2FAB
:10161000A8BF3B2701F02CF8804601F039F881463D
:1016200001F046F8CDF80090019043463A46314625
:101630002046FFF7C3FDE7E5EA6873495F4808F015
:10164000A3FFE1E52A6970495C4808F09DFFDBE5EE
:101650006A696D49594808F097FFD5E5AA696A4952
:10166000564808F091FFCFE56A686749534808F08B
:101670008BFFC9E5FEF7C0FF644902464F4808F0FA
:1016800083FFC1E5544A61494C4808F07DFFBBE542
:101690002A685D49494808F077FFB5E5AA685A49C4
:1016A000464808F071FFAFE5FEF78CFF5749024648
:1016B000424808F069FFA7E5404809F0C3F900284F
:1016C000C0F2EE8018280346A8BF1823EB609BE504
:1016D0003A4809F0B7F9172E00F3BE80864205DCC0
:1016E0001828C8BF182000F3BA8006463046B6E076
:1016F000324809F0A7F9172F00F3A980874240F379
:10170000C5806F6180E52D4809F09CF94645444647
:1017100040F3A780804503DC8642C0F2B5800446D2
:101720002646B1E0254809F08DF90028C0F2C480B2
:10173000B0F5003F0346A8BF4FF400336B6063E58C
:101740001E4809F07FF9B0F5FA6F04467CDB40F6DD
:10175000B8339842A8BF1C46184809F073F9071E11
:1017600040F3A8800C2FA8BF0C27144809F06AF991
:10177000061E40F39D801F2EA8BF1F2600F048FFC5
:10178000804600F055FF814600F062FF4946024660
:101790000194404600973346FFF710FD34E51C4C9A
:1017A000261D07F005F904F8010FB442F9D1002312
:1017B00085F8243028E500BF4C2E0100E4380120D4
:1017C000602E0100742E0100882E01009C2E010065
:1017D000B42E0100C82E010084370120DC2E010048
:1017E000EC2E0100FC2E01000C2F0100242F010023
:1017F000682F01008C2F0100E82F0100103001003C
:10180000583001008C300100442E0100AC2D010045
:10181000833701202A4809F015F9002846DBB0F586
:10182000003F0346A8BF4FF400332B60ECE424488C
:1018300009F008F9002837DBB0F5003F0346A8BFE0
:101840004FF40033AB60DFE44FF4FA6484E7182808
:10185000A8BF1820074654E71828A8BF18202861F9
:10186000D2E400282ADB1828A8BF182086420ADA0A
:10187000804508DD06EB080303EBD373B0EB630F81
:10188000C8BF464600E00646AE61BDE41828C8BFA2
:1018900018273FF736AFDDE70027BBE60026B0E6A6
:1018A000002313E70024A3E60023CBE70023BCE7D3
:1018B000012663E7012758E700233FE70020D5E72B
:1018C000E4380120F0B5032083B0022107F0E0FCEA
:1018D0004F48504C504D514F514E00F01DFF237852
:1018E0000320002B00F08B802B78DA0740F18780F3
:1018F0003B6832689B1A0E2B40F2818012214948C6
:1019000007F0BCF8484808F027FE40F22521474878
:1019100008F090FE08244648FFF7C8F8454B0094AD
:10192000224645494248FFF711FA444B1B68DB0445
:1019300010D4FFF765FC0094054622463D4B3E4916
:101940003B48FFF76FF9002D04DDC5EB0510800063
:10195000FFF786FA4FF0FF313748FFF74DFB0028BD
:1019600001DDFFF77DFA00231A4604211020FEF75F
:1019700029FF334C334B344D3449354848F6A37274
:1019800040F2E73626601A600AF098FED5F8F007B4
:1019900020B108F0D9FE0023C5F8F037B5F8F647B6
:1019A000B5F8F437A4B29BB2A34210D00134A4B26C
:1019B000B4F5FA7F28BF00242346083355F82300E6
:1019C00008F0C2FEB5F8F4379BB2A342EED1012372
:1019D0000C21A5F8F6471F48A5F8F83707F04EF890
:1019E000114808F0B9FD1C4B196871B11B4A1C481D
:1019F00040F20A2303B0BDE8F04005F073B907F0E8
:101A000039FC00283FF46BAF78E703B0F0BD00BFAE
:101A100065050000689B01207C9A0120849A0120C2
:101A2000689C0120B8300100E43801200002FF1F4B
:101A300064430120403701206437012010F00F403B
:101A40000460034000600340804801208437012087
:101A50006E480120CC3001001C9A0120DC300100CE
:101A60000C9401200546D0F88C0408B50C46B8B19A
:101A700003689B6A984798B9D5F8803423B1DB791D
:101A80004BB108F01BFCFCE7D5F884341BB193F88C
:101A90004434002BF5D120461549FEF757FEF0E7F8
:101AA00014492046FEF744FED5F88C04F0B10368D3
:101AB0009B6A9847014600231022204608F072FDD9
:101AC0000D492046FEF734FED5F88C0460B103685A
:101AD000DB6A9847C1B200231022204608F062FD5D
:101AE000204608F039FDCCE70146F4E72A21E2E779
:101AF000F8300100E8300100F4300100074C08B56F
:101B000005460E4620460649FEF712FE314620469F
:101B1000FEF71CFE21462846FFF7A4FFE43801200B
:101B20000C31010070B50446B0F904050E461546A7
:101B300030B1431E9BB2012B25D903285CD070BD68
:101B400004F20A50FEF72CFF00285BD0334B1968D3
:101B500000293ED0024640F2026304F2C44005F080
:101B6000C1F8B0B3D4F8FC0428B34FF0207103F0EF
:101B7000FDFC50B34FF400723146294806F07EFE5A
:101B80000023A4F80635D4F8FC0402236D00A4F861
:101B9000043510B331462A4604F074F8A84238D10F
:101BA000B4F80635B4F908250133A4F80635EAB9C6
:101BB000B4F90405C1E7D4F8000530B14FF0207244
:101BC000002303F031F80028D4D120461549FFF74F
:101BD00095FF20461449FFF791FFD4F8000500282F
:101BE000DCD031462A4603F02DF9D7E70022032343
:101BF000A4F80825A4F804352046FEF78FFFA4F8C2
:101C0000040570BD4FF6FF73A4F804354FF0FF30A4
:101C100070BD20460549FFF771FF00BF1C9A0120E7
:101C20007C500120403101002C31010014310100B1
:101C30002DE9F047B44EB6F8F437B6F8F6179BB274
:101C400089B28B423ABF03F5FA72531A5B1A9BB200
:101C500086B0002B7AD0AD4DAD48B5F90010FFF736
:101C6000CBF9041EC0F2E98005D0AA4805F026F899
:101C70002046FFF7F5F8D6F8F007A34A002800F051
:101C800026810022A44B023A03F5807432F9021F28
:101C900023F8021F9C42F9D120B108F055FD002322
:101CA000C6F8F0379D4BB3F90030002B00F0AA8046
:101CB000B5F900009A4C002800F0E08026689948A9
:101CC000C6EB000E4FEA6E07802FB24600F3BA80D3
:101CD000002F40F31481DFF898C23346624632F990
:101CE000021B23F8021B9842F9D1DFF838A20CEB53
:101CF0000E0607F0D3FADFF83C82C8EB0A02521056
:101D0000814641468848FFF70DFF288007F0C6FA54
:101D1000864A1368C9EB00009842854B38BF1060B3
:101D20001A68C7F18007904288BF1860814B3FB1A5
:101D30000022013236F8021B23F8021B9742F8DC1E
:101D4000B5F900202360002A00F08980DFF828E23E
:101D50007948DEF80030794C0493036822680499CE
:101D600003F57A7301328B42226047D26F4EDFF85F
:101D70000C823168DFF8B091714FDEF800E0B9F8FD
:101D800006356B4DCDF814E0414588BF4FF0FF316B
:101D9000009139880291DDF814E029680191C0F8BA
:101DA00000E06849684808F0EFFB31683888B9F806
:101DB000063522680290414588BF4FF0FF310091FF
:101DC000296801916148624908F0DEFB614B624A73
:101DD00019883980614B5C4800274FF00041316021
:101DE0002F6012685E491B6808F0CEFB564808F069
:101DF000B3FB5C4A5C4B176027601F6030BF06B0C6
:101E0000BDE8F087B5F90030404E002B9EDD444C14
:101E1000DFF820812368C8EB03035A1051D14248F0
:101E2000FEF77CFE08222880504B009238493E483D
:101E3000FEF7F8FEC4F8008088E73B4B0122A3F8C8
:101E4000082518E74A4BB21E03F5807033F9021BD0
:101E500022F8021F8342F9D106F5807370E7082249
:101E60000092424B2A493048FEF7DCFE06214148E9
:101E700006F004FE344808F06FFB67E7FEF7E0FD6C
:101E800026682C4AB71A7F10002F0CDD07F1004797
:101E9000013F02EB4707931E2A3233F9021F22F853
:101EA000021F9F42F9D1234A031F283053F8041F11
:101EB00042F8041B8342F9D12C36012326602B8083
:101EC000FDE641461848FFF72DFE3080A7E7B2F83F
:101ED000F637B2F8F4279BB292B2934211D0013395
:101EE0009BB2B3F5FA7F34BF18460346083056F864
:101EF0002000C6F8F007A6F8F637021DC2E61C4E11
:101F0000F7E60246BEE600BF804801208494012027
:101F1000643701200C940120FA92012060370120DF
:101F2000343701207C92012064430120784801204D
:101F30007C4801207C52012088940120809401205B
:101F40008C9B012060310100E4380120FC930120CA
:101F5000803101000C9C01200860034004600340B4
:101F6000A03101007C940120C8920120403701205B
:101F7000FC92012058310100849A0120A0860100C2
:101F80002DE9F843DFF81881394E3A4D3A4FDFF822
:101F90001491002211464046FEF7EAFB374BC8F881
:101FA0000030102000F090FC06F11C0201213046A8
:101FB0000024FEF7DDFB324BA6F8F4473360A6F8A9
:101FC000F6472846C6F8F047A6F8F847C5F8008057
:101FD0006E602C726C72EC602C7408F005FC3A4652
:101FE0002846284908F0A2FD274B28491C714FF4C8
:101FF0007A753A461C739C64DC649D601846C3F88D
:10200000009008F093FD224B2248C3F8BC542925C8
:102010002149DFF894E0C3F880440126C3F88444E2
:1020200083F8984483F8994483F8B24483F8B84419
:1020300083F8C044C3F8FC44C3F80045A3F808453E
:1020400083F8AF544FF6FF74C3F89004C3F89C14A0
:102050003A46C3F8B4941846C3F8A4E483F8AD64D0
:10206000A3F804450D49BDE8F84308F05FBD00BF83
:10207000804801206894012030370120C0310100E0
:10208000B82C010069050000FC9301203105000017
:1020900064430120F8330100A0330100490500002A
:1020A0004C940120E82C0100011001382DE9F04189
:1020B0000468E56815F0807F794D256052D1DF070F
:1020C00040F1B380002900F0E3800D78012B18BFA8
:1020D00045F000456563013190F82C8003F1FF3C29
:1020E00048EA0828BCF1000F00F0A88021B14D7823
:1020F00011F8028B45EA082845682E7ABCF1020FD8
:1021000006F1FF364FEA06360CBF48F0805548F01E
:102110001045B6B26563ACF1020C08E00AB1147068
:102120000132013B05F47045B54216D90468E56AF1
:1021300015F0F00FF6D0A46B13F0010F17464FEA1D
:10214000242EEBD11AB107F802EB54703A4605F48D
:102150007045B542A3F10203E8D8BCF1000F6DD081
:102160000468C3E7DD074CD5002900F089800D78AD
:10217000012B18BF45F000456563013103F1FF3EB7
:1021800090F82CC0BEF1000F41D029B191F801C0E8
:102190000D78023145EA0C2C45682E7ABEF1020F0B
:1021A00006F1FF364FEA06360CBF4CF080554CF076
:1021B0001045B6B26563AEF1020E08E00AB11470C4
:1021C0000132013B05F47045B54215D90468E56A52
:1021D00015F0F00FF6D013F0010F1746A46BEDD1F8
:1021E00022B107F8024B241254703A4605F47045A8
:1021F000B542A3F10203E9D8BEF1000F07D004688D
:10220000C3E79E4690F82CC0BEF1000FBDD11BB3B2
:102210000468E16A11F0F00FFBD0A16BDC071DD55B
:102220000AB111700132013BF1E790F82C809C4615
:1022300048EA0828BCF1000F7FF458AF63B1046886
:10224000E16A11F0F00FFBD0DE07A16B0FD50AB1E8
:1022500011700132013BF1E7BDE8F0812AB114466B
:102260000D1204F8021B55702246023BCFE72AB13B
:1022700014460D1204F8025B51702246023BDDE762
:1022800090F82C50012B18BF45F00045656375E7A9
:1022900090F82C50012B18BF45F0004565631BE7F3
:1022A00000041F800BB1FFF701BF7047644A654B04
:1022B0002DE9F04F644EDFF8A0A1644CDFF8909157
:1022C000A2FB00524FEA124C0CF10407A3FB0025BD
:1022D000A6FB0062A7FB0AAB6D09D20AA3FB05634C
:1022E000A4FB0264CBEB07060BEB56065B09B608B2
:1022F0002409C6EBC606C3EB031304EB4404A5EBA9
:102300008303BE1BC5EB0515A2EBC402A0EB850041
:10231000013600248A7008704B70CE70224640F25D
:102320006D1B4FF064084FF4C87A0EE0C6EBE5155C
:102330000AFB153570BB002D14BF58464FF4B7701B
:102340000244944504F1010413D3E7B207F2B273D7
:1023500089FB0305DE17C6EB651013F0030E08FBBF
:102360001030E3D040F26D100244944504F10104B2
:10237000EBD28F71BEF1000F0FD13548DE1780FB15
:102380000340C6EB6014642505FB1434BCB34FF462
:10239000B77405E04FF4B770D2E740F26D14DE1762
:1023A0002B482C4D80FB0370C6EB6018121BC6EB4C
:1023B000E01664244FF4C87000FB163604FB18388E
:1023C000C2EB0C020120002302E00130C0B2013355
:1023D000012BDFB220D05C5D944209D80C28A2EB1F
:1023E0000402F2D10D2701320A714F71BDE8F08F5E
:1023F0000137FFB201320A714F71BDE8F08F4FF41F
:10240000C874C6EBE01004FB1030002840F26D14D5
:1024100008BF4FF4B774C3E7BEF1000F0AD1B8F19B
:10242000000F0BD1002E14BF1C241D24A24203D385
:10243000121BCAE71C24F9E70227D4E71D24F5E79D
:1024400007452EC289888888C5B3A291ABAAAAAADB
:102450001F85EB51AC3101002549922410B5034989
:102460000446FFF723FF024B1C6010BD909401202F
:102470008C9401202DE9F0413949867901FB06F160
:1024800006B306F2B27C40F2B373DFF8D8E06427FB
:102490004FF4C8780DE013F0030F09D1C2EBE51239
:1024A00008FB123204B91AB901F5A83101F5C0715F
:1024B00001338EFB0325DA17C2EB6514634507FB76
:1024C0001434E8D14779012F2FDD264C264ADFF856
:1024D0009CE006F2B27384FB0346DC17C4EB661C77
:1024E0006425C4EBE6164FF4C87405FB1C3C04FBE2
:1024F000163603F00305012307E014780133BB42CD
:102500000EFB041102F101020FD0022BF5D1002DB8
:10251000F3D1BCF1000F1BD001F5181101F56E517C
:102520000133BB4202F10102EFD143788578047890
:1025300002790E48C3EB03134FF461669B0006FB60
:1025400005332344013A00FB02300844BDE8F08122
:10255000002ED2D101F5181101F56E51E0E700BF50
:102560008033E1011F85EB51AC3101008051010046
:10257000F0B5204C204E23683268204D83B0286887
:102580000093009B9B1AB3F57A7F0FD3013000E0D4
:10259000084623680093009B02F57A729B1AB3F5F4
:1025A0007A7F00F10101F3D228603260144F3B685A
:1025B00098420FD3134B1B6863B19847124B58B91D
:1025C00012491A680B7828680033024418BF0123A7
:1025D0003A600B7003B0F0BD226801921B680B4A91
:1025E000019C28600344022134603B60117003B0F9
:1025F000F0BD00BF849A0120A4940120989401208A
:10260000A8940120A09401208C3701209C940120E3
:1026100008B5FFF7ADFF044B1B68984201D0FFF7E8
:102620001DFF024B987808BD8C94012090940120E6
:1026300008B5FFF79DFF044B1B68984201D0FFF7D8
:102640000DFF024B587808BD8C9401209094012016
:1026500008B5FFF78DFF044B1B68984201D0FFF7C8
:10266000FDFE024B187808BD8C9401209094012047
:1026700008B5FFF77DFF044B1B68984201D0FFF7B8
:10268000EDFE024B187908BD8C9401209094012036
:1026900008B5FFF76DFF044B1B68984201D0FFF7A8
:1026A000DDFE024B587908BD8C94012090940120E6
:1026B00008B5FFF75DFF054B1B68984201D0FFF797
:1026C000CDFE034B987900F2B27008BD8C940120C6
:1026D0009094012070B40A4B0A4A1B6812680A4E93
:1026E0000A4D0B49306083B010440193019C094BA3
:1026F000286002220C601A7003B070BC704700BFE3
:10270000849A01208C37012098940120A8940120FC
:10271000A49401209C9401200349044A044B0968B5
:1027200011601860FFF724BF98940120A89401203D
:10273000A094012010B5044607F09CFE204610BD71
:10274000024A0349034808F0F1B900BF30370120BD
:1027500035270000AC940120024A0349034808F0E1
:10276000E5B900BF3037012035270000B4940120BF
:10277000024A0349034808F0D9B900BF30370120A5
:1027800035270000BC940120024A0349034808F0A1
:10279000CDB900BF3037012035270000C494012097
:1027A000164A174B11681748096912790270994245
:1027B00008D2154A1278F2B1144A0121116003F1CE
:1027C000800001E01846803B114A126892B110B4B3
:1027D000104C2188402928BF402102EB41024031A2
:1027E0002180023233F8021B22F8021F9842F9D8E6
:1027F0005DF8044B704703F18000E5E7DC940120AD
:10280000203001201F800040E494012008E200E015
:10281000D8940120D09401202DE9F041054607F01D
:102820003FFF024672B6234B19887F290AD8002839
:1028300037D0214C2168002936D062B6BDE8F0417E
:1028400007F082BF1C4900200E6818800A6062B63B
:10285000DFF86CE0194FDEF800303C68DFF864C048
:10286000311D06F582780A881B1B9203D01880FB65
:102870000C344FEA840444EA937323F38F3021F835
:10288000020B88451446EED8284631460022CEF881
:1028900000303C6007F082FF3046BDE8F04107F0B1
:1028A00053BF62B6BDE8F0812060198062B6BDE812
:1028B000F08100BFD0940120D8940120D49401204D
:1028C000CC94012000B0FB3FF8B50446102006F080
:1028D00011FB022006F0E8FA082006F03FFB204634
:1028E00006F07AFB3F4B404C4049414A800303408D
:1028F00000202360086013685B0208D53D4B1A680E
:1029000048F6A273134048F6A272934258D0384951
:10291000384A0B68384F394D39483A4C43F48003F4
:102920000B604FF0010E40F23F4648F6A37140F2B3
:102930000113C7F800E02E60116014600360324A92
:10294000324C136843F0440313602046012107F022
:102950002BFD23682E4A1A600021998022792D4888
:10296000186102F1804202F5043240F201106FF06A
:10297000FF06D8809E61802502200627A826DD82DA
:10298000D960DD8398609F8398821170167007F07C
:102990009DFF2279204B214E187053119B0003F1AB
:1029A00060431F4C327003F5614302F1100002F0E6
:1029B0001F0701211B4D44F82050B9401960F8BD94
:1029C0000E4B1A6840F23F439A42A0D10A4B1B6853
:1029D000012B9CD10A4B1A6840F201139A4296D1FE
:1029E000ADE700BF00C0FF3FD4940120CC9401208C
:1029F0003C800440006003400C60034004600340DE
:102A000010600340A28F010020B00340DC9401203D
:102A100010B00340A02F0120E49401201B8000404F
:102A200000320120A1270000024A0349034808F0B0
:102A30007DB800BF3037012035270000DC9401202D
:102A4000024A0349034808F071B800BF303701203B
:102A500035270000E894012038B5074D074C084899
:102A60002A46214608F062F82A4621460548BDE874
:102A7000384008F05BB800BF303701203527000030
:102A8000F0940120F8940120024A0349034808F019
:102A90004DB800BF303701203527000000950120D8
:102AA000024A0349034808F041B800BF303701200B
:102AB0003527000008950120006910B103689B6A62
:102AC00018477047006910B10368DB6A1847704700
:102AD000006910B103681B6918477047006910B19D
:102AE00003689B6918474FF0FF307047006910B1C9
:102AF0000368DB6818477047006910B10168096B0B
:102B00000847704710B4006920B10468616B5DF834
:102B1000044B08475DF8044B704700BF006910B1D3
:102B200003689B6B1847002000217047006910B1B3
:102B30000368DB6B1847002000217047006910B163
:102B400003681B6C18477047006910B103685B6C21
:102B500018477047006910B103689B6C184701481B
:102B6000704700BFB02D0100006910B10368DB6C35
:102B70001847704738B50B6904462BB11D681946D4
:102B80002B6D9847204638BD4FF47A70064A237162
:102B90002373A06022600B692361002BF2D01A69B5
:102BA00001321A61204638BDF0310100006910B1D0
:102BB00003685B6D18477047006980B100B5036812
:102BC00083B09B6A01220DF10701984720B19DF85F
:102BD000070003B05DF804FB4FF0FF30F9E74FF05A
:102BE000FF30704710B582B002AB026803F8011DD8
:102BF000D46A19460122A04702B010BDC36D0BB1C3
:102C000001207047006E003018BF0120704700BFE0
:102C100010B50446406E18B108F07EFE00236366CE
:102C200004F12400BDE8104004F048B810B5044693
:102C3000024603690549064807F0A6FC206920B151
:102C40000368BDE810405B6A184710BDA832010058
:102C5000E4380120024603690149024807F094BCA8
:102C6000C4320100E43801202DE9F041002394B082
:102C70001A460546243104A84FF47A74254F8DF87E
:102C800004308DF80C30129313930294009704F0E3
:102C900069F8129B002B32D0682007F0D9FE044659
:102CA0009DF80460029A9DF80C301B481B4926765B
:102CB0004FF47A78002620606161E26184F8203068
:102CC00004F1240004A9267126732661C4F8088043
:102CD00003F0B8FF2369124A6761013366662E71FB
:102CE000C5F808802E732C6123612A600D4B009378
:102CF00004A803F0E3FF284614B0BDE8F081139B5D
:102D0000002BC9D1064A2B71AC602B732B612A6052
:102D1000ECE700BFE82C010050320100CC3101008B
:102D2000F0310100C42C0100C36D13B1184602F04C
:102D300015BD006E08B100F0EBBE4FF0FF307047DC
:102D4000C36D13B1184602F05BBF006E08B101F00D
:102D50002DBE704738B5446E0CB1204638BD0546CF
:102D60004FF4807008F0D0FD0146686680B1E86DD0
:102D70000C7028B14FF4807203F0D4FA6C6EECE75B
:102D8000286E40B14FF4807200F020FD6C6EE4E7D5
:102D9000024C6C66E1E70C46DFE700BF10950120AE
:102DA000C36D9BB11A7812F0700F00D1704710B547
:102DB00004460021184602F01FFE206E28B10022B2
:102DC0000023BDE8104000F0BBBE10BD006E00281F
:102DD000ECD090F8313013F0500FE7D000220023F0
:102DE00000F0AEBED0B5C46D8CB1012B08BF002A77
:102DF00001D30020D0BD1146204602F0FDFD002881
:102E0000F7D0204602F002FF0028F2D0D0BD046EB9
:102E1000002CEED0204600F093FE0028E9D020469A
:102E2000BDE8D04001F09CBFC36D13B1D86900214B
:102E30007047036E13B118695969704718461946EF
:102E4000704700BFC36D13B1586900217047036E0E
:102E500013B193E80300704718461946704700BF46
:102E6000C36D13B1184602F0A9BB006E08B100F0A3
:102E70007BBD4FF0FF307047C36D33B11B7813F04B
:102E8000700F14BF012000207047006E30B190F821
:102E9000313013F0500F14BF01200020704700BFE5
:102EA000C36D13B1184602F0EDBE006E08B101F01B
:102EB000C9BF7047C26D62B1137803F0080303F015
:102EC000FF0003B3D3695069181A48BF6FF0004080
:102ED0007047016EC1B191F8313003F0080303F07F
:102EE000FF0083B1D1E90423D1E90001101A30B405
:102EF00063EB010100256FF000448D4208BF84425E
:102F000000D2204630BC704708467047D0B4039CBE
:102F100016461F4634B1012C1ED0022C0DD00020C5
:102F2000D0BC7047C46DDCB1012B08BF002AF6D2BB
:102F300020461146D0BC02F05FBDC36DB3B1DA6963
:102F4000B61847F10007012F08BF002EE7D231461F
:102F50001846D0BC02F050BDC36D8BB15A69EFE783
:102F6000006E0028DBD0D0BC00F0EABD006E002867
:102F7000D5D0D0E9042392197B41D0BC00F0E0BD4C
:102F8000006E0028CBD0D0E9002392197B41EAE7FC
:102F90000269084B10B50446036042B11369013B56
:102FA000136123B9006910B103681B6A9847204672
:102FB00010BD00BFF031010038B5C36D144A026086
:102FC000044600F12405F3B1284603F077FE606E55
:102FD00008B108F0A1FC0F4B6361284603F06EFEB8
:102FE00022690D4B236042B11369013B136123B980
:102FF000206910B103681B6A98472046682107F0D2
:1030000029FD204638BD036E002BDDD1DFE700BF70
:1030100050320100C42C0100F031010002690A4B5A
:1030200010B50446036042B11369013B136123B933
:10303000006910B103681B6A98472046142107F005
:1030400009FD204610BD00BFF031010038B5C36D49
:10305000124A0260044600F12405D3B1284603F069
:103060002DFE606E08B108F057FC0D4B63612846D9
:1030700003F024FE22690B4B236042B11369013B2C
:10308000136123B9206910B103681B6A9847204671
:1030900038BD036E002BE1D1E3E700BF50320100E1
:1030A000C42C0100F0310100024A0349034807F033
:1030B0003DBD00BF303701203527000014950120A9
:1030C000024A0349034807F031BD00BF30370120F1
:1030D000352700001C950120024A0349034807F0E8
:1030E00025BD00BF30370120352700002495012081
:1030F000024A0349034807F019BD00BF30370120D9
:10310000352700002C950120024A0349034807F0A7
:103110000DBD00BF30370120352700003495012058
:10312000024A0349034807F001BD00BF30370120C0
:10313000352700003C950120024A0349034807F067
:10314000F5BC00BF30370120352700004495012031
:10315000024A0349034807F0E9BC00BF30370120A9
:10316000352700004C95012090F8392090F8380060
:10317000101A704790F8383090F839209A4205D9E3
:103180005A1C034480F83820187E70474FF0FF30F7
:10319000704700BF90F8383090F839209A4286BFC7
:1031A0001B18187E4FF0FF30704700BF704700BFFC
:1031B00038B50546B0F85E0090B195F85D3014461C
:1031C000C3F1210294420CD805F13B001844224679
:1031D00005F054FB95F85D30234485F85D302046BA
:1031E00038BD012014462871EEE700BFB0F85E300C
:1031F0006BB190F85D30202B07D8C218013380F8EE
:103200005D30012082F83B107047012303710020DC
:10321000704700BF38B50269D478E4B2E1060546CC
:1032200024D51023D37063061FD504F0040404F0E2
:10323000FF03002C5AD042496A6E00230B7085F8B8
:103240005D30002A66D0904795F85D30002B61D044
:103250002B69D0229A702B6995F83B201A712B6943
:10326000012285F85C200222DA7038BD04F04003A8
:1032700003F0FF00002BD8D19379DBB203F060019B
:1032800060294ED0937803F0100303F0FF01B3B12F
:1032900014F0010437D195F85C3095F85D1099422F
:1032A0004BD9591C2B4485F85C1093F83B301371B3
:1032B0002B69D0229A702B690222DA70D5E785F843
:1032C0006010937943F0200393712B6995F83910BE
:1032D0001A791F29D2B2C6D8194800780028C2D05E
:1032E0006818013185F839100276BCE72A6985F83B
:1032F0003930C02393702B69114A1979012111705B
:103300000222DA70B1E7C02393702B691A79022286
:10331000DA70AAE70122002385F85D2085F83B30AA
:1033200096E703F0DF039371AB6E23B185F83800A5
:1033300095F8390098472A69A4E71471B8E700BFE7
:10334000549501200148FFF765BF00BFFC370120FD
:103350000148FFF75FBF00BF683801200148FFF751
:1033600059BF00BF90370120704700BF10B5D0F89B
:1033700084448EB0A4B10A46684621460123002445
:103380008DF800408DF801408DF8024002F0E0F821
:1033900008B90EB010BD684603F060F90EB010BD5C
:1033A000D0F888040028F4D00A4601230146684674
:1033B0008DF831408DF832408DF8334000F0AEFE8C
:1033C0000028E6D0684601F0B5F90EB010BD00BF88
:1033D00010B5D0F884448EB07CB10A46012304F2C3
:1033E0004441684600248DF800408DF801408DF876
:1033F000024001F0EBFF0EB010BDD0F888040028A9
:10340000F9D00A46012300F5896168468DF83140FC
:103410008DF832408DF8334001F09AFB0EB010BDAC
:1034200030B5D0F884448FB074B100250A462B46DD
:10343000214668468DF800508DF801508DF80250F5
:1034400002F086F80FB030BDD0F888040028F9D01B
:103450000A462346014668468DF831408DF83240D1
:103460008DF8334000F05AFE0FB030BD38B5054638
:10347000D0F88404C0B1C469013C02F02FFED5F835
:103480008434241A43B198794FF4007303FA00F09E
:1034900080B2A0FB040138BDD5F8883463B1D3F8FD
:1034A0003C04A0FB040138BDD5F8880420B1D0F855
:1034B000304400F0F9FFE2E70020002138BD00BFF2
:1034C00030B5D0F884448FB0A4B100250A462B460D
:1034D000214668468DF800508DF801508DF8025055
:1034E00002F036F808B90FB030BD684602F056FA5F
:1034F0000FB030BDD0F888040028F4D00A46234627
:10350000014668468DF831408DF832408DF83340E1
:1035100000F004FE0028E6D0684601F077F90FB00D
:1035200030BD00BF70B5D0F884448EB01646C4B12B
:10353000002504F244440A462B46214668468DF88D
:1035400000508DF801508DF8025001F0A1FF08B92C
:103550000EB070BD32462146684602F035F90EB015
:1035600070BDD0F888040028F2D000F589650A46BD
:103570002346294668468DF831408DF832408DF853
:10358000334000F04BFD0028E2D032462946684621
:1035900001F090FB0EB070BDD0F884244AB191794F
:1035A000D0694FF400738B409BB20138A3FB00013C
:1035B0007047D0F8882432B1D2F83034D2F83C04C5
:1035C000A3FB000170470020002170472DE9F04166
:1035D000012B94B0054641D0022B01F1040140F2C9
:1035E0000223684618BF002303F050FC129B002BF7
:1035F0003DD0682007F02CFA04469DF8046022486C
:103600002249029A9DF80C30206004AF2676616151
:1036100000264FF47A78394604F12400E26184F8F8
:103620002030267126732661C4F8088003F00AFB57
:1036300023691749174A666601332E71C5F8088059
:103640002E732C61616123612A60134B009338460D
:1036500003F034FB284614B0BDE8F08144F20223A5
:103660000431684603F012FC129B002BC1D1139B5E
:10367000002BBED14FF47A71064A2B712B732B614C
:10368000A9602A6004AFE0E750320100CC310100AC
:10369000E82C0100F0310100C42C0100F0B4114B02
:1036A000114D124C1D60C3F8A04429250024104878
:1036B000104F83F8B354012683F89C4483F89D444B
:1036C00083F8B644C3F89404C3F8A87483F8B164CB
:1036D000C3F88444C3F88844074A08491846F0BC34
:1036E00007F024BA5895012070330100A03301007F
:1036F000F833010001100138303701206933000030
:10370000F8B5044600F110064068E16803683246E7
:10371000DB69984740B123789A07054607D423F020
:10372000010323702846F8BD00252846F8BD6068CF
:10373000E1680268A368D76919443246B84700288F
:10374000F2D02378EBE700BFF8B54568FDB1C36858
:103750008B42044617460E460ED00378DA0712D481
:103760007B0716D504F1100507F00302002313436D
:1037700023702846E660F8BD10F9103B07F00302FD
:1037800013432370F8BDFFF7BBFF0028E8D10020EA
:10379000F8BD6068036804F11005DB682A4631460D
:1037A00098470028E0D1F2E70378DB0701D4012035
:1037B0007047FFF7A5BF00BF10B5044601F0F6F84B
:1037C000002384F8313084F8333010BD2DE9F04304
:1037D00000F1240381460F46154693E8070085B0A3
:1037E00099F8313001AE86E80700002B3ED099F8F9
:1037F0003030012B3FD94FF001080024B8F1010F00
:1038000014BF202240223146D9F8200000F0C4FD28
:1038100001282BD100223146D9F8200000F0A2FD6A
:1038200020B30378C12B21D1391904F10F0E00E028
:10383000144630F8023F621C93B1AA4210D27E2B8C
:1038400094BFDBB23F23724501F8013BF0D108F190
:10385000010899F830305FFA88F843451446CDD80E
:10386000002320463B5505B0BDE8F08300203870AA
:1038700005B0BDE8F0830024F2E700BF90F83120E6
:103880000AB10020704738B504460D46114638226B
:1038900008F004FC4023012084F8313084F8330020
:1038A000256238BDF0B50878202803D111F8010F42
:1038B0002028FBD051600878002851D02F282BD029
:1038C0005C2820D0A0F12204E4B21D2C1DD9DFF821
:1038D00094E04E1C00247C28A0F12005374612D02D
:1038E0005E2D10D816F8010BA0F12205EDB20134BF
:1038F00078B32F2811D05C282EFA05F703D01D2DA0
:10390000E9D8FD07E7D50020F0BD164D25FA04F4EF
:10391000E607DCD50020F0BD00240F193E46254601
:103920002F2002E016F8010F01352028FAD02F28A9
:10393000F8D02944196044B1394611F8013D2E2BC5
:1039400001D0202B08D1013CF7D120461060012086
:10395000F0BD1F600F19EFE7FF2CF6DD0020F0BD72
:103960001960F3E7010100352DE9F04F90F833308D
:10397000DE0783B004465AD55D060E46934640F1F5
:10398000B880D4E90001D4E9042310EB0B0841F11D
:1039900000094B4508BF4245C0F0B180BBF1000FA4
:1039A0006ED0A146F9E806015D46276AD7F838349B
:1039B0000340C3F3080A002B68D150EA010275D115
:1039C00094F8312051064CBFD7F83424E269A26143
:1039D000D7F82C0497F845E45B0A023A191802FA62
:1039E0000EF21144BAF1000F2CD1B5F5007F29D3A6
:1039F000D7F81C22914225D0B5F5806F5DD34FF0EA
:103A0000010808FA0EF8C3EB08034FEA5528984559
:103A100028BF984691423BD808EB01039A4237D21F
:103A200007F504700191FFF7BFFE019980BB94F880
:103A300032304FF0FF3043F0020384F8323003B0ED
:103A4000BDE8F08F07F504700022FFF77DFE002827
:103A5000EDD0CAF50078A84528BFA84600EB0A01BA
:103A60004246304604F00AFF42460023D4E90001F2
:103A700080185941B5EB08054644C4E9000194D1CA
:103A80000025C5EB0B0003B0BDE8F08FA2699FE7EE
:103A9000D7F81402036832461F694346B847002826
:103AA000C5D04FEA482842460023DFE794F8332088
:103AB000520610D5A269013289E7D7F814020368CB
:103AC0003246DB6898470028B1D04FF400720023DB
:103AD0004FF40078CAE738464A46A169019300F0DE
:103AE00087FC40B20028A2DB0CD0276AA269019BA8
:103AF0006EE790F8313018073FF543AF4EE7C0EB63
:103B0000020B4BE794F8313013F0500FB9D18EE728
:103B1000F0B583B001220DF107010446D0E900673A
:103B20008569FFF721FF012808BF9DF80700A561FF
:103B300018BF4FF0FF30C4E9006703B0F0BD00BF0D
:103B40002DE9F04F90F831E0856983B00446BEF16D
:103B5000000F1BD0D0E90001994208BF90421646E1
:103B60001F463BD056EA070307D10023A36101207B
:103B7000C4E9006703B0BDE8F08F1EF0080F0AD05B
:103B8000D4E90423BB4208BFB24204D2A56100209D
:103B900003B0BDE8F08F236A019393F845C494F80D
:103BA00033A00CF1090C5FFA8CFC16F1FF3247F1DF
:103BB000FF33CCF1200803FA08FB22FA0CF242EAA8
:103BC0000B02ACF1200B23FA0BF31AF0400F42EA80
:103BD000030205D0E3691A44A261C8E70120D7E7D0
:103BE00010F1FF3941F1FF3A29FA0CFC0AFA08F802
:103BF0004CEA080C2AFA0BFB4CEA0B0C62455346C4
:103C000017D21EF0400F16BF019BE369D3F834347E
:103C1000A361904604F118094A46B8F1000FA6D0F6
:103C2000A169206A00F0E4FB08F1FF380028F3D115
:103C3000ACE750EA0103E4D0CCEB0202E9E700BFB5
:103C40002DE9F04F0E4693B090F8311000920546E2
:103C500029B99A4696F8313013F0500F07D1002059
:103C600085F8310085F8330013B0BDE8F08F1C9B58
:103C700003F00303012B06D0022B00F00981002B77
:103C8000EDD1012300E002231C9A02F00802134345
:103C90000193009B002B00F0FD8018460022514646
:103CA00000F0E4FC96F8313002904BB1D6E90023E5
:103CB000134305D000220023C6E900230021B1618F
:103CC000B84A0AF10E0382FB03121A44DB17C3EB56
:103CD000E203DBB24FF00009039302335FFA83FB88
:103CE0004C464F4620220AA93046FFF73DFE0028E9
:103CF0003DD02028B3D19DF828301A0666D4002C78
:103D000061D13268B1690791203A08920134E4B276
:103D10006BB3C02B00F09380C12B62D0852BE1D117
:103D200038220021284608F0B9F99DF82C309DF87A
:103D3000292085F83020D80603F0370258BF42F01A
:103D4000080285F831203368316AB2696A62203B23
:103D50002962AB6296F83330C3F3801385F82C30B8
:103D600020220AA93046FFF7FFFD0028C1D11C9B85
:103D700099057FF574AF019B9A077FF570AF009BA3
:103D8000002B3FF46CAF5C450CD386E020287FF419
:103D900066AF24B93268B1690791203A0892DCB263
:103DA000A3457AD920220AA93046FFF7DDFD631C1E
:103DB0000028EBD13046B76900F028FE00283FF418
:103DC0004EAFB761ECE75C45A2D29FE7B9F1000FB7
:103DD0009FD15C4538BF0024852B83D14FF001096A
:103DE0009EE7C7EB0A085FFA88F8B8F10F0F28BF03
:103DF0004FF00F0843463A4600990AA800F00AFC23
:103E000000283CD04744FFB2BA457FF46BAF1C9BFF
:103E10001B053FF524AF1C9B13F4884F40F0A08096
:103E200095F833309F0700F19B801C9B5B053FF5A5
:103E300016AF1C9B580400F1B780012014E79DF8D1
:103E40002930019A85F83320990703D542F04003C1
:103E500085F83330DDE90C23DDE91001C5E90423E1
:103E60000F9BEB61009BC5E90201002BCFD09DF8B1
:103E70002B30534505D04FF000094F4632E78146BD
:103E800030E7BDF82C30029A9342F4D1002729E79D
:103E90000323F9E6009B029312E796F833303822A9
:103EA000C3F38013002128460DF11C088DF824303F
:103EB00008F0F4F8039C336ACDF80CA098E80700EA
:103EC00004F10109082485F831400AF11E0705F1C3
:103ED0002404DDF800A02B625FFA89F984E807006A
:103EE000FFB2002618460122414600F03BFA044684
:103EF00000283FF4B4AE90F90030002BFFF6AFAECF
:103F00002022002108F0CAF8002E66D0012E54D0DD
:103F1000C6EB06130F2FA3F11E034FF0C102394663
:103F200028BF0F21DBB2227051B1023409B204EB79
:103F30004101534413F8012B24F8022BA142F9D17B
:103F40000136F6B2B34529D920224146286A00F04D
:103F500023FA01287FF483AE0F3FFFB2286AC2E73D
:103F600095F8313013F0110F7FF479AE1C9B5E058C
:103F70007FF55FAF95F833309C077FF570AE002278
:103F800000232846FFF7DCFD00283FF468AE2846F2
:103F900000F0E6FE00283FF462AE4EE7284600F04F
:103FA00005FD61E689888888D5E904232846FFF75E
:103FB000C7FD00287FF441AF51E6C0232370019B69
:103FC000032263F03F03627085F833309DF80C30B4
:103FD000E370BDF80830A380B2E7852323700E4B51
:103FE00085F8309084F801901B687BB10DF11702C1
:103FF0000DF11A0106A89847BDF81810BDF81A204F
:104000009DF8173061812281237599E745F22123BC
:104010006381E381638293E7109A01202DE9F043E5
:10402000064695B096F83140039200208DF849007D
:104030008DF84A008DF84B0034B9994691F831302B
:1040400013F0500F0D4603D1002015B0BDE8F083EA
:1040500013782F2B144632D04FF00008214603ABC3
:1040600004AA3046FFF71EFC0028EDD0039B1B7806
:10407000002B39D09DF81030059ACDF800802946E4
:104080003046FFF7DDFD0028DED0344606AF06F1EE
:10409000300E20686168A268E3683D460FC51034A1
:1040A00074452F46F5D120682860304600F07EFC2C
:1040B00006AD86F8318086F83380039CCEE7013464
:1040C000039421782F29FAD0D1B1382206A80021F3
:1040D0002F6A07F0E3FF4022012306AD0E978DF80B
:1040E00049208DF84B30B7E79DF81030059ACDF890
:1040F000009029463046FFF7A3FD15B0BDE8F083D8
:10410000382230462C6A07F0C9FF40230120346270
:1041100086F8313086F8330097E700BF19B101F512
:104120008961FFF77BBF0846704700BF90F83130C8
:1041300053B930B591F8314014F0500483B00D46B6
:1041400004D1204603B030BD00207047D5E90045BA
:10415000002504F01F042C4302D0184603B030BDE4
:1041600000921A46FFF76CFD03B030BD38B50C461F
:10417000D0F82414154601EBD41100F50470002288
:10418000FFF7E2FA40B1A400C4F3080403595A1C33
:1041900004D02B60012038BDFF2038BD002038BD81
:1041A00038B50C46D0F82414154601EBD41100F5AF
:1041B00004700122FFF7C8FA034628B1A400C4F333
:1041C000080401201D5138BD38BD00BF2DE9F84F4E
:1041D000804691468B46002944D08F1ED8F8303453
:1041E0009F423BD207F00705012303FA05F5EDB224
:1041F000C7F3C80A3E463C46D8F82C14002201EB0F
:1042000014314046FFF7A0FAC0B110F80A100AE0D6
:104210004A452AD0A74210D0D8F83024944217D269
:1042200013F0FF050CD001340D424FEA4503A4EB17
:104230000602EDD0A7422646EED10120BDE8F88F58
:104240000AF1010ABAF5007F4FF00105DDD101E066
:10425000002634464FF0000A0125CDE70027BA4674
:104260000125C7E7D0F82074B8E7BBF1000F04D1EF
:10427000B9F1010F08BFC8F82064B01CBDE8F88F81
:104280002DE9F04702398046D0F8300415468A18E7
:10429000824238D89A46D8F82034BAF1000F35D186
:1042A000994238BFC8F8201401F007040122D8F859
:1042B0002C3402FA04F4E4B203EB1139C1F3C8065A
:1042C0000122494640469144FFF73EFAD8B187198A
:1042D00000F5007017F8012B224214BF01260026BA
:1042E000564582EA04024FEA44040CD0013D07F827
:1042F000012C15D014F0FF04EED1B84226464FF041
:104300000104E7D1DCE70020BDE8F0879942CBD873
:104310009A42C9D9824228BF0022C8F82024C3E7A4
:104320000120BDE8F08700BF70B582B002AE05463F
:1043300046F8041D0024D5F8303401990133994220
:1043400002D9002002B070BD32462846FFF70EFFAA
:1043500040B20028F5DB04F10104ECD1204602B0A4
:1043600070BD00BFF8B50E4696E82800D0F83814A6
:10437000D0F82C4490F845742940023B04EB5121BD
:10438000BB40194400F50470FFF7DEF918B17368FB
:10439000C3F308031844F8BD70B54C680D46A31864
:1043A000D0F838146B6090F845340C40093322443F
:1043B000DBB222FA03F406463CB12B7A3BB12B6800
:1043C00001332B60013C002CF7D1012070BDD6F8E1
:1043D000303429680133994202D94FF0FF3070BD63
:1043E0002A463046FFF7C2FE40B20128EAD070BD2F
:1043F000D0F8303401338B4201D2FF207047FFF7F1
:10440000B5BE00BF01290DD9D0F83034013399422F
:1044100010B403D900205DF8044B70475DF8044BDD
:10442000FFF7BEBE00207047F0B50C4683B00546CE
:104430000E46D5F8303401339C4202D9002003B037
:10444000F0BD01AA21462846FFF790FE47B2002F93
:10445000F4DB012CF2D9D5F8303401339C42EDD88D
:10446000002221462846FFF79BFE0028E6D0019B4C
:1044700001349C420BD1002FDBD13B46A21B3146BD
:104480002846FFF7FDFE0028D8D003B0F0BDA21BE0
:10449000314600232846FFF7F3FE0028CED0019CCA
:1044A000002FCCD02646C4E72DE9F8430024D0F8ED
:1044B0002C64804600F504772546314600223846B4
:1044C0000136FFF741F930B300F1FF3ED8F830C4B0
:1044D0001EF8010FFF2805F5805913D048B10822B6
:1044E000012318424FEA430118BF0134013ACBB20D
:1044F000F7D10835AC450AD94D45DED01EF8010F7D
:10450000FF28EBD10835AC4504F10804F4D8C4EB1E
:104510000C00BDE8F883BDE8F88300BFF8B5044699
:1045200000234FF0FF3600F50477C0F840144160D7
:10453000C0F814121546384684F84434237084F8C1
:104540001032E660C4F81C621A461946FFF7FCF800
:10455000042D0CD8064650B15DB905222649F01C41
:1045600008F07CF918B996F86C30092B19D00020A6
:10457000F8BD6B1E00EB031393F8BE2112F07F020F
:10458000F5D193F8C231002BF1D000EB0515384678
:10459000D5F8B6512946FFF7D7F806460028DCD1F2
:1045A000E5E7336D2B44C4F82434736DC4F8283424
:1045B000B36D1D44C4F82C54F36DC4F83034336E1D
:1045C000C4F8343496F86D3084F845340125093345
:1045D00005FA03F35A1EC4F820040146C4F83C341B
:1045E000C4F8382420462A46FFF7F0FD402384F81B
:1045F00044342846F8BD00BF9033010010B504468E
:10460000D0F83414FFF790FE94F845340933DBB248
:10461000984010BD43B370B444887E2C1ED8134418
:10462000CD180A44023012F8013BE4B2A3F1610153
:104630001929A4F1610194BF20260026192994BFED
:10464000202100219B1B641ADBB2E4B29C4205D1FD
:10465000AA4206D030F8024F7E2CE4D9002070BC6C
:104660007047012070BC704701207047C9B110B479
:104670000144D30343EA520310F8012BA2F1610471
:10468000192C9CBF203AD2B212FA83F292B2D30311
:1046900043EA5202814292B2EBD110465DF8044BDC
:1046A00070471046704700BF8169F8B50446006A3C
:1046B00001B101310122FFF789FD012806462FD9FA
:1046C000012301461A46206AFFF7DAFD074638B390
:1046D000A06994F8333030B35A0613D5421C964281
:1046E00025D023F0400284F83320E36905E0206AF6
:1046F000FFF788FEA0B1A0692B465D1C83421946D6
:104700002A46F4D34FF0FF323146206AFFF77AFE93
:1047100030B1A16959B13246206AFFF773FE30B952
:1047200000273846F8BD43F0400384F83330A661D3
:104730003846F8BD2DE9F04300F12403054693E81F
:10474000070085B095F8333001AE86E807009A0778
:104750001BD5E969E9B9002401223146286AFFF72F
:1047600001FE0134E4B280B1037803F07F030370EB
:1047700095F83030A34231D3002CEDD020223146C1
:10478000286AFFF709FE0128E6D0002005B0BDE841
:10479000F0835B06286A1CD5D5E9022390F84544CE
:1047A0000934E4B212F1FF3843F1FF39C4F12007B4
:1047B00009FA07F728FA04F2A4F1200329FA03F30F
:1047C0003A431A4301320023FFF75AFD0028C2D1B1
:1047D000DBE7FFF729FE0028BDD1D6E72C6A0023CE
:1047E000204685F8313085F83330FEF7DDFF0028AC
:1047F000CBD004F50470FEF7D7FF0028C5D0D4F85D
:10480000400403689B699847C0E700BF90F83130C7
:10481000D90601D40020704710B5002288B00023CB
:104820000446FFF78DF906E0202819D19DF80030E5
:104830001A0615D433B1202269462046FFF794F8B2
:104840000028F1D194F83330082243F0020384F8B1
:10485000333084F831202046FFF76CFF08B010BDDC
:10486000002008B010BD00BF2DE9F04F00F1240B6F
:1048700006469BE8070087B00DF10C0888E80700A2
:104880000027BA463C4600224146306AFFF76AFDDF
:104890005FFA87F9054630B10378C02B51D0C12BA0
:1048A0004DD0852B09D096F8323043F0010386F8BD
:1048B0003230002007B0BDE8F08F3B4B96F8312036
:1048C0001B6890F801A002F03702828083B10DF1DD
:1048D00007020DF10A0102A89847BDF80A20BDF8A9
:1048E00008309DF807106975AA812A82EB816B82D6
:1048F000326A92F8103243F0010382F810322878BD
:1049000000216A5CE30343EA540412FA84F40129A7
:10491000A4B201F101010DD01F29F2D9CA4526D058
:1049200020224146306AFFF737FD012807F10107D1
:10493000A9D0B8E785280CBF04210221E1E7184679
:10494000DEE796F8333013F0400F437814BF43F09E
:10495000020323F002034370D6E90423C0E90223D3
:10496000D6E90223F1694161C0E90623C0E759464F
:104970000122306AFFF7F6FC002894D0356A4480A3
:104980002846FEF711FF00288DD005F50470FEF7CC
:104990000BFF002887D0D5F8400403689B6998472F
:1049A000002880D086E700BF109A012090F83120BF
:1049B00092B138B590F8332011060FD4056A044639
:1049C0002846FEF7F1FE88B994F8323043F001032F
:1049D00084F83230002038BD0120704702F07F0299
:1049E00080F83320BDE83840FFF73EBF05F504707E
:1049F000FEF7DAFE0028E7D0D5F8400403689B698B
:104A000098470028E0D0012038BD00BF2DE9F041D3
:104A100090F831305906044660D48068236AD3F890
:104A20003C341844B0F1806F02D30020BDE8F0811F
:104A30002046FFF739FE0028F7D0266A96F8103294
:104A4000DA074FD44FF0FF33002506F50878C6F893
:104A50001C3286F8105229464FF40072404607F087
:104A60001DFB226AA36992F84504D2F82C14023B7C
:104A7000834001265F1816FA00F310D0D2F84004E4
:104A800003687919DB694246984701350028CCD084
:104A9000226A92F8453406FA03F3AB42EED894F852
:104AA00031305B0615D494F8333063F07F0384F81B
:104AB0003330D2F83C64D4E90223D4E904019219DA
:104AC0004FF000077B4180197941C4E90223C4E912
:104AD00004012046BDE8F041FFF768BF006AFFF718
:104AE0008DFD9BE706F50470FEF75EFE0028A9D158
:104AF0009BE700BF91F8313013F0500F01D1002037
:104B0000704730B583B040F602251378526800959F
:104B10000446FFF795F810B9002003B030BD10230C
:104B200084F831302046FFF771FF0028F4D0A369E4
:104B3000E361002200232046FFF702F8C12320464C
:104B400084F8333003B0BDE83040FFF72FBF00BF1B
:104B50002DE9F043064695B096F8315003920020B7
:104B60008DF849008DF84A008DF84B0035B999460B
:104B700091F8313013F0500F0C4603D1002015B0DE
:104B8000BDE8F08313782F2B114636D04FF0000884
:104B900003AB04AA3046FEF785FE0028EED0039B47
:104BA0001B78002B37D09DF81030059ACDF8008087
:104BB00021463046FFF744F848B9B9F1000FDDD07F
:104BC000214604AA3046FFF795FF0028D6D0344688
:104BD00006AF06F1300E20686168A268E3683D46C2
:104BE0000FC5103474452F46F5D120682860304633
:104BF000FEF7E2FD06AC0399CAE7013103910B7899
:104C00002F2BFAD0216A06A8FEF738FE0028B5D06F
:104C1000039906ACBAE704AA21463046FFF76AFFBB
:104C200015B0BDE8F08300BF52EA030103D090F84D
:104C30003310890701D400207047C1690029FAD1D7
:104C40002DE9F8430646006A1D4690F845340933BD
:104C500012F1FF38DBB245F1FF39C3F1200709FA41
:104C600007F7144628FA03F2203B3A4329FA03F3E4
:104C70001A43571C3A46FFF7A9FA0128804606D97D
:104C800001463A460123306AFFF7FAFA10B90020CC
:104C9000BDE8F88396F83330C6F81C8063F03F0314
:104CA00086F83330C6E902453046BDE8F843FFF7E1
:104CB0007DBE00BFF0B590F831409DB0002314F0E8
:104CC000180F8DF831308DF832308DF833308DF883
:104CD00069308DF86A308DF86B3003D00B6A046A46
:104CE0009C4202D000201DB0F0BD044640F60123D6
:104CF0006846FFF793F90028F4D00EAF254604F17B
:104D0000300E28686968AA68EB683E460FC6103501
:104D100075453746F5D12868306009AB93E8070040
:104D200004F1240383E8070094F833309DF8302021
:104D300084F8302063F07F0384F833302046FFF797
:104D400035FE0028CED00021022208230EA815919E
:104D50008DF86B208DF86930FFF7ECFCC3E700BFDE
:104D600090F833309A0718D5F0B5C56983B08DB186
:104D700003F04003044603F0FF0083B9A169002952
:104D800041D10195E1612946206AFFF74DFB30BB17
:104D9000002000E0012003B0F0BD00207047206A31
:104DA000A16990F84534D4E902670933DBB216F102
:104DB000FF36C3F1200E47F1FF3726FA03F207FA58
:104DC0000EFE203B42EA0E0227FA03F31A43013299
:104DD000B1B1013D6D1A01312A4401910ABBD4E9F8
:104DE000000194F8333063F07F03C4E90201C4E9A1
:104DF000040184F833302046FFF7D8FD03B0F0BD3E
:104E00000195E161EAE702AA42F8040D206AFFF782
:104E1000EFFA40B20028BBDB0AD1019D002DDED0A5
:104E2000B1E700230199FFF72BFA0028D7D1AFE7AC
:104E30004FF0FF32A169206AFFF7E4FA0028ECD1B5
:104E4000A6E700BF2DE9F04F90F8333083B09D07FF
:104E5000044600920AD494F8323043F0010384F8F7
:104E600032304FF0FF3003B0BDE8F08F1A078946AB
:104E700000F10181009B002B00F011812146F1E837
:104E80000623DDF8008001914FF0010BCA46206A2D
:104E9000D0F838541540C5F3080945BBA16900296D
:104EA00000F0AE8094F833305B0640F1CD80D4E959
:104EB000026790F84524E3690932D2B216F1FF3651
:104EC00047F1FF37C2F1200ED64007FA0EFE203A16
:104ED00046EA0E0627FA02F2164333449942C0F01E
:104EE000A6802046FFF7E0FB0028B4D0206AA66920
:104EF000D0F82C7490F845E46D0A023EE91906FAE0
:104F00000EF63144B9F1000F73D1B8F5007F4DD2E0
:104F1000D4E90423D4E90067B8F5007F454628BFEB
:104F20004FF400759F4208BF964234BF012205220C
:104F300000F50470FEF708FC00288CD048442A468F
:104F40005146A94403F09AFCB9F5007F00F08A802D
:104F500028460021D4E90023D4E9046712184B4104
:104F60009F4208BF9642AA44C5EB0808C4E9002343
:104F700007D294F83310C4E9042361F07F0184F868
:104F80003310B8F1000F82D1D4E90201994208BF71
:104F9000904278D3434B1B68002B7ED094F833307B
:104FA000009863F07F0384F833305CE7B8F5806FD6
:104FB0002AD30BFA0EF35D1BD0F81C224FEA5823BC
:104FC000AB4228BF2B4691424FEA432508D8CE1862
:104FD000B24205D24FF0FF3280F81092C0F81C2286
:104FE000D0F8140206685246366AB0470028AFD19E
:104FF00031E7C9F50075454528BF4546012297E7C9
:10500000E669BEB1A66173E7D0F81C32994222D09E
:10501000D0F8140203685246DB69984700283FF431
:105020001AAF4FF4007000214FF4007592E74E1C48
:10503000A6615DE72046FFF737FB00283FF40BAF82
:10504000A669E661206A53E7019AFFF7D1F90028C3
:105050007FF44CAF45E74FF0FF3380F81092C0F873
:105060001C32D5E7206A00F50470FEF79DFB00288E
:105070007FF46EAFEFE6D0E90423FEF761FD002870
:105080003FF4E9AEF6E694F83310009861F07F0142
:10509000C4E9022384F83310E5E60098E3E6D4E996
:1050A000002371E7109A012038B504460D462422EA
:1050B000002106F0F3FFA560EB79102B08D0202B20
:1050C00004D1402301202370A07038BD002038BDDA
:1050D000202301202370A07038BD00BF024638B5E0
:1050E00052F8105F04462946806800F043FF50B133
:1050F00055B123690135AB42A37818BF03F0BF0354
:1051000063F07F03A37038BDA37843F04003F7E753
:105110002DE9F041037803F020032BB903F0FF04DD
:105120004169204B994203D900263046BDE8F08101
:105130000546FFF7D3FF06460028F5D0A8682B697F
:1051400087794269023BBB409F18243039460522CB
:10515000FEF7FAFA80460028E6D04FF400722146A6
:1051600006F09CFFAB681A79012A10D9012403E0EC
:10517000AB681A79A2420AD918680368E119DB6999
:10518000424698470134E4B20028F1D1CCE79B793C
:1051900069694FF4007202FA03F311FA83F36B6149
:1051A000C3E700BFFFFD1F0010B5044680680A4634
:1051B0002430A169FEF7C8FA20B1A38803F00F03D9
:1051C00000EB431010BD00BF70B590F90230002B0A
:1051D00082B0044619DBA56805F12400FEF7E4FA65
:1051E00030B9637843F001036370002002B070BDF2
:1051F00005F50D70FEF7D8FA0028F2D0286803688C
:105200009B6998470028ECD0F0E70121FFF7CCFF1D
:1052100005460028E5D00378E52BE2D023780E4A36
:105220001B0744BFE369C361236A166843831B0CF1
:10523000838266B10DF103020DF1060101A8B047AA
:10524000BDF80430BDF806202B836B82EA82A37878
:1052500003F07F03A370BEE7109A012010B5037816
:10526000044623B900232370A370012010BDFFF76B
:10527000ABFF00232370A37010BD00BF2DE9F043E6
:105280000C7814F0700F89B003D1002009B0BDE88C
:10529000F08340F6022305460C4601F0CFFA0028C1
:1052A000F3D001221023AA702B702846FFF730FF9D
:1052B0000028EAD02B782A692A62002B75D10121B7
:1052C0002846FFF771FF06460028DED01023C37280
:1052D00082687168F3680068B6F81480B6F81A90AE
:1052E0006F460FC77169B269F369306908AE0FC7BD
:1052F0002E2306F8203D0DF10A013346202203F843
:10530000012F8B42FBD1A8682B6A82794169023B4D
:105310009340194424300122FEF716FA86460028ED
:10532000B3D03746ADF81480ADF81A900FCFCEF851
:105330000000CEF80410CEF80820CEF80C300FCFC5
:10534000CEF81000CEF81410CEF81820CEF81C308D
:10535000236AADF81A302E221B0C3446ADF81430F7
:105360008DF801200FCC0EF12006CEF820007160E0
:10537000B260F3600FCC30617161B261F361AC680F
:1053800004F12400FEF710FA00283FF47EAF04F584
:105390000D70FEF709FA00283FF477AF2068036824
:1053A0009B6909B0BDE8F04318476B6933B1AB782E
:1053B000002223F02003AB702A616A612846FFF7C0
:1053C00003FF00283FF461AF79E700BF2DE9F0410A
:1053D000064692B03578019200208DF824008DF8B1
:1053E00025008DF826002DB998460B7813F0700F24
:1053F0000C4603D1002012B0BDE8F08113782F2BAA
:1054000010462AD0002701AA03A901F001F803AA37
:10541000214600230028EDD0019D2D783046002D37
:105420002DD001F00BFA48B9B8F1000FE2D02146B7
:1054300003AA3046FFF722FF0028DBD035460FCD08
:1054400009AC0FC40FCD0FC433782A68226093B91A
:105450003770B770019809ACD5E701300190037837
:105460002F2BFAD0A16809A8FFF71EFE0028C1D093
:10547000019809ACC6E73046FFF7A6FEE8E703AAA5
:1054800021463046FFF7FAFE12B0BDE8F08100BFBA
:105490002DE9F041064692B03578019200208DF852
:1054A00024008DF825008DF826002DB998460B783C
:1054B00013F0700F0C4603D1002012B0BDE8F0814C
:1054C00013782F2B104625D0002703E00198377062
:1054D000B77009AC01AA03A900F09AFF03AA2146FC
:1054E00000230028E8D0019D2D7830460DB301F04F
:1054F000A5F9354609AC0028DED00FCD0FC40FCD7D
:105500000FC433782A682260002BDFD03046FFF7C3
:105510005BFEDBE70130019003782F2BFAD08BB1D3
:10552000A16809A8FFF7C0FD0028C5D0019809AC03
:10553000CAE7434603AA2146304601F07FF912B07C
:10554000BDE8F081A1683046FFF7AEFDB5E700BFCA
:1055500019B101F24441FFF79BBF0846704700BFF5
:1055600003780BB100207047FFF79EBD09B90020FA
:10557000704738B583789B0701D4002038BD036A93
:10558000002BFAD104468068837909330D46DBB2DB
:105590000139D940013104F1200200F02DFD00282D
:1055A000EBD0A3782278E56163F01F03A37002B902
:1055B00038BD2046BDE83840FFF706BE2DE9F04F64
:1055C0008378DF0783B0054640F192800F4601786B
:1055D0000E07914600F195808C0608D582684369D4
:1055E0001289C3EB42139BB2994528BF9946B9F182
:1055F000000F00F0AC806B69AA6888064E464FF039
:10560000000805F1100AC3F3080B40D5116A01EB3D
:105610005321BBF1000F55D1B6F5007F52D3136B68
:1056200099424FD0B6F5806F74D3287880064FEA40
:10563000562B05D41079C8EB0000834528BF83465C
:1056400099424FEA4B240DD801EB0B00834209D25B
:1056500002F1240001910092FEF7A6F8009A019948
:10566000002845D0906A02685B46D2F810B03A46EE
:10567000D84700283CD06B69361B234427446B6114
:1056800065D02978AA688806C3F3080BBED492F8BF
:10569000058008EA5328BBF1000F39D1B8F1000F9B
:1056A00036D1002B40D149064CBF146A2C6A2C61BC
:1056B00091795069023C8C4008EB00012144BBF118
:1056C000000FA9D002F124000022FEF73DF878B1C6
:1056D000CBF50074B44228BF344600EB0B012246E0
:1056E000384603F0CBF8C6E72B7813F0700F2FD1B4
:1056F0006B784FF0FF3043F002036B7003B0BDE8EE
:10570000F08FC36942699B1A994528BF99466EE795
:105710002C69CDE7906A03683A46DB689847002811
:10572000E6D04FF40074A6E70B0705D5AB785C060E
:1057300002D52C690134BAE710462969524600F0B7
:10574000ADFB0028D4DBCFD0AA682C69B0E70026D7
:10575000C6EB090003B0BDE8F08F00BF70B582B0A2
:1057600001220DF10701044646690569FFF726FF8E
:10577000012808BF9DF80700666118BF4FF0FF3091
:10578000256102B070BD00BF30B54369C3F3431556
:1057900083B0044605B189B901220DF10701204605
:1057A000FFF70CFF40B201280BD163691F3363611F
:1057B000A068343000EB451003B030BD20334361A6
:1057C000F6E7002003B030BD2DE9F04105789AB02E
:1057D000002415F0180F8DF820408DF821408DF829
:1057E00022408DF844408DF845408DF8464004D065
:1057F00086688D68AE42034603D000201AB0BDE82B
:10580000F0811D4690460E46FFF7DEFCAE46BEE830
:105810000F0011AF0FC7BEE80F000FC7DEF8003052
:105820003B6021462846FFF7BFFC86460028E4D0AF
:10583000DEF80410DEF80820DEF80C30006895F879
:1058400000C06F460FC7DEF81410DEF81820DEF82F
:105850001C30DEF810000CF0080E0FC70EF0FF032E
:1058600042463146BEF1000F00F0908040F6012321
:1058700008A8FFF70DFE0028BFD00E98BDF8241031
:105880009DF823200B9BA8610026A980EA70EB609D
:10589000012128468DF820608DF82260FFF784FCF6
:1058A0000028AAD01AAB9DF80B2053F85B7DC0F8F6
:1058B0000D705F68C0F811709F68C0F81570DF68E0
:1058C000C0F819701F8A9B7CA0F81D70C377C27244
:1058D000002C39D0A86882794169A31E93401944ED
:1058E00032462430FDF730FF002886D006466F464A
:1058F00056F8200F7168B268F3680FC73069716994
:10590000B269F3690FC72146A86800F0C9FB0028F7
:105910003FF473AFA8682B6A82794169023B9340D8
:10592000194424300122FDF70FFF074600283FF4F9
:1059300064AF6C460FCC38627962BA62FB620FCCFE
:1059400038637963BA63FB6300210222082311A83C
:1059500019918DF846208DF8443000F07FFE002824
:105960003FF44BAFAC6804F12400FDF71DFF0028A5
:105970003FF443AF04F50D70FDF716FF00283FF428
:105980003CAF206803689B69984737E708A8FFF792
:105990001DFD00283FF431AF109C6EE70378DA0656
:1059A0001AD5436910B5044633B18378002223F039
:1059B000200383700261426101212046FFF7E4FE6B
:1059C00060B103786BB1E52BF6D02E2BF4D0C37AFF
:1059D0001B07F1D4002010BD002070476378002B16
:1059E000F8D1A378082243F00203A3702270204666
:1059F000BDE8104000F032BE2DE9F04103780769A0
:105A00000446B3B10D464169A9422BD045B983780C
:105A1000056123F02003A37065610120BDE8F081DA
:105A200018070AD49A060BD5A3681B89B5EB431F48
:105A300034D927610020BDE8F081E2699542F8D8A9
:105A4000D4F808E0A2789EF806000930C0B26E1EB5
:105A500012F0400F26FA00F607D0236A1E44266192
:105A60001346D6E70120BDE8F0814A1E22FA00F075
:105A7000864215D25B064CBFDEF82030236A2361D4
:105A800004F1100807E02169A06800F007FA002877
:105A900006F1FF36CDDD4246002EF4D1A378B8E7FB
:105AA0000029E7D0361AEBE72DE9F0410D46904684
:105AB0000021242204461F469DF8186006F0EEFAE5
:105AC000A8682B6AE36000F1340208F00F0302EBD0
:105AD0004312A060A4F80480D17A0D0712D401F01B
