:1000000000000320D1010000D9900000A59000005D
:10001000A5900000A5900000A5900000A59000000C
:10002000A5900000A5900000A5900000D9900000C8
:10003000D9900000A5900000659E0000699E000018
:10004000D9900000D9900000D9900000D99000000C
:10005000D9900000D9900000D9900000D9900000FC
:10006000D9900000D9900000D9900000D9900000EC
:10007000D9900000D9900000D9900000D9900000DC
:10008000D9900000D9900000D9900000D9900000CC
:10009000D9900000D9900000D9900000D9900000BC
:1000A0009D2B0000A92B0000D9900000D9900000E2
:1000B000D9900000D9900000D9900000D99000009C
:1000C000D9900000D9900000D9900000D99000008C
:1000D000D9900000D9900000D9900000D99000007C
:1000E000D9900000D9900000D9900000D99000006C
:1000F000D9900000D9900000D9900000D99000005C
:10010000D9900000D9900000D9900000D99000004B
:10011000D9900000A9950000D9900000D990000066
:10012000D9900000D9900000D9900000D99000002B
:10013000D9900000D9900000D9900000D99000001B
:1001400025A20000D9900000D9900000D9900000AD
:10015000D9900000D9900000D9900000D9900000FB
:10016000D9900000D9900000B52B0000D990000074
:10017000D9900000D9900000D9900000D9900000DB
:10018000D9900000D9900000D9900000D9900000CB
:10019000D9900000D9900000D9900000D9900000BB
:1001A000D9900000D9900000D9900000D9900000AB
:1001B000D9900000D9900000D9900000D99000009B
:1001C000D9900000D9900000D9900000D99000008B
:1001D000594B4CF2205210B51A804DF628121A8055
:1001E00000BF00BF08F07CFF544B55494FF0306210
:1001F0001A60544A9A60544ADA60544B4FF47002C1
:100200001A60534B534A1A60534B1A78100742BF77
:100210001A7842F008021A70504BAA221A70504AFB
:10022000504B8B4204D252F8040F43F8040BF8E70A
:100230004D4B4E4A0021934202D243F8041BFAE789
:100240004B4A4C48002350F8231042F82310013346
:10025000742BF8D1484B494A802103F8011B934283
:10026000FBD1474B424A1A60464B8A221A70A3F5CB
:10027000805324225A70A0221A709A799107FCD5D3
:100280009A79D206FCD4404A937903F00C03082BE8
:100290003D4BF9D101221A7148225A719A7994067C
:1002A000FCD539498A79384B5006FBD5374A38494D
:1002B00011600221516020221A709A7902F00C021A
:1002C0000C2AFAD1334B344A1A60344A344C13683E
:1002D00013F4807302BF23604FF4A8531360314BB3
:1002E000314A1A6000225A60072243F8042C2F4A30
:1002F000C3F80C2D62B608F0C7FF2368DA0705D5EE
:100300002B4808F01BFF2B4B2B4A1A602B4B1B78FA
:100310005B0609D5274C284B22689A4204D1244811
:1003200008F00CFF0023236008F0E0FE0BF06AF8F1
:1003300009F029FEFEE700BF0E2005403080044092
:10034000B0470120823F04000100002B88ED00E04F
:10035000002008E00300008502D0074000E00740CD
:100360006C38010030390120B0470120F0A0012095
:10037000003401200000000000E400E064E400E03C
:1003800008ED00E000500640004006404480044074
:100390000000030104800440C010050010D0034099
:1003A00014D0034014E000E0FF760100000020209C
:1003B00076B9D5611CE00340A5C3945A00F007400C
:1003C000FFFFFFFFFFFFFFFFFFFFFFFFFFFFFFFF3D
:1003D000FFFFFFFFFFFFFFFFFFFFFFFFFFFFFFFF2D
:1003E000FFFFFFFFFFFFFFFFFFFFFFFFFFFFFFFF1D
:1003F000FFFFFFFFFFFFFFFFFFFFFFFFFFFFFFFF0D
:10040000FFFFFFFFFFFFFFFFFFFFFFFFDEF9FFFF23
:1004100010B5054C237833B9044B13B10448AFF33E
:1004200000800123237010BDB047012000000000B0
:1004300068380100084B10B51BB108490848AFF3F4
:1004400000800848036803B910BD074B002BFBD0A0
:10045000BDE81040184700BF00000000B44701206D
:1004600068380100B04701200000000000207047FC
:100470007047FFFF70B51D4B1A6819791C4B126944
:1004800019701C4B9A4206D21B4A12783AB11B4A89
:100490000121116003E01846A3F5007301E003F5A4
:1004A0000070174A1168174A1468F1B1ECB1164D83
:1004B0002A88402A19D802F14006520011442E80A1
:1004C0002244124D0231023253F8084BB5F9006054
:1004D000344121F8024F53F8044CB5F900609842BA
:1004E00044FA06F422F8024FEED870BD04910120C0
:1004F0001F8000400004FF1F448F012008E200E03D
:10050000EC900120208F0120089901203E39012024
:100510002DE9F843089D0746164603EB01090C46F2
:100520004C450ED03B683246DB682146384698473A
:1005300004F1010830B12046099A3146A8474446E3
:10054000EEE70120BDE8F8832DE9F04105461F469E
:1005500002EB01080C4644450DD02B6806991E6A33
:100560002046B847214602462846B04701340028B5
:10057000F1D1BDE8F0810120BDE8F0814FF0FF30FE
:100580007047FFFF044A137843F020031370034BB6
:1005900000221A60704700BF0DC007401CD0034006
:1005A000826C30B562B1137803F0080303F0FF00EA
:1005B000FBB1D3695069181A1BD56FF0004018E0E1
:1005C000C06CB0B190F831301B0707D5D0E90445B5
:1005D000D0E90023A01A65EB030101E0002000210F
:1005E00000236FF000428B4208BF824201D21046C6
:1005F00030BD30BDF8B5064609F006FD044640B1F1
:1006000009F002FD054628B9204609F043FD2C46B5
:1006100000E0054672B6174B1A887F2A16D9164A8B
:1006200017681460154A1468156000221A8062B6B3
:100630003946304609F056FD384609F02BFD304664
:100640000122214609F04EFD20460DE084B10A4901
:100650000A6822B90C6009491A800D6008E062B688
:10066000204609F017FD2846BDE8F84009F012BD04
:1006700062B6F8BD08990120EC900120208F01207E
:100680002DE9F0410D461446064601F0F7FD0746F8
:1006900001F0EAFD804601F0DDFDA7F2BC739BB2DC
:1006A0007F2B10D85FFA88F20C2A0CD8C0B21F2812
:1006B00009D84FEA481808F4FF5848EA000040EA11
:1006C00043239BB200E00023338001F0A5FD0746E1
:1006D00001F0ACFD064601F0B3FDFBB2172B11D8BB
:1006E000F3B23B2B0ED8C3B23B2B0BD8FF027601E3
:1006F00007F4FF2706F4FF563E43C0F3460030439D
:1007000080B200E00020288001F09AFD10F0010F77
:1007100014BF642300232370BDE8F08110B5044B9F
:10072000044640F8103B06F0FBFC204610BD00BF1D
:10073000C427010010B5044600F59860FFF7EEFFEE
:10074000204610BD08F0F4BC0346806C08B105F0EB
:10075000E5B9D86C08B103F09DBB4FF0FF3070478E
:100760000346806C08B105F035BBD86C08B104F0C5
:1007700089B9704710B5044609F007FD204610BD41
:1007800010B5044609F02CFB204610BD10B5002121
:10079000044609F0BBFC00B3B4F8F8379BB21BB9B0
:1007A000BDE8104009F076BCB4F8F437B4F8F62789
:1007B00001339BB2B3F5FA7F28BF002392B2934274
:1007C00005D109F067FCA3690133A36110BD03F1F2
:1007D000080244F82200A4F8F43710BD73B501F004
:1007E0001BFD054601F022FD064601F029FD054CE2
:1007F000009033462A46044920460BF01DFC204653
:1008000002B070BD248F01200428010073B501F0EF
:1008100035FD054601F028FD064601F01BFD054C9F
:10082000009033462A46044920460BF005FC20463A
:1008300002B070BD248F0120132801000F4B03600C
:100840000023417202610372C3601946427A9342E7
:1008500004DA026942F823100133F7E7084A136803
:100860000BB9106004E05A690AB11346FBE75861FE
:10087000002343618380C38083727047AC270100EB
:1008800000A0012070B5044608460D460BF0F8FCA8
:1008900023680246294620465B68BDE87040184739
:1008A00038B50546FFF7EEFF0446284609F00CFB75
:1008B000204438BD38B50A220023054609F028FB3C
:1008C0000446284609F000FB204438BD254B264944
:1008D0001A6842F4004230B51A600A6842F0020217
:1008E0000A601A6842F002021A60204B1B68002B53
:1008F00037DB1F4B1B68002B33DB1E4B4FF0864250
:100900001A601A68002AFCDB1B4B1C4D002441F2C4
:1009100010021A6043F8A44CA43B0120184A43F883
:100920005C0C4FF4803143F8582C164A43F8541CA1
:1009300043F8502C144B2B60C5F8CC40134C20606E
:100940001348144C0460416013490A60134A136051
:1009500002F5DF3202F5BA724FF4C06313605360E0
:10096000136130BD3C8004404080044000F00240F0
:1009700080F0024000F1024004F1024014F0024015
:10098000010000071B1F0100001F1F1F84F0024011
:1009900088F002400100004790F0024094F00240CD
:1009A00038B5294C01210546204609F0C5F92846ED
:1009B000FFF78CFF254B26484FF480621A602368AE
:1009C000244A1A6040F20221D98004210022996051
:1009D00099824FF4807118619A80D9821E48D98318
:1009E00006219983DA609861237903F1804303F546
:1009F00004331A708C221A7009F002FC174B22790A
:100A00001870174B17481A70174A136843F01243AF
:100A100043F00103136052F8803C43F0104342F866
:100A2000803C2279114B02F1100143F8210053114F
:100A30009B0003F1604303F5614302F01F020121B3
:100A400001FA02F21A6038BD0491012014B004408A
:100A50000002FF1FA0F0024000FCFFFF448F0120B6
:100A60001B8000407504000080F00240003401202B
:100A70002DE9F843074680682DED048B013008EE20
:100A8000901A002108EE102A0AF0AEFA9FED227AA1
:100A90009FED229A06EE900AC7EE267A01200124E5
:100AA0000025064640F201184FF00009F8EE688A6A
:100AB000B8EE488AB7EE007A28EE288AC7EE888A10
:100AC00007EE904AF8EEE77A67EEA87ABDEEE78A7D
:100AD000B8EEC88A37EEC88AB4EEC78AF1EE10FACB
:100AE0000BD5F4EEC97AF1EE10FA06D517EE900A9E
:100AF0000AF0D0FA2646B0EE487A013445F10005F6
:100B00004D4508BF4445DBD1BDEC048B013E0138A7
:100B10003E607860BDE8F883001B374C00008045DC
:100B2000024A136823F40043136070473C8004407A
:100B3000024A136823F010431360704780F00240AC
:100B400070B5082A8AB00CBF002301230D46064663
:100B500014464A43014607A80993FFF789FFDDEDD4
:100B6000077A0899099A079B0195F8EE677AB7EE1C
:100B7000007A77EE877A9FED287A2848013167EE70
:100B8000877A07EE101AB8EE477A0132C7EE876A05
:100B900001330492039102932149334607EE902AD0
:100BA000B6EE007A26EE877AF8EE677A1D4AC7EE2F
:100BB000276A07EE904A07EE105AF8EEE77AB8EE89
:100BC000C77A67EE877A86EEA77ABDEEC77A8DED93
:100BD000007A09F090F914490B6823F010430B6078
:100BE000079B1B0303F47F22089BC3F30B031343F0
:100BF0000E4A13609DF8243043F0E06342F8FC3C59
:100C00009DF8243043F08E4342F87C3C0B6843F05F
:100C100010430B600AB070BD001BB74C543D01205F
:100C20002228010000D8B80580F0024004F10240FB
:100C30001346074A10B40C46116821B122465DF8EC
:100C4000044B06F081BA08465DF8044B704700BFBC
:100C5000A49E01200346806B08B104F0A3BED86BAC
:100C600008B103F055B84FF0FF30704707B50122C7
:100C70000DF107011030FFF7EDFF01280CBF9DF8C3
:100C800007004FF0FF3003B05DF804FBD0B4846B75
:100C900044B1012B08BF002A09D220461146D0BC1E
:100CA00004F06DBFC06B10B1D0BC03F009B90020D7
:100CB000D0BC70470346806B08B105F0B1BBD86B60
:100CC00008B104F06BB9704708B51030FFF7F2FFB8
:100CD00008BD07B502AB012203F8011D103019460B
:100CE000FFF7E8FF03B05DF804FBFFFF2DE9F047D5
:100CF00086B0054601F0C2FA064601F0B5FA07468D
:100D000001F0A8FA804601F087FA814601F08EFAD8
:100D1000824601F095FA0C4C0C4B05932A4633465B
:100D200004908DE880070A4920460BF085F921469A
:100D30000848FFF7B5FD21460748FFF7B1FD2046FB
:100D400006B0BDE8F08700BFF48E012038390120DD
:100D500039280100543D01208090012038B51F4CF6
:100D60001F49054620460BF023FA1E4904F10800EE
:100D70000BF01EFA1C4904F10C000BF019FA1B4988
:100D800004F124000BF014FA6FF07F0020766FF06E
:100D90004400607677206077A5F12C00012220F0D6
:100DA0000100002310212275A275A277A062022201
:100DB0002430606021746374A374E3746375E37515
:100DC000A376E3762377E37784F8202084F8213034
:100DD00084F8221084F82330204638BD4C8F01203F
:100DE0007A2801007F280100842801008928010059
:100DF0002DE9F047044690B0C82008F02FFADFF83C
:100E00004081DFF840910026FF23002104F5926520
:100E100084F8B03484F8BC14284607F06FFBC4F89B
:100E20008C54284606F060FF0746E0B101210D20F2
:100E300008F0C4F920270825BA46C820C8F800A041
:100E400008F00CFAC9F80070C82008F007FA013D54
:100E5000F3D141F2883008F001FA314B4FF480624F
:100E600001361A60D0E7D4F88C14204606F0DAF97F
:100E70000028DBD004F59A652A4A2B4902A80BF01A
:100E8000DBF802A940F209222846FFF7D1FE01F063
:100E9000F5F9804601F0E8F9814601F0DBF94B46AF
:100EA00042460090214908A80BF0C6F808A80BF0AC
:100EB000E7F908A902462846FFF7FCFE01F0ACF965
:100EC000804601F0B3F9814601F0BAF94B4642463B
:100ED0000090174908A80BF0AFF808A80BF0D0F95C
:100EE00008A902462846FFF7E5FE3246114908A840
:100EF0000BF0A2F808A80BF0C3F908A9024628468F
:100F0000FFF7D8FE284606F00BF90B4A0B4BA4F866
:100F100012751A60A4F8107510B0BDE8F08700BF14
:100F200014B00440843901208E2801009A28010061
:100F3000AA280100BA28010081060000989E01201D
:100F400084F00F4088F00F4070B5044600F59A66B3
:100F5000D0F8080510B105F02FFA04E0D4F80C051C
:100F600008B103F0BBFFD4F808350BB1DD6905E02B
:100F7000D4F80C350BB11D6900E000252846FFF7B9
:100F8000EDFE104B00F12C0250F8041B43F8041B3B
:100F90009042F9D1002300223046FFF777FE09493D
:100FA0004FF400723046FFF785FE2A460023304694
:100FB000FFF76CFE304606F0B3F80020A4F81005E9
:100FC00070BD00BFF44C01202DE9F04700F59A6791
:100FD00088B00446884691462049109E40F201623E
:100FE00038469A46FFF724FE002504F598644D45DF
:100FF00001DB00250FE058F82520194968460BF061
:101000001BF868460BF03CF9694602462046FFF79C
:101010005BFE0135EBE7B5420FDA5AF8252010499F
:1010200068460BF009F868460BF02AF96946024653
:101030002046FFF749FE0135EDE708EB8902094933
:1010400068460AF0F9FF062269462046FFF73CFE93
:10105000384606F065F808B0BDE8F087C128010001
:10106000BA280100CC2801002DE9F04300F59A646C
:1010700089B00F4690462049109E0022204699468E
:10108000FFF7D6FDA8B30025454501DB00251CE090
:101090000C2269462046FFF7DDFD002805DD07EB41
:1010A0008502164968460AF0EDFF0135ECE70C228F
:1010B00069462046FFF7CEFD002805DD09EB8502D5
:1010C0000E4968460AF0DEFF0135B542EFDB062225
:1010D00069462046FFF7BEFD40B1002307EB8802BA
:1010E00007498DF8053068460AF0CCFF204606F027
:1010F00017F809B0BDE8F083C1280100D12801002C
:1011000059280100064A136843F000531360A2F502
:1011100030422C3A136843F480731360704700BF69
:101120003C800440054B064A1B681844054B186078
:10113000136843F004031360704700BF00D00340FE
:101140001CD0034008D0034070B50646FFF7DAFF15
:101150003149152007F0E4FF304B314A20251D703E
:101160004FF400131360A2F5C072002413602D4BDE
:101170002D4A1C705C709C70DC701C715C719C71E1
:10118000DC711D72136843F08063136052F8043CF5
:1011900043F0804342F8043C244B1C605C609C603C
:1011A000DC600C3303F6FC731C6030465C60FFF7B8
:1011B000B9FF08F055FD31461D48FFF77BFB0121C3
:1011C0000D2007F0FBFF1B4B4FF47A701D6008F0F9
:1011D00045F8194B194A1D60537903F0DF03537129
:1011E000174B02221A705A7802F0F8025A705A7895
:1011F00042F004025A70134A01331470124A1B78E9
:10120000136823F002031360D2F8003D43F0040397
:10121000C2F8003D30BF70BD8505000015E400E058
:1012200080E200E000C007400470044000900440E9
:10123000543D012084F00F4088F00F4000400640EC
:1012400000E0074002E0074010E000E0F8B5074684
:101250000D4600F09FFF044600F0DEFFB7F80CE0FB
:10126000B7F818C03B8AB98AE64586B207D98E42DC
:1012700010D266450ED376450ED39E4206E07645E3
:1012800001D39E4206D38E4206D366452CBF002270
:10129000012202E0012200E0002290B2002836D0B4
:1012A000002D61DB11D0324DBA882B6813449C426B
:1012B0005AD330493048FFF7F3FA2E492F48FFF749
:1012C000EFFA2C604FF0FF30F8BD2D4B1A882AB989
:1012D00001221A80264BFC611C6047E03A8838895D
:1012E000824243D2FB691A4494423FD31844041B00
:1012F00021462148FFF7DEFA22491F48FFF7D0FABE
:1013000021461E48FFF7D6FA1E491C4828E01E4A0F
:10131000B4FBF2F59E4202FB154208D38E4206D280
:101320004FF461634B439A4201D29C1A00E0044699
:10133000664508D3E6453FBF0EF118044FF46163DC
:1013400003FB04F18C1A76453EBF4FF4616303FB47
:101350000EF0841A21460848FFF7ACFA0B490648FC
:10136000FFF79EFA2046F8BD0020F8BD2846F8BDDC
:101370001C8F0120E8280100543D012080900120AD
:10138000E8900120FA280100805101000A2901009B
:1013900013B5059C8DF80200632C02A8CCBFA4F203
:1013A000B2741E3400F8082D8DF80640049C8DF8A8
:1013B00004308DF801108DF8054000F06BFE0446F6
:1013C00007F0BCFE204600F0C5FE02B010BD914201
:1013D00007DA814203DC9042A8BF104670470846F6
:1013E0007047824202DA8142C8BF10461828A8BF5F
:1013F00018207047914210B507DA814203DC904211
:10140000A8BF104610BD084610BD20EAE070984203
:10141000A8BF1846904209DD884207DA8B180224DB
:1014200093FBF4F39842CCBF0846104610BDFFFF73
:101430002DE9F7439C4C07F0C1FC0028FBD007F0D6
:101440007BFCC5B2294699480AF04AFE0028F2D032
:101450003F2D10D008DC212DEDD1E768D4F8109095
:10146000D4F81480904E46E0612D00F02B81782D49
:1014700000F01081DFE707F0A1FC0028FBD007F0A7
:101480005BFCC5B229468A480AF02AFE0028D2D061
:10149000612D1FD00CDC322D24D003DC312DCAD1BC
:1014A000E26818E0332D1FD0342DC4D1A26912E0B8
:1014B0006F2D0DD005DC642D18D06E2DBBD17D4A6B
:1014C00017E0722D0CD0742DB5D1FFF787F90FE01E
:1014D000226800E062687849784808F00CFDAAE7C5
:1014E000A268F8E72269F6E76269F4E7FFF78EF988
:1014F00002467349F0E707F061FC0028FBD007F0D3
:101500001BFCC5B229466A480AF0EAFD002892D0C1
:10151000612D5ED01CDC322D6FD00ADC312D8AD1DA
:10152000664808F018FF18220021FFF750FFF0600E
:1015300081E7332D6AD0342D7FF47DAF5F4808F00A
:101540000AFF18233A464146FFF754FFB06172E79D
:101550006F2D34D006DC642D6ED06E2D7FF46BAF12
:1015600000255CE0722D3ED0742D7FF464AF5348AB
:1015700008F0F1FE17220021FFF729FF05464F482A
:1015800008F0E9FE3B220021FFF721FF06464B4809
:1015900008F0E1FE3B220021FFF719FF074600F0AB
:1015A00059FE804600F060FE814600F067FECDF8EF
:1015B000009001904346BAB2B1B2A8B267E03F488A
:1015C00008F0C9FE4FF400320021FFF700FF306041
:1015D00031E73A4808F0BFFE4FF400320021FFF730
:1015E000F6FE706027E7354808F0B5FE4FF400328C
:1015F0000021FFF7ECFEB0601DE7304808F0ABFEBD
:1016000018223946FFF7E3FE306114E72B4808F053
:10161000A2FE18224946FFF7DAFE70610BE707F0D9
:101620008BFB73190135042D83F82000F7D11E4B75
:10163000002283F82420FEE6204808F08CFE40F6C5
:10164000B8324FF4FA61FFF7C2FE06461B4808F0B5
:1016500082FE0C220121FFF7BAFE0546174808F06A
:101660007AFE1F220121FFF7B2FE814600F0D4FD71
:10167000074600F0DBFD804600F0E2FDB6B2ADB2F9
:101680000246019600951FFA89F341463846FFF756
:101690007FFED0E6094808F05EFE00B200283FF465
:1016A000CAAE03B0BDE8F083643901201A290100F5
:1016B0001F2901008439012032290100543D0120F5
:1016C000CC2801002368364936486F2208F013FC05
:1016D0006368354933482A4608F00DFCA36833494E
:1016E0003048722208F007FCE36831492D48312266
:1016F00008F001FC23692F492A48322208F0FBFB3D
:1017000063692D492748332208F0F5FBA3692B496B
:101710002448342208F0EFFB224808F0D5FB284B80
:10172000284920486E2208F0E6FBFFF76FF8642294
:10173000034625491B4808F0DEFBFFF74FF87422EB
:1017400003462249174808F0D6FB164808F0BCFBB0
:10175000144808F0B9FB1E491248FFF7A1F81D49CB
:101760001048FFF79DF81C490E48FFF799F81B49F0
:101770000C48FFF795F81A490A48FFF791F81949FC
:101780000848FFF78DF818490648FFF789F8174908
:101790000448FFF785F8034808F096FB4BE600BFC6
:1017A00039290100543D01204A2901005C2901002A
:1017B0006E2901008229010097290100AB2901004F
:1017C00084390120BE290100CB290100D82901005C
:1017D000E5290100FD2901003E2A01005F2A0100E0
:1017E000B82A0100DF2A0100252B0100582B010037
:1017F00073B50221032007F0E1FC4648464C474DF3
:10180000474E00F043FD2378002B7BD02B78DA077E
:1018100078D5444A336812689B1A0E2B72D9424914
:101820004248FFF73DF840F22521414808F0B4FB5B
:101830000825FFF77DF93F48FFF7DAFA3E4B0095A0
:101840002A463E493B48FFF70FFC3D4B1B68DB0433
:1018500010D4FFF7EDFD00950446374B3749354866
:101860002A46FFF7B1FB002C04DDC4EB0410800016
:10187000FFF76AFC4FF0FF313048FFF7E7FC002824
:1018800003DDFFF74DF9FFF75FFC022220214BF645
:101890008030FFF755F92B4D2B4B2C492C480C224F
:1018A0001A800AF085FCD5F8F00720B108F0F2FBA9
:1018B0000023C5F8F037B5F8F647A4B2B5F8F43709
:1018C000204A9BB29C420CD00134A4B2B4F5FA7FFA
:1018D00028BF002404F1080355F8230008F0DAFBC0
:1018E000ECE70123A2F8F6471A49A2F8F8370F48A7
:1018F000FEF7D6FF40F20A2217491848FFF798F979
:1019000002B070BD032007F04BFC00283FF47BAF12
:1019100085E700BF45070000E79F0120009F0120E9
:10192000049F0120E0A00120842B0100543D0120F0
:101930000006FF1FCC4701204039012064390120F7
:1019400010F00F400C9101203E3901208439012014
:10195000E24C0120972B0100A42B01009090012064
:101960000546D0F88C0408B50C4640B91F492046FE
:10197000FEF788FFD5F88C0430B92A2108E0036807
:101980001B6B9847F8B1F1E703681B6B984701465A
:1019900000231022204608F0BBFA15492046FEF726
:1019A00071FFD5F88C0420B103685B6B9847C1B216
:1019B00000E0014600231022204608F0A9FA204644
:1019C00008F082FA0EE0D5F880340BB1DB7904E040
:1019D000D5F8843413B193F844341BB90549204633
:1019E000FEF75EFF08F03CF9FCE700BFB02B0100FA
:1019F000BC2B0100C02B0100074C08B505460E4664
:101A000020460649FEF73EFF31462046FEF748FFD6
:101A100021462846FFF7A4FF543D0120D12B0100A9
:101A2000B0F9103570B504460E4615469BBB00F262
:101A30001650FFF75BF9014630B94FF6FF73A4F873
:101A400010354FF0FF3070BD40F2026204F59A602D
:101A5000FFF7EEF808B9294930E0D4F8080520B1BD
:101A60004FF0207104F065FB08E0D4F80C05002865
:101A700041D04FF02072002303F015F9D8B34FF492
:101A8000007231461E4807F061F80123A4F81035B2
:101A90000023A4F81235B4F81035013B9BB2012B9A
:101AA0001DD802236D00A4F810352A46314604F5EE
:101AB0009A60FFF7FFF8854203D012492046FFF7EE
:101AC0009BFFB4F812350133A4F81235B4F914357C
:101AD0002BB10023A4F814350323A4F81035B4F96E
:101AE0001035032B04D12046FFF72EFAA4F8100579
:101AF000B4F9100570BD0449E0E700BFD92B01001F
:101B0000F44C0120EA2B0100012C01002DE9F047E3
:101B1000A34CB4F8F437B4F8F6179BB289B28B42F1
:101B20003ABF03F5FA72531A5B1A9BB286B0002BC8
:101B300000F0E8809B4D9C48B5F90010FFF786FB4C
:101B4000061E04DA994B0122A3F8142508E007D0F9
:101B5000FEF7E6FF964805F0E3FA3046FFF7F4FAA1
:101B6000D4F8F0278E49BAB9B1F8F637B1F8F417BE
:101B70009BB289B28B4211D001339BB2B3F5FA7F8D
:101B800028BF002303F1080254F82220C4F8F027EC
:101B9000A4F8F637131D02E0002300E01346854940
:101BA000002233F9120021F812000132802A814EFE
:101BB000F7D1D4F8F00728B108F06CFA784B00227E
:101BC000C3F8F0277C4BB3F90030002B7DD0B5F97A
:101BD00000407A4FECB92046FFF7C0F83968784AE0
:101BE0008B1A5B10002B01DC002309E0A2F1020E2E
:101BF00001343EF802CFAEF82CC0A342F8D1F3E78F
:101C0000C458D45004332C2BFAD12C310123396021
:101C10002B80D7F800906B49C9EB0101491080294E
:101C20004FF0000309DD36F9132029F813200133A2
:101C3000802BF8D109F5807237E08B4205DA36F94E
:101C4000132029F813200133F7E721EAE1735C0040
:101C500006EB0408C1F1800607F0E2FA09EB040282
:101C6000574C121B5210824621465048FFF7D8FEAF
:101C7000288007F0D5FA544B1A68CAEB000090424E
:101C800038BF1860514B1A68904288BF18605EB127
:101C90000023581C41006218023938F8133063528F
:101CA00086420346F5DC00E0454AB5F900303A606B
:101CB00043BB08220092464B3B493C48FFF784F95E
:101CC00044494548FEF7ECFD1CE0B5F90030002B17
:101CD00018DD3A4B3A4C1A68121B52101E4605D0BA
:101CE00021463248FFF79CFE2E4B18802F48FFF705
:101CF0002BF908222880364B00922B492B48FFF7FE
:101D000063F93460354836490368364D04930B68EF
:101D10002A68049C03F57A730132A3422A603BD2FD
:101D20000368294C304F0593059BDFF880900B60CA
:101D300038882168254EDFF8CC80B9F8123502903A
:101D400030680190414588BF4FF0FF310091224833
:101D5000264908F0D0F822683988B9F8123502917E
:101D600031680191424588BF4FF0FF3200922A68E6
:101D70001F49204808F0BFF81F4B17481B883B80BD
:101D80004FF0004323600024346008F09DF81B4BA3
:101D90002C601C601A4B1C6030BF06B0BDE8F08799
:101DA0000C9101201099012064390120CC470120B9
:101DB00090900120808F012060390120343901206A
:101DC000F44E0120F48E0120EC4C0120F04C012057
:101DD00040390120192C0100543D0120049F0120AD
:101DE000149901207C8F012004A00120202C0100E7
:101DF0003D2C01008090012084A001200C9901203D
:101E0000488F0120A08601002DE9F041394FDFF80D
:101E10002081394939483A4E3A4D3A4608F002FB9A
:101E2000002211464046FEF709FD374BC8F8003046
:101E30004046FEF7B5FD06F11C02012130460024A4
:101E4000FEF7FCFC314B3360A6F8F447C6F8F047C8
:101E5000A6F8F6472846A6F8F847C5F800806E6051
:101E60002C726C72EC602C7408F05DF93A462849CB
:101E7000284608F0D7FA2748274D04714FF47A76A0
:101E80003A46866004738464C4642449056008F09B
:101E9000C9FA2348234BC0F89034234BC0F89C3434
:101EA000012380F8A934292380F8AB3480F89844C2
:101EB00080F8994480F8AE4480F8BC4480F8C4446B
:101EC00080F8CC44C0F88044C0F88444C0F8C864AA
:101ED000C0F80845C0F80C45C0F8C0544FF6FF7371
:101EE000A0F814453A461149A0F81035BDE8F04174
:101EF00008F098BA303901208107000004910120D0
:101F00000C910120F0900120642C0100B827010001
:101F10007507000080900120E82701001D070000E0
:101F2000CC4701200C310100AC3001003507000026
:101F3000D09001203C232DE9F041B0FBF3F403FBEA
:101F400014020A70B4FBF3F203FB124318244B7023
:101F50004FF46163B0FBF3F3B3FBF4F204FB123311
:101F60008B7007223C4BB0FBF3F0031DB3FBF2F286
:101F7000C2EBC2029B1A01330024CB70224640F20E
:101F80006D184FF0640E4FF4C87CE6B206F2B273DF
:101F900013F003070ED193FBFEF50EFB153565B963
:101FA00093FBFCF50CFB1535002D14BF45464FF493
:101FB000B77504E040F26D1501E04FF4B7752A449F
:101FC000904204F10104E0D28E7197B9642593FB2D
:101FD000F5F405FB14347CB94FF4C87593FBF5F4A4
:101FE00005FB1434002C40F26D1408BF4FF4B77495
:101FF00004E040F26D1401E04FF4B774121B642644
:102000004FF4C874DFF854E0801A93FBF6F206FB35
:10201000123693FBF4F204FB12330022012AD5B2EC
:1020200006D147B94EB9002B14BF1C241D2405E06E
:1020300012F80E4002E01C2400E01D24844205D862
:1020400001320C2AA0EB0400E8D11546013501301D
:102050004D710871BDE8F08180510100682C0100CC
:1020600038B5054C23688342054603D00349FFF782
:1020700061FF256038BD00BF189901201C9901201F
:1020800008B5FFF7EDFF024B987900F2B27008BD7A
:102090001C990120F0B52C4B827940F2B271534368
:1020A00064254FF4C876A1F2B274A24211DD8C0708
:1020B0000DD191FBF5F405FB141424B991FBF6F452
:1020C00006FB14141CB903F5A83303F5C0730131E2
:1020D000E9E702F2B27264244FF4C87546791B4FE7
:1020E000DFF86CE092FBF4F104FB112492FBF5F1B4
:1020F00005FB1125012102F003028E4211DD0229A8
:1021000007D132B904B925B903F5181303F56E5395
:1021100005E007EB010C1CF801CC0EFB0C33013180
:10212000EBE742788178C2EB02124FF461649200CF
:1021300004FB012201780A4401790548013900FBBA
:1021400001201844F0BD00BF8033E101682C01007C
:1021500080510100094B1860094B1B681844094B5A
:102160001860094B02221A70084B82B01B68019359
:10217000019A074B1A6002B0704700BF24990120F2
:102180008C3901203499012028990120049F0120D5
:1021900030990120F7B5194B194C1A682168194F6D
:1021A0000025386801900198801AB0F57A7F01F116
:1021B000010604D302F57A7201253146F1E70DB12B
:1021C00021601A60104D23682A689A4213D80F4B79
:1021D0001B6883B1984710B1FFF7BCFF0BE0084BB9
:1021E0001A680B4B1B6813440A4A2B6013780033A0
:1021F00018BF01231370206803B0F0BD309901208F
:1022000024990120049F0120349901202C99012058
:102210008C3901202899012008B5FFF7BBFFFFF793
:102220001FFF014B987808BD1C99012008B5FFF7E6
:10223000B1FFFFF715FF014B587808BD1C9901202D
:1022400008B5FFF7A7FFFFF70BFF014B187808BD94
:102250001C99012008B5FFF79DFFFFF701FF014B17
:10226000187908BD1C99012008B5FFF793FFFFF707
:10227000F7FE014B587908BD1C99012008B5FFF7FE
:1022800089FFBDE80840FFF7FBBEFFFF034B186066
:10229000034B1A68034B1A60FFF77CBF2C9901208F
:1022A0002499012034990120024A0349034808F087
:1022B000B9B800BF303901208107000038990120EA
:1022C000024A0349034808F0ADB800BF3039012085
:1022D0008107000040990120024A0349034808F0A1
:1022E000A1B800BF303901208107000048990120C2
:1022F000024A0349034808F095B800BF303901206D
:102300008107000050990120024A0349034808F060
:1023100089B800BF30390120810700005899012099
:10232000024A0349034808F07DB800BF3039012054
:10233000810700006099012038B5074D074C084817
:102340002A46214608F06EF82A4621460548BDE88F
:10235000384008F067B800BF30390120810700001D
:102360006899012070990120024A0349034808F046
:1023700059B800BF30390120810700007899012049
:10238000024A0349034808F04DB800BF3039012024
:102390008107000080990120006910B10368DB68A3
:1023A00018477047006910B103681B6918477047E8
:1023B000006910B103685B6918474FF0FF30704740
:1023C000006910B103689B691847704707B5006939
:1023D00010B94FF0FF3009E0036801229B680DF14E
:1023E000070198470028F4D09DF8070003B05DF876
:1023F00004FB07B500698DF8071028B103680122B6
:10240000DB680DF10701984703B05DF804FB13B5D5
:102410000346006D0C4628B10DF1060201A903F038
:1024200096FD08E0586D08B9002021E00DF1060284
:1024300001A901F0FCFB0028F6D0BDF80430BDF87E
:1024400006200BB9002AEFD002F01F0149002170CD
:10245000C2F34511D212A27003F01F022271C3F31E
:1024600043125B12013A03F5EA6361706271A37172
:1024700002B010BD13B50346006D0C4628B10DF136
:10248000060201A903F073FD08E0586D08B90020A9
:1024900021E00DF1060201A901F0D9FB0028F6D0D8
:1024A000BDF80430BDF806200BB9002AEFD002F0C9
:1024B0001F0149002170C2F34511D212A27003F02E
:1024C0001F022271C3F343125B12013A03F5EA6360
:1024D00061706271A37102B010BDFFFF38B5856DE8
:1024E0000446BDB94FF4807008F0DCFF0146A065DA
:1024F00070B10570206D20B14FF4807203F09EF929
:1025000008E0606D30B14FF4807201F0E1FA01E053
:10251000014BA365A06D38BD88990120D0B5046D2D
:102520006CB1012B08BF002A14D21146204603F0DB
:1025300026FB78B1204603F03FFF58B1D0BD446D73
:1025400044B1204601F0BCFC20B12046BDE8D0409B
:1025500002F0C4BC0020D0BD10B50446006843683A
:10256000013B43603BB90368DB6A9847206810B1C0
:1025700003685B6898470023236010BD054B10B5C6
:1025800003600369044613B11030FFF7E5FF2046EE
:1025900010BD00BFA02C010010B50446FFF7EEFFF0
:1025A0002046142107F0DDFE204610BD036D13B157
:1025B000D86900217047436D13B118695969704794
:1025C0001846F6E7036D13B1586900217047436D53
:1025D00013B193E8030070471846F6E7826B30B5F5
:1025E00062B1137803F0080303F0FF00FBB1D36975
:1025F0005069181A1BD56FF0004018E0C06BB0B1DD
:1026000090F831301B0707D5D0E90445D0E9002305
:10261000A01A65EB030101E00020002100236FF008
:1026200000428B4208BF824201D2104630BD30BD0D
:1026300008B51830FFF7D2FF08BD836B1BB11B78BC
:1026400013F0700F05E0C06B30B190F8313013F02B
:10265000500F14BF01200020704708B51830FFF755
:10266000ECFF08BD10B504461830FFF7E6FF60B177
:10267000206D10B1002103F082FA606D28B10022B4
:102680000023BDE8104001F01BBC10BD836B23B9D3
:10269000C06B003018BF012070470120704708B59B
:1026A0001830FFF7F3FF08BD10B50446806D18B170
:1026B00008F000FF0023A36518342046FFF7E6FF6B
:1026C00020B12046BDE8104004F02ABD10BDFFFF38
:1026D00010B5064B03600446FFF7E6FF044BA3600A
:1026E00004F1180004F01CFD204610BDCC2C0100A4
:1026F000C427010010B50446FFF7EAFF20465C211D
:1027000007F02FFE204610BD0346806B08B103F092
:1027100005BAD86B08B101F0BDBB4FF0FF30704770
:1027200008B51830FFF7F0FF08BD08B51830FEF700
:1027300091FA08BD38B50146049814461D4610B9F3
:1027400001F118001DE001280AD10B6D01F11800FC
:102750000BB15A6912E04B6D7BB1D3E900230EE057
:10276000022811D10B6D01F118000BB1DA6905E0F7
:102770004B6D13B1D3E9042301E0002200231219A9
:102780006B41FEF783FA38BD002038BD0346806BED
:1027900008B103F01FBBD86B08B102F073B97047E2
:1027A00008B51830FFF7F2FF08BDF0B5D0F838E0F3
:1027B0009DF814409DF818509DF81C609DF82070FD
:1027C000BEF1000F08D0089707960695059470464D
:1027D000BDE8F04003F099BDC06B38B1089707968B
:1027E00006950594BDE8F04002F0EFBAF0BD1FB5C4
:1027F0008A79A2F150031B0611D40C784B7903940B
:102800004C7802948C780194097900910133DBB201
:1028100002F26C7204211830FFF7C7FF00E00020BD
:1028200004B010BD1FB58A79A2F150031B0611D464
:102830000C784B7903944C7802948C780194097944
:1028400000910133DBB202F26C7202211830FFF703
:10285000ACFF00E0002004B010BD08B51830FEF752
:1028600029FA08BD38B500250A4B456003600B798D
:102870000373094B83608B6803610B7B037504460C
:102880001031183004F01BFC044BA360A5652046F2
:1028900038BD00BFCC2C01007C2C0100E8270100D2
:1028A0002DE9F04395B000250DF150081B4B48F879
:1028B000503D2A46183104464FF47A7604A88DF824
:1028C000045002968DF80C501295139504F07BFC81
:1028D00004A8FFF7DBFEDFF84C9080B15C2007F026
:1028E0003EFD07464146FFF7BDFF7B68257101337A
:1028F000A6602573C4F8009027617B6005E0207115
:10290000A6602073C4F800902061054B009304A8D2
:1029100004F006FC204615B0BDE8F083E82701006E
:10292000C4270100A02C0100024A0349034807F014
:1029300079BD00BF30390120810700008C9901204A
:10294000024A0349034807F06DBD00BF303901203A
:102950008107000094990120024A0349034807F0C7
:1029600061BD00BF30390120810700009C99012022
:10297000024A0349034807F055BD00BF3039012022
:1029800081070000A4990120024A0349034807F087
:1029900049BD00BF3039012081070000AC990120FA
:1029A000024A0349034807F03DBD00BF303901200A
:1029B00081070000B4990120024A0349034807F047
:1029C00031BD00BF3039012081070000BC990120D2
:1029D000024A0349034807F025BD00BF30390120F2
:1029E00081070000C499012090F8A12090F8A00070
:1029F000101A704790F8A03090F8A1209A4281BF39
:102A00005A1C1B1880F8A020187E98BF4FF0FF308A
:102A1000704790F8A03090F8A1209A4286BF1B180A
:102A2000187E4FF0FF3070477047B0F82E312BB151
:102A300090F82D31882B03D90123037100207047B2
:102A40005A1C034480F82D2183F8A31001207047FD
:102A500038B50446B0F82E011546A0B194F82D31D2
:102A6000C3F18902954282BF01201546207104F10D
:102A7000A30018442A4606F069F894F82D312B4437
:102A800084F82D31284638BD38B50269D578EDB2C5
:102A900015F0100F044605F0400303D103F0FF01C9
:102AA0002BB92BE01021D170002BF7D138BD05F0E8
:102AB000040505F0FF02384BD5B100221A70D4F896
:102AC000343184F82D2103B1984794F82D3123B97E
:102AD000012284F82D2184F8A3302369D0229A7032
:102AE000236994F8A3201A71012384F82C314EE055
:102AF0000121197084F8A12023692EE022699379BD
:102B0000DBB203F0600060280AD103F0DF039371A9
:102B1000D4F8383123B184F8A01094F8A100984774
:102B200023699A7802F0100202F0FF01D2B115F089
:102B3000010512D194F82C2194F82D11914281BFF6
:102B4000511C121984F82C1192F8A3208CBF1A7111
:102B50001D712369D0229A7019E0C0229A702369EE
:102B60001B7914E084F830119A7942F020029A71AE
:102B700023691A7994F8A130872BD2B207D8064975
:102B8000097821B1591C234484F8A1101A762369CD
:102B90000222DA7038BD00BFCC9901200148FFF74E
:102BA00073BF00BFCC3A01200148FFF76DBF00BFE3
:102BB000083C01200148FFF767BF00BF90390120A2
:102BC000704700B50A46D0F884148FB051B1002385
:102BD00068468DF800308DF801308DF8023003F032
:102BE00095F90DE0D0F8880450B18DF831108DF8CA
:102BF00032108DF833100B460146684601F0CDFBCC
:102C00000FB05DF804FB00B50A46D0F884148FB00D
:102C100071B1002368468DF800308DF801308DF8D1
:102C2000023003F073F9A8B1684603F0ABF811E085
:102C3000D0F8880470B18DF831108DF832108DF80D
:102C400033100B460146684601F0A7FB10B16846F9
:102C500001F07EFE0FB05DF804FB00B50A46D0F827
:102C600084148FB079B100238DF800308DF80130D5
:102C70008DF802306846012303F048F9A8B1684690
:102C800004F0C4F911E0D0F8880470B18DF8311067
:102C90008DF832108DF8331001230146684601F09B
:102CA0007CFB10B1684601F010FE0FB05DF804FB2C
:102CB00010B5D0F884448EB00A466CB100238DF86C
:102CC00000308DF801308DF8023004F58961012360
:102CD000684603F0D9F910E0D0F8881461B10123F7
:102CE00001F5896168468DF831408DF832408DF8E4
:102CF000334001F079FF00E008460EB010BD30B55A
:102D0000D0F884348FB01546ABB1002203F5896446
:102D10008DF800208DF801208DF8022013466846BA
:102D20000A46214603F09EF8D8B12A462146684655
:102D300003F020FA15E0D0F8880490B100F589641A
:102D40000A46684621468DF831308DF832308DF8CC
:102D5000333001F0C5FA20B12A462146684601F019
:102D6000E1FF0FB030BDD0F8803433B198794FF423
:102D7000007303FA00F080B27047D0F8840408B101
:102D8000D0F83C047047034610B5D3F884240430CF
:102D900012B1D469013C04E0D3F888440CB1D4F8F2
:102DA0003044FFF7E0FFA4FB000110BD38B5034637
:102DB000051DD0F8840420B1C469013C03F05CFD1A
:102DC00008E0D3F8880420B1D0F8304401F066FC64
:102DD00000E00446241A2846FFF7C5FFA4FB0001C3
:102DE00038BDFFFF70B5012B94B0044605D0022B0F
:102DF00040F2022318BF002301E044F20223043111
:102E0000684604F06DFA04A8FFF740FC114E90B13B
:102E10005C2007F0A4FA69460546FFF723FD00236E
:102E2000237123736B6826604FF47A720133A260BA
:102E300025616B6006E04FF47A732071A360207304
:102E400026602061044B009304A804F069F9204631
:102E500014B070BDA02C0100C427010038B500F5E6
:102E600092650446FF2380F8B03480F8BC142846ED
:102E700005F044FBC4F88C54284604F035FF30B903
:102E8000D4F88C142046BDE8384004F0CBB90020BB
:102E900038BD70B588B0064601A880E80E0007C8A6
:102EA00005AD85E80B0006F29C4495E80E0020462F
:102EB00004F0D2FBC6F88C442CB196F8AB04B0FAFF
:102EC00080F0400900E0204608B070BD30B590F8B1
:102ED000B034FF2B85B0044604D190F8BC14FFF742
:102EE000BDFF19E0D0F8B414D0F8B82490F8B1546C
:102EF0008DF804308DF805500291039204AB13E96C
:102F00000E00FFF7C6FF38B1D4F88C14204605B088
:102F1000BDE8304004F086B905B030BD2DE9F04180
:102F2000D0F890448CB006461F460CB9002024E02F
:102F3000236820469B699847B0F5405F8046F5D9E5
:102F40004FF4007008F0AEFA05460028EED0B8F154
:102F5000806F02463B46214601A802D900F066FB7D
:102F600001E002F03DFB0446284608F0A3FA002CDD
:102F7000DCD0301DFFF7AAFF01200CB0BDE8F081C6
:102F800030B5D0F8904485B00546F4B190F8C4341B
:102F9000BBB190F8C534FE2B05D0236869469B6B06
:102FA0002046984712E023682046DB69984723684B
:102FB00020465B6C9847431CEFD0003018BF0120BF
:102FC00004E00430FFF782FF00E0204685F8C404E7
:102FD00005B030BD1248134AC0F89424124A134B6E
:102FE000C0F8A0240122036080F8AD240023292228
:102FF000C0F88434C0F8883480F89C3480F89D345C
:1030000080F8AF2480F8B23480F8C03480F8C4343B
:10301000074A0849FF2380F8C53407F003BA00BF08
:10302000D09901200C310100AC300100AC2D010021
:1030300030390120C12B00007F28A2EB010204D807
:10304000002A3FD00870481C7047B0F5006F0DD2C1
:10305000012A39D983090A4600F03F0063F03F0393
:1030600060F07F0002F8023B48702BE0B0F5803F33
:1030700011D2022A28D9030B63F01F030B70C0F38F
:10308000851363F07F0300F03F004B7060F07F0317
:103090008B70C81C7047032A16D9830C63F00F038A
:1030A0000B70C0F3053363F07F034B70C0F38513DF
:1030B00063F07F038B7000F03F0363F07F03CB70FE
:1030C000081D70471046704700207047884230B591
:1030D00036D203781C0602D41360441C33E003F09C
:1030E000E004C02C03D103F01F0302240EE003F020
:1030F000F004E02C03D103F00F03032406E003F0F7
:10310000F804F02C1CD103F0070304240444A1426A
:1031100016D3013010F8011B01F0C005802D0FD12E
:1031200001F03F01A04241EA8313F3D10749A3F123
:103130008000884204D8A3F55841B1F5006F01D250
:10314000002400E01360204630BD00BF7FFF100068
:103150002DE9F74F0CAE054614469A4696E8C00195
:10316000019109B90020C3E0BAF1000FFAD0036859
:103170000021DB6898470028F4D0019B03F1FF3958
:1031800094F8C231EE2B5FFA89F93FD12B682246C1
:10319000DB680121284698470028E3D008225649D9
:1031A000204608F0ADFC0028DCD1236D9945D9D824
:1031B0004FEAA901023109F0030907B13960B8F1FA
:1031C000000F01D088F800902B682246DB68284663
:1031D00098470028C6D04FEAC91000F12003E258F2
:1031E00000F12803E35801339B1A0AB9012BB9D027
:1031F000CAF8002006B1336010224049204408F08C
:103200007FFC00280CBF0320042071E0B9F1030FFC
:103210001FD804EB091393F8BE21520619D193F875
:10322000C231B3B10F2B14D009F11C0304EB03140A
:10323000D4F80630CAF8003016B1D4F80A3033603A
:103240000FB100233B60B8F1000F19D088F800904F
:1032500016E02146002391F8BE014006DAB281D182
:1032600091F8C20100283FF47DAF9145FFF47AAF99
:103270000F2807D00133042B01F11001EBD171E7C6
:10328000012035E004EB03130132D3F8C6915FFA55
:1032900082FB2B682246DB6849462846984700286F
:1032A0003FF460AF019B5B450FD094F8D221D4F876
:1032B000D631052A7FF456AF0BF101025FFA82FB8B
:1032C000002B3FF44FAF9944E3E7D4F8C6314B44A9
:1032D000CAF8003016B1D4F8CA3133600FB1C7F85C
:1032E0000090B8F1000F02D0002388F800300220CF
:1032F00003B0BDE8F08F00BFE42D0100D42D010024
:10330000B1F5807F30B506D810294FF0200414D9CC
:10331000202914D900E03F24802912D9B1F5FC7F7F
:1033200011D9B1F57C7F10D9B1F5FC6F0FD9B1F58A
:103330007C6F94BF8023FF230AE0022308E004236C
:1033400006E0082304E0102302E0202300E04023ED
:1033500013FB04F3B2FBF3F5B5F5806F0BD2B2FBB0
:10336000F4F103FB152304FB11220132B3FBF4F348
:10337000D2B2DBB203E03F22FE2340F2FF350370FE
:10338000AB0823F03F031A434270857030BDF8B597
:103390000378DA0704461DD54068E168036804F144
:1033A00010061B6A32469847054608B9002512E008
:1033B00023789B0704D4237823F0010323700AE0C9
:1033C000201D83C8036832461B6A39449847002889
:1033D000F1D1EBE701252846F8BD436870B50446F6
:1033E0000E4615460BB9002070BDC3688B4213D042
:1033F000FFF7CDFF0028F6D06B0703D5002323701D
:10340000E66009E06068036804F11002DB68314699
:1034100098470028F2D1E6E72378204605F0030517
:103420001D4300F8105B70BD7E2830B506D8A0F1B2
:103430006103192B8CBF0023202320E0214D35246C
:103440000023E21A012A1F4908D903EB520235F87A
:10345000221081428CBF14461346F2E79AB231F82B
:103460002230984215D301EB8202C31AD1788B42E5
:103470000FDA92F90220012A03D103F00103C01AE6
:1034800005E00AB192B201E04EF2A032104480B2DF
:1034900030BD0D4D4B240023E21A012A0A4908D9F8
:1034A00003EB520235F8221081428CBF14461346BA
:1034B000F2E79BB231F82320824204BF01EB830381
:1034C000588830BD1A2F0100EE2D010013B50446B7
:1034D000808910B10023A3811AE06368A1688B4240
:1034E00016D201AA1846FFF7F1FD78B16060019885
:1034F000B0F5803F21BFC0F30903800AA3F5105344
:10350000A0F5215028BFA38180B201E04FF6FF70E3
:1035100002B010BD8368C3F30803014663B1002005
:103520000A69D0540133B3F5007FF9D1C8680A693C
:10353000036809681B6A18470120704782680346C0
:10354000C2F30802006910B48154586801EB70019D
:10355000596099680131996040F2FF118A420AD19D
:10356000D86819680268146A4A1C1A601A692346E6
:103570005DF8044B184701205DF8044B704738B5DF
:103580000C46C9B20546FFF7D9FF28B1210A2846E3
:10359000BDE83840FFF7D2BF38BDF8B5002480E859
:1035A000120007468460A0B2FFF73EFFA042064625
:1035B0000AD001463846FFF7E2FFA0B3651CB5F517
:1035C000803F0BD22C46EEE7651CB5F5803F0AD252
:1035D000A8B2FFF729FF854205D122E03846BDE8B1
:1035E000F840FFF797BF2C1BB4F5007F0CD34FF6C4
:1035F000FF713846FFF7C3FFA8B1A1B23846FFF705
:10360000BEFF0028DBD10EE03446A54201D8254696
:10361000D5E7A1B23846FFF7B2FF01340028F4D154
:1036200001E00135D1E70020F8BDFFFF2DE9F04FA3
:103630001F46034687B0D9601A610B6801909B69E9
:1036400008460D4614469847B0F5801F814607D2BC
:10365000002F00F0128192493846FDF713F908E176
:10366000002601230136F6B2202E4FEA430305D08F
:103670009945F7D81C2E01D8082303E0A6F10B08C2
:10368000C8F347031A2E88BF0136029383BF761012
:103690000123B3404FF400530093009B029A5E0055
:1036A0009B00C3EB090A0493029B2AFA03F303FA73
:1036B00002FA00214FF400722046039305F01AFB32
:1036C000072384F8C231FE2384F8C3314FF0010B85
:1036D000FF234FF0000884F8C43184F8C53184F822
:1036E000BFB184F8C0B184F8C1814AF65523A4F86B
:1036F000FE312B68C4F8C661B244C4F8CAA11B6A83
:103700002246414628469847002800F0B1804FF4F1
:1037100000724146204605F0EDFAEB232370762334
:1037200063709023A3704523E370582323714623CD
:1037300063714123A3715423E371202323726372C5
:10374000A372009B23656365039BE36504232366E3
:103750004FF48073A4F86830092384F86C309DF826
:10376000083084F86D30802384F86F302664C4F804
:103770004480C4F848A0C4F84C80A665C4F864909E
:10378000A4F86A8084F86EB084F8708004F177033E
:1037900004F2FD12F42103F8011F9342FBD14AF613
:1037A00055234FF00009A4F8FE31C846A9F16A0379
:1037B000012B06D9B9F1700F1CBF14F8093003EBC7
:1037C000780809F10109B9F5007FEFD12B6822468D
:1037D0001B6A314628469847002849D02B68224664
:1037E0001B6A06F10C0128469847002840D04A463B
:1037F0000021204605F07EFA4AF65523A4F8FE3152
:10380000631E06F1010A06F10909059304F2FF1B84
:10381000059B13F8012F9B4502EB7808F9D12B6823
:1038200022461B6A51462846984708B32B68224611
:103830001B6A0AF10C0128469847C8B10AF1010A2F
:10384000CA45E5D14FF400720021204605F052FA36
:1038500006F10B0A059B13F8012F9B4502EB780834
:10386000F9D12B6822461B6A49462846984738B941
:103870001FB10C493846FDF705F84FF0000AF1E09A
:103880002B6822461B6A09F10C012846984700283C
:10389000EED009F10103534506D09946DAE700BF9F
:1038A000EE2F010045300100231F04F5FE7243F89E
:1038B000048F9A42FBD12B6822461B6A5146284648
:1038C00098470028D4D02B6822461B6A09F10D01C5
:1038D000284698470028CBD01FB164493846FCF7EA
:1038E000D1FF009B1E44039B4FF400724FEA8309F3
:1038F0000021204605F0FEF909F20729F82323707C
:103900004FEA592A234604F11302FF2103F8011F4D
:103910009A42FBD14FEA99394FF00008B8FBF9F30E
:1039200009FB138323B91FB151493846FCF7AAFF9D
:103930002B6822461B6A06EB080128469847002898
:1039400096D0B8F1000F05D14FF4007241462046E1
:1039500005F0D0F908F10108C245DFD11FB1454992
:103960003846FCF78FFF029B4FF0010808FA03F876
:10397000039B03F1070A4FEADA0A0AF2FF1B4FEA38
:103980005B2BD845FFF474AF4FF400720021204642
:1039900005F0B0F9072323704FF000092B68049954
:1039A0001B6A224649442846984700283FF460AFE6
:1039B000B9F1000F01D184F8009009F10109CB455C
:1039C000ECD11FB12C493846FCF75CFF009B0198F5
:1039D000334403EB08094946FFF7DFFD00283FF4B5
:1039E00047AF019B9B68B3EB482F3FF641AF1FB138
:1039F00022493846FCF746FF4FF40072002120466A
:103A000005F078F9812284F8202002226263822264
:103A1000032384F84020019A237052686365019B58
:103A200062649B68C4F838A00026C144A365E665BB
:103A30002B6822461B6A06EB0901284698478246F6
:103A400000283FF415AF2EB94FF4007231462046DE
:103A500005F050F90136B045EAD11FB108493846A2
:103A6000FCF710FF504607B0BDE8F08F04300100AE
:103A7000CF2B0100813001001130010028300100FE
:103A8000373001002DE9F04115460E4601F11E08C0
:103A9000AB8936F8024F43B96A68AB689A4204D1E1
:103AA000B4FA84F04009BDE8F0812846FFF70EFD26
:103AB000FFF7BAFC07462046FFF7B6FC874204D161
:103AC0004645E5D10120BDE8F0810020BDE8F08148
:103AD0002DE9F84F90F8313082468946002B47D0C7
:103AE00002F1FF380D460227002488449AF830304E
:103AF000BB4237D300223946504600F072F8B8B3C3
:103B00000378C12B34D1064600F11E0B234636F84C
:103B1000024F73B104F5105292B2B2F5806F27D202
:103B200016489B021840C4F30904044304F580308E
:103B30000CE004F520539BB2B3F5006F02D38CB1B7
:103B4000204603E0B3F5806F07D311E042462946D3
:103B5000FFF772FA30B105460024B345D6D10137DC
:103B6000FFB2C3E700232B70C9EB0500BDE8F88F57
:103B7000002089F80000BDE8F88F00BF00FC0F00AE
:103B800070B50B684B6000240D468C810C614FF6BC
:103B9000FF76AB891BB96A68AB689A4219D0284690
:103BA000FFF794FCB04212D0FFF73EFCE30343EA78
:103BB000540454FA80F4C4F34E0343EAC4330412A9
:103BC00014FA83F42B690133A4B22B61E1E70020DE
:103BD00070BD2869AC820138FE288CBF002001200E
:103BE00070BDF0B500F1240305460F46164693E874
:103BF000070085B001AC84E807007A012146286AF5
:103C000000F0DEFC012805D132462146286A00F08A
:103C100088FC00E0002005B0F0BD10B5044600F0BF
:103C200031FF002384F8313084F8333010BD38B5CB
:103C30000D46144600F124010022006A00F071FCD8
:103C400020B143892B8003892380012038BD38B5FA
:103C50000D46144600F124010022006A00F061FCC8
:103C600020B1C3892B8083892380012038BD38B5DA
:103C70000D4690F83110044651B9382205F03AF853
:103C80004023012084F8313084F83300256238BDA8
:103C9000002038BDF0B40C78202C01F1010501D1D1
:103CA0002946F8E7194F116091600D460E4615F848
:103CB000014BDCB12F2C13D01F2C24D9A4F12201ED
:103CC000C9B21D2903D827FA01F1C9071BD404F092
:103CD000BF013C2917D05C2C0DD114E02F2C05D14D
:103CE0000E4611F8014B202CF8D1F9E71E60114661
:103CF000F0BCFFF745BF2E2C01D12946D5E7202C7B
:103D0000FBD09560F9E70020F0BC7047010100315D
:103D10002DE9F84F90F83330DF0704460E4615467C
:103D200077D5580603D494F8313019070CD5D4E967
:103D30000001D4E9042310EB050841F100094B45CB
:103D400008BF424500D2151AA94604F1180AB9F174
:103D5000000F43D0206AD4E90023D0F8381401EAD8
:103D60000208C8F3080BB8F1000F1ED1134307D1A6
:103D700094F831305A064CBFD0F83434E36905E08A
:103D800094F833305B0603D5A3690133A3610CE0DB
:103D90005246A16900F0E0FB00283ADB05D194F817
:103DA000313013F0500F19D133E0276AA16997F829
:103DB00045E4D7F82C04023901FA0EF14FEA5822F3
:103DC000014401EB0208BBF1000F4FD1B9F5007FB0
:103DD0004CD3D7F81C12884504D147E0C9EB050045
:103DE000BDE8F88FB9F5806F2AD3012303FA0EF3EB
:103DF0004FEA592B9A1A934528BF9346884512D803
:103E00000BEB080399420ED207F50470FFF7BFFAD7
:103E100048B994F8323043F0020384F832304FF05E
:103E2000FF30BDE8F88FD7F81402036832461F69E7
:103E300041465B46B8470028EBD04FEA4B270AE0E3
:103E4000D7F8140203683246DB68414698470028D9
:103E5000DFD04FF40077D4E90023D21943F10003F7
:103E60003E44C4E90023C7EB090970E7002241463C
:103E700007F50470FFF7B1FA0028CAD0CBF5007738
:103E80004F4528BF4F4600EB0B013A46304604F041
:103E90005DFEE0E7F7B501220DF107010446D0E928
:103EA00000678569FFF734FF012808BF9DF8070008
:103EB000A56118BF4FF0FF30C4E9006703B0F0BD43
:103EC0002DE9F74F90F831B01F46836901930446FE
:103ED0001646BBF1000F53D0D0E90089B94508BFA1
:103EE000904551D056EA070302D10023836144E094
:103EF0001BF0080F05D0D0E90401B94208BF904279
:103F00003ED3236A009393F845A40AF1090A16F1F7
:103F1000FF305FFA8AFA524647F1FF3106F088FA1D
:103F200094F833205306054603D5E3691D44A56183
:103F300023E018F1FF3049F1FF31524606F078FADC
:103F4000854202D358EA09030AD11BF0400F16BF7D
:103F5000009BE369D3F83434A36104F118080AE044
:103F60002D1AFAE74246A169206A00F0F5FA002806
:103F700005F1FF3504DD002DF4D1C4E9006703E04D
:103F8000019BA361002000E0012003B0BDE8F08F99
:103F90002DE9F04F9A4690F831308DB004460E4628
:103FA000154673BB91F8313013F0500F29D00AF049
:103FB0000303012B00F08281022B40F07A8103235E
:103FC0000AF0080949EA03090DB32B694FF00F08FD
:103FD0000E330022B3FBF8F8304608F10208002344
:103FE0005FFA88F8FFF76CFF4FF0000B5F46202266
:103FF00004A93046FFF78CFE002800F0BC80202882
:1040000008D0002084F8310084F8330062E14FF0DA
:104010000308E9E79DF81020110611D427B9336889
:10402000203B0193B369009347453CBF0137FFB282
:1040300012B14FF0000BDAE7002D40F09C80E0E772
:10404000BBF1000F27D1474538BF0027852ACED1C5
:1040500038225946204604F04DFE9DF814209DF864
:10406000113084F8303002F03703D20658BF43F0E5
:10407000080384F83130336A2362B36963623368BA
:10408000203BA36296F83330C3F3801384F82C30BE
:104090004FF0010BABE7C02A2BD19DF8113084F80B
:1040A0003390980744BF49F0400384F83330DDE98A
:1040B0000623C4E90423099BE361DDE90A23C4E97B
:1040C00002231DB91AF4006F9BD126E02B686B60A8
:1040D0004FF00003AB812A699DF813309A42A8D1B2
:1040E000BDF81420AB8AD11AD1F1000B4BEB010BB8
:1040F0007DE7C12A9DD12A4604A92046FFF7C2FCCC
:1041000008B9834673E7AA89002A7FF470AF69680B
:10411000AA6891427FF46BAFD4E71AF4884F03D1B9
:1041200094F833309A0705D594F8313013F0110F15
:104130007FF467AF1AF4806F10D094F833309B0788
:104140007FF55FAF002200232046FFF7B9FE00286D
:104150003FF457AF204600F0C1FE08E01AF4804F4C
:1041600000F0AE80D4E904232046FFF7A9FE002822
:104170003FF447AFA4E01AF4007F3FF442AF19F0D8
:10418000020F3FF43EAF002D3FF43BAF47451CD23A
:10419000202204A93046FFF7BBFD50B93046D6F8BF
:1041A00018A000F08EFC00283FF42BAFC6F818A032
:1041B000ECE720287FF425AF27B93368203B019333
:1041C000B36900930137FFB2E0E7382200212046AF
:1041D00096F8337004F08EFD336A2362082384F866
:1041E0003130009B6362C7F38017019B84F82C7009
:1041F000A3622B686B60002708F1FF3AAF815FFA7A
:104200008AFA5FFA87FBC3454FD2012259462046FE
:10421000FFF7E7FC064600283FF4F3AE90F90020D4
:10422000002AFFF6EEAE2022002104F063FDBBF170
:10423000000F1ED185233370284B84F830A086F8F8
:1042400001A01B687BB10DF10B020DF10E0103A85B
:104250009847BDF80C307381BDF80E3033819DF85E
:104260000B3033751FE045F221437381F381738274
:1042700019E0BBF1010F0CD169F07F03C02232704D
:1042800086F801B084F833302B69F370AB8AB380C1
:1042900009E0C123337006F11E0BAA8992B969683F
:1042A000AA6891420ED10137ABE7204600F0EAFB45
:1042B00010E0002B7FF4A5AE012381E602237FE608
:1042C000012007E02846FFF701F926F8020F5E45B6
:1042D000E3D1E8E70DB0BDE8F08F00BF989E012064
:1042E000F0B597B01F4600238DF851308DF852304D
:1042F0008DF85330ADF8143090F831300192054606
:104300000C460BB1002046E091F8313013F0500F0D
:10431000F8D013782F2B12D1019B1A782F2A02D1B3
:1043200001330193F8E7216A1AB92846FFF79FFC89
:1043300031E008A8FFF79BFC0028E3D008AC01ABF4
:1043400002AA01992846FFF7A5FC0028DAD0019BB4
:104350001B78D3B1002302AA21462846FFF718FE96
:104360000028CFD008AA2B4605F1300E1446186855
:104370005968164603C6083373453246F7D11868A4
:1043800030602846FFF749FCD9E73B4602AA2146A0
:104390002846FFF7FDFD17B0F0BD19B101F58961A1
:1043A000FFF79EBF0846704730B4134690F831209F
:1043B00072B991F8315015F0500F09D0D1E900458C
:1043C000002504F01F042C4302D130BCFFF7E0BDF0
:1043D000002030BC70472DE9F84F80469246894650
:1043E00009B18C1E01E0D0F82044D8F830349C424A
:1043F00028BF002404F00707012303FA07F7C4F3DA
:10440000C80BFFB226462546D8F82C14002201EB33
:1044100015314046FEF7E1FF70B33B465946475C15
:104420001F4205F101050DD1AA1B52450BD1B9F16F
:10443000000F04D1BAF1010F08BFC8F82064B01C06
:10444000BDE8F88F2E46AC4215D0D8F830249542FE
:1044500004D25B0013F0FF03E2D103E000264FF427
:104460000071354601310123B1F5007F4FF0000B9B
:104470001F46D4D3C8E70120BDE8F88F2DE9F843E3
:10448000174606468A1ED0F83004D1198142984654
:1044900041D8D6F82034B8F1000F09D09A420BD891
:1044A000994209D9814228BF0021C6F8201403E0AF
:1044B0009A4238BFC6F8202402F007050123D6F837
:1044C0002C1403FA05F5EDB201EB1231C2F3C80466
:1044D0000122304601F10109FEF77FFFD8B103192F
:1044E0002A4600F500701978114214BF01240024F7
:1044F000444510D05140013F19700FD0520012F0C6
:10450000FF02F0D10133144698424FF001024946B0
:104510001546E8D1DCE70020BDE8F8830120BDE8BE
:10452000F88338B50D46D0F838146B6819402B68FD
:104530009C1E90F8453404FA03F303EB5123D0F8A2
:104540002C1400F504701944FEF747FF18B16B688E
:10455000C3F30803184438BD38B5D0F830340133FC
:104560008B420C46154602D24FF0FF3038BDD0F8D2
:104570002414002201EBD41100F50470FEF72DFF86
:104580000028F1D0A400C4F30804005928600130C9
:1045900018BF012038BD73B502AD064645F8041DAD
:1045A00000242A4601993046FFF7D6FF002804DB95
:1045B00004F10104F5D1204600E0002002B070BDF6
:1045C00070B50D46D0F8384449680C40A3180A4429
:1045D0006A6090F845440934E4B2064623FA04F4CC
:1045E00074B12B7A23B12B6801332B60013CF7E7C0
:1045F0002A4629683046FFF7AFFF0128F6D070BD84
:10460000012070BD012938B50C46154601D800209F
:1046100038BDD0F8303401339942F8D8D0F824149A
:10462000012201EBD41100F50470FEF7D6FE00283C
:10463000EDD0A400C4F308040551012038BD2DE9D4
:10464000F34107460C460E4601AA21463846FFF7BD
:1046500083FFB0F1000801DA00251BE000222146AB
:104660003846FFF7CFFF05460028F5D0621CB8F1A9
:10467000000F02D0019B9A4208D00023921B3146C2
:104680003846FFF7FBFE0028E6D0019E019CB8F1FA
:10469000000FD9D1284602B0BDE8F0812DE9F041E4
:1046A000D0F82C1400240646254600F50477002295
:1046B000384601F10108FEF790FEF8B100F1FF3E27
:1046C00005F5805C1EF8011FFF2901D1083409E0BF
:1046D00041B108220123194218BF01345B00013A9D
:1046E000DBB2F8D1D6F830040835854202D3001B7E
:1046F000BDE8F08165454146E4D1D8E7BDE8F081E9
:10470000F0B5044687B0002508464FF0FF33114648
:10471000E360C4F81C3284F84454C4F84004606078
:104720002570C4F8140284F8105202950195009582
:1047300005AB04F50872FEF70BFD10F0FB0F04F556
:10474000047701D100203CE0059E2A4631463846D8
:10475000FEF743FE05460028F4D01B49052203302E
:1047600007F0FCFD01460028ECD195F86C30092BD0
:10477000E8D12B6D3344C4F824346B6DC4F828346D
:10478000AB6D1E44C4F82C64EB6DC4F830342B6E52
:10479000C4F8343495F86D3084F845340125093374
:1047A00005FA03F3C4F83C34013BC4F83834C4F8C8
:1047B00020042A462046FFF70EFE402384F84434A6
:1047C000284607B0F0BD00BF5530010010B50446C3
:1047D000D0F83414FFF7DFFE94F845340933DBB228
:1047E000984010BD10B504780023CA0342EA510175
:1047F000C25C012B12FA81F189B204D1852C14BF5D
:104800000122032200E0012213441F2BEDD90846A8
:1048100010BD10B50446FEF7BAFD58B104F504709A
:10482000FEF7B5FD30B1D4F840040368BDE8104090
:10483000DB691847002010BDF8B50446006AA1697D
:1048400001B101310122FFF7C6FD0128054601D85B
:10485000002638E0012301461A46206AFFF70EFEC3
:1048600006460028F4D0A26994F8333022B943F008
:10487000400384F8333025E0590613D501329542C0
:1048800020D023F04003E16984F83330A3699942D2
:1048900008D24F1C3A46206AFFF7B4FE0028D7D052
:1048A0003946F3E74FF0FF322946206AFFF7AAFEA8
:1048B0000028CDD0A16929B12A46206AFFF7A2FEBF
:1048C0000028C5D0A5613046F8BD70B590F83330EA
:1048D0009A07044601D4002070BDC5690DB90025B2
:1048E00028E05B0614D5066AD0E9020196F8452453
:1048F00010F1FF3002F10902D2B241F1FF3105F0AF
:1049000097FD0023421C29463046FFF7B7FD03E020
:104910002946006AFFF793FE0028E0D1DBE7012279
:104920002046FFF75EF901350028D4D0037803F064
:104930007F03037094F83030E9B28B42EFD200234A
:1049400084F8313084F83330206AFFF762FF70BD9D
:1049500010B590F83130D90688B0044601D4002053
:104960001DE000220023FFF7ABFA20226946204613
:10497000FFF7CEF938B12028F1D19DF800301A06A2
:10498000EDD4002BF1D1082384F8313094F8333082
:1049900043F0020384F833302046FFF796FF08B057
:1049A00010BDFFFF2DE9F3410026DFF8D480054656
:1049B000374695F83030F1B28B424AD30022284670
:1049C000FFF70FF9044600284FD00378C02B1DD005
:1049D000C12B37D0852B48D195F8313003F0370300
:1049E0008380D8F8003033B30DF103020DF10601D6
:1049F00001A898479DF80330BDF806206375BDF8FF
:104A00000430A281E3812282638214E095F833307E
:104A100013F0400F437814BF43F0020323F0020366
:104A20004370D5E90423C0E90223EB694361D5E96A
:104A30000223C0E906232A6A92F8103243F00103E8
:104A400082F8103239462046FFF7CCFE0136074681
:104A5000AFE7012205F12401286AFFF762FD20B1CA
:104A60004780286AFFF7D5FE30B995F8323043F019
:104A7000010385F83230002002B0BDE8F08100BFAC
:104A8000989E012010B590F8313004460BB90120F2
:104A900010BD90F833301A0607D503F07F0380F875
:104AA0003330BDE81040FFF77DBF006AFFF7B1FE6D
:104AB0000028ECD194F8323043F0010384F832300E
:104AC00010BD2DE9F04190F831300446580603D569
:104AD000206AFFF77BFE00E0A068236AD3F83C342D
:104AE0001844B0F1806F58D22046FFF7A5FE002889
:104AF00053D0256A95F81032D90705D505F504700D
:104B0000FEF745FC002848D04FF0FF330026C5F8DB
:104B10001C3285F8106205F508754FF400723146B5
:104B2000284604F0E7F8226AA36992F84514D2F8FF
:104B30002C74023B8B401F444FF00108236A93F80A
:104B4000452408FA02F2B24209D9D3F840040368B6
:104B50002A461B6AB9199847F8B10136EEE794F86E
:104B60003120520614D494F8332062F07F02D4E945
:104B7000020184F83320D3F83C24002380185941E3
:104B8000C4E90201D4E9040112184B41C4E9042329
:104B90002046BDE8F041FFF775BF0020BDE8F08179
:104BA00010B591F8313013F0500F04461AD040F68A
:104BB0000223FFF7EDF9A8B1102384F83130204625
:104BC000FFF77FFF70B1A369E36120460023002255
:104BD000FFF776F9C12384F833302046BDE8104052
:104BE000FFF750BF002010BDF0B597B01F4600235F
:104BF000ADF814308DF851308DF852308DF85330B7
:104C000090F83130019205460C46002B48D191F8BE
:104C1000313013F0500F43D013782F2B0DD1019B5F
:104C20001A782F2A02D101330193F8E7216A08A8E4
:104C3000FFF71DF8002833D008AC01AB02AA019998
:104C40002846FFF727F858B3019B1B7813B30023BE
:104C500002AA21462846FFF79BF990B108AA2B46E5
:104C600005F1300E144618685968164603C6083315
:104C700073453246F7D1186830602846FEF7CDFFFD
:104C8000DBE76FB102AA21462846FFF789FF00281B
:104C9000E4D105E002AA21462846FFF781FF00E0A3
:104CA000002017B0F0BD2DE9F84316461F4656EA1E
:104CB0000703044633D090F833309B072FD5D0F844
:104CC0001C80B8F1000F2AD1056A95F8452416F129
:104CD000FF3002F1090247F1FF31D2B205F0A8FB23
:104CE00000F101094A4628464146FFF774FB0128B6
:104CF000054614D901234A462946206AFFF7BEFB20
:104D000068B194F83330E56163F03F0384F83330E1
:104D1000C4E902672046BDE8F843FFF7B3BE0020B0
:104D2000BDE8F883F0B59DB000238DF831308DF8E3
:104D300032308DF833308DF869308DF86A308DF867
:104D40006B3090F8313013F0180F044601D1002079
:104D500039E0006A0B6A9842F9D140F601236846AF
:104D6000FFF7BEFA0028F2D00EAA234604F130075E
:104D7000164618685968154603C50833BB422A46CB
:104D8000F7D11868286009AA07CA04F1240383E848
:104D900007009DF8303084F8303094F8333063F0F9
:104DA0007F0384F833302046FFF76CFE0028CED016
:104DB0000023159302238DF86B30304608238DF8BD
:104DC0006930FFF782FD1DB0F0BD2DE9F84F1C469C
:104DD00090F831309DF828B09DF82CA09DF8305007
:104DE0009DF834901B070646884638D5A2F2BC725F
:104DF00097B27F2F33D8631E0B2B30D80BF1FF33C4
:104E00001E2B2CD8BAF1170F29D83B2D27D8B9F172
:104E10003B0F24D8FFF736FE08B34FEA69034BEA8D
:104E2000441443EA451544EA472445EACA2519F0E3
:104E3000010F4FF00007A4B2ADB20CBF4FF0000954
:104E40004FF06409BB4608F0010A96F83030F9B219
:104E50008B4234D300223046FEF7C3FE10B9002047
:104E6000BDE8F88F0378852B04D0F8D3C03B012B25
:104E70001FD9F4E796F83130326A03F037038380A4
:104E800092F8103243F0010382F81032BAF1000FA9
:104E900001D00582448218F0020F1EBF80F81490E2
:104EA0000581448118F0040F1EBF80F8159085819C
:104EB000C4815946FFF796FC01378346C5E70122B6
:104EC00006F12401306AFFF72CFB0028C7D0A0F8B8
:104ED00002B0306AFFF79DFCBDE8F88F73B590F81B
:104EE00033309A07044601D4002054E0C569002DF0
:104EF00040D003F0400303F0FF018669F3B1236A59
:104F0000D0E9020193F8452410F1FF3002F10902C3
:104F1000D2B241F1FF3105F08BFA421C2EB1013DB6
:104F2000731CAD1B01932A4401E00195E6611AB39D
:104F300000230199206AFFF7A1FA19E08EB102AAB5
:104F4000006A42F8041D3146FFF706FB0028CBDB60
:104F500009D04FF0FF32A169206AFFF753FB10B967
:104F6000C2E70195C661019931B1206AFFF767FB7D
:104F700010B9B9E701200EE0D4E90023C4E9022307
:104F8000C4E9042394F8333063F07F0384F83330AA
:104F90002046FFF777FD02B070BDFFFF2DE9F74F08
:104FA00090F83330894699070446924640F1BB8019
:104FB0001A0706D404F11803D04600934FF0010BF2
:104FC00062E0D0E90423FEF77BFF0028F2D1AAE0DB
:104FD000206A2668D0F838341E40C6F30805002E33
:104FE00056D0D4F820E0A1699EF84524DEF82C3490
:104FF00002399140760A19443144002D7CD1B8F52C
:10500000007F80F09A80D4E90423D4E900679F42AE
:1050100008BF964234BF012205220EF50470FEF748
:10502000DCF900287FD0C5F50076464528BF464606
:10503000284432464946354403F088FDB5F5007FE3
:1050400006D1206A00F50470FEF7A1F900286AD0A5
:10505000D4E90001821941F1000310461946C4E960
:105060000023D4E904238B4208BF8242B144C6EB3B
:10507000080809D294F8333063F07F0384F83330A2
:1050800002460B46C4E90423B8F1000FA0D135E075
:10509000A76937B394F833305B061AD590F84524E6
:1050A000E3690193D4E90201093210F1FF3041F1C3
:1050B000FF31D2B205F0BCF9019B1844874205D3F9
:1050C0002046FFF7B9FB00288BD12CE00137A76100
:1050D00087E7009A3946FFF73FFA002823DB80D1A3
:1050E000EEE7E36933B92046FFF7A6FBD8B1A36921
:1050F000E36176E7A36174E701228EE7D4E900015A
:10510000D4E902238B4208BF824202D2C4E90201E1
:1051100002E0254B1B6873B194F8333063F07F03D2
:1051200084F8333007E094F8323043F0010384F818
:105130003230002035E0504633E0B8F5806FDEF8BD
:105140001C72DEF8140214D30BFA02F39E1B4FEA12
:10515000582CB445634628BF3346B9424FEA43262C
:1051600002D8CA18974215D30268556A4A46A8471A
:105170006CE7B94202BF8EF810524FF0FF33CEF801
:105180001C3203684A461B6A98470028CBD04FF46C
:1051900000765DE74FF0FF328EF81052CEF81C22F9
:1051A000E2E703B0BDE8F08F989E0120486810B593
:1051B0000C4658B10B894A8901339BB29A420B8144
:1051C00004D80349FBF75EFB00232381206810BD50
:1051D000CF2B0100F0B5044687B00E4615460021DE
:1051E0004FF40072406A03F085FD206A10B1204937
:1051F000FBF748FB636A0393236A0493E069E16861
:105200000023ADF814306B0903AAADF8163003681B
:1052100000929F6A174B6A1E0131B84708B90020F7
:1052200023E0206A10B11449FBF72CFB636AF822D3
:10523000102E1A704FF0FF000CBF04220C22012325
:10524000616AC85401339A42FAD1E069626A03681C
:10525000E1681B6A98470028E1D0E069E568A16829
:105260000368626A1B6A2944984707B0F0BD00BF13
:1052700004300100AD5100008130010038B5446AAE
:105280004FF4007200210546204603F033FDEB2366
:105290002370762363702346902203F8022F202187
:1052A00004F10A0203F8011F9342FBD14FF400738B
:1052B000A4F80B3095F82B3063732B8DE381022318
:1052C0002374F82363752B69E361AB6923624AF6A3
:1052D0005523A4F8FE3138BD70B504464FF4007272
:1052E0000021406A03F006FD656A2269216805F223
:1052F000BF10FEF705F8A369226921681A4405F278
:10530000C310013AFDF7FCFF94F82A3085F8C2314A
:105310002369C5F8C631A369E069C5F8CA314AF600
:105320005523A5F8FE310368626A1B6A0021BDE8B7
:1053300070401847F8B54FF48073456AD0F814E010
:1053400090F82B20436004466368C3EB0E01B1FB69
:10535000F2F101F20116360A700000F1A107BB421A
:105360000AD3DB1BA66003F180062661A1F6F57661
:10537000B6F5704F03D209E080336360E4E7206A3A
:10538000002853D02A49FBF77DFA4FE08133E360D0
:1053900000F1210301FB0233B3F5803FA3614FF01D
:1053A000010634BF04230623268584F82A302046CC
:1053B000FFF792FF002839D02046FFF75FFF4FF438
:1053C0000073A5F81130A368EB82802385F82430A0
:1053D000292385F82630174BC5F8273005F135020B
:1053E00005F12A03202103F8011F9342FBD1462334
:1053F00085F83630412385F83730542385F8383026
:10540000312385F83930362385F83A30E069626A0D
:10541000036821691B6A984740B16268E3682046C7
:10542000D21A1021BDE8F840FFF7D4BE0020F8BD25
:105430005B30010087D61200F8B54FF400530361CA
:105440004FF480434360456A436990F82B1004464B
:105450006268981AB0FBF1F000F18106F6094FEA94
:10546000460E0EF500570937BA4203D202F5005234
:105470006260EDE74FF6F4739842A66007D8206AA1
:10548000002800F0A0805149FBF7FCF99BE0A2F551
:105490000053CEEB03039BB200FB0122238503F5EF
:1054A0000053E360A2F50053A361494B9A4294BFB5
:1054B0000B230C2384F82A302046FFF70DFF002829
:1054C00000F081802046FFF7D9FEA3686B620223BB
:1054D000EB6201232B8606236B86802385F8403000
:1054E000292385F842303B4BC5F8433005F1510282
:1054F00005F14603202103F8011F9342FBD1462307
:1055000085F85230412385F85330542385F85430C0
:10551000332385F85530322385F85630E069626AC6
:10552000036821691B6A984700284CD0E06921690B
:105530000368626A1B6A06319847002843D04FF41B
:1055400000720021606A03F0D5FB234BE069C5F8C7
:10555000FC3121690368626A1B6A0231984700289E
:1055600031D0E06921690368626A1B6A0831984793
:1055700048B31A4B2B6003F1FF5303F5005320335C
:10558000C5F8E431E069626A4FF0FF33C5F8E831ED
:10559000C5F8EC312169036801311B6A984790B165
:1055A000E06921690368626A1B6A0731984750B154
:1055B000A26894F82B30204603EB42022021BDE87C
:1055C000F840FFF707BE0020F8BD00BF5B300100C8
:1055D0000004FB0087D61200000055AA5252614118
:1055E00038B503620B68C161426204469B69084694
:1055F000984700F2FF73DB0A062B6061236006D830
:10560000206A10B11B49FBF73DF9002038BD102B73
:1056100001D8022315E0202B01D8042311E0402BF0
:1056200001D808230DE0802B01D8102309E0B3F541
:10563000806F01D8202304E0B3F5004F94BF4023CE
:105640008023B0F5800F84F82B30204602D2FFF77C
:1056500071FE01E0FFF7F0FE0546206A25B138B182
:105660000549FBF70FF903E00028CED00349CAE74C
:10567000012038BD6F3001008430010092300100FC
:1056800010B54901044600F07AFA28B120460021FD
:10569000BDE8104000F056BA10BD042A04D801EB52
:1056A0004201B1F8010070470A2A03D801EB420118
:1056B000888870470C2A9ABF01EB4201C8880020F5
:1056C0007047F8B50E4601781746D9B311F060045B
:1056D00007D0012A36D92F2333700023737001209D
:1056E000F8BD214600F020F960B3054621460822A6
:1056F000234608292C7804D1202C1FD010222E24D8
:1057000010E0A4F1410EBEF1190F05F1010507D813
:1057100090F80CE012EA0E0F04D02034E4B201E05D
:10572000202C08D003F1010E77459C4606D006F8E0
:105730000C405FFA8EF301310C29DAD10022F254C9
:105740001846F8BD00203070F8BDFFFF2DE9F04F7E
:105750008BB0037800240746894690468DF80440B4
:105760008DF805408DF80640002B5FD0C37813B943
:10577000FFF7A7FF5DE0014601A800F0FCF8002854
:1057800054D008F1FF384D460126C844FB78B34297
:1057900047D3B988891B89B201A8FFF771FF8346F7
:1057A000002843D0C37A0F2B40D1037803F01F03A6
:1057B0009E423BD123464FF0000A5FFA8AF25946D7
:1057C0003846FFF76AFF044673B100F5105292B2F3
:1057D000B2F5806F2AD218489B021840C4F309041E
:1057E000044304F580300BE000F520539BB2B3F581
:1057F000006F01D320B914E0B3F5806F07D315E033
:1058000042462946FDF718FC58B1054600240AF126
:10581000010ABAF10D0F01D02346CEE70136F6B2E8
:10582000B4E700232B70C9EB050002E0002089F8E3
:1058300000000BB0BDE8F08F00FC0F00FFF786BF43
:1058400010B504462830FDF7A2FD50B104F50E70E6
:10585000FDF79DFD28B120680368BDE81040DB69B5
:105860001847002010BD024638B552F8105F0446B4
:105870002946806800F09CFF78B1A37815B943F001
:10588000400305E022690135AA4202D023F040031B
:10589000A370A37863F07F03A37038BD2DE9F041B6
:1058A000037803F02003044603F0FF050BB1002644
:1058B00034E042691B4B9A42F9D8FFF7D4FF064601
:1058C0000028F4D0A068216983794769023999409A
:1058D0000F44052239462830FDF77FFD8046002819
:1058E000E5D029464FF4007203F004FA0125A368BD
:1058F0001A79AA420AD91868036842461B6AE9194C
:1059000098470028D3D00135EDB2F0E79A794FF4EB
:1059100000739340626912FA83F363613046BDE815
:10592000F08100BFFFFD1F0010B5044680680A46E5
:105930002830A169FDF751FD20B1A38803F00F03C2
:1059400000EB431010BD70B5047805460E4684B9CF
:105950002422214603F0CEF9AE60F379102B03D058
:10596000202B06D1402300E0202301202B70A870BB
:1059700070BD002070BD38B5CB6804460D4623B914
:105980008968BDE83840FFF7DEBF2422002103F01C
:10599000B1F9102301202370A070AB68A360EB68FD
:1059A000236238BD2DE9F74F8378DD070446894629
:1059B000164677D50378180703D5E36962699B1A01
:1059C00007E0990608D5A3681A896369C3EB4213F7
:1059D0009BB29E4228BF1E4637464FF0000804F196
:1059E000100A002F41D023786269A06813F0200FBD
:1059F000C2F308054FEA522102D0036A194424E099
:105A000090F8058001EA0808BDB9B8F1000F14D17B
:105A100022B95A064CBF036A236A4AE01B0705D520
:105A2000A378590602D52369013342E05246216921
:105A300000F012FE002835DB13D0A36821699A79A3
:105A40005B690239914019444144D4F808B0002DF3
:105A50004FD1B7F5007F4CD3DBF83430994206D1F3
:105A600047E0237813F0700F1CD0F01B53E0B7F51C
:105A7000806F2DD3227892064FEA572506D49BF8E3
:105A80000420C8EB0202954228BF1546994212D85D
:105A90004A1993420FD20BF128000191FDF777FCD0
:105AA000019940B9637843F0020363704FF0FF300F
:105AB00031E02361C1E7DBF82C0003684A46D3F8E4
:105AC00010B02B46D8470028ECD04FEA452B09E010
:105AD000DBF82C0003684A46DB6898470028E1D0D1
