:1000000000000320D1010000DD870000958700007B
:100010009587000095870000958700009587000070
:10002000958700009587000095870000DD87000018
:10003000DD87000095870000719B0000759C000023
:10004000DD870000DD870000DD870000DD87000020
:10005000DD870000DD870000DD870000DD87000010
:10006000DD870000DD870000DD870000DD87000000
:10007000DD870000DD870000DD870000DD870000F0
:10008000DD870000DD870000DD870000DD870000E0
:10009000DD870000DD870000DD870000DD870000D0
:1000A000013300000D330000DD870000DD87000014
:1000B000DD870000DD870000DD870000E9A5000086
:1000C000DD870000C5A30000DD870000E1A8000077
:1000D000DD870000F1A40000DD870000DD8700005F
:1000E000DD870000DD870000DD870000DD87000080
:1000F000DD870000DD870000DD870000DD87000070
:10010000DD870000DD870000DD870000DD8700005F
:10011000DD870000E98D0000DD870000DD8700003D
:10012000DD870000DD870000DD870000DD8700003F
:10013000DD870000DD870000DD870000DD8700002F
:1001400055A10000DD870000CDA20000DD87000082
:10015000DD870000DD870000DD870000DD8700000F
:10016000DD870000DD87000019330000DD87000017
:10017000DD870000DD870000DD870000DD870000EF
:10018000DD870000DD870000DD870000DD870000DF
:10019000DD870000DD87000015A70000DD87000077
:1001A000DD870000DD870000DD870000DD870000BF
:1001B000DD870000DD870000DD870000DD870000AF
:1001C000DD870000DD870000DD870000DD8700009F
:1001D000594B4CF2205210B51A804DF628121A8055
:1001E00000BF00BF08F0FEFA544B4FF030621A60B7
:1001F000534A9A60534ADA60534B4FF470021A60C4
:10020000524B534A1A60534B1A78110703D51A7888
:1002100042F008021A70504B5049AA221A70504AF4
:10022000504B8B4204D252F8040F43F8040BF8E70A
:100230004D4B4E4900228B4202D243F8042BFAE781
:100240004B494C4A002352F8230041F82300013364
:10025000742BF8D1484B494A802103F8011B934283
:10026000FBD1474B424A1A60464B8A221A70A3F5CB
:10027000805324225A70A0221A709A799207FCD5D2
:100280009A79D406FCD4404A937903F00C03082BE6
:100290003D4BF9D101221A7148225A719A79900680
:1002A000FCD5394A9179384B4906FBD5374A38494C
:1002B00011600221516020221A709A7902F00C021A
:1002C0000C2AFAD1334B344A1A60344A344C13683E
:1002D00013F4807303D123604FF4A8531360314BA0
:1002E000314A1A6000225A60072243F8042C2F4A30
:1002F000C3F80C2D62B608F0A1FB2368DA0705D518
:100300002B4808F0FFFA2B4B2B4A1A602B4B1B781B
:100310005B0609D5274C284B22689A4204D1244811
:1003200008F0F0FA002323600BF082FB08F060FA7B
:1003300009F0A2FDFEE700BF0E200540308004401A
:10034000823F04000100002B88ED00E0002008E05F
:100350000300008502D0074000E0074080830120B1
:10036000503D010030770120808301202CE20120E4
:10037000007201200000000000E400E064E400E0FE
:1003800008ED00E000500640004006404480044074
:100390000000030104800440C010050010D0034099
:1003A00014D0034014E000E0FF760100000020209C
:1003B000DEE1825F1CE00340A5C3945A00F00740D1
:1003C000FFFFFFFFFFFFFFFFFFFFFFFFFFFFFFFF3D
:1003D000FFFFFFFFFFFFFFFFFFFFFFFFFFFFFFFF2D
:1003E000FFFFFFFFFFFFFFFFFFFFFFFFFFFFFFFF1D
:1003F000FFFFFFFFFFFFFFFFFFFFFFFFFFFFFFFF0D
:10040000FFFFFFFFFFFFFFFFFFFFFFFFDEF9FFFF23
:1004100010B5054C237833B9044B13B10448AFF33E
:1004200000800123237010BD8083012000000000A4
:100430004C3D0100084B10B51BB108490848AFF30B
:1004400000800848036803B910BD074B002BFBD0A0
:10045000BDE81040184700BF000000008483012061
:100460004C3D010080830120000000000020704707
:10047000704700BF1F4A204B11682048096970B4BB
:1004800099421279027008D21D4A127872B31D4A3D
:100490000121116003F5007602E01E46A3F500730A
:1004A00019491A4A09681068F1B1E8B1184D2C8849
:1004B000402C19D862001144104404F14002154C3C
:1004C0002A800231023053F8082BB4F900502A4137
:1004D00021F8022F53F8042CB4F900509E4242FA3E
:1004E00005F220F8022FEED870BC704703F50076B5
:1004F000D6E700BFACD001200004FF1F1F800040E2
:10050000A8CD012008E200E03CD001206CCD012004
:10051000A4D901203E7701204FF0FF30704700BF83
:10052000F8B5064609F0E8FC0446E8B109F0E4FC39
:10053000054600283AD072B61F4B1A887F2A19D870
:10054000002C31D01D490A6842B162B6204609F03C
:1005500027FD2846BDE8F84009F022BD18480C6088
:100560001A80056062B6F8BD054672B6124B1A884D
:100570007F2AE5D9114A12491768146000220C68D5
:100580001A800D6062B63946304609F033FD3846B0
:1005900009F006FD30462146012209F02BFD2046D8
:1005A000BDE8F84009F0FCBC62B6F8BD204609F091
:1005B000F7FC2C46BFE700BFA4D901203CD00120A6
:1005C0006CCD012010B50021044609F02DFDB0B11D
:1005D000B4F874349BB29BB1B4F87034B4F872249C
:1005E00001339BB2B3F5897F88BF002392B2934257
:1005F0000AD003F1080244F82200A4F8703410BDB8
:10060000BDE8104009F0CCBC09F0CAFCA369013375
:10061000A36110BDB0F882309BB22DE9F0410546D0
:1006200023B1B0F882309BB20B2B13D900242146A2
:10063000284609F0F9FCE2B206460134014628B129
:10064000284609F0D7FC304609F0AAFC022CEED16E
:10065000BDE8F081B0F88020274C92B2013284FBD3
:100660000234D317C3EB640404EB4404A2EB840408
:10067000002707EB470604EB860605EB8606336A80
:1006800013B1306A09F08CFC3946284609F0CCFCDD
:100690000137022F3062ECD1A4B2A5F88040B5F842
:1006A0008030B5F88210144E9BB203F10C028BB26D
:1006B000D31A86FB0326DA17C2EB660606EB46065C
:1006C000A3EB860300279EB2B84607EB470406EB70
:1006D000840405EB8404FAB2236A013728463BB14F
:1006E000216A09F087FC206A09F05AFCC4F82080CE
:1006F000022FEAD1BDE8F081ABAAAA2A2DE9F04F7A
:10070000002183B0044609F08FFC012105462046F4
:1007100009F08AFC0646002D00F0F580A36B002B43
:10072000C0F2E6802946814B31F9042F1A609C46BD
:100730009E4603F5FE700B46B1F90220B3F9003076
:10074000D31A4EF8043F704501F10201F3D1784904
:100750004FF0000E0A4652F8043F03FB03F39E4598
:10076000B8BF9E4682421360F5D1C4F828E000224B
:10077000002351F8047FD21943EBE7738142F8D18B
:10078000002A73F10001C0F2AC80D20942EA436250
:100790002263002E00F0C1803146644831F9043FE5
:1007A000CCF8003000F5FE770B46B1F90220B3F922
:1007B0000030D31A40F8043F874201F10201F3D11F
:1007C0005B4900200A4652F8043F03FB03F39842BA
:1007D000B8BF1846BA421360F5D1E0620022002388
:1007E00051F8040F121843EBE0738F42F8D1002A3E
:1007F00073F1000171DBD20942EA4362626315B111
:10080000284609F0CDFB304609F0CAFBE66AD4F869
:100810003490236AA26B206DA16CD4F82880676D98
:10082000002B00FB02F5C1F100015EDDA8454FDDA4
:10083000626CE36C13442362002B02DD626A0132B6
:100840006262013B8B42B6BF0B4623622162002BE2
:10085000B4BFE56B256C216BA0FB05234FEAE07B61
:10086000081A12EB000A05FB0B3343EBE07B2A4628
:100870005046002359460AF0BBFEFB178246A7FBF1
:100880000501C7EB0907C01905FB031141EBE7712F
:100890002A460023C4F850A00AF0AAFE254A606543
:1008A00013685045B8BF5046984201908CBF0199DB
:1008B0001168214B11601A684645B8BF46469642FA
:1008C00001968CBF019A1A681A6003B0BDE8F08FD8
:1008D00007FB02F2B242AFDAAAE77F3243F100032C
:1008E00089E77F3243F100034FE78B42A9DC9DE7A4
:1008F000284609F055FB002EE7D0304603B0BDE88E
:10090000F04F09F04DBB0028DFD0A36B002BF4DBC8
:10091000DFF818C0A56225633EE7E66266632846F5
:1009200009F03EFBE66AD4F8349072E7A88801200B
:10093000A4880120ACCD0120A8D901202DE9F041E7
:100940000F461646804602F0D3FA044602F0C0FA7B
:10095000054602F0ADFAA4F2BC739BB27F2B02D81D
:10096000EAB20C2A2BD90023A8F8003002F070FA62
:10097000044602F07DFA054602F08AFAE3B2172B2C
:1009800002D8EBB23B2B0BD900233B8002F080FA5C
:1009900010F0010F14BF642300233370BDE8F08111
:1009A000C3B23B2BF0D8E4026B0104F4FF2403F440
:1009B000FF532343C0F3460003439BB2E5E7C0B2B5
:1009C0001F28D0D86D0105F4FF55284340EA432382
:1009D0009BB2C9E710B5054BC0F8AC34044600F231
:1009E000BC4005F0B5FF204610BD00BF902E0100B1
:1009F00007F082BF10B5044609F056FB204610BD33
:100A000010B5044609F036F8204610BD70B582B026
:100A100002F01EFA054602F02BFA064602F038FAFA
:100A2000054C009033462A46204604490BF06AFEE6
:100A3000204602B070BD00BF70CD0120E82E01003D
:100A400070B582B002F054FA054602F041FA06464B
:100A500002F02EFA054C009033462A4620460449FF
:100A60000BF050FE204602B070BD00BF70CD0120DB
:100A7000F82E0100826C62B1137803F0080303F0D2
:100A8000FF0003B3D3695069181A48BF6FF00040E4
:100A90007047C16CC1B191F8313003F0080303F025
:100AA000FF0083B1D1E90423D1E90001101A30B469
:100AB00063EB010100256FF000448D4208BF8442C2
:100AC00000D2204630BC704708467047836C13B193
:100AD000184604F0B3BFC06C08B103F015BC4FF06A
:100AE000FF307047836C13B1184605F093B8C06CA3
:100AF00008B104F0B7BA704700B5836C83B063B136
:100B0000184601220DF1070104F0CCFE01280CD19A
:100B10009DF8070003B05DF804FBC06C28B101220A
:100B20000DF1070103F020FBF0E74FF0FF30F1E794
:100B3000836C13B1184605F0AFB8C06C08B104F06F
:100B4000EFBB704700B5836C83B08DF8071043B1DD
:100B5000184601220DF1070105F09EF803B05DF87B
:100B600004FBC06C0028F9D001220DF1070104F04C
:100B7000D7FB03B05DF804FB002310B4114C4172A5
:100B8000026104600372C36041B1194600E002696A
:100B900042F82310427A01339A42F8DC0A4B1A6871
:100BA0000AB90CE01A465369002BFBD150610023AF
:100BB00043618380C38083725DF8044B7047186083
:100BC000F5E700BF6C2E010058DE012070B5044629
:100BD00008460D460BF0B4FE23680246294620461F
:100BE0005B68BDE87040184738B5044608460D46B6
:100BF0000BF0A6FE2368024629465B68204698470C
:100C00000546204609F0CEF8284438BD284B29492E
:100C10001A68294842F400421A600A6842F0020247
:100C20000A601A6842F002021A600368002B3EDB79
:100C3000224B1B68002B3ADB214A4FF0864313609E
:100C40001368002BFCDBF0B51E4C1F48DFF8A8E052
:100C50001E491F4B1F4A204F204E214D41F2100CC0
:100C6000C4F800C0002404600120CEF80000DFF8C2
:100C70008CE0C1F800E04FF480311960194B13602B
:100C8000DFF87CE0184A3A603460286000F18E405A
:100C9000CEF80000154CB9671548164946F8503C87
:100CA0004FF4C0632A61236003600B60F0BD70479E
:100CB0003C8004404080044000F0024080F002404C
:100CC00000F1024004F1024060F0024008F00240EE
:100CD0000CF0024010F0024014F00240E0F002403C
:100CE00084F002401B1F0100001F1F1F08B00440BA
:100CF0000CB0044018B0044004F0024001000007AA
:100D000088F00240F8B5294C294E054601212046BD
:100D100008F04AFE2846FFF779FF264B264A274867
:100D20004FF480611960236800211A60998022794C
:100D3000186102F1804202F5043240F20220D880AC
:100D40009E614FF48075042006278C26DD82D960D1
:100D5000DD8398609F8398821170167009F0E2F924
:100D60001749184B2279184F08701A703968227980
:100D7000164C174D174E41F0124141F0010153112D
:100D800039609B00206803F1604302F1100703F50E
:100D9000614302F01F02012140F0104001FA02F20B
:100DA000206045F827601A60F8BD00BFACD0012074
:100DB00000FCFFFF14B00440A0F002400002FF1F3F
:100DC000A8CD01201B80004080F0024000F00240CE
:100DD00000720120750400002DE9F8438146806807
:100DE0002DED048B013008EE901A002108EE102A38
:100DF0000AF0C0FBDFED237A9FED239A07EE100A7D
:100E0000C7EE876A012080460124002540F20116C2
:100E10000027F8EE687AB8EE488AB7EE007A68EEF6
:100E2000277AC6EEA78A07EE904AF8EEE77A67EED1
:100E3000A87ABDEEE78AB8EEC88A37EEC88AB4EE63
:100E4000C78AF1EE10FA0BD5F4EEC97AF1EE10FA7A
:100E500006D517EE900A0AF033FCA046B0EE487AA9
:100E6000013445F10005BD4208BFB442DBD1BDEC01
:100E7000048B08F1FF330138C9F80030C9F80400C9
:100E8000BDE8F883001B374C00008045F0B5082A08
:100E90008BB00CBF002301230E461446074601FB0E
:100EA00002F2014607A80993FFF796FFDDED077AE6
:100EB000089ADFED2D6A099D079B0196B8EE677AC7
:100EC0000132F7EE007A77EE277A07EE102A67EE06
:100ED000A67AB8EE477A0135C7EE876A591C0291A7
:100EE0003B4603920495214A2149224807EE905A35
:100EF000B6EE006AB8EE677A66EE866A07EE904A4A
:100F000086EE876A1C4D1D4C07EE106AF8EEE77AF4
:100F1000B8EEC77A67EE877A86EE277ABDEEC77A93
:100F20008DED007A08F056FF154916480B6823F03E
:100F300010430B60079A089B120302F47F22C3F34D
:100F40000B0313432B609DF8243043F0E0632360D0
:100F50009DF8243043F08E4303600B6843F0104348
:100F60000B600BB0F0BD00BF001BB74C00D8B8053C
:100F7000082F01002079012004F1024008F002400E
:100F800080F0024088F002402DE9F04786B0054627
:100F900001F0AEFF064601F09BFF824601F088FF9C
:100FA000074601F055FF804601F062FF814601F0DF
:100FB0006FFF0F4C0F49049033462A460591CDF838
:100FC00000A00D49CDF80C90CDF80880019720467F
:100FD0000BF098FB20460BF0B3FC0146204607F0CF
:100FE00065FA064808F0DEFE204606B0BDE8F08748
:100FF000ACCC012038770120202F0100207901207E
:10100000144B1549154AF0B4DA61024603C9144E6F
:10101000186096E80300134D986095E80300124CA1
:10102000D86094E803002C3A22F0030202F124076E
:10103000012602254BF68034586204219A62102260
:101040005F609E82DD829C61184619841A615A8411
:10105000F0BC7047B0CD0120642F01000077010083
:101060006C2F0100742F01007C2F010070B5044625
:1010700000F5916528464FF0000106F083FDC4F8A5
:10108000845425B1284606F02DF9054678B10F4E57
:101090000F4D012120240D2007F05AFC3460C82098
:1010A00007F07EFC2C60C82007F07AFCF1E7D4F84A
:1010B0008414204605F0A0FC0028E8D0054B064A21
:1010C000A4F8FE54A4F8FC541A6070BD84F00F40DC
:1010D00088F00F40E4DC01203D0900002DE9F047D5
:1010E0000546D0F8F404002841D004F099FDD5F865
:1010F000F434002B44D0D3F81CA04FF00009D046A4
:101100005046FFF77DFF364F044600F1200E206861
:101110006168A268E3683E460FC6103474453746DE
:10112000F5D120686168A26807C7D5F8F4040028E3
:1011300040D0002104F0B8FCD5F8F40448B34FF4D3
:101140000072274904F0A8FDD5F8F40470BBD5F867
:10115000F80418B142464B4603F0EEF805F2BC40E5
:1011600005F0F6FB0020A5F8FC04BDE8F087D5F8F3
:10117000F80440B304F062F8D5F8F434002BBAD187
:10118000D5F8F8342BB3D3E904894FF00009C246EF
:10119000B6E7D5F8F8040028E0D04FF40072104903
:1011A00004F0BEF8D5F8F4040028D0D0514604F07D
:1011B0007BFCD3E7D5F8F8040028CFD00022002329
:1011C00003F0BAF8B8E782464FF000084FF0000984
:1011D00096E79A464FF000084FF0000990E700BFED
:1011E000AC8A01202DE9F04F444C8BB02468DDF827
:1011F0005090019305468A46904600F2BC4B34B1AC
:10120000214640F201633E4A584605F0B5FBB8F16D
:10121000000F70DDAAF10407002602AC04E004F020
:101220003BFD0136B0451CD057F8042F3549204608
:101230000BF068FA20460BF083FBD5F8F4348646B1
:10124000024621461846002BE9D1D5F8F8347246FB
:1012500021461846002BE4D0013604F061F8B04571
:10126000E2D1B9F1000F25DD019B00261F1F04E02C
:1012700004F012FD0136B1451CD057F8042F214966
:1012800020460BF03FFA20460BF05AFBD5F8F43419
:101290008646024621461846002BE9D1D5F8F83497
:1012A000724621461846002BE4D0013604F038F887
:1012B000B145E2D10AEB8802134920460BF022FA2D
:1012C000D5F8F40448B12146062204F0E5FC58465E
:1012D00005F03EFB0BB0BDE8F08FD5F8F804002810
:1012E000F5D02146062204F01BF8584605F030FBE5
:1012F0000BB0BDE8F08F02ACB3E700BFE8DC012023
:10130000842F0100982F0100902F01002DE9F04F4C
:101310003F4C8BB02468DDF85090002C3DD000F29B
:10132000BC4B019390468A46054621465846002309
:10133000384A05F021FB80B3B8F1000FD5F8F4343A
:101340002EDD5746002602AC0FE004F0ABFA002871
:10135000314903DD3A4620460BF0FAF9D5F8F4346A
:101360000136B04507F104071BD00C222146184670
:10137000002BEAD1D5F8F8040028F1D00C22214640
:1013800002F0F2FEE3E783B318460622214604F09A
:1013900089FA98BB584605F0DBFA0BB0BDE8F08F30
:1013A00002ACB9F1000FEEDD019E00270FE004F062
:1013B00079FA0028184903DD324620460BF0C8F9B7
:1013C000D5F8F4340137B94506F10406DBD00C2218
:1013D00021461846002BEAD1D5F8F8040028F1D0B0
:1013E0000C22214602F0C0FEE3E7D5F8F80428B14C
:1013F0000622214602F0B8FE0028CBD000230AEBDB
:101400008802204605498DF80D300BF0A1F9C1E79F
:10141000E8DC0120842F0100A02F0100402F0100F3
:1014200070B582B00646079C069D8DF8043002A870
:10143000632CCCBFA4F2B2741E3400F8082D8DF8D2
:1014400001108DF806408DF805508DF8026001F00E
:1014500031FC044607F056FA204601F05BFD02B06D
:1014600070BD00BF2DE9F043B54D83B006F0F4FF29
:101470000028FBD006F0B4FFC4B22146B1480BF0FF
:1014800095F90028F2D03F2C0FD040F3AF80612CAB
:1014900000F05E81782CE9D1AB4808F0FFFE00B285
:1014A0000028E3D003B0BDE8F08306F0D5FF0028A4
:1014B000FBD006F095FFC4B22146A4480BF076F9A4
:1014C0000028D3D0313C462CD0D801A353F824F0C7
:1014D000D9180000E5180000F1180000FD18000000
:1014E0006D1400006D1400006D1400006D140000F8
:1014F0006D1400006D1400006D1400006D140000E8
:101500006D1400006D1400006D1400006D140000D7
:101510006D1400006D1400006D1400006D140000C7
:101520006D1400006D1400006D1400006D140000B7
:101530006D1400006D1400006D1400006D140000A7
:101540006D1400006D1400006D1400006D14000097
:101550006D1400006D1400006D1400006D14000087
:101560006D1400006D1400006D1400006D14000077
:101570006D1400006D1400006D1400006D14000067
:101580006D1400006D1400006D1400006D14000057
:10159000091900006D14000015190000231900003E
:1015A000331900006D1400006D1400004119000093
:1015B0004F1900006D1400005D1900006D1400004B
:1015C0006D1400006B1900007719000083190000EA
:1015D0006D140000911900009D190000AB19000066
:1015E0006D1400006D140000BB190000212C7FF465
:1015F0003DAF05F10C0696E8C00106F02DFF00286E
:10160000FBD006F0EDFEC4B2214650480BF0CEF8F8
:1016100000283FF42BAF313C462C3FF627AF01A307
:1016200053F824F0C9190000E1190000811A0000E4
:10163000971A00006D1400006D1400006D14000076
:101640006D1400006D1400006D1400006D14000096
:101650006D1400006D1400006D1400006D14000086
:101660006D1400006D1400006D1400006D14000076
:101670006D1400006D1400006D1400006D14000066
:101680006D1400006D1400006D1400006D14000056
:101690006D1400006D1400006D1400006D14000046
:1016A0006D1400006D1400006D1400006D14000036
:1016B0006D1400006D1400006D1400006D14000026
:1016C0006D1400006D1400006D1400006D14000016
:1016D0006D1400006D1400006D1400006D14000006
:1016E0006D140000B51A00006D140000E71B000027
:1016F000FF1B0000591C00006D1400006D14000059
:10170000751C0000D11A00006D140000ED1A0000D5
:101710006D1400006D140000091B0000211B000067
:101720003D1B00006D140000551B0000711B0000E4
:101730008D1B00006D1400006D140000BD1800002A
:10174000607701200C300100207901201430010065
:101750002B68AB49AB48AC4E6F2208F03BFB2246EE
:101760006B68AA49A74808F035FBAB68A849A548AB
:10177000722208F02FFBEB68A649A248312208F03C
:1017800029FB2B69A4499F48322208F023FB6B698F
:10179000A2499C48332208F01DFBAB69A049994837
:1017A000342208F017FB974808F0FCFA9D4B9E493D
:1017B00094486E2208F00EFBFFF742F964220346BC
:1017C0009A49904808F006FBFFF720F97422034677
:1017D00097498C4808F0FEFA8A4808F0E3FA336823
:1017E00094498848632208F0F5FA7368924985485D
:1017F000682208F0EFFAB36890498248772208F02F
:10180000E9FAF3688E497F48732208F0E3FA3369F6
:101810008C497C48652208F0DDFA73698A49794869
:10182000692208F0D7FAB369884976486B2208F034
:10183000D1FAF36986497348702208F0CBFA7148EF
:1018400008F0B0FA1721834806F030FE6D4808F022
:10185000A9FA4021804806F029FE6A4808F0A2FA59
:1018600020217E4806F022FE664808F09BFA5821A7
:101870007B4806F01BFE634808F094FA262179485D
:1018800006F014FE5F4808F08DFA4521764806F010
:101890000DFE5C4808F086FA3221744806F006FE18
:1018A000584808F07FFA2B21714806F0FFFD554893
:1018B00008F078FA534808F075FAD7E5514808F06F
:1018C000EDFC0028C0F22182B0F5003FA8BF4FF424
:1018D00000304D4B9860C9E5EA686649494808F010
:1018E00079FAC3E52A696349464808F073FABDE509
:1018F0006A696049434808F06DFAB7E5AA695D492D
:10190000404808F067FAB1E56A685A493D4808F06E
:1019100061FAABE53C4B58491A683A4808F05AFA64
:10192000A4E5FFF78DF855490246364808F052FA0B
:101930009CE5354B50491A69324808F04BFA95E559
:10194000314B4D495A682F4808F044FA8EE52E4B2A
:1019500049495A692B4808F03DFA87E52A4B464920
:101960009A69284808F036FA80E52E4A4349254806
:1019700008F030FA7AE52A683E49224808F02AFA47
:1019800074E5214B3C49DA691E4808F023FA6DE5FD
:10199000AA6838491B4808F01DFA67E51A4B364912
:1019A000DA68184808F016FA60E5FFF72FF83349AF
:1019B0000246144808F00EFA58E5134B2E499A686F
:1019C000104808F007FA51E50E4808F067FC0028B7
:1019D000C0F2998118280346A8BF1823EB6045E59B
:1019E000084808F05BFC172E00F35A81864205DC9C
:1019F0001828C8BF182000F356810646304652E129
:101A00003830010020790120407701204C3001005E
:101A1000603001007430010088300100A030010006
:101A2000B430010080770120C8300100D8300100B7
:101A3000E8300100F83001001431010028310100C4
:101A40004031010058310100743101008C31010036
:101A5000AC310100C8310100E03101002432010045
:101A600048320100A4320100CC32010014330100DD
:101A7000483301002830010030300100902F010070
:101A8000AB4808F00BFC172F00F30581874240F3A9
:101A900021816F61EAE4A64808F000FC464544460F
:101AA00040F30481804503DC8642C0F21081044685
:101AB00026460CE19E4808F0F1FB0028C0F2148194
:101AC000B0F5003F0346A8BF4FF400336B60CDE490
:101AD000974808F0E3FB0028C0F22781B0F5003FEB
:101AE000A8BF4FF40030934B5861BFE4904808F012
:101AF000D5FB0028C0F21781B0F5003FA8BF4FF416
:101B000000308C4B9861B1E48B4C261D06F068FCCC
:101B100004F8010FB442F9D1002385F82430A5E47C
:101B2000834808F0BBFB0028C0F2FB80B0F5003F03
:101B30000346A8BF4FF400332B6097E47C4808F0BD
:101B4000ADFB0028C0F2EB800A28A8BF0A20794B21
:101B5000D8618BE4764808F0A1FB0028C0F2DD8054
:101B6000B0F5003F0346A8BF4FF40033AB607DE4FF
:101B70006F4808F093FB0028C0F2CD80B0F5003F1D
:101B8000A8BF4FF400306B4BD8606FE4684808F092
:101B900085FB041EC0F2BD80172CA8BF1724644823
:101BA00008F07CFB061EC0F2B2803B2EA8BF3B268D
:101BB0005F4808F073FB071EC0F29F803B2FA8BF51
:101BC0003B2701F075F9804601F082F9814601F06A
:101BD0008FF9CDF80090019043463A4631462046B1
:101BE000FFF71EFC42E4524808F058FB0028C0F200
:101BF00082800128A8BF01204E4B186036E44C4873
:101C000008F04CFBB0F5FA6F044641DB40F6B83300
:101C10009842A8BF1C46464808F040FB071E70DDEE
:101C20000C2FA8BF0C27424808F038FB061E66DDC3
:101C30001F2EA8BF1F2601F00BF9804601F018F9EE
:101C4000814601F025F94946024601944046009735
:101C50003346FFF7E5FB09E4354808F01FFB002891
:101C600047DBB0F5003FA8BF4FF40030314B18619F
:101C7000FFF7FCBB2E4808F011FB431C36DBB0F528
:101C8000003FA8BF4FF400302A4B5860FFF7EEBB6F
:101C90004FF4FA64BFE71828A8BF18200746F8E6F3
:101CA0001828A8BF18202861FFF7E0BB002817DB21
:101CB0001828A8BF1820864214DA804512DD06EBEA
:101CC000080303EBD373B0EB630FC8BF4646AE61A6
:101CD000FFF7CCBB1828C8BF18273FF7DAAEDDE7FF
:101CE0000020E8E70646F2E70023EFE64FF0FF307A
:101CF000CAE70020BAE700207EE7002761E7012657
:101D000099E701278FE7002368E60020E1E5002638
:101D10004EE7002443E7002035E7002326E70020B4
:101D200015E7002308E70020EBE60020DBE600BF14
:101D300020790120407701207F7701202DE9F04FA5
:101D4000032083B0022106F003FE5848584C594D39
:101D5000594F5A4E01F000F923780320002B00F070
:101D60009F802B78DA0740F19B803B6832689B1A92
:101D70000E2B40F2958012215148524D06F096FBF1
:101D8000514808F00FF840F26221504808F07EF800
:101D90004F4A5048136823F0104313600824FFF79C
:101DA00065F92B46009422464B494A48FFF7AEFAA4
:101DB0004A4B1B68DB0408D4FFF754FB009422460F
:101DC0002B4645494348FFF70DFA022220214BF6E6
:101DD0008030FFF75BF8424C424B43494348444E46
:101DE0000A220C27A3F8822027800AF047FD414BE6
:101DF0006A68AC68E8689A63002188466A69596233
:101E0000DC6329691864ED6959644FF480604FF010
:101E1000FF349A64DD641C62C34618655865B14698
:101E20004FF48F6AD9F86C0418B108F0B9F8C9F802
:101E30006CB40AFB0865B5F87244B5F87034A4B206
:101E40009BB29C4215D04FF48F7707FB08F7013403
:101E5000A4B2B4F5897F88BF002423463B440833ED
:101E600056F8230008F09CF8B5F870349BB2A342F2
:101E7000EDD101220AFB08639044B8F1020FA3F8E8
:101E8000724409F58F69A3F87424CBD10C211A4848
:101E900006F00CFB0C4803B0BDE8F04F07F082BF22
:101EA00006F048FD00283FF457AF64E7F109000051
:101EB0002CDE012044DD012048DD01201CE2012050
:101EC0007433010040770120207901200006FF1FB4
:101ED00080F002409C8301206077012010F00F40C9
:101EE0003E770120D4CC0120807701209E880120FC
:101EF000B4D0012040D00120883301000546D0F83D
:101F0000840408B50C46B8B103685B6A984798B971
:101F1000D5F8783423B1DB794BB107F0B3FEFCE799
:101F2000D5F87C341BB193F83C34002BF5D1204616
:101F30001549FEF759FEF0E714492046FEF746FE24
:101F4000D5F88404F0B103685B6A98470146002322
:101F50001022204607F04CFF0D492046FEF736FEC2
:101F6000D5F8840460B103689B6A9847C1B2002326
:101F70001022204607F03CFF204607F013FFCCE775
:101F80000146F4E72921E2E7A83301009833010074
:101F9000A4330100074C08B505460E462046064905
:101FA000FEF714FE31462046FEF71EFE2146284667
:101FB000FFF7A4FF20790120BC33010070B504466F
:101FC000B0F9FC040E46154630B1431E9BB2012BFE
:101FD00025D903285CD070BD04F20250FEF7D4FF6F
:101FE00000285BD0334B196800293ED0024640F2EE
:101FF000026304F2BC4004F0BFFCB0B3D4F8F404B4
:1020000028B34FF0207103F0B7FB50B34FF40072C8
:102010003146294806F04AF90023A4F8FE34D4F8E2
:10202000F40402236D00A4F8FC3410B331462A46B0
:1020300003F032FEA84238D1B4F8FE34B4F90025DA
:102040000133A4F8FE34EAB9B4F9FC04C1E7D4F8CA
:10205000F80430B14FF02072002303F0A9F80028F3
:10206000D4D120461549FFF795FF20461449FFF7C4
:1020700091FFD4F8F8040028DCD031462A4603F05A
:102080004FF9D7E700220323A4F80025A4F8FC3475
:102090002046FFF723F8A4F8FC0470BD4FF6FF7349
:1020A000A4F8FC344FF0FF3070BD20460549FFF71F
:1020B00071FF00BFE8DC0120AC8A0120F033010091
:1020C000DC330100C43301002DE9F04FB84CB4F803
:1020D0007034B4F872149BB289B2994286BF03F28D
:1020E0001312531A5B1AB4F8E828B4F8EA189BB232
:1020F00092B289B2003318BF0123914288BF02F225
:102100001312521A92B289B0002A00F0AD80002B4F
:1021100000F0AA80A649002206A84FF48F654FF46C
:102120008F7ED1F86C34002B00F08381002340F8BF
:1021300022300132022A01F58F61F2D19D4B0699BE
:10214000079A03F500750239023A31F9020F23F8B4
:10215000040C32F9020F23F8020C0433AB42F4D121
:10216000D4F86C04924D20B107F01AFF0023C5F893
:102170006C34D4F8E4088E4D20B107F011FF002331
:10218000C5F8E4388C4A8D4B126A8D4E002ACCBFBC
:10219000012200221A8040F3C980B6F90000894D5F
:1021A000002800F0DE802F68874BC7EB03084FEA5A
:1021B0006808B8F5807FB94600F32E81834BB3F9E8
:1021C00000351BB108EBD87828F00108B8F1000FF2
:1021D00040F35A81DFF834E23B464FEA4807D8190A
:1021E000724632F9021B23F8021B9842F9D1774458
:1021F000814606F0B3FBDFF8E0A1CAEB09025210FA
:10220000834651467148FFF7D9FE308006F0A6FBA1
:102210006F4A1368CBEB000098426E4B38BF1060DA
:102220001A68C8F58078904288BF18606A4AB8F189
:10223000000F07D00023013337F8021B22F8021BDE
:102240009845F8DCB6F900302A606BB90822009294
:10225000624B63495D48FEF7C5FF0621614806F001
:1022600025F9614807F09EFD604B614F1B68614E88
:1022700005933B683268059903F57A7301328B4206
:1022800032604FD252495C4D08685C494F4BB5F8FB
:1022900000C0DFF840B1B3F8FE34CDF808C0884282
:1022A00088BF4FF0FF300090DBF8001001914E48DE
:1022B0005349DFF85C81DFF85C91DFF8FCA007F0A0
:1022C00089FD5049D8F8003009882980D9F80010D4
:1022D0000091DAF824100391DAF820103C480291BA
:1022E00000254FF000410160A269D8F8000046497E
:1022F000D9F800E0CBF80050B0FBFEF001903A486E
:1023000007F068FD3848CAF82450A56107F04AFD77
:10231000364B35601B680693069B3B60C8F800503F
:10232000C9F8005030BF09B0BDE8F08FB6F90030F1
:10233000002B99DD234DDFF8A0A02B68CAEB030327
:102340005A1040F09B802148FEF7C8FE08223080DA
:10235000224B009222491D48FEF744FFC5F800A019
:1023600082E7FEF74DFED5F800E01B4AC2EB0E07F0
:102370007F10002F0CDD07F10047013F02EB4707FC
:10238000931E2A3233F9021F22F8021F9F42F9D10D
:10239000114A031F283053F8041F42F8041B8342DC
:1023A000F9D10EF12C0701232F603380FCE600BF2A
:1023B000B4D0012014CE012040D00120E0CD012076
:1023C000ACD9012034770120ACCC01209C830120C2
:1023D000A4CD0120A88A0120AC8C012040770120E7
:1023E00060770120083401002079012048DD0120B8
:1023F000B0D901200CCE01205CDE0120A0860100B6
:1024000010340100DCDE01203034010010CE012048
:10241000A8D90120ACCD01201C4BBA1E03F50070D9
:1024200033F9021B22F8021F8342F9D107F500722B
:1024300008E705FB02471E46B7F872C4B7F8708478
:102440001FFA8CFC1FFA88F80CF10107C445BFB2D3
:102450003FF46DAEB7F5897F98BF3E460EFB026331
:1024600003F1080388BF374654F82330C1F86C34B1
:1024700005FB02460433A6F8727458E65146044838
:10248000FFF79CFD30805EE7004FB2E610CE0120E2
:102490009C8301202DE9F84FA54CA64AA649A748E0
:1024A000A74DA84F08F090FA22682F6000236B72A6
:1024B0002B612B72EB600AB936E11A465369002B87
:1024C000FBD155614FF000089F4EA04B9C48C5F8CA
:1024D0001480A5F80480A5F8068085F80A802B6092
:1024E000DFF89492FEF70EFC06F11C020121304643
:1024F000FEF742FBA6F8708406F294420121A6F88A
:10250000728406F58F60C6F86C84A6F87484C6F8E9
:102510000090FEF731FB8E4BA6F8E8884FF0020ED4
:1025200003F11801A6F8EA8883F809E04246C6F8E4
:102530007894C6F8E488A6F8EC8840461F6083F8D3
:102540000880C3F80C8019619E4601E0DEF8101087
:1025500041F82200597A7E4F01329142F6DC21681F
:10256000734A09B9E2E011464A69002AFBD14B617E
:1025700000214FF00C0E774FA3F880E002240A46AA
:1025800059619980D980997208461F60A3F88240EA
:1025900002F1080101320C2A43F82100F8D100228F
:1025A000104602F1140101320C2A43F82100684F51
:1025B0004FF00004F5D1DFF8C4B1DFF8C481A7F80B
:1025C000802002210BF118025846FEF7D5FADFF8F9
:1025D000B491614BCBF80030404688E8200888F879
:1025E000084088F80940C8F80C4088F8104007F007
:1025F00027FD504A5949404608F0E6F9DFF888813E
:10260000C9F80C404FF0010A484689E8200889F8CB
:10261000104089F808A089F809A007F011FD454A83
:102620004E49484608F0D0F9DFF8609188F8084034
:10263000404688E8A00088F80940C8F80C4088F8AF
:10264000104007F0FDFC3B4A4449404608F0BCF905
:10265000DFF83C81C9F80C40484689E8A00089F8B9
:10266000104089F808A089F809A007F0E9FC314A70
:102670003A493B4D484608F0A7F94046C8F8007073
:10268000C8F8046088F8084088F80940C8F80C4089
:1026900088F8104007F0D4FC264A3049404608F03C
:1026A00093F9304B6B60284685F808A02F606C7258
:1026B000EC602C7407F0C4FC28461E4A27492A4DBA
:1026C00008F082F9294B2A48DFF8C8E0C3F87844BB
:1026D0002827C3F87C4483F8904483F8AA4483F8FD
:1026E000B04483F8B844C3F8F444C3F8F844A3F8FA
:1026F00000454FF47A764FF6FF74DFF89CC083F8FC
:10270000A774C3F89404C3F888C41846C3F89CE4BB
:10271000C3F8B464C3F8AC54A3F8FC44054A1549A3
:10272000BDE8F84F08F050B92560CBE617601FE709
:1027300058DE012030770120010A0000ACD00120D2
:1027400024D001206C2E0100B4D00120D82E01002D
:10275000D4CC0120842E0100E42E0100F5090000F4
:1027600098D001202CD50120B42E01009C8301209B
:102770009C350100D5090000782E010040D00120D1
:1027800058CD012010D00120E4CD0120F8CD01204A
:1027900090CD012001100138F435010010B4047F00
:1027A0004160022CC26003D05DF8044B07F07EB993
:1027B00083685DF8044B18472DE9F0410468E5682B
:1027C00015F0807F794D256052D1DF0740F1B3804D
:1027D000002900F0E3800D78012B18BF45F000457B
:1027E0006563013190F82C8003F1FF3C48EA08282A
:1027F000BCF1000F00F0A88021B14D7811F8028BD8
:1028000045EA082845682E7ABCF1020F06F1FF362A
:102810004FEA06360CBF48F0805548F01045B6B276
:102820006563ACF1020C08E00AB114700132013B9F
:1028300005F47045B54216D90468E56A15F0F00F45
:10284000F6D0A46B13F0010F17464FEA242EEBD1FC
:102850001AB107F802EB54703A4605F47045B542D8
:10286000A3F10203E8D8BCF1000F6DD00468C3E700
:10287000DD074CD5002900F089800D78012B18BFA9
:1028800045F000456563013103F1FF3E90F82CC02F
:10289000BEF1000F41D029B191F801C00D7802318D
:1028A00045EA0C2C45682E7ABEF1020F06F1FF3680
:1028B0004FEA06360CBF4CF080554CF01045B6B2CE
:1028C0006563AEF1020E08E00AB114700132013BFB
:1028D00005F47045B54215D90468E56A15F0F00FA6
:1028E000F6D013F0010F1746A46BEDD122B107F813
:1028F000024B241254703A4605F47045B542A3F1D8
:102900000203E9D8BEF1000F07D00468C3E79E4672
:1029100090F82CC0BEF1000FBDD11BB30468E16A72
:1029200011F0F00FFBD0A16BDC071DD50AB11170BF
:102930000132013BF1E790F82C809C4648EA0828D8
:10294000BCF1000F7FF458AF63B10468E16A11F085
:10295000F00FFBD0DE07A16B0FD50AB11170013269
:10296000013BF1E7BDE8F0812AB114460D1204F8ED
:10297000021B55702246023BCFE72AB114460D12C6
:1029800004F8025B51702246023BDDE790F82C50C0
:10299000012B18BF45F00045656375E790F82C5092
:1029A000012B18BF45F0004565631BE700041F803D
:1029B000F0B4464B464A986B5C6B017911704549FF
:1029C00022790A701A6B00790870002A46D059687B
:1029D000C9688A423ED82168CC8B240402F1FF30BA
:1029E00065D4C0F30E00C883C88B80B2C882996BCF
:1029F0000968C88B000452D4C2F30E00C883C88B88
:102A0000002480B212F1FF32C88218BF01221C6379
:102A1000596B2E4809680D6800F12C04A54236D088
:102A20000068C46814F0804F0C680D6815BF2488D6
:102A300024780235013544F000440D604463996BFD
:102A4000254B09791970214912B14A6B12791A7014
:102A5000F0BC7047521A1A630122D9E7D86B196883
:102A600005681E4C0A63CC62CC682D681C4E24F0AD
:102A700080440327B542CC6083F82D701FD1037FBB
:102A80004260022BC2601ED0F0BC07F00FB8016894
:102A900090F82C00CC6840F000404863CFE7CC8B26
:102AA000C2F3080004F47E442043C883A7E7CC8B1C
:102AB000C0F3080004F47E442043C88394E72B4607
:102AC0001146F0BC18478368F0BC1847887701208E
:102AD0001F8000401C8000401B80004000000FFF52
:102AE0009D2700000BB1FFF767BE7047644A654B36
:102AF0002DE9F04F644EDFF8A0A1644CDFF890910F
:102B0000A2FB00524FEA124C0CF10407A3FB002574
:102B1000A6FB0062A7FB0AAB6D09D20AA3FB056303
:102B2000A4FB0264CBEB07060BEB56065B09B60869
:102B30002409C6EBC606C3EB031304EB4404A5EB60
:102B40008303BE1BC5EB0515A2EBC402A0EB8500F9
:102B5000013600248A7008704B70CE70224640F215
:102B60006D1B4FF064084FF4C87A0EE0C6EBE51514
:102B70000AFB153570BB002D14BF58464FF4B770D3
:102B80000244944504F1010413D3E7B207F2B2738F
:102B900089FB0305DE17C6EB651013F0030E08FB77
:102BA0001030E3D040F26D100244944504F101046A
:102BB000EBD28F71BEF1000F0FD13548DE1780FBCD
:102BC0000340C6EB6014642505FB1434BCB34FF41A
:102BD000B77405E04FF4B770D2E740F26D14DE171A
:102BE0002B482C4D80FB0370C6EB6018121BC6EB04
:102BF000E01664244FF4C87000FB163604FB183846
:102C0000C2EB0C020120002302E00130C0B201330C
:102C1000012BDFB220D05C5D944209D80C28A2EBD6
:102C20000402F2D10D2701320A714F71BDE8F08F15
:102C30000137FFB201320A714F71BDE8F08F4FF4D6
:102C4000C874C6EBE01004FB1030002840F26D148D
:102C500008BF4FF4B774C3E7BEF1000F0AD1B8F153
:102C6000000F0BD1002E14BF1C241D24A24203D33D
:102C7000121BCAE71C24F9E70227D4E71D24F5E755
:102C800007452EC289888888C5B3A291ABAAAAAA93
:102C90001F85EB51E43401002549922410B5034906
:102CA0000446FFF723FF024B1C6010BDB8D901207A
:102CB000B4D901202DE9F0413949867901FB06F1AB
:102CC00006B306F2B27C40F2B373DFF8D8E06427B3
:102CD0004FF4C8780DE013F0030F09D1C2EBE512F1
:102CE00008FB123204B91AB901F5A83101F5C07117
:102CF00001338EFB0325DA17C2EB6514634507FB2E
:102D00001434E8D14779012F2FDD264C264ADFF80D
:102D10009CE006F2B27384FB0346DC17C4EB661C2E
:102D20006425C4EBE6164FF4C87405FB1C3C04FB99
:102D3000163603F00305012307E014780133BB4284
:102D40000EFB041102F101020FD0022BF5D1002D70
:102D5000F3D1BCF1000F1BD001F5181101F56E5134
:102D60000133BB4202F10102EFD143788578047848
:102D700002790E48C3EB03134FF461669B0006FB18
:102D800005332344013A00FB02300844BDE8F081DA
:102D9000002ED2D101F5181101F56E51E0E700BF08
:102DA0008033E1011F85EB51E434010080510100C3
:102DB000F0B5204C204E23683268204D83B028683F
:102DC0000093009B9B1AB3F57A7F0FD3013000E08C
:102DD000084623680093009B02F57A729B1AB3F5AC
:102DE0007A7F00F10101F3D228603260144F3B6812
:102DF00098420FD3134B1B6863B19847124B58B9D5
:102E000012491A680B7828680033024418BF01235E
:102E10003A600B7003B0F0BD226801921B680B4A48
:102E2000019C28600344022134603B60117003B0B0
:102E3000F0BD00BF48DD0120CCD90120C0D9012060
:102E4000D0D90120C8D90120C8770120C4D90120D8
:102E500008B5FFF7ADFF044B1B68984201D0FFF7A0
:102E60001DFF024B987808BDB4D90120B8D90120C4
:102E700008B5FFF79DFF044B1B68984201D0FFF790
:102E80000DFF024B587808BDB4D90120B8D90120F4
:102E900008B5FFF78DFF044B1B68984201D0FFF780
:102EA000FDFE024B187808BDB4D90120B8D9012025
:102EB00008B5FFF77DFF044B1B68984201D0FFF770
:102EC000EDFE024B187908BDB4D90120B8D9012014
:102ED00008B5FFF76DFF044B1B68984201D0FFF760
:102EE000DDFE024B587908BDB4D90120B8D90120C4
:102EF00008B5FFF75DFF054B1B68984201D0FFF74F
:102F0000CDFE034B987900F2B27008BDB4D9012010
:102F1000B8D9012070B40A4B0A4A1B6812680A4EDD
:102F20000A4D0B49306083B010440193019C094B5A
:102F3000286002220C601A7003B070BC704700BF9A
:102F400048DD0120C8770120C0D90120D0D9012057
:102F5000CCD90120C4D901200349044A044B096893
:102F600011601860FFF724BFC0D90120D0D901201B
:102F7000C8D90120024A0349034807F025BD00BF14
:102F800030770120010A0000D4D90120024A034908
:102F9000034807F019BD00BF30770120010A000087
:102FA000DCD90120024A0349034807F00DBD00BFE8
:102FB00030770120010A0000E4D90120024A0349C8
:102FC000034807F001BD00BF30770120010A00006F
:102FD000ECD90120024A0349034807F0F5BC00BFC1
:102FE00030770120010A0000F4D90120024A034988
:102FF000034807F0E9BC00BF30770120010A000058
:10300000FCD90120024A0349034807F0DDBC00BF98
:1030100030770120010A000004DA0120024A034946
:10302000034807F0D1BC00BF30770120010A00003F
:103030000CDA012038B5074D074C08482A462146CE
:1030400007F0C2FC2A4621460548BDE8384007F093
:10305000BBBC00BF30770120010A000014DA012058
:103060001CDA0120024A0349034807F0ADBC00BF47
:1030700030770120010A000024DA0120024A0349C6
:10308000034807F0A1BC00BF30770120010A00000F
:103090002CDA0120024A0349034807F095BC00BF1F
:1030A00030770120010A000034DA0120024A034986
:1030B000034807F089BC00BF30770120010A0000F7
:1030C0003CDA0120024A0349034807F07DBC00BFF7
:1030D00030770120010A000044DA0120024A034946
:1030E000034807F071BC00BF30770120010A0000DF
:1030F0004CDA0120024A0349034807F065BC00BFCF
:1031000030770120010A000054DA0120024A034905
:10311000034807F059BC00BF30770120010A0000C6
:103120005CDA012090F8392090F83800101A7047C6
:1031300090F8383090F839209A4205D95A1C034447
:1031400080F83820187E70474FF0FF30704700BF7E
:1031500090F8383090F839209A4286BF1B18187EB4
:103160004FF0FF30704700BF704700BF38B50546CD
:10317000B0F85E0090B195F85D301446C3F12102BD
:1031800094420CD805F13B001844224605F08EF815
:1031900095F85D30234485F85D30204638BD012028
:1031A00014462871EEE700BFB0F85E306BB190F8BE
:1031B0005D30202B07D8C218013380F85D30012024
:1031C00082F83B107047012303710020704700BF55
:1031D00038B50269D478E4B2E106054624D5102357
:1031E000D37063061FD504F0040404F0FF03002C21
:1031F0005AD042496A6E00230B7085F85D30002A70
:1032000066D0904795F85D30002B61D02B69D022B5
:103210009A702B6995F83B201A712B69012285F869
:103220005C200222DA7038BD04F0400303F0FF0096
:10323000002BD8D19379DBB203F0600160294ED026
:10324000937803F0100303F0FF01B3B114F001040D
:1032500037D195F85C3095F85D1099424BD9591CDF
:103260002B4485F85C1093F83B3013712B69D02206
:103270009A702B690222DA70D5E785F8601093798D
:1032800043F0200393712B6995F839101A791F299F
:10329000D2B2C6D8194800780028C2D068180131C7
:1032A00085F839100276BCE72A6985F83930C023E1
:1032B00093702B69114A1979012111700222DA7079
:1032C000B1E7C02393702B691A790222DA70AAE75A
:1032D0000122002385F85D2085F83B3096E703F056
:1032E000DF039371AB6E23B185F8380095F8390090
:1032F00098472A69A4E71471B8E700BF64DA01208F
:103300000148FFF765BF00BF387801200148FFF78B
:103310005FBF00BFA47801200148FFF759BF00BF7D
:10332000CC770120064B074ADA620221002259605D
:103330009A7083F8242083F8302083F83220704775
:1033400068DA01207C35010070B51A4C23780BB97E
:10335000012070BD184D194B286819680378FE2BA1
:1033600017D0174A00F032FE88B1164E316819B9ED
:1033700000232370012070BD28680378FE2B0FD036
:103380000F4A00F023FE10B100233360F0E7002065
:1033900070BD0B4800F026FAB0FA80F04009E3E770
:1033A000074800F01FFAB0FA80F040090028EBD17E
:1033B000EDE700BFC4DC0120C0DA01201079012054
:1033C000C4DA0120BCDA012070B5124D2B688342AB
:1033D0000E4611D00446FFF7B7FF08B9002070BDB4
:1033E0000D4B18680378FE2B0CD00C4A214600F0D8
:1033F00027FD0028F2D02C60094B19783143197051
:10340000012070BD2146054800F06AF9B0FA80F04D
:103410004009EEE710790120C0DA0120C4DA01206A
:10342000C4DC0120F8B590F82030C469102B1A4B89
:1034300005460E4617461B6816D004EBD1149C4275
:1034400016D106F07F06154A42F826701449287EE8
:103450000A78012842F001020A7018D9A968114AB5
:103460000B4413600120F8BD04EB11249C4208D0EA
:1034700000212046FFF7A8FF50B195F82030102B0F
:1034800007D1F6B2054A234622F81670DEE701207E
:10349000F8BD2346D5E700BF10790120C4DA01202A
:1034A000C4DC0120BCDA0120C36801338B4218D38D
:1034B00070B590F82030102B154B044616460D467B
:1034C000C0691B680FD000EBD11098420FD105F0F6
:1034D0007F01104B53F8213023F0704333600120FB
:1034E00070BD0020704700EB1120984207D00021EA
:1034F000FFF76AFF50B194F82030102BE7D1E9B202
:10350000044B33F811303360012070BD002070BDD2
:1035100010790120C4DA01202DE9F04F176883B03B
:103520006FB301374FF0000AC36803F1010813B30A
:103530008B46064691463C46002505E01C461F4644
:10354000F3680135AB4216D9A04538BF02242146A5
:1035500001AA304638BF2746FFF7A6FF631CD91BD8
:1035600048B1019A002AE9D18B4510D01C46F36876
:103570000135AB42E8D8002003B0BDE8F08FA1F1DF
:10358000010ABAFA8AFA07684FEA5A1ACCE7012CFC
:10359000F1D9F36801339C42EDD86FF070422146B7
:1035A0003046FFF73FFF0028E5D0A74214D2013C88
:1035B000012CE0D9F36801339C42DCD8621C21461F
:1035C0003046FFF72FFF0028D5D0A74204F1FF3483
:1035D00002D0012CEED1CEE7D9F8001059B1012963
:1035E000C9D9F36801339942C5D83A463046FFF746
:1035F00019FF0028BFD0C9F80070BAF1000F01D040
:10360000013737600120B7E72049214A0B6843F0B2
:1036100080030B6011461368DB07FCD40B689B0723
:10362000F9D41C4B30B44FF08072184D186000E094
:10363000A2B12968184B154C0B40013A002BF7D06A
:1036400062B1012B0AD1236813F0800F23680FD0D9
:1036500043F001132360032030BC70470B4A13680A
:1036600043F4702343F001031360012030BC704722
:1036700013F48030236804D043F001132360052045
:10368000F4E743F001032360F0E700BF30100B4084
:1036900024100B400C100B4001000E0070B50D4DB6
:1036A0000D480E4E00232B60FFF7AEFF40F2E734CB
:1036B00003463268520701D507480BB1184670BD62
:1036C0002B60FFF7A1FF013C0346F2D1002808BFA1
:1036D000052070BD08100B400000DB0C24100B40CF
:1036E000F8B5384B1A780AB10320F8BD5B78064666
:1036F00003B94902344D354C354B36484FF6FF7708
:103700004FF481322F6021601A60FFF77DFF00289F
:10371000EBD1314B31491B681C3406F1400206F5F0
:1037200010702B68284F43F0200613F4E00F2E6032
:103730003ED123681E05FCD50B6842F8403C0B685F
:1037400042F83C3C0B6842F8383C0B6842F8343C89
:103750000B6842F8303C0B6842F82C3C0B6842F88E
:10376000283C0B6842F8243C0B6842F8203C0B686C
:1037700042F81C3C0B6842F8183C0B6842F8143CB9
:103780000B6842F8103C0B6842F80C3C0B6842F89E
:10379000083C0B6842F8043C40328242C1D1002010
:1037A00009490B68084A9B07FBD50D4B1360F8BD10
:1037B00043F4E00343F020033B60FFF76FFF012079
:1037C000EEE700BFC8DC012030100B4008100B40B2
:1037D00004100B4010003A1110100B4020100B4049
:1037E00022000001F8B52B4B1A780AB10320F8BD6E
:1037F0005B78044603B94902274D28482A68284BBC
:103800002A604FF48132016026481A60FFF7FCFEFF
:103810000028ECD1244B254E1B68294604F500777F
:103820000B681D4AD806FBD52B6813F4E00F1AD19C
:1038300004F1400254F8043B3360A242FAD10B6811
:10384000DFF854E043F010030B600B6813F4E00062
:1038500013D19742E4D110490B680F4A9B07FBD55F
:10386000134B1360F8BD136843F4E00343F01003F7
:103870001360FFF713FF0120EDE7DEF8003043F49B
:10388000E00343F01003CEF80030FFF707FF0120FC
:10389000E1E700BFC8DC012030100B4008100B40EE
:1038A00004100B4000003A1810100B4020100B4081
:1038B0001200000138B590F90530002B03DBBDE89C
:1038C0003840FFF741BD044601210069FFF77CFD48
:1038D000F8B1257D104B13EB45151AD0A3790F4A8B
:1038E000012B9CBFA369EB61E36912686B831B0C1E
:1038F000AB8232B105F1160105F1180090472B8B10
:103900006B82637903F07F036371BDE83840FFF792
:103910001BBD002038BD00BFC4DA0120D8DC012067
:1039200010B500F1080204460121006AFFF7F4FD1A
:1039300050B1E3693BB96379A268E26163F07F0348
:103940006371012010BD012010BD00BFF8B583795F
:1039500013B182698A4201D20020F8BD022B0F46C2
:1039600005461AD007B32B6AE9681C7C4A1E04F18D
:1039700009037C1EDA40DC40A24211D9EB69AB603E
:1039800005F1080606E0A968286AFFF78DFD013CED
:103990000028E1D03246002CF5D1EF600120F8BDBF
:1039A0000029EBD0A41AEBE7AF60EF600120F8BD6F
:1039B0002DE9F04F8B46817985B0012907460192A8
:1039C00005D001233B71002005B0BDE8F08F42799E
:1039D0009107F6D5530708D5FC68B9698C4200F009
:1039E000B480FFF7B3FF0028EBD0019BFC68002BED
:1039F0004AD0DFF8A491DFF8A4A1DDF80480386A8A
:103A00000679013E06EA542616F0FF06C4F30804C0
:103A100043D1002C41D1B968002973D1FA69002A39
:103A200000F08380BA60C4F50075ADB245453AD95F
:103A3000057C4169023AAA400E4416441FFA88F5F3
:103A40001CB9F868BA6990424FD230460121FFF79D
:103A5000BBFC0028B5D04C4404EB050E74450DD0DA
:103A60000BF1FF31621E0EF1FF3611F8010F02F863
:103A7000010F9642F9D1C4EB0E04A344FC68B8EBE5
:103A800005082C44FC60BAD1BB69A34262D27A79A2
:103A9000BC6142F080027A7165E0C4F50075ADB298
:103AA0004545BA68C4D8017C4069023A8A40064458
:103AB000B5F5007F1644C3D1DAF80020964204BF62
:103AC0004FF0FF32CAF800202F4A10680278FE2A11
:103AD000314633D05A4600F079FA00283FF471AFEE
:103AE0000BF5007B4FF40075C8E7FFF72DFC0028AD
:103AF0003FF467AF2549CAF800600A7842F0010236
:103B00000A70A8E703AAFFF7CFFC00283FF45CAFD8
:103B1000386A1F4B90F82050039A4FF6F871102D19
:103B200018BF19468A42FFF47DAF3846FFF7F8FE0A
:103B300000283FF446AF386ABA6874E75846FFF782
:103B400051FEB0FA80F04009C7E7019B002B7FF4DB
:103B500050AF08E00F4B7A791B6823B1019B13B17A
:103B600042F080027A71120709D5BB79002B3FF42D
:103B700028AF3846FFF79EFE00283FF422AF019899
:103B800005B0BDE8F08F00BFC0DA0120C4DC012021
:103B9000F8FFFF0FD8DC0120C4DA012010790120E2
:103BA00000B583B002AB012203F8011D1946FFF7EF
:103BB000FFFE03B05DF804FB10B50121007804F0AE
:103BC000B3FE114A1378C3B11049CB7A00241846CA
:103BD000147093B1DA0703D50D4AC869106018460E
:103BE0009C0703D50B4B0A6AC87A1A60420705D4B2
:103BF000030702D5084B8A6A1A6010BD074B4A6A50
:103C0000C87A1A60F4E700BFE0DC01208877012061
:103C100000E100E004E100E00CE100E008E100E088
:103C2000234B1A781AB10078002104F07DBE70B4DD
:103C3000204A2149D47A096801251D70002C26D01C
:103C400072B6D47AE607234606D51C4DD3682E6893
:103C50003340D3612B602346A50706D5184D146960
:103C60002E68D37A344014622C605C0706D5154D5B
:103C700054692E68D37A344054622C601B0705D5F2
:103C8000114C936925682B409362236062B61368D8
:103C9000DA688A4207D00D4C1C600D4AD96041F0A9
:103CA00080441C611A600078002170BC04F03CBEA6
:103CB000E0DC012088770120DCDC012080E100E0ED
:103CC00084E100E088E100E08CE100E001403F0099
:103CD00000003F80F0B41248124A036882B01646D2
:103CE0000093009F4FF00045FF24136843F4806366
:103CF0001360D5625463D36A002BFCDAB36BDBB27A
:103D0000FF2B09D003680193019BDB1B8B42ECD393
:103D1000002002B0F0BC7047012002B0F0BC704738
:103D200048DD012000C00240F8B50D464FF4967101
:103D300016460446FFF7CEFF284B1A684FF00040A6
:103D400042F4806245F040011A60D8621A46596315
:103D5000D36A002BFCDA214918204FF000470A688B
:103D600026FA00F342F48062DBB20A60CF624B6352
:103D7000CB6A002BFCDA083810F1080FEFD155B3ED
:103D8000082D0CBF8721FF21144B1A684FF000400B
:103D900042F480621A60D8621A465963D36A002BD3
:103DA000FCDA0E4A002716464FF00045FF21136843
:103DB00043F480631360D5625163D36A002BFCDA4D
:103DC000B36BD8B21B06607000D4F8BD0137B7F5ED
:103DD000807FECD1F8BD9521D6E700BF00C002403E
:103DE000F0B41549154A0B6882B016460093009F3F
:103DF0004FF00045FF24136843F480631360D562DD
:103E00005463D36A002BFCDAB36BDBB2FF2B437035
:103E10000AD10B680193019BDB1BB3F5967FEAD9AE
:103E2000002002B0F0BC7047A3F1FE00B0FA80F0B1
:103E3000400902B0F0BC704748DD012000C00240DC
:103E4000F8B58378032B0E46044618BF4E0215467C
:103E5000FFF7E6FE324611212046FFF765FF18B94D
:103E60002046FFF7BDFF20B92046FFF7A5FE002042
:103E7000F8BD204B2049214A1A608E4659631A46E4
:103E800059631E46596305F5FD70A91C05F5FE77BB
:103E9000D36A13F0F00FFBD0C6F834E0B36B01F82F
:103EA000013C1B1201F8023C02318F42F0D105F5B2
:103EB0000075A8420DD20F4A1646D36A13F0F00FD0
:103EC000FBD0B36B191200F8021BA84200F8013CAA
:103ED000F3D3084B0949084A196019465A63CB6A5B
:103EE000044A13F0F00FFAD02046936BFFF764FEFC
:103EF0000120F8BD00C00240FFFF009000041F80B9
:103F0000F0B4314E33684FF0004743F480633360C0
:103F10003D46F762344671633346511C02F2012775
:103F2000E26A002AFCDA1A6811F8016C42F4806235
:103F30001A60DD625E63E26A002AFCDA1A6811F830
:103F4000026B42F480628F421A60DD625E63E7D1E9
:103F50001D49CA6A1C4B002AFBDA1A684FF000455B
:103F600042F48062FF241A601946DD625C63CB6A0A
:103F7000154A002BFBDA13684FF0004543F48063C9
:103F8000FF2413601146D5625463CB6A0E4A002B9E
:103F9000FBDA13684FF0004543F48063FF2413609D
:103FA0001146D5625463CB6A074A002BFBDA936B48
:103FB000DBB203F01F024370A2F10500B0FA80F0FB
:103FC0004009F0BC704700BF00C0024070B5044615
:103FD00071B18378032B0D4618BF4D021646FFF7CB
:103FE0001FFE2A4618212046FFF79EFE054620B1F7
:103FF0002046FFF7E1FD002070BD3246FE2120463D
:10400000FFF77EFF0028F3D04FF416712046FFF72C
:1040100061FE0028ECD02A460D212046FFF784FEE1
:104020000028E5D10B4B1A684FF0004542F480623E
:10403000FF201A601946DD625863CB6A054A002BDF
:10404000FBDA936B13F0FF0FD2D12046FFF7B4FDDC
:10405000012070BD00C00240014B024A1A60704747
:10406000DCDC01200110013810B5044600F0FAFF35
:10407000002384F8313084F8333010BD90F83120BB
:104080000AB10020704738B504460D461146382263
:1040900008F0E4F84023012084F8313084F833003C
:1040A000256238BDF0B50878202803D111F8010F3A
:1040B0002028FBD051600878002851D02F282BD021
:1040C0005C2820D0A0F12204E4B21D2C1DD9DFF819
:1040D00094E04E1C00247C28A0F12005374612D025
:1040E0005E2D10D816F8010BA0F12205EDB20134B7
:1040F00078B32F2811D05C282EFA05F703D01D2D98
:10410000E9D8FD07E7D50020F0BD164D25FA04F4E7
:10411000E607DCD50020F0BD00240F193E462546F9
:104120002F2002E016F8010F01352028FAD02F28A1
:10413000F8D02944196044B1394611F8013D2E2BBD
:1041400001D0202B08D1013CF7D12046106001207E
:10415000F0BD1F600F19EFE7FF2CF6DD0020F0BD6A
:104160001960F3E7010100352DE9F04F90F8333085
:10417000DD0783B0044640F1AC8058060D46164674
:1041800040F1B280D4E90001D4E9042310EB060821
:1041900041F100094B4508BF4245C0F0AB80002EFD
:1041A00000F0AA80A146F9E80623B0464FE0134389
:1041B0006BD194F831305A064CBFD0F82C14E16919
:1041C000A16190F83DC4D0F8242402397F0A01FA95
:1041D0000CFEB9187144BAF1000F42D1B8F5007F56
:1041E0003FD3D0F8142291423BD0B8F5806F53D31F
:1041F000012303FA0CFCC7EB0C074FEA58239F423C
:1042000028BF1F4691424FEA472B0BD87B18934299
:1042100008D900F50370019100F0F6FB002858D092
:10422000206A0199D0F8380402683B46D7682A46CC
:10423000B84700284DD058460021D4E90023121871
:104240004B41B8EB0B085D44C4E9002354D0206A0D
:10425000D0F830741740C7F3080A002FA7D0A1691F
:10426000AFE700F50370002200F06EFB88B3CAF5DB
:10427000007BC34528BFC34600EB0A015A462846C7
:1042800004F014F858460021D7E794F833305B0661
:104290000FD5A169013193E7D0F8380403682A46A5
:1042A0009B689847A8B14FF4007000214FF4007B41
:1042B000C3E74A46A16900F031FD40B2002808DB9F
:1042C00002D0206AA1697CE794F8313013F0500FD6
:1042D00014D194F832304FF0FF3043F0020384F8E9
:1042E000323003B0BDE8F08F94F8313019073FF554
:1042F00049AF54E7161A52E74FF00008C8EB060022
:1043000003B0BDE8F08F00BFF0B583B001220DF11E
:1043100007010446D0E900678569FFF725FF0128FA
:1043200008BF9DF80700A56118BF4FF0FF30C4E932
:10433000006703B0F0BD00BF2DE9F04F90F831E009
:10434000856983B00446BEF1000F1BD0D0E900019F
:10435000994208BF904216461F463BD056EA0703D3
:1043600007D10023A3610120C4E9006703B0BDE8C1
:10437000F08F1EF0080F0AD0D4E90423BB4208BF17
:10438000B24204D2A561002003B0BDE8F08F236AD9
:10439000019393F83DC494F833A00CF1090C5FFA33
:1043A0008CFC16F1FF3247F1FF33CCF1200803FA01
:1043B00008FB22FA0CF242EA0B02ACF1200B23FAC2
:1043C0000BF31AF0400F42EA030205D0E3691A44E6
:1043D000A261C8E70120D7E710F1FF3941F1FF3AA8
:1043E00029FA0CFC0AFA08F84CEA080C2AFA0BFB2A
:1043F0004CEA0B0C6245534617D21EF0400F16BF15
:10440000019BE369D3F82C34A361904604F11809A9
:104410004A46B8F1000FA6D0A169206A00F07EFCE0
:1044200008F1FF380028F3D1ACE750EA0103E4D0EB
:10443000CCEB0202E9E700BF2DE9F04F0E4693B046
:1044400090F831100092054629B99A4696F8313015
:1044500013F0500F07D1002085F8310085F83300A4
:1044600013B0BDE8F08F1C9B03F00303012B06D0B3
:10447000022B00F00981002BEDD1012300E0022383
:104480001C9A02F0080213430193009B002B00F0DA
:10449000FD8018460022514600F0A8FC96F8313005
:1044A00002904BB1D6E90023134305D0002200232C
:1044B000C6E900230021B161B84A0AF10E0382FB6C
:1044C00003121A44DB17C3EBE203DBB24FF000091F
:1044D000039302335FFA83FB4C464F4620220AA91E
:1044E0003046FFF741FE00283DD02028B3D19DF88B
:1044F00028301A0666D4002C61D13268B169079160
:10450000203A08920134E4B26BB3C02B00F09380E0
:10451000C12B62D0852BE1D138220021284607F03B
:104520009DFE9DF82C309DF8292085F83020D80676
:1045300003F0370258BF42F0080285F83120336893
:10454000316AB2696A62203B2962AB6296F8333005
:10455000C3F3801385F82C3020220AA93046FFF7D8
:1045600003FE0028C1D11C9B99057FF574AF019B08
:104570009A077FF570AF009B002B3FF46CAF5C4552
:104580000CD386E020287FF466AF24B93268B16985
:104590000791203A0892DCB2A3457AD920220AA9D1
:1045A0003046FFF7E1FD631C0028EBD13046B769C8
:1045B00000F088FD00283FF44EAFB761ECE75C45A2
:1045C000A2D29FE7B9F1000F9FD15C4538BF00240C
:1045D000852B83D14FF001099EE7C7EB0A085FFAEC
:1045E00088F8B8F10F0F28BF4FF00F0843463A463E
:1045F00000990AA800F018FC00283CD04744FFB2FC
:10460000BA457FF46BAF1C9B1B053FF524AF1C9B89
:1046100013F4884F40F0A08095F833309F0700F1E5
:104620009B801C9B5B053FF516AF1C9B580400F15B
:10463000B780012014E79DF82930019A85F83320CE
:10464000990703D542F0400385F83330DDE90C23A8
:10465000DDE91001C5E904230F9BEB61009BC5E96F
:104660000201002BCFD09DF82B30534505D04FF0E1
:1046700000094F4632E7814630E7BDF82C30029AF8
:104680009342F4D1002729E70323F9E6009B029324
:1046900012E796F833303822C3F3801300212846FE
:1046A0000DF11C088DF8243007F0D8FD039C336A07
:1046B000CDF80CA098E8070004F10109082485F85A
:1046C00031400AF11E0705F12404DDF800A02B6239
:1046D0005FFA89F984E80700FFB200261846012234
:1046E000414600F0D5FA044600283FF4B4AE90F9F4
:1046F0000030002BFFF6AFAE2022002107F0AEFD08
:10470000002E66D0012E54D0C6EB06130F2FA3F156
:104710001E034FF0C102394628BF0F21DBB22270C1
:1047200051B1023409B204EB4101534413F8012B97
:1047300024F8022BA142F9D10136F6B2B34529D9AA
:1047400020224146286A00F0BDFA01287FF483AE9A
:104750000F3FFFB2286AC2E795F8313013F0110F0E
:104760007FF479AE1C9B5E057FF55FAF95F8333023
:104770009C077FF570AE002200232846FFF7DCFD82
:1047800000283FF468AE284600F058FD00283FF4AA
:1047900062AE4EE7284600F065FC61E689888888AD
:1047A000D5E904232846FFF7C7FD00287FF441AF71
:1047B00051E6C0232370019B032263F03F03627024
:1047C00085F833309DF80C30E370BDF80830A380D5
:1047D000B2E7852323700C4B85F8309084F8019064
:1047E0001B68002BA8D00DF117020DF11A0106A8C5
:1047F00098479DF81710BDF81A20BDF8183021759C
:104800002281638198E700BFE4DC01202DE9F043B9
:10481000064695B096F83140039200208DF8490085
:104820008DF84A008DF84B0034B9994691F8313033
:1048300013F0500F0D4603D1002015B0BDE8F083F2
:1048400013782F2B144632D04FF00008214603ABCB
:1048500004AA3046FFF726FC0028EDD0039B1B7806
:10486000002B39D09DF81030059ACDF800802946EC
:104870003046FFF7E1FD0028DED0344606AF06F1F2
:10488000300E20686168A268E3683D460FC51034A9
:1048900074452F46F5D120682860304600F0E2FBD1
:1048A00006AD86F8318086F83380039CCEE701346C
:1048B000039421782F29FAD0D1B1382206A80021FB
:1048C0002F6A07F0CBFC4022012306AD0E978DF82E
:1048D00049208DF84B30B7E79DF81030059ACDF898
:1048E000009029463046FFF7A7FD15B0BDE8F083DC
:1048F000382230462C6A07F0B1FC40230120346294
:1049000086F8313086F8330097E700BF19B101F51A
:104910008861FFF77BBF0846704700BF10B500F104
:104920000C0204464068A16803689B69984718B167
:10493000237823F00103237010BD00BF00224FF045
:10494000FF33027083607047F8B54568FDB1836836
:104950008B42044617460E460ED00378DA0712D46F
:10496000BB0716D504F10C0507F001020023134321
:1049700023702846A660F8BD10F90C3B07F0010231
:1049800013432370F8BDFFF7C9FF0028E8D10020CA
:10499000F8BD6068036804F10C059B682A4631463F
:1049A00098470028E0D1F2E738B50C46D0F81C143F
:1049B000154601EBD41100F503700022FFF7C4FF88
:1049C00040B1A400C4F3080403595A1C04D02B605E
:1049D000012038BDFF2038BD002038BD38B50C4659
:1049E000D0F81C14154601EBD41100F50370012218
:1049F000FFF7AAFF034628B1A400C4F3080401206E
:104A00001D5138BD38BD00BF0378DB0701D401203C
:104A10007047FFF783BF00BF2DE9F84F80469146EE
:104A20008B46002944D08F1ED8F828349F423BD2B1
:104A300007F00705012303FA05F5EDB2C7F3C80A2D
:104A40003E463C46D8F82414002201EB143140467F
:104A5000FFF77AFFC0B110F80A100AE04A452AD0E1
:104A6000A74210D0D8F82824944217D213F0FF059B
:104A70000CD001340D424FEA4503A4EB0602EDD001
:104A8000A7422646EED10120BDE8F88F0AF1010ABF
:104A9000BAF5007F4FF00105DDD101E00026344674
:104AA0004FF0000A0125CDE70027BA460125C7E7E8
:104AB000D0F81874B8E7BBF1000F04D1B9F1010FB9
:104AC00008BFC8F81864B01CBDE8F88FF8B50446F4
:104AD00000234FF0FF3600F50377C0F8381441602B
:104AE000C0F810121546384684F83C34237084F818
:104AF0000C32A660C4F814621A461946FFF724FF68
:104B0000042D0CD8064650B15DB905222649F01C8B
:104B100007F084FF18B996F86C30092B19D00020E3
:104B2000F8BD6B1E00EB031393F8BE2112F07F0259
:104B3000F5D193F8C231002BF1D000EB05153846C2
:104B4000D5F8B6512946FFF7FFFE06460028DCD10E
:104B5000E5E7336D2B44C4F81C34736DC4F820347E
:104B6000B36D1D44C4F82454F36DC4F82834336E77
:104B7000C4F82C3496F86D3084F83D34012509339F
:104B800005FA03F35A1EC4F818040146C4F8343475
:104B9000C4F8302420462A46FFF73EFF402384F81D
:104BA0003C342846F8BD00BF8C3501002DE9F047A4
:104BB00002398046D0F8280415468A18824238D82F
:104BC0009A46D8F81834BAF1000F35D1994238BF57
:104BD000C8F8181401F007040122D8F8243402FAA6
:104BE00004F4E4B203EB1139C1F3C80601224946CB
:104BF00040469144FFF7A8FED8B1871900F5007030
:104C000017F8012B224214BF01260026564582EADE
:104C100004024FEA44040CD0013D07F8012C15D0E2
:104C200014F0FF04EED1B84226464FF00104E7D15C
:104C3000DCE70020BDE8F0879942CBD89A42C9D979
:104C4000824228BF0022C8F81824C3E70120BDE82B
:104C5000F08700BF70B582B002AE054646F8041D6D
:104C60000024D5F8283401990133994202D9002053
:104C700002B070BD32462846FFF796FE40B20028CB
:104C8000F5DB04F10104ECD1204602B070BD00BF99
:104C9000F8B50E4696E82800D0F83014D0F8244431
:104CA00090F83D742940023B04EB5121BB4019446C
:104CB00000F50370FFF748FE18B17368C3F30803EB
:104CC0001844F8BD70B54C680D46A318D0F83014E0
:104CD0006B6090F83D340C4009332244DBB222FA79
:104CE00003F406463CB12B7A3BB12B6801332B60B1
:104CF000013C002CF7D1012070BDD6F8283429687A
:104D00000133994202D94FF0FF3070BD2A46304638
:104D1000FFF74AFE40B20128EAD070BDD0F828342F
:104D200001338B4201D2FF207047FFF73DBE00BF29
:104D300001290DD9D0F828340133994210B403D990
:104D400000205DF8044B70475DF8044BFFF746BE4A
:104D500000207047F0B50C4683B005460E46D5F8E6
:104D6000283401339C4202D9002003B0F0BD01AACF
:104D700021462846FFF718FE47B2002FF4DB012C2E
:104D8000F2D9D5F8283401339C42EDD800222146CF
:104D90002846FFF723FE0028E6D0019B01349C4201
:104DA0000BD1002FDBD13B46A21B31462846FFF733
:104DB000FDFE0028D8D003B0F0BDA21B3146002371
:104DC0002846FFF7F3FE0028CED0019C002FCCD060
:104DD0002646C4E710B50446D0F82C14FFF73AFF76
:104DE00094F83D340933DBB2984010BDC9B110B41A
:104DF0000144D30343EA520310F8012BA2F16104EA
:104E0000192C9CBF203AD2B212FA83F292B2D30389
:104E100043EA5202814292B2EBD110465DF8044B54
:104E200070471046704700BF43B370B444887E2C6F
:104E30001ED81344CD180A44023012F8013BE4B2E4
:104E4000A3F161011929A4F1610194BF2026002674
:104E5000192994BF202100219B1B641ADBB2E4B204
:104E60009C4205D1AA4206D030F8024F7E2CE4D9EC
:104E7000002070BC7047012070BC70470120704753
:104E80008169F8B50446006A01B101310122FFF7DA
:104E9000C3FD012806462FD9012301461A46206A80
:104EA000FFF784FE074638B3A06994F8333030B377
:104EB0005A0613D5421C964225D023F0400284F8AE
:104EC0003320E36905E0206AFFF732FFA0B1A06953
:104ED0002B465D1C834219462A46F4D34FF0FF321D
:104EE0003146206AFFF724FF30B1A16959B132463B
:104EF000206AFFF71DFF30B900273846F8BD43F0A0
:104F0000400384F83330A6613846F8BD2DE9F04FF0
:104F100000F1240B06469BE8070087B00DF10C0852
:104F200088E807000027BA463C4600224146306A1E
:104F3000FFF7AEFE5FFA87F9054630B10278C02A66
:104F400052D0C12A0BD0852A29D096F8323043F0AE
:104F5000010386F83230002007B0BDE8F08F10461C
:104F600000216A5CE30343EA540412FA84F4012941
:104F7000A4B201F101010DD01F29F2D9CA4551D0C7
:104F800020224146306AFFF79DFE012807F1010704
:104F9000CBD0DAE785280CBF04210221E1E7304BB2
:104FA00096F831101B6890F801A001F0370181805C
:104FB000002BD4D0316A91F80C2242F0010281F822
:104FC0000C2202A80DF107020DF10A019847BDF865
:104FD0000A20BDF808309DF807106975AA812A8259
:104FE000EB816B822878BBE796F8333013F0400FE3
:104FF000437814BF43F0020323F002034370D6E961
:105000000423C0E90223D6E90223F1694161C0E922
:105010000623326A92F80C3243F0010382F80C3214
:1050200000789DE759460122306AFFF731FE0028DB
:105030008BD0356A44802846FFF7E6FC002884D0F0
:1050400005F50370FFF7E0FC00283FF47EAFD5F8CC
:10505000380403685B69984700283FF476AF7BE724
:10506000E4DC012090F8312092B138B590F833207B
:1050700011060FD4056A04462846FFF7C5FC88B917
:1050800094F8323043F0010384F83230002038BD08
:105090000120704702F07F0280F83320BDE83840DD
:1050A000FFF734BF05F50370FFF7AEFC0028E7D02B
:1050B000D5F8380403685B6998470028E0D00120E0
:1050C00038BD00BF2DE9F04190F831305906044653
:1050D00063D48068236AD3F834341844B0F1806F05
:1050E00002D30020BDE8F0812046FFF7C9FE00286A
:1050F000F7D0266A96F80C32DA0706F5037550D415
:10510000284606F50676FFF719FC4FF400720021D9
:10511000304607F0A3F8226AA36992F83D04D2F85A
:105120002414A3F10208012708FA00F817FA00F383
:10513000884418BF002511D0D2F83804036808EB62
:1051400005019B693246984701350028C9D0226A7B
:1051500092F83D3407FA03F3AB42EDD894F83130BE
:105160005B0615D494F8333063F07F0384F8333052
:10517000D2F83464D4E90223D4E9040192194FF03F
:1051800000077B4180197941C4E90223C4E9040185
:105190002046BDE8F041FFF765BF006AFFF71AFE41
:1051A00098E72846FFF730FC0028A9D199E700BF0F
:1051B00052EA030103D090F83310890701D400208C
:1051C0007047C1690029FAD12DE9F8430646006A03
:1051D0001D4690F83D34093312F1FF38DBB245F13A
:1051E000FF39C3F1200709FA07F7144628FA03F23A
:1051F000203B3A4329FA03F31A43571C3A46FFF778
:105200000BFC0128804606D901463A460123306A44
:10521000FFF7CCFC10B90020BDE8F88396F83330D6
:10522000C6F81C8063F03F0386F83330C6E90245B8
:105230003046BDE8F843FFF715BF00BF90F83330A4
:105240009A0718D5F0B5C56983B08DB103F0400356
:10525000044603F0FF0083B9A169002941D10195FB
:10526000E1612946206AFFF775FD30BB002000E0B0
:10527000012003B0F0BD00207047206AA16990F8BA
:105280003D34D4E902670933DBB216F1FF36C3F1CE
:10529000200E47F1FF3726FA03F207FA0EFE203BF5
:1052A00042EA0E0227FA03F31A430132B1B1013D7B
:1052B0006D1A01312A4401910ABBD4E9000194F826
:1052C000333063F07F03C4E90201C4E9040184F8C8
:1052D00033302046FFF7C6FE03B0F0BD0195E16113
:1052E000EAE702AA42F8040D206AFFF717FD40B270
:1052F0000028BBDB0AD1019D002DDED0B1E70023E1
:105300000199FFF753FC0028D7D1AFE74FF0FF32E8
:10531000A169206AFFF70CFD0028ECD1A6E700BFC9
:105320002DE9F04F90F8333085B09C070646019286
:105330000AD496F8323043F0010386F832304FF049
:10534000FF3005B0BDE8F08F1A078A4600F11281E0
:10535000019B002B00F022813146F1E80623DDF8A5
:10536000048003919346306AB569D0F830445B46B7
:105370001C40C4F308094CBB002D00F0BE8096F819
:1053800033305B0640F1DD80D6E9022390F83D74AE
:105390000937FFB212F1FF3243F1FF33C7F1200E9C
:1053A00003FA0EFE22FA07F1203F23FA07F741EA3B
:1053B0000E01F36939430B449D42C0F0B58030467D
:1053C000FFF75EFD0028B4D0306AB569D0F82474C8
:1053D00090F83DE4640A023DE11905FA0EF529440E
:1053E000B9F1000F40F08280B8F5007F57D2D6E9BE
:1053F0000423D6E90045B8F5007F474628BF4FF49F
:1054000000779D4208BF944234BF0122032200F579
:105410000370FFF799FA00288BD048443A4651466A
:10542000B94402F043FFB9F5007F00F0928038469E
:105430000021D6E90023D6E9044512EB000B43EB2B
:10544000010C65455A46634608BF5C45BA44C7EB44
:105450000808C6E9002309D296F8331064465B4673
:10546000C6E9043461F07F0186F83310B8F1000F0B
:105470007FF479AF5A466346D6E90201994208BFE4
:1054800090427FD3474B1B68002B00F0858096F835
:105490003330019863F07F0386F8333051E7B8F575
:1054A000806F2ED3012303FA0EFEC4EB0E0ED0F84C
:1054B00014324FEA5824744528BF744699424FEA83
:1054C000442709D862189A4206D900F50370029160
:1054D000FFF734FA306A0299D0F838040568234699
:1054E0005246EC69A0470028A1D122E7C9F5007710
:1054F000474528BF4746012289E7F569BDB1B56137
:1055000064E7D0F8143299422CD0D0F838040368FC
:1055100052469B69984700283FF40BAF4FF4007048
:1055200000214FF4007784E70135B5614EE730463E
:10553000FFF7A6FC00283FF4FCAEB569F561306AC0
:1055400044E72946039AFFF7E9FB00287FF43CAFC4
:1055500035E7306A00F50370FFF756FA00287FF44C
:1055600066AFE6E600F503700291FFF7E7F9306AEF
:105570000299CAE7D0E90423FEF7DEFE00283FF4D3
:10558000D8AEE5E696F83310019861F07F01C6E9E0
:10559000022386F83310D4E60198D2E6D6E9002338
:1055A0006AE700BFE4DC012038B504460D4624223A
:1055B000002106F053FEA560EB79102B08D0202BBC
:1055C00004D1402301202370A07038BD002038BDD5
:1055D000202301202370A07038BD00BF024638B5DB
:1055E00052F8105F04462946806800F019FD50B15A
:1055F00055B123690135AB42A37818BF03F0BF034F
:1056000063F07F03A37038BDA37843F04003F7E74E
:105610002DE9F041037803F020032BB903F0FF04D8
:1056200041691F4B994203D900263046BDE8F081FD
:105630000546FFF7D3FF06460028F5D02969A8687C
:1056400000F07CFC0746A86839462430052200F0AB
:105650003DFC80460028E7D04FF40072214606F05A
:10566000FDFDAB681A79012A10D9012403E0AB686B
:105670001A79A2420AD918680368E1199B6942465F
:1056800098470134E4B20028F1D1CDE79B796969EC
:105690004FF4007202FA03F311FA83F36B61C4E76B
:1056A000FFFD1F0010B5044680680A462430A1693A
:1056B00000F00CFC20B1A38803F00F0300EB4310B3
:1056C00010BD00BF70B590F90230002B82B00446C7
:1056D00019DBA56805F1240000F028FC30B96378D7
:1056E00043F001036370002002B070BD05F50C703B
:1056F00000F01CFC0028F2D0286803685B6998471A
:105700000028ECD0F0E70121FFF7CCFF0546002888
:10571000E5D00378E52BE2D023780E4A1B0744BF7F
:10572000E369C361236A166843831B0C838266B1F5
:105730000DF103020DF1060101A8B047BDF80430D8
:10574000BDF806202B836B82EA82A37803F07F03E7
:10575000A370BEE7E4DC012010B50378044623B94A
:1057600000232370A370012010BDFFF7ABFF0023BF
:105770002370A37010BD00BF09B90020704738B571
:1057800083789B0701D4002038BD036A002BFAD12F
:1057900004468068837909330D46DBB20139D9406C
:1057A000013104F1200200F07DFC0028EBD0A37849
:1057B0002278E56163F01F03A37002B938BD20466B
:1057C000BDE83840FFF77EBF2DE9F041064692B0B4
:1057D0003578019200208DF824008DF825008DF891
:1057E00026002DB998460B7813F0700F0C4603D1A4
:1057F000002012B0BDE8F08113782F2B104625D081
:10580000002703E001983770B77009AC01AA03A91B
:1058100000F058FD03AA214600230028E8D0019D8E
:105820002D7830460DB300F0CFFE354609AC002888
:10583000DED00FCD0FC40FCD0FC433782A6822609D
:10584000002BDFD03046FFF73DFFDBE70130019052
:1058500003782F2BFAD08BB1A16809A8FFF7A4FE1B
:105860000028C5D0019809ACCAE7434603AA2146DF
:10587000304600F0A9FE12B0BDE8F081A1683046C4
:10588000FFF792FEB5E700BF19B101F23C41FFF707
:105890009BBF0846704700BF03780BB100207047DC
:1058A000FFF782BE2DE9F04F8378DF0783B005460E
:1058B00040F18F800F4601780E07914600F19280EB
:1058C0008C0608D5826843691289C3EB42139BB2E8
:1058D000994528BF9946B9F1000F00F0A9806B697E
:1058E000AA6888064E464FF0000805F1100AC3F377
:1058F000080B3ED5116A01EB5321BBF1000F52D1C9
:10590000B6F5007F4FD3D36A99424CD0B6F5806F7D
:1059100071D3287880064FEA562B05D41079C8EB4E
:105920000000834528BF834699424FEA4B240BD899
:105930005B44994208D202F12400019100F0F6FA8A
:10594000002846D0AA680199106802685B46D2F820
:105950000CB03A46D84700283BD06B69361B23442D
:1059600027446B6164D02978AA688806C3F3080BC2
:10597000C0D492F8058008EA5328BBF1000F38D153
:10598000B8F1000F35D1002B3FD149064CBF116A49
:10599000296A2961104600F0D1FAAA6808EB0001D3
:1059A000BBF1000FACD002F12400002200F08EFA0F
:1059B00078B1CBF50074B44228BF344600EB0B013C
:1059C0002246384602F072FCC7E72B7813F0700FBE
:1059D0002FD16B784FF0FF3043F002036B7003B0B0
:1059E000BDE8F08FC36942699B1A994528BF994663
:1059F00071E72969CEE7106803683A469B689847C3
:105A00000028E6D04FF40074A7E70B0705D5AB7864
:105A10005C0602D529690131BBE710462969524667
:105A200000F092FA0028D4DBCFD0AA682969B1E748
:105A30000026C6EB090003B0BDE8F08F70B582B058
:105A400001220DF10701044646690569FFF72AFFA7
:105A5000012808BF9DF80700666118BF4FF0FF30AE
:105A6000256102B070BD00BF30B54369C3F3431573
:105A700083B0044605B189B901220DF10701204622
:105A8000FFF710FF40B201280BD163691F33636138
:105A9000A068303000EB451003B030BD20334361C7
:105AA000F6E7002003B030BD2DE9F0410378076927
:105AB0000446B3B142698A420E463AD041B92161E7
:105AC000A378666123F02003A3700120BDE8F08174
:105AD00018070AD499060BD5A3681B89B6EB431F98
